:04000000803116280D
:100008007E14803120007F08F0000B1F11282E007D
:10001800181B0E1F11288231BB2270082000FF0018
:100028007E10090080311828FC012000AB01AC01CA
:10003800AD01AE01AF01B0017E1020008231A32ACC
:1000480000340034003400344E34003406340034B4
:100058000634FF34FF34FF344834D63424341334A0
:100068006B346434FF34FF34FF3400340634003416
:1000780038344434823482344434383414340834C0
:100088003E34103438341034A03460340034103422
:10009800103410346034603400346034183406345A
:1000A8007C3442347C3444347E34403464345234B6
:1000B8004C344A344A343434383424347E344E345C
:1000C8004A3432343C344A34323462341A340634D2
:1000D80076344A3476344C3452343C346C346C3490
:1000E8000034AC346C3400341034283444342834AC
:1000F800283428344434283410340234593406342B
:10010800FF34FF34FF347C3412347C347E345A3468
:1001180034343C34423442347E3442343C347E34C9
:100128004A3442347E340A340A343C345234343447
:100138007E3408347E3442347E34423430344034A1
:100148003E347E34183466347E34403440347E3451
:100158001C347E347E3402347E343C3442343C34A5
:100168007E3412340C347E346234FE347E343234BD
:100178004E3444344A34323402347E3402347E34C9
:1001880040347E343E3440343E347E3438347E3419
:100198006634183466340E3470340E3462345A348B
:1001A800463400347E3442340634183460344234E1
:1001B8007E3400340434023404344034403440344F
:1001C8000034023404347434543478347E3448347B
:1001D8003034303448344834303448347E34383459
:1001E800543458347C340A3402349834A4347C347B
:1001F8007E340834703448347A3440348834FA34DD
:1002080000347E341834643442347E3440347C34D0
:1002180038347C347C3404347834383444343834D6
:10022800FC342434183418342434FC34783404343A
:10023800043448345434243404343E3444347C3450
:1002480040347C343C3440343C347C3430347C346A
:100258006C3410346C349C34A0347C34643454349E
:100268004C34FF34FF34FF34FF34FF34FF34FF34A1
:10027800FF34FF34FF34FF34FF34FF34FF34FF34DE
:10028800FF34FF34FF340C3412340C34FC34403463
:100298007C34FF34FF34FF34FF34FF34FF344634FA
:1002A800553443344B342134213400342000A50024
:1002B800A601A7012708803AA00080302002031D6C
:1002C8006729033026020318A12920002508E03EEB
:1002D800F100FF3003180030F2000330F300003063
:1002E800F40082313422813124302000A000803093
:1002F800A10071082007A2007208213DA30022086E
:10030800260784002308273D85000008A400240848
:10031800F700013082310F22813101302000A60719
:100328000030A73D2708803AA00080302002031D36
:100338009F2903302602031C6929F7010130823105
:100348000F220800200011119111111211109110A3
:10035800961116121611161016142130A000200836
:10036800F700003082310F228131BB302000A0001D
:100378002008F700003082310F228131043020003C
:10038800A0002008F700003082310F22813114309C
:100398002000A0002008F700003082310F228131B0
:1003A80020302000A0002008F700003082310F2202
:1003B80081310C302000A0002008F7000030823185
:1003C8000F2208002000A401A5012508803AA300F7
:1003D80081302302031DF229F83024020318092A68
:1003E800F701013082310F22813101302000A4074A
:1003F8000030A53D2508803AA30081302302031D63
:10040800072AF8302402031CF4292000A001003038
:1004180082317B220800F9007708F8007808FA0092
:100428007908031D1A2A200016111C2A2000161507
:100438009610FB0108307B020318322A9611FA1F26
:10044800262A961516160310FA0D16120130F80012
:100458007808FB0708307B02031C222A9614080040
:10046800F501F601711C3C2A7308F5077408F63D7E
:100478000130F335F40D890B3D2A0130F236F10CC9
:10048800890B422A71087204031D362A7608F20085
:100498007508F10008002000280884002908850054
:1004A8001200031908002000280884002908850084
:1004B800000881315A21823101302000A80700301C
:1004C800A93D4F2A8231902282318231B222823173
:1004D8008131A621823162302000A6006530890B67
:1004E800732AA60B732A00328131E6210800200006
:1004F800A20022088038A1002108F70000308231CC
:100508000F228231200020084038A1002108F7007E
:10051800003082310F2208002000960197019801CF
:100528009101920193013E00B801C301CE01E5019A
:10053800C401B901CF01BA01C501D0010800823157
:10054800662282318B170B1753302000A8008130A8
:10055800A90082314F2282316400A82A603031001C
:100568008D008F01910102309300920108002E0046
:040578000E13080056
:020000040001F9
:0A000E00EC3FFF3BFF3FFF3FFF3FC9
:00000001FF
