:020000040000fa
:080000000002040000000000f2
:020000040000fa
:100008009a0200009a0200009a0200009a02000078
:100018009a0200009a0200009a0200009a02000068
:100028009a0200009a0200009a0200009a02000058
:100038009a0200009a0200009a0200009a02000048
:020000040000fa
:020000040000fa
:10040000ef9020000eff20000e0188000000000089
:10041000000020000000e000020032000001200087
:10042000200288000c00070040a3220001002000e9
:1004300011000700000020000000e0000200320070
:1004400000000200000000003e0e0200000000005c
:100450000040da000000fe004440a900c072200005
:100460000000e0000300320000002000a00188002e
:100470004440a80000000600910188008000780038
:100480000000eb0015003700e280400032a0b4000d
:100490009101ba00e280400032a0b4009102ba009b
:1004a000e280400032a0b4000002eb00472bde00e7
:1004b000f507b200602ce10004003a000059eb009f
:1004c0008301e900fdff3e00040037006128e100e0
:1004d000010032000082eb00040007001101ba00a5
:1004e0000200e000e8ff3a00000006003159ba00bf
:1004f0008301e9000c0032002159ba008301e900b0
:10050000080032000400e00003003a00e2804000ee
:1005100032a0b400f5ff370011d9ba008301e90019
:10052000faff3a008100e800e180400032a0b40008
:10053000000006000040da000000fe0003f0a20008
:10054000889fbe008a9fbe008c1f78001b01070099
:10055000220133006450e1004f0032006420e100ca
:100560005200320003826c0007003b000905d000f6
:100570000306d000820f54000c065d000200390013
:100580000200320089017800030678008582550058
:1005900004003d000003fd008103fd008502ea0028
:1005a0008b854200840f720002003b006000100047
:1005b000e08018006011b8000005eb007a28e10027
:1005c0000a00390006007800c75ddd00f707b200b9
:1005d000878075002d003700828171000a01780044
:1005e000610560008180d1000080d3008502e900b0
:1005f000f9ff3b00060440008784480002003b00ee
:1006000060041400e0841c000988a3000700320085
:100610008a81710082817100610164008904d100c6
:100620000884d3008b05e800170037000978a30081
:1006300013003a000b00e000130034008b05e900c2
:100640000804440089844c000a4474000978a3001b
:100650000d003a000b00e000070034008b05e900b4
:100660000804440089844c0001003a000b0020007b
:100670000978a300f7ff32000001eb000200370009
:10068000828171000a017800910007000cf0a70038
:1006900001f0a000da0037006420e10002003a0017
:1006a000838f6c00da0033000801be000200be0038
:1006b000d3003700889fbe008a9fbe008c1f780041
:1006c000be000700c500330003866c006450e100e3
:1006d0002e0032006420e100330032006150e1005e
:1006e0002f0032006120e100310032008585550085
:1006f000eb07b000090020000804200005003700c7
:100700000804440089844c000a00310006034300b9
:1007100087834b000001530081815b00f8ff3300a9
:100720000203be000800a0000804440089844c00b5
:10073000f6ff3900c639dd00830173000100320085
:10074000130020008904d1000884d3000998a30075
:10075000050032000800a7000300a0008904d100b2
:100760000884d3008b05e8008904d1000884d300f5
:100770000001eb000281d2005500070001f0a1004a
:100780000cf0a70001f0a0009d0037006420e100fc
:100790009f0032000801be000200be00f7ff3700d4
:1007a0006120e1009a0032006000b800f3ff3700da
:1007b0000000200001f82700f0ff3700140020009f
:1007c0003e013700f4ff2f003c0137000001be005e
:1007d000650007000470a70003f0a1006509b100df
:1007e000160032000d0035006828e10006003500d3
:1007f000f0ff2f00f1ff27000300e00013003b0093
:100800000100280000000500000040008180480031
:100810008502e900fcff3a0008003700f88f42002b
:1008200002003c008000eb00000005008100d100c8
:100830000080d3008502e800fcff3a000300e000de
:1008400002003b0060001000e0801800000006007d
:100850000001be00440007000470a70003f0a100df
:1008600003f8a30013003a006509b100100032003c
:10087000090035006928e100020035000100280068
:100880000000050000004000818048008502e9006a
:10089000fcff3a0000000600f88f4200050035001a
:1008a0008100d1000080d3008502e800fcff3a00ff
:1008b000000006008000eb00000005004f89de000c
:1008c00082017800180137006011b8002601370056
:1008d00081002000618055000b003d000b002000ce
:1008e00061fe2f000100e1001d00340082817100d3
:1008f000610164008904d1000884d3000000e8008d
:10090000faff3a00710020006100640003007000eb
:10091000020060000900320061044400e0844c00e1
:100920000988a500050032008b05e8006808e10091
:1009300002003a008904d1000884d300f20f20009d
:100940000258e10005003d00c75ddd00f907b20077
:100950008980750008007800000006000bf8270069
:100960008b00780000000500c70ade00f107b20026
:10097000f50fb20008003200e1cf42000200320061
:100980000170a00024000500810f700001003200fa
:100990000408050044000500810f700002003a00c1
:1009a000140005008502e9000000400081c04800f5
:1009b000fcff3b000170a000240005000004be0005
:1009c000e9ff07000003be000405be000200be00f0
:1009d000e5ff0700844f7500000006000200be001e
:1009e0006450e100050036006420e100020036009a
:1009f0000968a30001003a000800be000160a000e1
:100a00004f0678004f05be004f04be0000000600f0
:100a1000f0ff2f00f1ff2700f9ff3700889fbe008d
:100a20008a9fbe008c9fbe00970007008504780057
:100a30000005be006420e10049003e006220e100a4
:100a400003003200090035000bf8a3004400320017
:100a50000bf8a30008003200100220006048880054
:100a6000f0ff2f00f1ff27003d00370001f82f00b5
:100a7000000020003a0037003d000700affe0700ed
:100a80000006be000a00be00324f200053f32300d0
:100a90004cff0700060034000c00be0034000700c5
:100aa000a6fe07000006be000a00be0002003700d6
:100ab0008904e9000c00be002d0007002e0007008d
:100ac0002b0007009efe07000001be000c00be00c8
:100ad000f8fe07000005be000001be00260007006a
:100ae0000006be00a2f32300430d2c0094fe070075
:100af000809fbe000c00be00d2e32700d3f02b0085
:100b00001d0007004f01be00eafe07000006be0000
:100b10000a01be00180007000a01be0088fe070097
:100b20000006be006148b90064ff07000005be0072
:100b300032082800e3952b000f0007000c01be00cf
:100b40007ffe07000006be000a00be00020028006b
:100b500013f32300080007000c01be0078fe070015
:100b60004f06be004f05be004f04be000000060049
:100b700003f0230002000500889fbe008a9fbe008c
:100b80008c1f78008dff070094ff330003866c00f4
:100b90006450e100240032006420e10027003200ac
:100ba0006150e100220032006120e10021003200aa
:100bb0008b854200eb07b1000134b800003ab80061
:100bc0000804420089844a00013ab8000030b800a5
:100bd0008880400009014a00040033000000400002
:100be00081804800020149008b05e900c909dd0048
:100bf000830170000100320013002000c814de00e1
:100c00004814dd004709de001200b200c808de000b
:100c1000088470002eff070001f0a1000cf0a7006f
:100c200001f0a00076ff37006120e10078ff32007c
:100c30000801be000200be00f7ff37006150e1006e
:100c4000fcff3a0072ff37006022b8000602200065
:100c50000000d0008180d2000482d2008582d200c0
:100c60000000a0000202520083825a0003003100fb
:100c70000202420083824a000000a1000603e9004c
:100c8000f3ff3a00000006000003be0036ff070035
:100c90006220e100020032000600be0005000500ef
:100ca000e507b100f107b20004f023008480700072
:100cb00007f0a70001f0a00024000500889fbe00f7
:100cc0008a9fbe00841f78003cff07004f00780019
:100cd00011003300f0ff2f00838f6c0006003b00f3
:100ce000040565000a00a7000800370009f0a60007
:100cf0001000200008003700820f5400838f5c0032
:100d0000030039001000200001003e000000200018
:100d100009f0a7000000ea004f05be004f04be0026
:100d20000000e00000000600881f7800030478003f
:100d30000300e00007003d0060001000e0801800a4
:100d400060011900e081190002003b0001f02d0054
:100d5000030037000400070008f0a70001f0a0001e
:100d60004f04780000000600889fbe008a9fbe00e6
:100d700000827000040271000482710026003200bb
:100d80000004be000200be006011b8006b09200024
:100d9000950220000182cf000a0039000541b10010
:100da0000082cf00070039000541b1000982cf0061
:100db000040039000541b1000882cf00010039006c
:100dc0000541b10005425200120032000a003b000a
:100dd00082817100610164008100d1000080d30034
:100de0008984d3000884d3008b05e8000442e8001e
:100df000f7ff3a00070037000804440089844c00dc
:100e000000004800818048008b05e9000442e900a9
:100e1000f9ff3a00aefe07004f05be004f04be00ca
:040e200000000600c8
:020000040000fa
:100e2400ff810000ddd50000f5810000fdd5000044
:100e3400c581000085fd000085810000ff81000060
:100e4400fdb50000cd810000fdd50000c581000086
:100e5400ddd50000f5810000fdd50000c58100004e
:100e640085fd000085810000ff810000ddd50000c4
:100e7400f581000085fd000085810000fdd500009e
:100e8400d5810000f9ad0000f9810000fd99000052
:100e9400fd810000ffff00000101000001010000ce
:100ea4000101000001010000010100000101000036
:100eb4000101000001010000010100000101000026
:100ec40001010000010100000101000081c10000d6
:100ed400c1c10000810100000101000081c10000c6
:100ee400c1c10000c1010000c1e1000061e10000d6
:100ef400c181000001810000c1c1000081810000a6
:100f040001010000010100000101000001010000d5
:100f140001010000010100000101000001010000c5
:100f240001010000010100000101000001010000b5
:100f3400010100000101000001010000ffff0000a9
:100f4400000000000000000000000000000000009d
:100f5400000000000000000000000000000000008d
:100f640000c0000040e00000b0100000001c0000c1
:100f74003e7e00007f7f00007f7f00007f7f0000b7
:100f840000000000070f00000c0c0000040000002b
:100f9400070f00000c0c00000f0700001c1f0000ce
:100fa40007060000067000003c1f00000b1b000039
:100fb400e6f20000bc6c000038980000d0e00000ad
:100fc400b06000004040000000000000000000008d
:100fd400000000000000000000000000000000000d
:100fe40000000000ffff00000000000000000000ff
:100ff40000000000000000000000000000000000ed
:1010040000000000000000000000000000000000dc
:101014000d0f0000060700000300000000000000a0
:1010240000000000000000000000000000000000bc
:1010340000000000c0f00000771f0000c8c00000de
:10104400000000000000000000000000000000009c
:10105400000000000000000000010000010000008a
:10106400070700000c0c0000010100000000000054
:10107400000000000000000000000000000000006c
:10108400000000000000000000000000ffff00005e
:10109400000000000000000000000000000000004c
:1010a400000000000000000000000000000000003c
:1010b400000000000000000000000000000000002c
:1010c400000000000000000000800000808000009c
:1010d40080c00000c0c00000c0de0000fff10000be
:1010e400e0c00000e1ff0000dfc40000c0c0000059
:1010f400c0c00000c0c00000c0000000000000002c
:1011040000000000000000000000000000000000db
:1011140000000000000000000000000000000000cb
:1011240000000000000000000000000000000000bb
:1011340000000000ffff00000000000000000000ad
:10114400000000000000000000000000000000009b
:10115400000000000000000000000000000000008b
:10116400000000000000000000000000000000007b
:1011740000c70000cf9d000091b70000bfb8000079
:10118400e0c00000808000008080000080800000bb
:1011940080800000c0c00000e0b800009f8700000d
:1011a400c1c000006000000000000000000000005a
:1011b400000000000000000000000000000000002b
:1011c400000000000000000000000000000000001b
:1011d400000000000000000000000000ffff00000d
:1011e40080800000808000008080000080800000fb
:1011f40080800000808000008080000080800000eb
:1012040080800000808000008080000080800000da
:1012140080800000808000008080000081830000c6
:1012240083830000838300008383000083830000a2
:101234008383000083830000838300008383000092
:10124400838300008383000081810000808000008c
:10125400808000008080000080800000808000008a
:10126400808000008080000080800000808000007a
:10127400808000008080000080800000808000006a
:1012840080800000ff00000006000000080000004d
:101294000a0000000c0000000e0000001000000016
:1012a4001200000014000000160000005761000046
:1012b4007465000072200000546500006d70000029
:1012c4003a00000053740000656100006d200000c6
:1012d400546500006d7000003a0000004772000081
:1012e4006f75000070200000546500006d700000f0
:1012f4003a00000050720000657300007320000083
:10130400225300004554000022200000746f0000a6
:10131400205300006574000000740000686500003c
:101324002043000075720000726500006e740000b6
:1013340020540000696d0000650000005461000045
:101344006e6b0000204c000065760000656c0000a8
:101354003a2000002000000020200000202000008f
:10136400004c00004f57000000530000686f00005d
:1013740074200000546900006d650000723a00009a
:101384002020000000200000202000002020000079
:10139400004f00004e200000004f000046460000b1
:1013a40000000000ff8100008181000081810000b5
:1013b4008181000081810000818100008181000021
:1013c400818100008181000081ff00008181000093
:1013d40081ff0000cbc3000081fd000085f90000ff
:1013e40081850000bfc5000081b90000d5d9000087
:1013f40081f900008585000081ff000081810000e3
:10140400ffc30000bd810000b9c50000b981000020
:10141400fdb10000fd810000fd850000f9810000a0
:1014240081ff000081810000818100008181000032
:10143400fdc10000fd810000fda5000099810000b0
:10144400818100008181000081ff0000537500004c
:101454006e0000004d6f00006e0000005475000027
:101464006500000057650000640000005468000037
:10147400750000004672000069000000536100001e
:10148400740000004e5500004c0000004a4100006a
:101494004e00000046450000420000004d4100009f
:1014a4005200000041500000520000004d41000075
:1014b400590000004a5500004e0000004a55000043
:1014c4004c00000041550000470000005345000057
:1014d400500000004f430000540000004e4f000035
:1014e40056000000444500004300000028000000ae
:1014f4002a0000002c0000002e0000003000000034
:101504003200000034000000360000003800000003
:101514003a0000003c0000003e00000040000000d3
:1015240042000000440000004600000048000000a3
:101534004a0000004c0000004e0000005000000073
:101544005200000054000000560000005800000043
:101554005a0000005c0000005e000000224500000c
:101564006e74000065720000222000003d2000001f
:101574006e65000078740000204600006965000074
:101584006c64000000550000702f0000446e0000e1
:10159400207400006f20000063680000616e00008a
:1015a4006765000020540000696d000065000000bc
:1015b400262600000020000020200000262600002f
:1015c4002600000020200000202000002626000025
:1015d4000020000020200000002000002020000047
:1015e400262600000053000074610000727400009d
:1015f4002f530000746f000070200000666f00001d
:101604007220000000550000702f0000446e00009e
:10161400204b00006579000073200000746f000007
:1016240020630000686f00006f7300006500000015
:10163400456e000074650000722000004b650000d8
:1016440079200000746f00002053000065740000ce
:101654000053000074610000727400002048000010
:101664006f750000722000003d2000000053000050
:101674007461000072740000204d0000696e000067
:1016840075740000652000003d2000000053000038
:10169400746f000070200000486f00007572000035
:1016a400203d000000530000746f00007020000013
:1016b4004d6900006e75000074650000203d000057
:1016c4000000000001010000000000000000000014
:1016d400630c00001f060000173b00003b000000e5
:1016e400ff810000ddd50000f5810000fdd500007c
:1016f400c581000085fd000085810000ff81000098
:10170400fdb50000cd810000fdd50000c5810000bd
:10171400ddd50000f5810000fdd50000c581000085
:1017240085fd000085810000ff810000ddd50000fb
:10173400f581000085fd000085810000fdd50000d5
:10174400d5810000f9ad0000f9810000fd99000089
:10175400fd810000ffff00008181000083ff000085
:1017640083810000c9fb0000c1810000fdb90000b5
:10177400fd810000b9d50000d9810000ff8100007f
:10178400fdb50000cd810000fdd50000c58100003d
:10179400ddd50000f5810000fdd50000c581000005
:1017a40085fd000085810000ff81000081c50000e7
:1017b400cbb3000081850000bfc5000081e10000bb
:1017c4009987000081c50000cbb3000081fd0000b3
:1017d400a599000081810000ff81000081ff0000c5
:1017e400938d000081810000c3ff0000c3810000cd
:1017f40081ff0000c3bd000081810000ffff0000e5
:1018040081810000818100008181000081810000cc
:1018140081810000818100008181000081810000bc
:1018240081810000ff81000081810000ffcb000066
:10183400c3810000fd850000f981000085bf000020
:10184400c5810000b9d50000d9810000f9850000e8
:1018540085810000ff81000081ff0000c3bd0000fe
:1018640081b90000c5b9000081fd0000b1fd000090
:1018740081fd000085f9000081810000ff810000e6
:10188400818100008181000081fd0000c1fd000014
:1018940081fd0000a5990000818100008181000084
:1018a40081810000ff220000546900006d65000082
:1018b40022200000536500007473000020540000cf
:1018c400696d00006500000022530000545c0000b4
:1018d4005350000022200000666f000072200000b8
:1018e40041750000746f000020530000657400000f
:1018f400002200005049000044220000206600003d
:101904006f72000020540000756e0000696e0000c4
:1019140067000000504900004420000053650000a7
:1019240074740000696e0000677300002066000094
:101934006f72000000550000702f0000446e00001c
:10194400204b00006579000073200000746f0000d4
:1019540020430000686100006e670000650000001d
:1019640020200000224500006e7400006572000013
:1019740022200000746f0000204100006363000017
:1019840065700000742000000053000065740000be
:10199400506f0000696e0000742000003d200000bc
:1019a40000470000616900006e2000003d00000057
:1019b400496e00007465000067720000616c0000ed
:1019c400203d0000004400006572000069760000bc
:1019d4006174000069760000652000003d0000008d
:1019e400547500006e6900006e6700003f2000001f
:1019f4003d00000000000000000000004e00000058
:101a04000600000006ff0000ffff000048d60000ab
:101a140024120000082400002078000020000000a8
:101a240006000000384400008282000044380000b0
:101a3400140800003e10000038100000a0600000f0
:101a44000010000010100000606000000060000042
:101a5400180600007c4200007c4400007e40000028
:101a6400645200004c4a00004a340000382400004c
:101a74007e4e00004a3200003c4a00003262000000
:101a84001a060000764a0000764c0000523c000022
:101a94006c6c000000ac00006c000000102800001a
:101aa40044280000282800004428000010020000f8
:101ab40059060000ffff0000ff7c0000127c0000bc
:101ac4007e5a0000343c0000424200007e42000086
:101ad4003c7e00004a4200007e0a00000a3c0000ee
:101ae400523400007e0800007e4200007e42000066
:101af400304000003e7e0000186600007e4000007a
:101b0400407e00001c7e00007e0200007e3c00003f
:101b1400423c00007e1200000c7e000062fe0000c9
:101b24007e3200004e4400004a320000027e000073
:101b3400027e0000407e00003e4000003e7e000029
:101b4400387e000066180000660e0000700e00006b
:101b5400625a0000460000007e42000006180000a1
:101b6400604200007e000000040200000440000007
:101b7400404000000002000004740000547800009b
:101b84007e48000030300000484800003048000023
:101b94007e380000545800007c0a000002980000bf
:101ba400a47c00007e080000704800007a40000019
:101bb40088fa0000007e000018640000427e0000e5
:101bc400407c0000387c00007c0400007838000071
:101bd40044380000fc2400001818000024fc000015
:101be400780400000448000054240000043e00006f
:101bf400447c0000407c00003c4000003c7c000031
:101c0400307c00006c1000006c9c0000a07c000084
:101c1400645400004c0400000a040000ffff0000ac
:101c2400ffff0000ffff0000ffff0000ffff0000b8
:101c3400ffff0000ffff0000ffff0000ffff0000a8
:101c4400fc4000007cff0000ffff0000ffff0000dd
:101c5400ff0000004d5600000045000052520000f5
:101c6400005000000049000000440000004f000044
:081c740075740000000000007f
:020000040000fa
:101c7c004a00fa00889fbe00c70e07000d0d070032
:101c8c002a0d07000040eb00004f78000040eb00ed
:101c9c00004f78001a0037001e80fb0080004000c7
:101cac002095280000804000100078008e0e070060
:101cbc00800478001e80fb0080004000c094280047
:101ccc000080400010007800870e070000047800a8
:101cdc001e80fb00800040006094280000804000c3
:101cec0010007800800e0700800078001e407800fd
:101cfc008901780008017800180807001e4fe800d9
:101d0c001e407800e24f5000e3ff36000000eb006d
:101d1c00500798000040eb00104798000040eb0083
:101d2c00204798000040eb00304798000000eb0083
:101d3c00000f98000000eb00100f98000000eb0063
:101d4c00200f98000040eb00404798000040eb004b
:101d5c00404f9800f6004700080009008018eb007f
:101d6c000000eb00401798000000eb0050179800a3
:101d7c000000eb00601798000000eb0030079800a3
:101d8c000000eb00701798000000eb00001f98009b
:101d9c000000eb00101f98000000eb00201f9800c3
:101dac0040472000301f98000000eb00401f9800b7
:101dbc000000eb00501f98000000eb00700798002b
:101dcc000040eb00004f980051168000008020006e
:101ddc000080600000f0a7000000ea000000e900ad
:101dec004f00de00300f980051168000004020009c
:101dfc000080600000f0a7000000ea000000e9008d
:101e0c004f00de00400f98001116800000082000e3
:101e1c000080600000f0a7000000ea000000e9006c
:101e2c004f00de00500f980091168000002020001b
:101e3c000080600000f0a7000000ea000000e9004c
:101e4c004f00de00600f9800c00320000e00400021
:101e5c002e04070002802000c103200081004700ef
:101e6c00060009003119780090002000ca0d070007
:101e7c007a0c0700000f980092408000a34080006d
:101e8c004e4090000080fb0080004000e08120006c
:101e9c000080400010007800cf80de000000510070
:101eac008180590090408800a14088004e409000ed
:101ebc000080fb008e08900000014000e0812000b3
:101ecc00000041000108780092408000a34080008f
:101edc004e4090000080fb0080004000e08120001c
:101eec000080400010007800cf80de00020040002f
:101efc008380480090408800a1408800904080007a
:101f0c00a1408000a2002000030020004bfb070032
:101f1c0000007800000f98008e089000d0428000de
:101f2c00808f500004003600d04280000000e80092
:101f3c00d04288000a0037008e089000d042800002
:101f4c00808f500004003100d04280000000e90076
:101f5c00d042880002003700d0428000d042880076
:101f6c000000eb008c0d0700e50b070035fa0700ad
:101f7c0000007800100f9800b2408000c340800031
:101f8c004e4090000080fb006a0040008000400042
:101f9c00e08120000080400010007800cf80de003f
:101fac000000510081805900b0408800c140880079
:101fbc004e4090000080fb009e0890006a0040009c
:101fcc0000014000e0812000000041000108780081
:101fdc00b2408000c34080004e4090000080fb0067
:101fec006a00400080004000e0812000008040003a
:101ffc0010007800cf80de00020040008380480093
:10200c00b0408800c1408800b0408000c1408000d2
:10201c00a20020000300200008fb0700000078004d
:10202c00e0428800400020005b0d0700b40b070065
:10203c0004fa070000007800200f9800d2408000be
:10204c00e34080004e4090000080fb007400400094
:10205c0080004000e08120000080400010007800eb
:10206c00cf80de000000510081805900d0408800f4
:10207c00e14088004e4090000080fb00ae089000cc
:10208c007400400000014000e0812000000041008d
:10209c0001087800d2408000e34080004e40900060
:1020ac000080fb007400400080004000e0812000b4
:1020bc000080400010007800cf80de00020040005d
:1020cc0083804800d0408800e14088004e4090005a
:1020dc000040e800404798004e409000e94f500007
:1020ec00020036000040eb0040479800d0408000d2
:1020fc00e1408000a200200003002000cffa07007e
:10210c0000007800f0428800be0090006040800023
:10211c00808f50005a0132006040800030079800d8
:10212c005040800000017800404080008000780022
:10213c0030408000f804070060e8b7003e089000cb
:10214c00e10f50000300320060c8bf00e14f5000a7
:10215c000a003a0010002000700f98003e08900012
:10216c00e10f500002003a000429ef00050037008f
:10217c002048800020488800020037000000eb0057
:10218c00700f98001e409000e94f50000200340080
:10219c000000eb00700f9800e00120007007980021
:1021ac007e009000ee0f500019003e001e40900083
:1021bc000040e80010479800201680000000d10075
:1021cc006140600011c0b30000c05000614060006d
:1021dc000080fb00610060000000400022168000bf
:1021ec00d1ff2f00810061000100700020168800d3
:1021fc001e409000ea4f50000d003400a0c0b30008
:10220c0010479800c422a90020168000080037004f
:10221c001e4090000040e900104798001e409000be
:10222c000004e00002003d000040eb001047980065
:10223c001e409000e14f50000a0034002e409000e8
:10224c00e84f500003003400c562a900201680003e
:10225c0004003700c562a8002e4090000040e80042
:10226c00204798003e1890000000e800301f9800ae
:10227c007e0890000000e000e40032008e10900018
:10228c007e089000808f500010003200670a070013
:10229c00b203200051c0b300207128001d0a0700b2
:1022ac0041c0b30010c0b3000a0a070000c2b3005b
:1022bc00300a070092a1a9009ca1a900a6a1a9001f
:1022cc000000eb00301f9800c522a900a047800039
:1022dc00e10f50000b003a0011c0b30040c0b30036
:1022ec00fc090700c0972800430a070021c0b3006f
:1022fc0040c0b300f7090700f09828003e0a070019
:10230c00dd0037000ec8bf000004e00009003200f9
:10231c00d842800040478000f30c07000801780089
:10232c00800078000040eb00bf06070040179800c3
:10233c00d30037000fc8bf000004e00009003200d2
:10234c00e842800050478000e70c07000801780045
:10235c008000780010c0b300b30607005017980037
:10236c00c700370010c8bf000004e0000b003200ab
:10237c009ca1a800a6a1a800f8428000604780009c
:10238c00d90c0700080178008000780020c0b30049
:10239c00a506070060179800b9003700d8428000e6
:1023ac0040478000d00c07000801780080007800be
:1023bc000040eb009c06070040179800e8428000a4
:1023cc0050478000c80c0700080178008000780096
:1023dc0010c0b3009406070050179800f842800014
:1023ec0060478000c00c070008017800800078006e
:1023fc0020c0b3008c06070060179800fb02070092
:10240c0011c0b30020c0b300b209070070478000b0
:10241c00f909070011c0b30040c3b300ad090700b0
:10242c00d04280008041eb0012c0b30041c0b30029
:10243c000f0a0700b0c7b300ce09070060c4b30091
:10244c00cc09070021c0b30020c0b300a1090700cc
:10245c0080478000e809070021c0b30040c3b300e7
:10246c009c090700e04280008041eb0012c0b300e1
:10247c0041c0b300fe090700b0c7b300bd09070097
:10248c0060c4b300bb0907000e1890000000e00008
:10249c004e003a003e1090000000e8003017980003
:1024ac003e109000e40f5000160034003e109000d7
:1024bc00650010003017980031c0b30020c0b30085
:1024cc008409070090478000cb09070031c0b30096
:1024dc0040c3b3007f090700f04280008041eb004d
:1024ec0012c0b30041c0b300e1090700b0c7b3008c
:1024fc00a009070060c4b3009e09070000c2b30026
:10250c009c0907003e109000e10f50005a00340067
:10251c0031c0b30020c0b3006e090700009a280038
:10252c00b50907007e0090008041eb000041eb00f4
:10253c0080c0eb00ce09070050c2b3008d09070024
:10254c00e09a2800ac0907007e009000f80f5000bc
:10255c0049003e001e1090006100100010179800fa
:10256c001e1090000000e0004300320031c0b300a8
:10257c0000c3b30057090700309b28009e090700d1
:10258c00e09a28009c0907005e1890000000e80003
:10259c00501f98005e189000fd0f5000360036005a
:1025ac00c422a8004e0890000000e00003003a008e
:1025bc00004c2d0011002000910c0700c422a90032
:1025cc000000eb00501f98002b00370031c0b30007
:1025dc0020c0b3003f090700709b28008609070044
:1025ec0031c0b30000c3b3003a0907000e189000c5
:1025fc008041eb0012c0b30080c0eb009c090700c7
:10260c00509c28007c0907001b003700821f20000b
:10261c008040eb00d07428003e09070041c0b30095
:10262c0010c0b3002b09070000c2b300510907000a
:10263c00be189000004b200000804000301f980016
:10264c00c442a900cd22a900c462a900c422a900d9
:10265c00c562a9000000eb0060179800cd02a9002c
:10266c0092a1a8009ca1a800a6a1a8000000eb00c4
:10267c00001f98001168ef007e089000001798006a
:10268c007e0890000000e00078013200504080008d
:10269c000000e00005003a0060408000e40f5000ac
:1026ac0002003e00c562a80001003700c562a90007
:1026bc004e1890000000e800401f9800ce189000c3
:1026cc0030062000808f5000020036000000eb0026
:1026dc00401f98006e109000800078004e189000fb
:1026ec00808f500002003600cd02a8001a0037007f
:1026fc000e4890000040e900004f98000e489000f2
:10270c000004e00002003d000040eb00004f980088
:10271c000e4890000004e00008003a00f0428000ef
:10272c006a04400060478000ef0b0700800f5400e4
:10273c000200310040c6b300004f98008e48900054
:10274c00a0c5b30080cf500002003400cd02a80019
:10275c0001003700cd02a9002e1090000000e0000f
:10276c00320032005e109000500d8800e142800073
:10277c0060b32000808f5000020036001000200053
:10278c00500d88005e0890000000e0000800320048
:10279c00cd22a800510d8000007721000080400060
:1027ac00500d8800d0022000b00c880001003700ca
:1027bc00cd22a900510d80004e1090008080500059
:1027cc0050e8210000804000000d88004e10900061
:1027dc0080007800000d80008080400040e82100df
:1027ec00808f50000400360040e82100f00c880077
:1027fc00f00c8000070037004e109000800078002d
:10280c00000d8000008040000000e800f00c880003
:10281c00f00c800051c0b30040c4b300ad080700f9
:10282c00b09c2800f40807000b00370051c0b3001f
:10283c0040c4b300a7080700f09c2800ee0807006e
:10284c00cd22a900aa21ef004e10900051e82100e2
:10285c0000805000000d88004e0890000000e00041
:10286c0087003200fe109000700c2000808f50000a
:10287c0002003e0020002000000d88000000eb004c
:10288c00301f980011e1a8000000eb00201f9800f9
:10289c007e109000fe0f500006003e00c462a8009f
:1028ac0080072000b00c880011c8bf000040e80071
:1028bc0011e8b7007e109000fe0f500006003600a5
:1028cc00fe109000c0032000808f500002003e00dc
:1028dc009621ef001168ef00fe109000c00320005d
:1028ec00808f500017003600fe109000a0052000cd
:1028fc00808f500013003e00b10c800000102000af
:10290c00808f50000f003e003e4090000040e800d9
:10291c00304798003e409000e44f500009003600cc
:10292c00b10c8000f00f2000808f500003003e009f
:10293c00b00c80006c004000b00c88000040eb0034
:10294c0030479800fe109000a0052000808f5000aa
:10295c0012003600fe10900010322000808f5000c4
:10296c000e003e00b00c8000f90f50000b0036003a
:10297c003e4090000040e800304798003e409000f8
:10298c00ea4f500005003600b00c80000000e90052
:10299c00b00c88000040eb0030479800fe1090000f
:1029ac0060182000808f500002003600a00120002b
:1029bc00b00c8800fe10900080252000808f500005
:1029cc00010036009621ef00fe109000203520000b
:1029dc00808f500001003600c422a800fe10900029
:1029ec0070352000808f500006003600c422a900ec
:1029fc00a0332000701798001e1890000000e8000b
:102a0c00101f98001e189000e90f500005003600aa
:102a1c00c422a8009025200070179800a000200068
:102a2c00101f980021048000000820000080600026
:102a3c000000e0000b0032007e1090000000e80067
:102a4c0070179800fe109000c0032000808f50007b
:102a5c00030036000e1890000000e800001f9800dc
:102a6c0084e0a900b10c8000400620000088b90069
:102a7c00000078004800de00500798007100370015
:102a8c0011c8bf000004e0005e003200fe10900090
:102a9c00700c2000808f500002003e0020002000af
:102aac00000d88000000eb00301f980011e1a80019
:102abc007e109000fe0f500003003e00c462a80080
:102acc0080072000b00c88007e109000fe0f500094
:102adc0005003600fe109000c0032000808f5000cf
:102aec0001003e009621ef00fe109000c003200074
:102afc00808f500017003600fe109000a0052000bb
:102b0c00808f500013003e00b10c8000001020009c
:102b1c00808f50000f003e003e4090000040e800c7
:102b2c00304798003e409000e54f500009003600b9
:102b3c00b10c8000f00f2000808f500003003e008d
:102b4c00b00c800070004000b00c88000040eb001e
:102b5c0030479800fe109000a0052000808f500098
:102b6c0012003600fe10900010322000808f5000b2
:102b7c000e003e00b00c8000f90f50000b00360028
:102b8c003e4090000040e800304798003e409000e6
:102b9c00ef4f500005003600b00c80000080e900bb
:102bac00b00c88000040eb0030479800fe109000fd
:102bbc0080112000808f5000020036009621ef001b
:102bcc001168ef00210480000008200000806000e4
:102bdc000000e000040032007e1090000000e800cd
:102bec007017980084e0a900b10c8000400620000a
:102bfc000088b900000078004800de0050079800fb
:102c0c0010003700c462a900c422a9000000eb0028
:102c1c00101f980011e1a9000000eb00701798003c
:102c2c002e1890000000e800201f9800ae189000ad
:102c3c00f0f92000808f5000020036000000eb00fd
:102c4c00001f98006e0890000000e00006003200a3
:102c5c00c442a80000102000b00c88002000200006
:102c6c00000d880001003700c442a9004e089000f6
:102c7c000000e0000a003a005e0890000000e0004e
:102c8c0007003a006e0890000000e00004003a00d3
:102c9c0011c8bf000004e00001003a009621ef00cb
:102cac005b090700404f98004e4890000004e0007c
:102cbc0009003200cd02a90092a1a8009ca1a80095
:102ccc00a6a1a800c522a9000000eb00301f9800a7
:102cdc0020002000001798004e489000e14f500053
:102cec0001003a00fa0507004e489000e24f5000f0
:102cfc0013003a004308070000a8210061002000df
:102d0c00bf0a0700c90707000000eb00301f98003e
:102d1c00b203200051c0b300207128007d070700ca
:102d2c00f1c4b30050c0b3006a07070000c2b3007f
:102d3c009007070000482800e1012000b00a0700b6
:102d4c004e489000e34f500004003a000000eb00a6
:102d5c002017980020002000001798004e48900083
:102d6c00e44f500004003a00100020002017980097
:102d7c002000200000179800be189000004b200087
:102d8c00808f500008003600be18900000e8230029
:102d9c00808f50000d003600c522a80010e82300db
:102dac00301f980009003700be189000f04a200030
:102dbc00808f500004003600c522a8000000eb00f4
:102dcc00301f980001003700c522a9000060fe00ea
:102ddc00fdfb37000600fa0020079800ae009000bb
:102dec00010f78000000eb00100798001e0078001f
:102dfc00e90f5000060036009e0078006a8f5000e4
:102e0c001e0090007000400010079800f7ff37007c
:102e1c001e0090001e004000100798001e0090003d
:102e2c000080fa00000006000400fa001007980069
:102e3c009e009000010f78001e0078000000d10069
:102e4c00000f7800800720001e0f60001e00780025
:102e5c004200de009e0040001e0090006f006000eb
:102e6c00008040000080fa00000006000000fa001c
:102e7c00230020006104200072052000247420002f
:102e8c00014a7800024a7800034a78005005200075
:102e9c00303b8800a00a2000303b880027a6a80001
:102eac0027e6a900303180000080a0000090a0002f
:102ebc003031880070012000203188002022210050
:102ecc0020318800605120002031880000932200be
:102edc00203188002826ef0026e6a80026c6a90087
:102eec0026a6a8002686a8002666a8002646a800c6
:102efc002626a8002606a90027e6a80027a6a900d2
:102f0c009bc0a8000080fa00000006001400fa0024
:102f1c00881f780000047800000000003131800028
:102f2c0000002100008060000000e000fbff3a0080
:102f3c00303180000080a0000090a000303188006b
:102f4c0020318000b8ff0700300798002131800045
:102f5c00010f78001e0078004800de00b2ff070069
:102f6c0040079800f00f20001e006000aeff070025
:102f7c005007980021318000110798001e00900026
:102f8c004800de00a8ff0700600798009e00900034
:102f9c00f00f200000806000a3ff0700700798006e
:102fac0021318000210798002e0090004800de009f
:102fbc009dff0700000f9800ae009000f00f20005e
:102fcc000080600098ff0700100f9800e600470093
:102fdc0006000900311c7800e800b10008007800f8
:102fec004f0478000080fa00000006000e00fa0082
:102ffc000e007800c5ff070041c0b30020c0b3002d
:10300c00b40607001e0078008041eb000041eb0085
:10301c0021c0b30016070700f0c2b300d5060700a5
:10302c001e00900080004000008a200000804000bc
:10303c0010007800f0060700f0c2b300cd060700c0
:10304c002e0090008041eb000041eb0021c0b3004a
:10305c000707070041c0b30070c2b3009d0607000c
:10306c003e0090008000400020892000008040003d
:10307c0010007800e006070041c0b30040c3b30065
:10308c00940607004e0090008041eb000041eb00dd
:10309c0021c0b300f6060700a0c3b300b5060700b5
:1030ac005e0090008041eb000041eb0021c0b300ba
:1030bc00ef060700a0c3b300ae0607006e00900039
:1030cc008041eb000041eb0021c0b300e806070093
:1030dc000080fa00000006003000fa00889fbe0055
:1030ec006600470089ff07003e039000ce02900067
:1030fc005e029000ee0190007e0190008e08900020
:10310c001e089000260f9800350f9800440f980069
:10311c00530f9800620f9800710f980000179800d9
:10312c00210220008100470032b628000600090069
:10313c00b25878009102200081004700a2b6280006
:10314c0006000900b25878000040eb00004f7800f0
:10315c000040eb00104798000000eb0010079800af
:10316c00e50037001e0090000000e0000a003a0065
:10317c00ae0607004205200051c0b300409d280058
:10318c006406070041c0b30010c0b300510607002d
:10319c0000c2b300770607001e0090000000e80094
:1031ac00100798009e00900000712200808f500044
:1031bc00050036000000eb00100798009b06070086
:1031cc0010c0b300104798002e08900030079800ec
:1031dc003e089000400798004e0890005007980059
:1031ec005e089000600798006e08900070079800c9
:1031fc007e089000000f98000e109000100f9800a1
:10320c007aff070011c0b30040c0b30031060700bd
:10321c0000ab28007806070021c0b30040c0b30003
:10322c002c06070050ac2800730607001e407800df
:10323c000004e00005003a0031c0b30020c0b30028
:10324c0024060700a0ad28006b0607001e4078007e
:10325c00e14f500005003a0031c0b30020c0b3006c
:10326c001c060700d0ad2800630607001e4078003e
:10327c00e24f500005003a0031c0b300e0c0b3008b
:10328c001406070040ae28005b0607001e407800bd
:10329c00e34f500005003a0031c0b300b0c1b30099
:1032ac000c060700d0ad2800530607001e4078001e
:1032bc00e44f50000a003a0031c0b30070c2b300b2
:1032cc0004060700b0ae28004b06070031c0b3005f
:1032dc0040c3b300ff050700a0ad28004606070059
:1032ec001e407800e54f500005003a0031c0b30095
:1032fc0040c3b300f7050700f0ae28003e060700f8
:10330c001e407800e64f500005003a0031c0b30073
:10331c0000c4b300ef050700f0ae28003606070026
:10332c00bb070700404798004e4090000000fb0090
:10333c00e30f500024003200e40f50000300320071
:10334c00e20f50003f003200470037001e80fb00a8
:10335c000000400000004700a00890001e80fb0009
:10336c0000004700106890000080fb00808f500028
:10337c000a003a001e80fb009e80fb008100470083
:10338c00a16090008180fb0000004000000047001d
:10339c007400400001087800330037001e80fb00e9
:1033ac009e80fb008180400081004700a1089000b6
:1033bc008100e8000000400000004700740040005d
:1033cc0001087800280037001e80fb000000400038
:1033dc0000004700a00890001e80fb000000470082
:1033ec00206090000080fb00808f50000a003a00a3
:1033fc001e80fb009e80fb008100470091689000be
:10340c008180fb0000004000000047007400400079
:10341c0001087800140037001e80fb009e80fb0022
:10342c008180400081004700a10890008100e900e4
:10343c0000004000000047007400400001087800c4
:10344c00090037001e407800e64f500004003a0097
:10345c00f605070010c0b3001047980002003700b3
:10346c001e4fe8000000000058052000383b880083
:10347c00a80a2000383b880027a6a80027e6a90048
:10348c00303180000080a0000090a0003031880016
:10349c003e0090004ffe0700203188004e00900047
:1034ac004cfe0700c804dd005e00900049fe0700da
:1034bc0000804400203188006e00900045fe07001b
:1034cc00c804dd007e00900042fe0700008044002e
:1034dc00203188000e0890003efe0700c804dd0075
:1034ec001e0890003bfe070000804400203188003d
:1034fc0027e6a80027a6a9001e4090000004e000c3
:10350c0018ff3200c9050700f428ef004f04be0075
:10351c000080fa00000006000600fa00000f780098
:10352c0011079800220798001e00780080004000c8
:10353c0080a7280000804000100078006a0807006f
:10354c00e10f400002003a000429ef00140037009c
:10355c001e0078008000400080a7280000804000fa
:10356c0010007800600807009e009000810f50004a
:10357c000b003a001e0078008000400060a8280074
:10358c00008040001000780057080700ae00900043
:10359c00810f500002003a001000200020488800e3
:1035ac001e0078008000400040a9280000804000e8
:1035bc00100078004c0807009e009000810f50000e
:1035cc000a003a001e0078008000400020aa280063
:1035dc00008040001000780043080700ae00900007
:1035ec00810f500001003a000429ef0020488000b0
:1035fc00004078000080fa00000006000200fa008b
:10360c000000eb00000f78000769ef00470037005f
:10361c00ff06070007e9b700c05d20009e00780098
:10362c00808f500093003c0007c9bf000080fb0056
:10363c00e30f500005003200e40f50000b00320085
:10364c00e10f50008d0032001400370006c9bf0096
:10365c000040e90006e9b70006c9bf000004e0001d
:10366c000b003d000669ef000c00370006c9bf00d7
:10367c000040e80006e9b70006c9bf00e64f50005d
:10368c000500340060c0b30006e9b7000300370042
:10369c000000000001003700000000001e00780050
:1036ac00e20f50000a003c006005070042052000b4
:1036bc0051c0b300409d28001605070041c0b3005f
:1036cc0010c0b3000305070000c2b30029050700b2
:1036dc0011c0b3000040eb00fe04070050af2800ff
:1036ec004505070006c9bf000000fb008000400034
:1036fc002089200000804000100078003e05070063
:10370c0031c0b3000040eb00f204070050b02800b9
:10371c003905070041c0b3000040eb00ed04070081
:10372c00a0b12800340507001e0fe80007c9bf0030
:10373c00e24f5000b6ff3a003c050700420520005e
:10374c0051c0b300409d2800f204070041c0b300f3
:10375c0010c0b300df04070000c2b300050507006a
:10376c0006c9bf000000fb008000400080a72800b5
:10377c000080400010007800db0707000040780054
:10378c00440007008000fb0006c9bf000000fb00de
:10379c000001400080a728000000410010007800c4
:1037ac00b207070006c9bf000000fb008000400004
:1037bc0060a828000080400010007800ca070700ad
:1037cc0000407800800007008000fb0006c9bf00a5
:1037dc000000fb000001400060a828000000410030
:1037ec0010007800a107070006c9bf000000fb000d
:1037fc008000400040a928000080400010007800a4
:10380c00b907070000407800bb0007008000fb00f0
:10381c0006c9bf000000fb000001400040a92800c1
:10382c0000004100100078009007070006c9bf0097
:10383c000000fb008000400020aa2800008040000f
:10384c0010007800a807070000407800f700070078
:10385c008000fb0006c9bf000000fb000001400017
:10386c0020aa280000004100100078007f07070004
:10387c0003003700000000000100370000000000ca
:10388c00ea0407000000eb00000f78000080fa004b
:10389c00000006000600fa00404798000000eb000c
:1038ac00000f7800ce409000214798000040eb00bc
:1038bc003047980056060700304798003a0037000a
:1038cc0053060700304798001e0fe80000a62e0094
:1038dc0001002000ca070700401f20009e0078004e
:1038ec00808f5000040034000000eb00000f7800c3
:1038fc0020c0b3003047980011c0b3000040eb006b
:10390c0074040700b0b22800bb04070011c0b30058
:10391c00d0c3b3006f0407002e4090000000fb00e2
:10392c008041eb000041eb0021c0b300d004070044
:10393c0000c2b3008f0407003e4090000000fb0063
:10394c00e30f500003003200e40f50000a00320075
:10395c00150037002e4090000040e90020479800e9
:10396c002e409000e14f40000c003d0070c1b300b0
:10397c00204798000c0037002e4090000040e800d3
:10398c00204798002e409000f74f5000050034005f
:10399c0000c0eb0020479800030037000000000037
:1039ac0001003700000000003e409000e24f500044
:1039bc00c3ff3a000000eb00000f78002e4090008f
:1039cc000080fa00000006000600fa00404798004c
:1039dc000000eb00000f7800ce40900021479800cb
:1039ec000040eb003047980009060700304798006c
:1039fc003900370006060700304798001e0fe80014
:103a0c00003e2900410020007d070700c05d20001a
:103a1c009e007800808f5000040036000000eb0000
:103a2c00000f780020c0b3003047980021c0b300cd
:103a3c000040eb002704070090b328006e04070039
:103a4c0021c0b300d0c3b300220407002e40900065
:103a5c000000fb008041eb000041eb0021c0b300f3
:103a6c00830407003e4090000000fb00e30f500071
:103a7c0003003200e40f50000a0032001600370039
:103a8c002e40900065405000204798002e4090003a
:103a9c000004e0000d003d0070c3b3002047980007
:103aac000d0037002e4090006540400020479800e4
:103abc00ae40900070c3b30080cf500005003400be
:103acc000040eb0020479800030037000000000086
:103adc0001003700000000003e409000e24f500013
:103aec00c4ff3a000000eb00000f78002e4090005d
:103afc000080fa00000006000600fa00404798001b
:103b0c000000eb00000f7800ce4090002147980099
:103b1c000040eb0030479800bd0507003047980087
:103b2c003a003700ba050700304798001e0fe8002e
:103b3c00003e29004100200031070700c05d200035
:103b4c009e007800808f5000040036000000eb00cf
:103b5c00000f780020c0b3003047980031c0b3008c
:103b6c000040eb00db03070090b4280022040700a0
:103b7c0031c0b300d0c3b300d60307002e40900071
:103b8c000000fb008041eb000041eb0021c0b300c2
:103b9c003704070000c2b300f60307003e40900054
:103bac000000fb00e30f500003003200e40f500054
:103bbc000a003200150037002e4090000040e9004a
:103bcc00204798002e409000e14f40000c003d0033
:103bdc0070c1b300204798000c0037002e409000b5
:103bec000040e800204798002e409000f74f50000e
:103bfc000500340000c0eb0020479800030037009c
:103c0c000000000001003700000000003e40900062
:103c1c00e24f5000c3ff3a000000eb00000f7800a9
:103c2c002e4090000080fa00000006000600fa000a
:103c3c00404798000000eb00000f7800ce40900049
:103c4c00214798000040eb003047980070050700b2
:103c5c0030479800390037006d0507003047980051
:103c6c001e0fe800003e290041002000e40607007a
:103c7c00c05d20009e007800808f5000040036004c
:103c8c000000eb00000f780020c0b3003047980014
:103c9c0041c0b3000040eb008e03070050b5280074
:103cac00d503070041c0b300d0c3b300890307009c
:103cbc002e4090000000fb008041eb000041eb0027
:103ccc0021c0b300ea0307003e4090000000fb0057
:103cdc00e30f500003003200e40f50000a003200e2
:103cec00160037002e409000654050002047980089
:103cfc002e4090000004e0000d003d0070c3b300a6
:103d0c00204798000d0037002e4090006540400081
:103d1c0020479800ae40900070c3b30080cf500095
:103d2c00050034000040eb002047980003003700ea
:103d3c000000000001003700000000003e40900031
:103d4c00e24f5000c4ff3a000000eb00000f780077
:103d5c002e4090000080fa00000006000800fa00d7
:103d6c00881f7800004f78001107980022079800f0
:103d7c00330798001e04fb001e009000cf80de006d
:103d8c00cbf207008ef20700800078000801440097
:103d9c002086200000004100010878001e04fb0072
:103dac002e009000cf80de00c1f2070084f20700e5
:103dbc00800078000801440080862000000041004b
:103dcc00010878001e04fb003e009000cf80de004e
:103ddc00b7f207007af2070080007800080144006f
:103dec00e086200000004100010878001e00fb0066
:103dfc00c200dd00e08b2000008140006000b800b4
:103e0c000089be001e00fb00c200dd00608d20009a
:103e1c00008140006000b8000089be004f047800ab
:103e2c000080fa00000006001400fa00889fbe0013
:103e3c008a1f7800604f9800010f9800120f9800ad
:103e4c000e0890006101b8001e0890008000eb0085
:103e5c00000051008180590095f20700500798002e
:103e6c00610798006e4890000080fb0080004000c5
:103e7c00208620000080400010007800cf80de00fb
:103e8c008bf207005e019000ee01900037f3070003
:103e9c00020020000312240003f207001007980010
:103eac00210798006e4890000080fb0080004000c5
:103ebc00a08720000080400010007800cf80de003a
:103ecc007bf2070018c0b3001e019000ae019000f9
:103edc0039f207000000e00001003c000044eb0058
:103eec000804e0000a0032006e4890000080fb00dd
:103efc0080004000a0872000008040001000780067
:103f0c00cf80de006af207001007980021079800a6
:103f1c006e4890000080fb0080004000608820000c
:103f2c000080400010007800cf80de0060f20700b7
:103f3c0018c0b3001e019000ae0190001cf20700e7
:103f4c000000e000010035000044eb000804e00034
:103f5c000a0032006e4890000080fb008000400098
:103f6c00608820000080400010007800cf80de00c8
:103f7c004ff2070010079800210798006e48900038
:103f8c000085fb006e4890000080fb00c200dd0045
:103f9c00e08b2000008040001004be006e489000b2
:103fac000080fb00800040008086200000804000e4
:103fbc0010007800cf80de003df207005e0190001b
:103fcc00ee019000e9f2070002002000634124009a
:103fdc00b5f107000001be000800be0055f1070056
:103fec00c251dd00e28b2000028141000089be003d
:103ffc006e4890000080fb00c200dd00e08b2000ca
:10400c00008040001004be006e4890000080fb0051
:10401c0080004000208e20000080400010007800be
:10402c00cf80de0022f207001ac0b3000001be00f0
:10403c000800be00def107000000e00001003500c2
:10404c000045eb000a04e0000e0032006e489000c0
:10405c000084fb006e4890000080fb008000400054
:10406c00208e20000080400010007800cf80de0001
:10407c000ff20700c241dd00e28b200002814100fb
:10408c000089be006e4890000080fb00c200dd007d
:10409c00e08b2000008040001004be006e489000b1
:1040ac000080fb0080004000408720000080400022
:1040bc0010007800cf80de00fdf107001ac0b300bd
:1040cc000001be000800be00bbf107000000e000cc
:1040dc0001003c000045eb000a04e0000e00320039
:1040ec006e4890000084fb006e4890000080fb003e
:1040fc0080004000408720000080400010007800c5
:10410c00cf80de00eaf10700c241dd00e28b200027
:10411c00028141000089be005e009000ee0090001c
:10412c00a7f107000001be006e4890000080fb0064
:10413c00c200dd00a08c2000008040001000be00fa
:10414c0000015100818159006e4890000080fb00f5
:10415c0080004000e08620000080400010007800c5
:10416c00cf80de00009ab90004027800028bb900ff
:10417c0086027800050242000010b80001024200dd
:10418c0084007800300798004107980030079800a9
:10419c00410798006e4890000080fb0080004000b2
:1041ac006088200000804000100078006101b90098
:1041bc003e009000ce009000800f5100818f59007e
:1041cc0009003d006e4890000080fb00800040001c
:1041dc00608820000080400010007800cf80de0056
:1041ec0030079800410798003e019000ce019000e6
:1041fc0080f32f00f1ff2f00800f5100818f5900a9
:10420c0004003d0080f32f00f1ff2f0030079800d1
:10421c00410798006e4890000084fb005e009000ff
:10422c00ee00900066f10700c241dd00a28c200078
:10423c00028141000089be001e009000ae0090007b
:10424c005ff10700000478006e4890000080fb00ce
:10425c00c200dd00e08b2000008040001000be009a
:10426c0057f1070000007800800044003e009000e9
:10427c00008f40006e4890000080fb0080004000e2
:10428c00c088200000804000100078001e0f400005
:10429c006e4890000080fb008000400000882000e9
:1042ac0000804000100078009e0f50000600340083
:1042bc006e4890000080fb008000400000882000c9
:1042cc0000804000100f78006e4890000080fb00ca
:1042dc0080004000608820000080400010007800c2
:1042ec009e0f500006003d006e4890000080fb00c1
:1042fc00800040006088200000804000100f780093
:10430c000ec8bf000004e00006003a000fc8bf0052
:10431c000004e00003003a0010c8bf000004e000f5
:10432c00660032008040eb000040eb00e901070022
:10433c00c0e22800300207008040eb0000c1b3004f
:10434c00e40107001e0890008041eb0012c0b3008e
:10435c0041c0b3004602070011c0b3000040eb009f
:10436c00dc010700f0e228002302070011c0b300b3
:10437c0000c1b300d70107005e009000ee00900072
:10438c000ff10700000078008041eb000041eb00ca
:10439c0041c0b3003602070000c2b300f5010700ac
:1043ac0011c0b30080c2b300ca01070030e328007b
:1043bc001102070011c0b30040c3b300c5010700d0
:1043cc001e009000ae009000fdf007000000780089
:1043dc008041eb000041eb0051c0b3002402070008
:1043ec0000c2b300e301070021c0b3000040eb00a2
:1043fc00b801070050e32800ff01070031c0b300eb
:10440c000040eb00b30107006e4890000080fb00f9
:10441c00c200dd00e08b2000008040001000be00d8
:10442c00e7f00700000078008041eb000041eb0052
:10443c0051c0b3000e02070000c2b300cd0107004b
:10444c0021c0b30000c2b300a201070070e3280032
:10445c00e901070031c0b30000c2b3009d010700a1
:10446c003e0090008041eb000041eb0051c0b300d6
:10447c00ff01070000c2b300be01070021c0b3005a
:10448c00a0c3b3009301070090e32800da010700f2
:10449c0031c0b300a0c3b3008e0107008041eb0014
:1044ac000041eb0051c0b3001e007800f001070082
:1044bc0000bc2f0091032000d10407001e007800df
:1044cc004f0578004f04be000080fa000000060083
:1044dc001200fa00889fbe000040eb00004f7800ed
:1044ec000000eb0010079800807020003007980047
:1044fc00a0a5200040079800a0732000500798004a
:10450c00408320006007980020b2200070079800bc
:10451c0060862000000f9800c401070042052000af
:10452c0051c0b300d0ba28007a01070041c0b300d3
:10453c0010c0b3006701070000c2b3008d01070073
:10454c0000242400f1002000ad04070028003700ef
:10455c0011c0b3000040eb005e01070050c52800fd
:10456c00a501070021c0b3000040eb005901070072
:10457c0060c62800a001070031c0b3000040eb006a
:10458c0054010700b0c728009b0107002003070057
:10459c00004f78001e0090000000e8001007980003
:1045ac0000c4290001002000950407009e00900023
:1045bc00401f2000808f50000d0034000000eb00e5
:1045cc001007980099010700b203200051c0b300f6
:1045dc0020b728004f01070041c0b30010c0b30042
:1045ec003c01070000c2b300620107002c01370038
:1045fc001e4078000004e000d5ff32001e40780019
:10460c00e14f50000f003a00b3fa07000000eb0036
:10461c00100798004205200051c0b30010c02800bc
:10462c003c01070041c0b30010c0b30029010700d2
:10463c0000c2b3004f01070000482800e101200030
:10464c006f0407001e407800e34f500001003a0051
:10465c00eafb07001e407800e24f50000d013200cb
:10466c001e407800e44f500017013a000040eb0068
:10467c00404798000000eb00100798006b01070002
:10468c004205200051c0b30010c0280021010700d2
:10469c0041c0b30010c0b3000e01070000c2b3004c
:1046ac003401070045003700d9020700004f78009d
:1046bc0000c4290001002000510407009e00900056
:1046cc00401f2000808f5000030034000000eb00de
:1046dc0010079800f20037001e00fb00e30f50009b
:1046ec0005003200e40f50000c003200e10f5000c6
:1046fc00ea003200150037004e4090000040e900ff
:10470c00404798004e4090000004e0000c003d0033
:10471c000040eb00404798000c0037004e409000e2
:10472c000040e800404798004e409000e24f500097
:10473c000500340020c0b300404798000300370048
:10474c000000000001003700000000008040eb007a
:10475c000040eb00df000700c0c82800260107005e
:10476c0011c0b3000040eb00da0007004e4090008f
:10477c000000fb0080004000e08e20000080400024
:10478c00100078001c01070031c0b3000040eb00a2
:10479c00d0000700d0c928001701070041c0b300a2
:1047ac000040eb00cb00070020cb280012010700d3
:1047bc001e0090000000e800100798001e407800d2
:1047cc00e24f5000b8ff3a001801070042052000e4
:1047dc0051c0b30010c02800ce00070041c0b30088
:1047ec0010c0b300bb00070000c2b300e10007001b
:1047fc008040eb000040eb00b600070070cc2800b6
:10480c00fd0007004e4090000000fb0080004000bf
:10481c00808e20000080400010007800b20307005a
:10482c00800078004e4090000000fb00000040002b
:10483c0000004700600190004e4090000000fb001b
:10484c00000040000000470030009000010278009a
:10485c0082017800000178008040eb00c0c2b300f8
:10486c00ba020700800078004e4090000000fb0068
:10487c0000014000808e20000000410010007800f4
:10488c007a03070011c0b3000040eb009100070051
:10489c0030cd2800d80007004e4090000000fb00ef
:1048ac0080004000609428000080400010007800d8
:1048bc008d03070000027800830c20000001eb0040
:1048cc0011c0b300c0c2b300a00207008000780082
:1048dc004e4090000000fb00000140006094280056
:1048ec0000004100100078006003070021c0b300f5
:1048fc000040eb0077000700a0cd2800be000700a9
:10490c004e4090000000fb0080004000c094280046
:10491c00008040001000780073030700000278004c
:10492c00431f20000001eb0021c0b300c0c2b30044
:10493c0086020700800078004e4090000000fb00cb
:10494c0000014000c09428000000410010007800d5
:10495c004603070031c0b3000040eb005d000700c8
:10496c0050ce2800a40007004e4090000000fb0031
:10497c008000400020952800008040001000780046
:10498c005903070000027800431f20000001eb00d0
:10499c0031c0b300c0c2b3006c02070080007800c5
:1049ac004e4090000000fb000001400020952800c4
:1049bc0000004100100078002c03070041c0b30038
:1049cc000040eb004300070020cf28008a000700be
:1049dc004e4090000004fb004e4090008000fb0015
:1049ec00e080200000804000104078000000fb00b8
:1049fc0000027800130020000001eb0041c0b3005e
:104a0c00c0c2b3005102070080407800e080200053
:104a1c0000004400014878004e4090000000fb006c
:104a2c008000400020952800008040001000780095
:104a3c002d030700800478004e4090000000fb001e
:104a4c0080004000c09428000080400010007800d6
:104a5c0025030700000478004e4090000000fb0086
:104a6c008000400060942800008040001000780016
:104a7c001d03070089017800080178008000780088
:104a8c004e409000b5fc07000000eb0010079800aa
:104a9c000300370000000000010037000000000098
:104aac0062000700b203200051c0b30020b72800f9
:104abc001800070041c0b30010c0b3000500070088
:104acc0000c2b3002b0007004f04be000080fa00a8
:104adc00000006000200fa00004f78001147980011
:104aec0000c8b3001e407000804078000040eb000e
:104afc00e30007009e40900000c4b30000c07000ab
:104b0c00804078000040eb00dd0007000080fa00d8
:104b1c00000006000800fa001007980041479800b2
:104b2c00320798004e409000804078000040eb0027
:104b3c00e8ff07000000eb00000f780007003700cb
:104b4c001e0090001e00400010407800804078004d
:104b5c0010c0b300ca0007001e0fe8003e00900012
:104b6c009e007800808f5000f5ff39000080fa001d
:104b7c00000006000400fa00204798002e40900028
:104b8c000000fb000002b100000f78001e0078004e
:104b9c006300b90000007800000f7800c0cf280037
:104bac001e004000104078008040780010c0b30018
:104bbc00b30007001e00e800c1cf28006140780058
:104bcc008040780010c0b300ad0007001e80e800e4
:104bdc00c1cf2800614078008040780010c0b3003d
:104bec00a70007008040eb0010c0b300a400070032
:104bfc000080fa00000006000200fa00000f7800a6
:104c0c00040037001e007800104078001e0fe800ea
:104c1c00d8ff07001e007800104078000004e00068
:104c2c00f8ff3a000080fa00000006000200fa00cb
:104c3c000000eb00000f7800040037008040eb0010
:104c4c0010c0b3008e0007001e0fe800701f20007c
:104c5c009e007800808f5000f8ff34008040eb00fd
:104c6c000040eb009bff07000080fa0000000600ec
:104c7c001000fa0050079800414f9800524f9800ce
:104c8c00634f9800e4004700010009008018eb0016
:104c9c008058eb0040002000000f78000000eb0073
:104cac00100798005e0090000000e00006003d0038
:104cbc00d0c2b300afff07005e0090000000ea0016
:104ccc0050079800170037006e489000e14f5000d5
:104cdc0014003a00b0c2b300a6ff07001100370061
:104cec00de009000a00020000001780011000900f7
:104cfc008200d8008000fd008040780064004700ee
:104d0c001e00400001487800de009000a00020004a
:104d1c0000017800110009008200d80050079800ab
:104d2c001e0fe9005e0090000000e000ecff3a006e
:104d3c004e489000e14f40000b003a000300370052
:104d4c001e0090000000e80010079800e4004700e7
:104d5c001e00900000804000104078000004e0002d
:104d6c00f7ff3200040037004e4890000000fb00b3
:104d7c0065001000100798009e009000010f78004d
:104d8c0006003700640047001e0040001040780009
:104d9c000043b00077ff07001e0fe8005e4890004c
:104dac000000fb00650010009e0f5000f5ff3c005a
:104dbc005e489000e14f500005003a00e0c2b3009d
:104dcc006cff07000e4890000043b00069ff07001d
:104ddc005e489000e24f500008003a00e0c2b30079
:104dec0064ff07007e4090000043b00061ff0700a5
:104dfc000e4890000043b0005eff07000080fa00f0
:104e0c00000006000000fa00d0a2a900d082a90080
:104e1c00d062a900d0e2a900d0c2a900d482a90016
:104e2c00d4a2a900d462a900d4c2a900d4c2a800fb
:104e3c0011c2b3000040eb0011000700f1cbb3002e
:104e4c000040eb000e00070071c0b3000040eb0007
:104e5c000b00070041c1b3000040eb000800070045
:104e6c0001c2b3000040eb0005000700c1c0b30055
:104e7c000040eb00020007000080fa000000060072
:104e8c000400fa002047980031479800be4090007b
:104e9c00114798002e4090000004e00002003a00f8
:104eac00d462a90001003700d462a800d4e2a900a2
:104ebc000040eb00004f78000b003700d482a900b3
:104ecc001e4090000004e00001003d00d482a800c8
:104edc00d4a2a8001e40900000404000104798004b
:104eec00d4a2a9001e4fe8001e407800e74f5000e6
:104efc00f2ff3600d4e2a8000080fa0000000600a1
:104f0c000200fa00000f78001e0078008000eb0011
:104f1c006aee07000001be0000002f00f1572400cc
:104f2c00e1ed07000200200003f8230080ed0700ec
:104f3c000001be0000802600c1612400daed0700ec
:104f4c00b0478800c1478800b0478000c147800047
:104f5c0002802a00d3612400d3ed0700d0478800db
:104f6c00e1478800d0478000e1478000a8ee0700a9
:104f7c00d0478800e1478800d0478000e147800097
:104f8c00b2072100a3572400c7ed0700d0478800c3
:104f9c00e1478800d0478000e1478000f2f02c0008
:104fac00b3b5230063ed0700d0478800e1478800c4
:104fbc00d0478000e14780000001be0000002000c7
:104fcc0001f82300b8ed0700d0478800e1478800be
:104fdc00d0478000e1478000323329008338240019
:104fec0053ed0700d0478800e1478800d047800088
:104ffc00e14780000200200003122400dbee0700d2
:10500c00d0478800e1478800d0478000e147800006
:10501c000200200003112400d4ee0700020020003f
:10502c00030a2400a0ed070002002000033a24002c
:10503c0040ed0700d0478800e1478800d04780004a
:10504c00e1478000ffed0700000078008000eb00d6
:10505c001aee07000080fa00000006000200fa00b9
:10506c00000f7800303320009e007800808f5000b5
:10507c0002003e00401f20000c003700c1cc2f0066
:10508c001e8040008000eb000cee0700a29b240069
:10509c00c3f8230084ed070002002000a33f240086
:1050ac0024ed0700c6ed0700000078000080fa0030
:1050bc00000006000000fa0005e1a9000421a80088
:1050cc00200880000080a1000090a100200888002a
:1050dc00200880000040a1000050a000200888009b
:1050ec0005e1a80011e1a900800880000040a000a3
:1050fc000050a00080088800e03020006008880084
:10510c0011e1a80013e1a900900880000040a00064
:10511c000050a0009008880040e82100700888002a
:10512c0013e1a8000080fa00000006000000fa005d
:10513c009621ef0000102000a00c8800900c80003d
:10514c00f001b300900c880092e1a900800c800063
:10515c0000a0a10000b0a10000c0a000800c88003d
:10516c009821ef00800c80000000a1000010a0002e
:10517c000020a000800c8800aa21ef0040e821004c
:10518c00400d8800300d8000f001b300300d880018
:10519c00a6e1a900200d800000a0a00000b0a10095
:1051ac0000c0a100200d8800200d80000000a1008f
:1051bc000010a0000020a000200d8800a021ef000e
:1051cc0040e82100f00c8800e10c800000fe2f006c
:1051dc00008060000010a000e00c88009ce1a90099
:1051ec00d00c800000a0a00000b0a10000c0a10065
:1051fc00d00c8800d00c80000000a0000010a00093
:10520c000020a000d00c88000080fa0000000600ee
:10521c000000fa0070002000df000700f047880053
:10522c00f1478000c05d2000808f500007003600e1
:10523c00f147800090872000808f500003003e00d3
:10524c0010c0b30000e9b7001e003700f147800022
:10525c0090872000808f500007003600f1478000b7
:10526c0010a82000808f500003003e0020c0b30027
:10527c0000e9b70013003700f147800010a82000a8
:10528c00808f500007003600f1478000d0dd2000f1
:10529c00808f500003003e0030c0b30000e9b7001f
:1052ac0008003700f1478000e0dd2000808f5000bf
:1052bc000300360040c0b30000e9b700010037001e
:1052cc000069ef0000c9bf000004e00019003200c3
:1052dc00019020009140780001c9bf0080cf5000a0
:1052ec000400320000c9bf0001e9b7000269ef00f9
:1052fc001300370002c9bf000040e80002e9b70004
:10530c0002c9bf00e14f500002003a0001c9bf00c2
:10531c000c00370002c9bf00ea4f500007003400f0
:10532c00006a2800110020003501070001c9bf00e8
:10533c00040037000269ef00010037000000000094
:10534c000040eb000080fa00000006000c00fa00a0
:10535c00404798005147980032079800430798003f
:10536c0054079800de009000010f7800a8ff07009a
:10537c002047980032003700a5ff0700204798000f
:10538c00504880000000e8005048880000c4290004
:10539c00010020001a01070051488000803e2000c7
:1053ac00808f50000400340020fe07000a29ef0013
:1053bc000040eb0020479800de4090004e409000eb
:1053cc00c4fd07008041eb0012c0b30080c0eb00ad
:1053dc001e00780026fe07002e4090000000fb0007
:1053ec00e30f500003003200e40f500009003200bc
:1053fc00130037001e0fe9003e0090009e0078005d
:10540c00808f50000b003c00be009000010f780014
:10541c000b0037001e0fe8004e0090009e00780035
:10542c00808f500005003500ce009000010f7800f1
:10543c0003003700000000000100370000000000ee
:10544c002e409000e24f5000cbff3a000a29ef00ab
:0c545c001e0078000080fa00000006002e
:020000040000fa
:10546800fe080000060000000000000062080000be
:10547800300000000200000032003200003200005c
:105488000f000f00000f000019001900001900009c
:1054980032006400001900007de1c100fd00000039
:1054a800edfe000000000000831e140007630000ea
:1054b8001301000000070000be0800002a000000d9
:1054c80000000000040900000600000000000000c1
:1054d800920800002c00000002000000288a2c001e
:1054e8008a308a00348a38008a3c8a00408a44001c
:1054f8008a488a004c8a50008a548a00588a5c007c
:105508008a608a00648a68008a6c8a00708a7400db
:105518008a17370017370000f60800000800000057
:10552800000000000a09000002000000000000005e
:10553800000800006200000000000000e808000009
:105548000e0000000200000000000200000400003d
:105558005889640089708900010000000c09000066
:0c55680002000000000000000000000035
:020000040000fa
:105574000000fa0000402800001a88004223ef00cf
:1055840050002000201a88004823ef005023ef0029
:1055940000042000701a88000080fa000000060051
:1055a4000400fa0010079800d0012000401a880077
:1055b4004023a800400620000100200092000700bc
:1055c4004023a9000100370085a0a900001a80002b
:1055d400610060000000e000fbff32009e009000cc
:1055e400411a8800401a8000fa0f500004003a0063
:1055f4005583a80000052000010020008200070058
:10560400401a8000e90f500005003a00101a80008b
:1056140000e0a00000f0a000101a88000400370089
:10562400101a800000e0a10000f0a100101a880008
:105634004023a8004006200001002000720007005b
:105644004023a9000100370085a0a900001a8000aa
:10565400610060000000e000fbff32005583a900f8
:1056640001188000010f78001e0078000080fa0005
:10567400000006000400fa00000f780011079800eb
:1056840040002400003b8800f00720000040780020
:1056940032e0b70001e02f001e00780000804000d7
:1056a400000f78009e0090001e0078000108bb00e7
:1056b4000500fc0050052000303b8800a00a2000b3
:1056c400303b880061e7a8000000000000000000f3
:1056d40000000000013b8000000028000080600002
:1056e4000000e000fbff3a000080fa000000060022
:1056f4000200fa00000f7800f00720000040780054
:1057040032e0b70001e02f001e0078000080400066
:10571400000f78001e0078001000ba000080fa0024
:10572400000006000200fa00600020009cff070051
:10573400000f7800b03120009e007800808f500068
:1057440003003c000000eb00000f7800100037005d
:1057540020f820009e007800808f50000300340061
:1057640040062000000f78000900370041ce2f00ca
:105774001e804000cf80de004fec070052b82e00a0
:10578400d31f2400caeb07000fec0700000f7800ba
:105794001e007800004078000080fa000000060037
:1057a4000000fa00c422ef00cc22ef00d422ef0064
:1057b400100820000016880040c028004016880009
:1057c4003020200080168800100020000027880068
:1057d400400028001027880030002000202788007f
:1057e40000202000700388009000200080038800bf
:1057f40086fd07005eff07000efd07009df507000c
:085804000080fa00000006001c
:020000040000fa
:10580c00f03fb1000180b10006003500ee03090045
:10581c0000000000403fb1000180b100fbff3d00e3
:10582c001000b000203fb0000200350000800900dd
:08583c0000000000000006005e
:020000040000fa
:0200000400fffb
:10fc000000000000000000000000000000000000f4
:10fc100000000000000000000000000000000000e4
:10fc200000000000000000000000000000000000d4
:10fc300000000000000000000000000000000000c4
:10fc400000000000000000000000000000000000b4
:10fc500000000000000000000000000000000000a4
:10fc60000000000000000000000000000000000094
:10fc70000000000000000000000000000000000084
:10fc80000000000000000000000000000000000074
:10fc90000000000000000000000000000000000064
:0cfca00000000000000000000000000058
:020000040000fa
:0200000401f009
:04000000ffff0000fe
:020000040000fa
:0200000401f009
:04000800ffff0000f6
:020000040000fa
:0200000401f009
:04000c00ffff0000f2
:020000040000fa
:0200000401f009
:04001000bbff000032
:020000040000fa
:0200000401f009
:04001400ffff0000ea
:020000040000fa
:0200000401f009
:04001800ffff0000e6
:020000040000fa
:0200000401f009
:04001c00ffff0000e2
:020000040000fa
:0200000401f009
:04002000ffff0000de
:00000001FF
