:020000040000fa
:080000000001040000000000f3
:020000040000fa
:0400080004020000ee
:020000040000fa
:04000c0016020000d8
:020000040000fa
:0400100026020000c4
:020000040000fa
:040014000c020000da
:020000040000fa
:040018001e020000c4
:020000040000fa
:04001c002e020000b0
:020000040000fa
:040020002e020000ac
:020000040000fa
:040024002e020000a8
:020000040000fa
:040028002e020000a4
:020000040000fa
:04002c002e020000a0
:020000040000fa
:040030002e0200009c
:020000040000fa
:040034002e02000098
:020000040000fa
:040038002e02000094
:020000040000fa
:04003c002e02000090
:020000040000fa
:040040002e0200008c
:020000040000fa
:040044002e02000088
:020000040000fa
:040048002e02000084
:020000040000fa
:04004c002e02000080
:020000040000fa
:040050002e0200007c
:020000040000fa
:040054002e02000078
:020000040000fa
:040058002e02000074
:020000040000fa
:04005c002e02000070
:020000040000fa
:040060002e0200006c
:020000040000fa
:040064002e02000068
:020000040000fa
:040068002e02000064
:020000040000fa
:04006c002e02000060
:020000040000fa
:040070002e0200005c
:020000040000fa
:040074002e02000058
:020000040000fa
:040078002e02000054
:020000040000fa
:04007c002e02000050
:020000040000fa
:040080002e0200004c
:020000040000fa
:040084002e02000048
:020000040000fa
:040088002e02000044
:020000040000fa
:04008c002e02000040
:020000040000fa
:040090002e0200003c
:020000040000fa
:040094002e02000038
:020000040000fa
:040098002e02000034
:020000040000fa
:04009c002e02000030
:020000040000fa
:0400a0002e0200002c
:020000040000fa
:0400a4002e02000028
:020000040000fa
:0400a8002e02000024
:020000040000fa
:0400ac002e02000020
:020000040000fa
:0400b0002e0200001c
:020000040000fa
:0400b4002e02000018
:020000040000fa
:0400b8002e02000014
:020000040000fa
:0400bc002e02000010
:020000040000fa
:0400c0002e0200000c
:020000040000fa
:0400c4002e02000008
:020000040000fa
:0400c8002e02000004
:020000040000fa
:0400cc002e02000000
:020000040000fa
:0400d0002e020000fc
:020000040000fa
:0400d4002e020000f8
:020000040000fa
:0400d8002e020000f4
:020000040000fa
:0400dc002e020000f0
:020000040000fa
:0400e0002e020000ec
:020000040000fa
:0400e4002e020000e8
:020000040000fa
:0400e8002e020000e4
:020000040000fa
:0400ec002e020000e0
:020000040000fa
:0400f0002e020000dc
:020000040000fa
:0400f4002e020000d8
:020000040000fa
:0400f8002e020000d4
:020000040000fa
:0400fc002e020000d0
:020000040000fa
:040100002e020000cb
:020000040000fa
:040104002e020000c7
:020000040000fa
:040108002e020000c3
:020000040000fa
:04010c002e020000bf
:020000040000fa
:040110002e020000bb
:020000040000fa
:040114002e020000b7
:020000040000fa
:040118002e020000b3
:020000040000fa
:04011c002e020000af
:020000040000fa
:040120002e020000ab
:020000040000fa
:040124002e020000a7
:020000040000fa
:040128002e020000a3
:020000040000fa
:04012c002e0200009f
:020000040000fa
:040130002e0200009b
:020000040000fa
:040134002e02000097
:020000040000fa
:040138002e02000093
:020000040000fa
:04013c002e0200008f
:020000040000fa
:040140002e0200008b
:020000040000fa
:040144002e02000087
:020000040000fa
:040148002e02000083
:020000040000fa
:04014c002e0200007f
:020000040000fa
:040150002e0200007b
:020000040000fa
:040154002e02000077
:020000040000fa
:040158002e02000073
:020000040000fa
:04015c002e0200006f
:020000040000fa
:040160002e0200006b
:020000040000fa
:040164002e02000067
:020000040000fa
:040168002e02000063
:020000040000fa
:04016c002e0200005f
:020000040000fa
:040170002e0200005b
:020000040000fa
:040174002e02000057
:020000040000fa
:040178002e02000053
:020000040000fa
:04017c002e0200004f
:020000040000fa
:040180002e0200004b
:020000040000fa
:040184002e02000047
:020000040000fa
:040188002e02000043
:020000040000fa
:04018c002e0200003f
:020000040000fa
:040190002e0200003b
:020000040000fa
:040194002e02000037
:020000040000fa
:040198002e02000033
:020000040000fa
:04019c002e0200002f
:020000040000fa
:0401a0002e0200002b
:020000040000fa
:0401a4002e02000027
:020000040000fa
:0401a8002e02000023
:020000040000fa
:0401ac002e0200001f
:020000040000fa
:0401b0002e0200001b
:020000040000fa
:0401b4002e02000017
:020000040000fa
:0401b8002e02000013
:020000040000fa
:0401bc002e0200000f
:020000040000fa
:0401c0002e0200000b
:020000040000fa
:0401c4002e02000007
:020000040000fa
:0401c8002e02000003
:020000040000fa
:0401cc002e020000ff
:020000040000fa
:0401d0002e020000fb
:020000040000fa
:0401d4002e020000f7
:020000040000fa
:0401d8002e020000f3
:020000040000fa
:0401dc002e020000ef
:020000040000fa
:0401e0002e020000eb
:020000040000fa
:0401e4002e020000e7
:020000040000fa
:0401e8002e020000e3
:020000040000fa
:0401ec002e020000df
:020000040000fa
:0401f0002e020000db
:020000040000fa
:0401f4002e020000d7
:020000040000fa
:0401f8002e020000d3
:020000040000fa
:0401fc002e020000cf
:020000040000fa
:100200002fc520000eff27000e018800000000000f
:10021000000020000000e000020032000001200089
:1002200020028800140007008e0007000000e00094
:1002300003003a00409d2200010020000200370028
:100240000000200001002000810f7000010032003a
:1002500014000700000020000000e000020032004f
:100260000000020000000000a625020000000000bf
:100270000040da000000fe004440a900002b2100ed
:100280000000e00003003200002020009001880000
:100290004440a800000006008a1f78008b1f7800e9
:1002a00000000600a1028800800478000000eb0036
:1002b0001f003700e284440054a0b4009905ba003e
:1002c000e284440054a0b4009906ba00e2844400d9
:1002d00054a0b4000006eb00476fde00fd07b2003b
:1002e000ae018800636ce10003003a00eaff0700fa
:1002f0000000eb000e003700606ce10008003a00df
:10030000004deb000a05e800020039003420ec0043
:100310000af0a0008b05e900f9ff3e000400370059
:100320006168e100010032000086eb000b0007006d
:1003300019c7ba001905ba000e04e00003003a001c
:100340000a00e000dbff3a0000000600fe07b200f2
:10035000ae0288008a047800f5ff37000cd0a300b5
:10036000e20f4d001c00390089027800354dba00bb
:100370000a05e800020039003420ec000af0a00071
:100380008b05e9000f003200254dba000a05e80090
:10039000020039003420ec000af0a0008b05e900cf
:1003a000080032000c00e0000600320015cdba0053
:1003b0000a05e800020039003420ec000af0a00031
:1003c0008b05e9008984e80054a0b4000b00e0002c
:1003d000e2ff3a00000006009902ba00055d7800cd
:1003e0008b05e900f7ff3200c82ade00055d7800c2
:1003f0008b05e900f3ff32000c00e000f1ff320052
:1004000019ddba00eeff37003600f8008020a900a1
:100410000000eb006a1507003600f8006c150700b5
:100420008040a90010002000651507003600f80084
:100430008060a90020002000611507003600f80048
:100440008080a900300020005d1507003600f8000c
:100450008600a90070002000591507000040da004e
:100460000000fe0000000500839f68000100e0001e
:1004700002003d0060001000e08018000300e00072
:1004800002003d0060011100e08119003800070002
:100490004f00e00002003b0060001000e080180008
:1004a000000006000001be001c0007000470a70049
:1004b00003f0a10003f8a30013003a006509b1009e
:1004c00010003200090035006928e1000200350003
:1004d0000100280000000500000040008180480065
:1004e0008502e900fcff3a0000000600f88f420098
:1004f000050035008100d1000080d3008502e800ae
:10050000fcff3a00000006008000eb000000050040
:100510004f89de008201780050013700c70ade00f3
:10052000f107b200f50fb20008003200e1cf42003f
:10053000020032000170a00024000500810f70004d
:10054000010032000408050044000500810f70001e
:1005500002003a00140005008502e9000000400096
:1005600081c04800fcff3b000170a0002400050092
:100570006022b800060220000000d0008180d20076
:100580000482d2008582d2000000a0000202520044
:1005900083825a00030031000202420083824a0033
:1005a0000000a1000603e900f3ff3a000000060086
:1005b000889fbe008a9fbe0030044200b0844a007b
:1005c00030054b0090854b006000b1000898be00dc
:1005d0000a90be000440e10005c8e10006d0e10039
:1005e00007d8e10002003100680040001008e80070
:1005f0004f05be004f04be0000000600889fbe00ed
:100600008a9fbe003004be002005be0004185400be
:1006100005985c0006185d0007985d001100200039
:100620000440e10005c8e10006d0e10007d8e10080
:10063000010039008000eb00108810004f05be005b
:100640004f04be00000006001200fa00889fbe00a2
:100650008a9fbe008c9fbe00e0b79f00f1b79f004d
:1006600082bf9f0093bf9f000605be000404be002a
:100670000000eb00d0b79f00c0b79f00b0b79f004d
:10068000a0b79f0090b79f000006eb005fb19700f6
:10069000cfb09700820141003fb097000200e00018
:1006a00004003d00370007007e805700c0ff0700b0
:1006b00003003700330007007e805700cfff07009c
:1006c000dfb697000d00e0000c0035006fb2970018
:1006d000ffb297000fbb97009fbb97001000200050
:1006e000010020006011b8000002720081827200d7
:1006f00002037300838373001b0007000c06e800ed
:1007000001042000810f5600e0ff3a000d00e000d8
:1007100004003d000802be000a03be007e805700b0
:10072000a3ff07005fa897000000e00005003a0063
:100730001fb29700afb297003fb39700cfb39700b7
:10074000090007006fb09700ffb097000fb997003e
:100750009fb997004f06be004f05be004f04be0074
:100760000080fa00000006000100070000000600fb
:10077000a4b79f00b5b79f00c6b79f00d7b79f002b
:10078000000006004f09de0082817100b3b79f00b0
:100790004f01de008180400082807000a1b79f0081
:1007a0008fb097004f09de0000004000020070008b
:1007b00090b79f007fa897004f01de008180400026
:1007c0008280700081b79f000d0007004f3ade0065
:1007d0000000400004007000f0af9f000800070018
:1007e0000402420085824a0006034b0087834b00c7
:1007f000dfff07000802be000a03be00000006007b
:100800002fb29700bfb297004fb39700dfb39700a6
:1008100000000600881f780018002000881f78005c
:1008200089ff07008f87e9004f0478000000060069
:10083000801feb0084ff07008f87e900000006009f
:10084000889fbe008a9fbe00e00f5000e08f5800d6
:10085000e00f5900e08f59000c003d006044b800e3
:100860006055b8000000540081805c0002015d000a
:1008700083815d00180020001500070008003d007e
:10088000180007000004eb00050037000004eb002f
:100890000f00070002003d001200070018002000b2
:1008a000dcff07000800e000060032006022b8000c
:1008b0006033b8000000520081805a0002015b00e2
:1008c00083815b004f05be004f04be0000000600a0
:1008d000e00f5200e08f5a00e00f5b00e08f5b00fa
:1008e000000006006044b8006055b80004025400df
:1008f00085825c0006035d0087835d0000000600c2
:10090000889fbe008a9fbe008c1f7800e00f5000b9
:10091000e08f5800e00f5900e08f59000d003d00b6
:100920006044b8006055b8000000540081805c004d
:1009300002015d0083815d001c0020000820e100b1
:1009400009a8e1000ab0e1000bb8e1000d003d008c
:10095000080037000006eb00e00f5200e08f5a005d
:10096000e00f5b00e08f5b0006003d006044b800d4
:100970006055b8000402540085825c0006035d00e7
:1009800087835d00aaff07000c00e000060032002c
:100990006022b8006033b8000000520081805a0025
:1009a00002015b0083815b004f0678004f05be00ab
:1009b0004f04be0000000600889fbe008a9fbe0054
:1009c0008c1f78000006eb00e00f5000e08f58000d
:1009d000e00f5900e08f590007003d006044b80067
:1009e0006055b8000000540081805c0002015d0089
:1009f00083815d001c002000e00f5200e08f5a0050
:100a0000e00f5b00e08f5b0007003d006044b80032
:100a10006055b8000402540085825c0006035d0046
:100a200087835d000c00a200710007000c00e0004d
:100a3000060032006022b8006033b80000005200a7
:100a400081805a0002015b0083815b004f067800c1
:100a50004f05be004f04be0000000600881f78004e
:100a6000030478000300e00007003d006000100070
:100a7000e080180060011900e081190002003b00cd
:100a800001f02d00030037000400070008f0a70064
:100a900001f0a0004f04780000000600889fbe000f
:100aa0008a9fbe00008270000402710004827100ff
:100ab000260032000004be000200be006011b80033
:100ac0006b092000950220000182cf000a00390046
:100ad0000541b1000082cf00070039000541b10097
:100ae0000982cf00040039000541b1000882cf001f
:100af000010039000541b1000542520012003200e8
:100b00000a003b0082817100610164008100d10014
:100b10000080d3008984d3000884d3008b05e800cb
:100b20000442e800f7ff3a000700370008044400d9
:100b300089844c0000004800818048008b05e90052
:100b40000442e900f9ff3a00030007004f05be0028
:100b50004f04be00000006008100200061805500a7
:100b60000b003d000b00200061fe2f000100e100a2
:100b70001d00340082817100610164008904d1008c
:100b80000884d3000000e800faff3a00710020005a
:100b90006100640003007000020060000900320080
:100ba00061044400e0844c000988a500050032007f
:100bb0008b05e8006808e10002003a008904d100d2
:100bc0000884d300f20f20000258e10005003d0028
:100bd000c75ddd00f907b200898075000800780064
:100be000000006000bf827008b00780000000500cd
:100bf000889fbe008a9fbe008c9fbe000404b80080
:100c00000506b8008904460060854e000606b80057
:100c10000a054600e0854e000706b8008b05460031
:100c2000040eb800890446000a854e00e0854d0098
:100c3000050eb8000a0546008b854e00060eb8006a
:100c40008b0546000416b8000a0546008b854e0049
:100c50000516b8008b054600041eb8008b0546003b
:100c60000800be000a01be004f06be004f05be00d0
:080c70004f04be000000060065
:020000040000fa
:100c7800ff01000001010000010100000101000066
:100c88000101000001010000010100000101000054
:100c98000101000001010000010100000101000044
:100ca8000101000001010000010100000101000034
:100cb8000101000001010000010100000101000024
:100cc8000101000001010000010100000101000014
:100cd8000101000001010000010100000101000004
:100ce80001010000010100000101000001010000f4
:100cf80001010000010100000101000001010000e4
:100d080001010000010100000101000001010000d3
:100d180001010000010100000101000001010000c3
:100d280001010000010100000101000001010000b3
:100d380001010000010100000101000001010000a3
:100d48000101000001010000010100000101000093
:100d58000101000001010000010100000101000083
:100d680001010000010100000101000001ff000075
:100d7800ff0000000000000000000000000000006c
:100d8800000000000000000000000000000000005b
:100d9800000000000000000000000000000000004b
:100da800000000000000000000000000000000003b
:100db800000000000000000000000000000000002b
:100dc800000000000000000000000000000000001b
:100dd800000000000000000000000000000000000b
:100de80000000000000000000000000000000000fb
:100df80000000000000000000000000000000000eb
:100e080000000000000000000000000000000000da
:100e180000000000000000000000000000000000ca
:100e280000000000000000000000000000000000ba
:100e380000000000000000000000000000000000aa
:100e4800000000000000000000000000000000009a
:100e5800000000000000000000000000000000008a
:100e680000000000000000000000000000ff00007b
:100e7800ff0000000000000000000000000000006b
:100e8800000000000000000000000000000000005a
:100e9800000000000000000000000000000000004a
:100ea800000000000000000000000000000000003a
:100eb800000000000000000000000000000000002a
:100ec800000000000000000000000000000000001a
:100ed800000000000000000000000000000000000a
:100ee80000000000000000000000000000000000fa
:100ef80000000000000000000000000000000000ea
:100f080000000000000000000000000000000000d9
:100f180000000000000000000000000000000000c9
:100f280000000000000000000000000000000000b9
:100f380000000000000000000000000000000000a9
:100f48000000000000000000000000000000000099
:100f58000000000000000000000000000000000089
:100f680000000000000000000000000000ff00007a
:100f7800ff0000000000000000000000000000006a
:100f88000000000000000000000000000000000059
:100f98000000000000000000000000000000000049
:100fa8000000000000000000000000000000000039
:100fb8000000000000000000000000000000000029
:100fc8000000000000000000000000000000000019
:100fd8000000000000000000000000000000000009
:100fe80000000000000000000000000000000000f9
:100ff80000000000000000000000000000000000e9
:1010080000000000000000000000000000000000d8
:1010180000000000000000000000000000000000c8
:1010280000000000000000000000000000000000b8
:1010380000000000000000000000000000000000a8
:101048000000000000000000000000000000000098
:101058000000000000000000000000000000000088
:1010680000000000000000000000000000ff000079
:10107800ff00000000000000000000000000000069
:101088000000000000000000000000000000000058
:101098000000000000000000000000000000000048
:1010a8000000000000000000000000000000000038
:1010b8000000000000000000000000000000000028
:1010c8000000000000000000000000000000000018
:1010d8000000000000000000000000000000000008
:1010e80000000000000000000000000000000000f8
:1010f80000000000000000000000000000000000e8
:1011080000000000000000000000000000000000d7
:1011180000000000000000000000000000000000c7
:1011280000000000000000000000000000000000b7
:1011380000000000000000000000000000000000a7
:101148000000000000000000000000000000000097
:101158000000000000000000000000000000000087
:1011680000000000000000000000000000ff000078
:10117800ff00000000000000000000000000000068
:101188000000000000000000000000000000000057
:101198000000000000000000000000000000000047
:1011a8000000000000000000000000000000000037
:1011b8000000000000000000000000000000000027
:1011c8000000000000000000000000000000000017
:1011d8000000000000000000000000000000000007
:1011e80000000000000000000000000000000000f7
:1011f80000000000000000000000000000000000e7
:1012080000000000000000000000000000000000d6
:1012180000000000000000000000000000000000c6
:1012280000000000000000000000000000000000b6
:1012380000000000000000000000000000000000a6
:101248000000000000000000000000000000000096
:101258000000000000000000000000000000000086
:1012680000000000000000000000000000ff000077
:10127800ff010000fd050000050500000505000050
:1012880005150000f515000015250000c50500002e
:10129800058500004545000045850000054500001e
:1012a800c545000005450000c545000045c50000ce
:1012b800854500004585000005050000050500007e
:1012c80005050000fd010000fd0500000505000002
:1012d80005050000050500000505000005050000de
:1012e80015f500001505000015f5000015050000ae
:1012f80015f5000015150000e505000005050000be
:1013080005050000050500000505000005050000ad
:101318000505000005fd000001fd000005050000b1
:1013280005150000f5950000d535000005450000bd
:10133800c5850000454500008505000045e500001d
:1013480045450000450500000505000085450000ed
:10135800454500008505000005450000c5850000dd
:10136800454500000505000005fd000001ff0000df
:10137800ff800000bfa00000a0a00000a0a0000007
:10138800a0a40000a7a40000a4a20000a1a000003f
:10139800a0a30000a4a40000a4a30000a0a0000033
:1013a800a3a40000a3a40000a3a00000a4a7000019
:1013b800a4a00000a4a70000a4a00000a0a0000012
:1013c800a0a00000bf800000bfa00000a0a00000f7
:1013d800a0a00000a0a00000a0a00000a0a0000005
:1013e800a0a30000a4a40000a4a30000a0a00000e3
:1013f800a4a70000a5a10000a0a00000a0a00000d4
:10140800a0a00000a0a00000a0a00000a0a00000d4
:10141800a0a00000a0bf000080bf0000a0a00000a6
:10142800a0a40000a7a40000a5a60000a0a4000096
:10143800a7a40000a0a40000a7a40000a0a3000087
:10144800a4a40000a4a20000a0a00000a3a500007e
:10145800a5a50000a5a00000a0a40000a7a4000066
:10146800a4a00000a0a00000a0bf000080ff000012
:10147800ff0100000101000001010000010100005e
:10148800010100000101000001010000010100004c
:10149800010100000101000001010000010100003c
:1014a800010100000101000001010000010100002c
:1014b800010100000101000001010000010100001c
:1014c800010100000101000001010000010100000c
:1014d80001010000010100000101000001010000fc
:1014e80001010000010100000101000001010000ec
:1014f80001010000010100000101000001010000dc
:1015080001010000010100000101000001010000cb
:1015180001010000010100000101000001010000bb
:1015280001010000010100000101000001010000ab
:10153800010100000101000001010000010100009b
:10154800010100000101000001010000010100008b
:10155800010100000101000001010000010100007b
:1015680001010000010100000101000001ff00006d
:10157800ff00000000000000000000000000000064
:101588000000000000000000000000000000000053
:101598000000000000000000000000000000000043
:1015a8000000000000000000000000000000000033
:1015b8000000000000000000000000000000000023
:1015c8000000000000000000000000000000000013
:1015d8000000000000000000000000000000000003
:1015e80000000000000000000000000000000000f3
:1015f80000000000000000000000000000000000e3
:1016080000000000000000000000000000000000d2
:1016180000000000000000000000000000000000c2
:1016280000000000000000000000000000000000b2
:1016380000000000000000000000000000000000a2
:101648000000000000000000000000000000000092
:101658000000000000000000000000000000000082
:1016680000000000000000000000000000ff000073
:10167800ff00000000000000000000000000000063
:101688000000000000000000000000000000000052
:101698000000000000000000000000000000000042
:1016a8000000000000000000000000000000000032
:1016b8000000000000000000000000000000000022
:1016c8000000000000000000000000000000000012
:1016d8000000000000000000000000000000000002
:1016e80000000000000000000000000000000000f2
:1016f80000000000000000000000000000000000e2
:1017080000000000000000000000000000000000d1
:1017180000000000000000000000000000000000c1
:1017280000000000000000000000000000000000b1
:1017380000000000000000000000000000000000a1
:101748000000000000000000000000000000000091
:101758000000000000000000000000000000000081
:1017680000000000000000000000000000ff000072
:10177800ff00000000000000000000000000000062
:101788000000000000000000000000000000000051
:101798000000000000000000000000000000000041
:1017a8000000000000000000000000000000000031
:1017b8000000000000000000000000000000000021
:1017c8000000000000000000000000000000000011
:1017d8000000000000000000000000000000000001
:1017e80000000000000000000000000000000000f1
:1017f80000000000000000000000000000000000e1
:1018080000000000000000000000000000000000d0
:1018180000000000000000000000000000000000c0
:1018280000000000000000000000000000000000b0
:1018380000000000000000000000000000000000a0
:101848000000000000000000000000000000000090
:101858000000000000000000000000000000000080
:1018680000000000000000000000000000ff000071
:10187800ff00000000000000000000000000000061
:101888000000000000000000000000000000000050
:101898000000000000000000000000000000000040
:1018a8000000000000000000000000000000000030
:1018b8000000000000000000000000000000000020
:1018c8000000000000000000000000000000000010
:1018d8000000000000000000000000000000000000
:1018e80000000000000000000000000000000000f0
:1018f80000000000000000000000000000000000e0
:1019080000000000000000000000000000000000cf
:1019180000000000000000000000000000000000bf
:1019280000000000000000000000000000000000af
:10193800000000000000000000000000000000009f
:10194800000000000000000000000000000000008f
:10195800000000000000000000000000000000007f
:1019680000000000000000000000000000ff000070
:10197800ff00000000000000000000000000000060
:10198800000000000000000000000000000000004f
:10199800000000000000000000000000000000003f
:1019a800000000000000000000000000000000002f
:1019b800000000000000000000000000000000001f
:1019c800000000000000000000000000000000000f
:1019d80000000000000000000000000000000000ff
:1019e80000000000000000000000000000000000ef
:1019f80000000000000000000000000000000000df
:101a080000000000000000000000000000000000ce
:101a180000000000000000000000000000000000be
:101a280000000000000000000000000000000000ae
:101a3800000000000000000000000000000000009e
:101a4800000000000000000000000000000000008e
:101a5800000000000000000000000000000000007e
:101a680000000000000000000000000000ff00006f
:101a7800ff010000fd0500000565000095950000c8
:101a880095250000058500004545000085450000b6
:101a9800f5450000050500000515000015f50000d6
:101aa8001515000005d5000005c500008545000096
:101ab8008585000045c500000585000045450000f6
:101ac80085050000fd010000fd050000050500007a
:101ad800050500000505000005850000f515000056
:101ae800f585000005050000c50500000505000096
:101af800c5450000f5450000058500004545000086
:101b080045850000050500000505000005050000e5
:101b18000505000005fd000001fd000005050000a9
:101b28000505000075950000959500003505000035
:101b3800854500004585000045f500004505000085
:101b480005050000f515000015150000e505000065
:101b5800f5050000f515000015250000c505000075
:101b6800050500000505000005fd000001ff000057
:101b7800ff800000bfa00000a0a60000a8a80000e9
:101b8800a8a70000a0a70000a9a90000a5a0000020
:101b9800afa80000a0a00000a0a00000a0af000017
:101ba800a0a00000a0af0000a0af0000a0a000000f
:101bb800afa00000a0af0000a0a70000a9a90000e6
:101bc800a5a00000bf800000bfa00000a0a00000ea
:101bd800a0a00000a0a00000aea70000a2a20000e4
:101be800a2a70000aea00000a7a80000a8a40000bb
:101bf800afa00000afa80000a0a70000a8a80000a0
:101c0800a8a70000a0a00000a0a00000a0a00000bd
:101c1800a0a00000a0bf000080bf0000a0a000009e
:101c2800a0a00000a6a80000a8a80000a7a0000087
:101c3800a7a90000a9a50000a0af0000a8a0000067
:101c4800a0a00000afa10000a1a10000a0a000007a
:101c5800afa00000afa80000a8a40000a3a0000047
:101c6800a0a00000a0a00000a0bf000080ff00000e
:101c780050690000743a0000202000002000000095
:101c8800466f00006f640000203100003a00000039
:101c9800466f00006f640000203200003a00000028
:101ca800466f00006f640000203300003a00000017
:101cb800466f00006f640000203400003a00000006
:101cc800466f00006f640000203500003a000000f5
:101cd800466f00006f640000203600003a000000e4
:101ce800506c00006561000073650000205300001f
:101cf800657400000074000068650000205400004e
:101d0800696d000065210000005300006574000043
:101d18003a20000000500000726500007373000054
:101d280020270000454e00005445000052270000bf
:101d380020000000746f000020530000657400004c
:101d4800207400006865000020540000696d0000e0
:101d580065000000ff010000010100000101000012
:101d68000101000001010000010100000101000063
:101d78000101000001010000010100000101000053
:101d88000101000001010000010100000101000043
:101d98000101000001010000010100000101000033
:101da8000101000001010000010100000101000023
:101db8000101000001010000010100000101000013
:101dc8000101000001010000010100000101000003
:101dd80001010000010100000101000001010000f3
:101de80001010000010100000101000001010000e3
:101df80001010000010100000101000001010000d3
:101e080001010000010100000101000001010000c2
:101e180001010000010100000101000001010000b2
:101e280001010000010100000101000001010000a2
:101e38000101000001010000010100000101000092
:101e48000101000001010000010100000101000082
:101e580001ff0000ff00000000000000000000007b
:101e6800000000000000000000000000000000006a
:101e7800000000000000000000000000000000005a
:101e8800000000000000000000000000000000004a
:101e9800000000000000000000000000000000003a
:101ea800000000000000000000000000000000002a
:101eb800000000000000000000000000000000001a
:101ec800000000000000000000000000000000000a
:101ed80000000000000000000000000000000000fa
:101ee80000000000000000000000000000000000ea
:101ef80000000000000000000000000000000000da
:101f080000000000000000000000000000000000c9
:101f180000000000000000000000000000000000b9
:101f280000000000000000000000000000000000a9
:101f38000000000000000000000000000000000099
:101f48000000000000000000000000000000000089
:101f580000ff0000ff00000000000000000000007b
:101f68000000000000000000000000000000000069
:101f78000000000000000000000000000000000059
:101f88000000000000000000000000000000000049
:101f98000000000000000000000000000000000039
:101fa8000000000000000000000000000000000029
:101fb8000000000000000000000000000000000019
:101fc8000000000000000000000000000000000009
:101fd80000000000000000000000000000000000f9
:101fe80000000000000000000000000000000000e9
:101ff80000000000000000000000000000000000d9
:1020080000000000000000000000000000000000c8
:1020180000000000000000000000000000000000b8
:1020280000000000000000000000000000000000a8
:102038000000000000000000000000000000000098
:102048000000000000000000000000000000000088
:1020580000ff0000ff00000000000000000000007a
:102068000000000000000000000000000000000068
:102078000000000000000000000000000000000058
:102088000000000000000000000000000000000048
:102098000000000000000000000000000000000038
:1020a8000000000000000000000000000000000028
:1020b8000000000000000000000000000000000018
:1020c8000000000000000000000000000000000008
:1020d80000000000000000000000000000000000f8
:1020e80000000000000000000000000000000000e8
:1020f80000000000000000000000000000000000d8
:1021080000000000000000000000000000000000c7
:1021180000000000000000000000000000000000b7
:1021280000000000000000000000000000000000a7
:102138000000000000000000000000000000000097
:102148000000000000000000000000000000000087
:1021580000ff0000ff000000000000000000000079
:102168000000000000000000000000000000000067
:102178000000000000000000000000000000000057
:102188000000000000000000000000000000000047
:102198000000000000000000000000000000000037
:1021a8000000000000000000000000000000000027
:1021b8000000000000000000000000000000000017
:1021c8000000000000000000000000000000000007
:1021d80000000000000000000000000000000000f7
:1021e80000000000000000000000000000000000e7
:1021f80000000000000000000000000000000000d7
:1022080000000000000000000000000000000000c6
:1022180000000000000000000000000000000000b6
:1022280000000000000000000000000000000000a6
:102238000000000000000000000000000000000096
:102248000000000000000000000000000000000086
:1022580000ff0000ff000000000000000000000078
:102268000000000000000000000000000000000066
:102278000000000000000000000000000000000056
:102288000000000000000000000000000000000046
:102298000000000000000000000000000000000036
:1022a8000000000000000000000000000000000026
:1022b8000000000000000000000000000000000016
:1022c8000000000000000000000000000000000006
:1022d80000000000000000000000000000000000f6
:1022e80000000000000000000000000000000000e6
:1022f80000000000000000000000000000000000d6
:1023080000000000000000000000000000000000c5
:1023180000000000000000000000000000000000b5
:1023280000000000000000000000000000000000a5
:102338000000000000000000000000000000000095
:102348000000000000000000000000000000000085
:1023580000ff0000ff010000fd050000050500006a
:102368000505000005150000f515000015250000fd
:10237800c5050000058500004545000045850000ad
:1023880005450000c545000005450000c54500009d
:1023980045c500008545000045850000050500008d
:1023a8000505000005050000fd010000fd05000011
:1023b80005050000050500000505000005050000ed
:1023c8000505000015f500001505000015f50000cd
:1023d8001505000015f5000015150000e5050000bd
:1023e80005050000050500000505000005050000bd
:1023f800050500000505000005fd000001fd0000c1
:102408000505000005150000f5950000d53500000c
:1024180005450000c585000045450000850500000c
:1024280045e500004545000045050000050500009c
:10243800854500004545000085050000054500006c
:10244800c5850000454500000505000005fd0000a4
:1024580001ff0000ff800000bfa00000a0a0000056
:10246800a0a00000a0a40000a7a40000a4a200004f
:10247800a1a00000a0a30000a4a40000a4a3000041
:10248800a0a00000a3a40000a3a40000a3a0000033
:10249800a4a70000a4a00000a4a70000a4a0000016
:1024a800a0a00000a0a00000bf800000bfa0000006
:1024b800a0a00000a0a00000a0a00000a0a0000014
:1024c800a0a00000a0a30000a4a40000a4a30000f2
:1024d800a0a00000a4a70000a5a10000a0a00000e3
:1024e800a0a00000a0a00000a0a00000a0a00000e4
:1024f800a0a00000a0a00000a0bf000080bf0000b6
:10250800a0a00000a0a40000a7a40000a5a60000a9
:10251800a0a40000a7a40000a0a40000a7a4000095
:10252800a0a30000a4a40000a4a20000a0a0000092
:10253800a3a50000a5a50000a5a00000a0a4000078
:10254800a7a40000a4a00000a0a00000a0bf000055
:1025580080ff0000537500006e0000004d6f000002
:102568006e0000005475000065000000576500000b
:102578006400000054680000750000004672000006
:102588006900000053610000740000004e5500000f
:102598004c0000004a4100004e0000004645000083
:1025a800420000004d410000520000004150000070
:1025b800520000004d410000590000004a5500003b
:1025c8004e0000004a5500004c0000004155000034
:1025d8004700000053450000500000004f43000032
:1025e800540000004e4f0000560000004445000013
:1025f80043000000224500006e7400006572000070
:1026080022200000666f0000722000006e000000ab
:10261800657800007420000046690000656c0000c1
:1026280064000000557000002f4400006e20000078
:102638006b65000079730000207400006f000000d3
:1026480063680000616e00006765000020540000a8
:10265800696d0000652e0000005e00005e0000004d
:1026680020200000205e00005e5e000000200000c8
:1026780020200000205e00005e00000020200000f6
:102688002000000020200000205e00005e00000006
:10269800ff0100000101000001010000010100002c
:1026a800010100000101000001010000010100001a
:1026b800010100000101000001010000010100000a
:1026c80001010000010100000101000001010000fa
:1026d80001010000010100000101000001010000ea
:1026e80001010000010100000101000001010000da
:1026f80001010000010100000101000001010000ca
:1027080001010000010100000101000001010000b9
:1027180001010000010100000101000001010000a9
:102728000101000001010000010100000101000099
:102738000101000001010000010100000101000089
:102748000101000001010000010100000101000079
:102758000101000001010000010100000101000069
:102768000101000001010000010100000101000059
:102778000101000001010000010100000101000049
:1027880001010000010100000101000001ff00003b
:10279800ff00000000000000000000000000000032
:1027a8000000000000000000000000000000000021
:1027b8000000000000000000000000000000000011
:1027c8000000000000000000000000000000000001
:1027d80000000000000000000000000000000000f1
:1027e80000000000000000000000000000000000e1
:1027f80000000000000000000000000000000000d1
:1028080000000000000000000000000000000000c0
:1028180000000000000000000000000000000000b0
:1028280000000000000000000000000000000000a0
:102838000000000000000000000000000000000090
:102848000000000000000000000000000000000080
:102858000000000000000000000000000000000070
:102868000000000000000000000000000000000060
:102878000000000000000000000000000000000050
:1028880000000000000000000000000000ff000041
:10289800ff00000000000000000000000000000031
:1028a8000000000000000000000000000000000020
:1028b8000000000000000000000000000000000010
:1028c8000000000000000000000000000000000000
:1028d80000000000000000000000000000000000f0
:1028e80000000000000000000000000000000000e0
:1028f80000000000000000000000000000000000d0
:1029080000000000000000000000000000000000bf
:1029180000000000000000000000000000000000af
:10292800000000000000000000000000000000009f
:10293800000000000000000000000000000000008f
:10294800000000000000000000000000000000007f
:10295800000000000000000000000000000000006f
:10296800000000000000000000000000000000005f
:10297800000000000000000000000000000000004f
:1029880000000000000000000000000000ff000040
:10299800ff00000000000000000000000000000030
:1029a800000000000000000000000000000000001f
:1029b800000000000000000000000000000000000f
:1029c80000000000000000000000000000000000ff
:1029d80000000000000000000000000000000000ef
:1029e80000000000000000000000000000000000df
:1029f80000000000000000000000000000000000cf
:102a080000000000000000000000000000000000be
:102a180000000000000000000000000000000000ae
:102a2800000000000000000000000000000000009e
:102a3800000000000000000000000000000000008e
:102a4800000000000000000000000000000000007e
:102a5800000000000000000000000000000000006e
:102a6800000000000000000000000000000000005e
:102a7800000000000000000000000000000000004e
:102a880000000000000000000000000000ff00003f
:102a9800ff0000000000000000000000000000002f
:102aa800000000000000000000000000000000001e
:102ab800000000000000000000000000000000000e
:102ac80000000000000000000000000000000000fe
:102ad80000000000000000000000000000000000ee
:102ae80000000000000000000000000000000000de
:102af80000000000000000000000000000000000ce
:102b080000000000000000000000000000000000bd
:102b180000000000000000000000000000000000ad
:102b2800000000000000000000000000000000009d
:102b3800000000000000000000000000000000008d
:102b4800000000000000000000000000000000007d
:102b5800000000000000000000000000000000006d
:102b6800000000000000000000000000000000005d
:102b7800000000000000000000000000000000004d
:102b880000000000000000000000000000ff00003e
:102b9800ff0000000000000000000000000000002e
:102ba800000000000000000000000000000000001d
:102bb800000000000000000000000000000000000d
:102bc80000000000000000000000000000000000fd
:102bd80000000000000000000000000000000000ed
:102be80000000000000000000000000000000000dd
:102bf80000000000000000000000000000000000cd
:102c080000000000000000000000000000000000bc
:102c180000000000000000000000000000000000ac
:102c2800000000000000000000000000000000009c
:102c3800000000000000000000000000000000008c
:102c4800000000000000000000000000000000007c
:102c5800000000000000000000000000000000006c
:102c6800000000000000000000000000000000005c
:102c7800000000000000000000000000000000004c
:102c880000000000000000000000000000ff00003d
:102c9800ff010000fd050000050500000505000016
:102ca80005150000f515000015250000c5050000f4
:102cb80005850000454500004585000005450000e4
:102cc800c545000005450000c545000045c5000094
:102cd8008545000045850000050500000505000044
:102ce80005050000fd010000fd05000005050000c8
:102cf80005050000050500000505000005050000a4
:102d080015f500001505000015f500001505000073
:102d180015f5000015150000e50500000505000083
:102d28000505000005050000050500000505000073
:102d38000505000005fd000001fd00000505000077
:102d480005150000f5950000d53500000545000083
:102d5800c5850000454500008505000045e50000e3
:102d680045450000450500000505000085450000b3
:102d7800454500008505000005450000c5850000a3
:102d8800454500000505000005fd000001ff0000a5
:102d9800ff800000bfa00000a0a00000a0a00000cd
:102da800a0a40000a7a40000a4a20000a1a0000005
:102db800a0a30000a4a40000a4a30000a0a00000f9
:102dc800a3a40000a3a40000a3a00000a4a70000df
:102dd800a4a00000a4a70000a4a00000a0a00000d8
:102de800a0a00000bf800000bfa00000a0a00000bd
:102df800a0a00000a0a00000a0a00000a0a00000cb
:102e0800a0a30000a4a40000a4a30000a0a00000a8
:102e1800a4a70000a5a10000a0a00000a0a0000099
:102e2800a0a00000a0a00000a0a00000a0a000009a
:102e3800a0a00000a0bf000080bf0000a0a000006c
:102e4800a0a40000a7a40000a5a60000a0a400005c
:102e5800a7a40000a0a40000a7a40000a0a300004d
:102e6800a4a40000a4a20000a0a00000a3a5000044
:102e7800a5a50000a5a00000a0a40000a7a400002c
:102e8800a4a00000a0a00000a0bf000080ff0000d8
:102e98005374000061720000742f00005374000026
:102ea8006f700000206600006f00000072200000b4
:102eb80000550000702f0000446e0000204b0000f9
:102ec8006579000073200000746f00000063000043
:102ed800686100006e670000652e00000045000074
:102ee8006e74000065720000204b000065790000d8
:102ef800206600006f720000005900006573000032
:102f08000053000074610000727400002048000043
:102f18006f750000722000003d000000537400002f
:102f280061720000742000004d6900006e75000099
:102f380074650000203d000000530000746f00001d
:102f480070200000486f000075720000203d0000ee
:102f580000530000746f0000702000004d690000ed
:102f68006e75000074650000203d00000000000040
:102f780000000000000000004e00000006000000f5
:102f880006ff0000ffff000048d6000024130000e1
:102f98006b640000ffff0000ff0000000600000057
:102fa8003844000082820000443800001408000001
:102fb8003e10000038100000a06000000010000063
:102fc800101000006060000000600000180600009b
:102fd8007c4200007c4400007e40000064520000f7
:102fe8004c4a00004a340000382400007e4e00009d
:102ff8004a3200003c4a0000326200001a06000013
:10300800764a0000764c0000523c00006c6c0000d0
:1030180000ac00006c0000001028000044280000ec
:10302800282800004428000010020000590600006b
:10303800ffff0000ff7c0000127c00007e5a0000a9
:10304800343c0000424200007e4200003c7e00000a
:103058004a4200007e0a00000a3c00005234000088
:103068007e0800007e4200007e42000030400000e2
:103078003e7e0000186600007e400000407e000092
:103088001c7e00007e0200007e3c0000423c0000e6
:103098007e1200000c7e000062fe00007e320000fe
:1030a8004e4400004a320000027e0000027e00000a
:1030b800407e00003e4000003e7e0000387e00005a
:1030c80066180000660e0000700e0000625a0000cc
:1030d800460000007e420000061800006042000022
:1030e8007e00000004020000044000004040000090
:1030f8000002000004740000547800007e480000bc
:103108003030000048480000304800007e38000099
:10311800545800007c0a000002980000a47c0000bb
:103128007e080000704800007a40000088fa00001d
:10313800007e000018640000427e0000407c000011
:10314800387c00007c040000783800004438000017
:10315800fc2400001818000024fc0000780400007b
:103168000448000054240000043e0000447c000091
:10317800407c00003c4000003c7c0000307c0000ab
:103188006c1000006c9c0000a07c000064540000df
:103198004cff0000ffff0000ffff0000ffff0000e2
:1031a800ffff0000ffff0000ffff0000ffff00001f
:1031b800ffff0000ff0c0000120c0000fc400000a4
:1031c8007cff0000ffff0000ffff0000ff00000081
:020000040000fa
:1031d8000000fa00cde1a90050052000303b88002e
:1031e800a00a2000303b8800cd61a9007c020700be
:1031f8000004a2000004e000080032003080210032
:10320800100f880060702100000f880000832000e4
:10321800f00e880000002500e00e880000802f00d6
:10322800800e8800f0ff2300900e8800d421ef0064
:1032380000002800600e8800020007000080fa00e5
:10324800000006000000fa000600fc00617620007d
:103258005205200082087800a30a2000830878001d
:10326800cd61a8000080fa00000006000400fa0002
:1032780010079800c00e8000640060000000e000a5
:10328800020032000040eb003d00370051052000ed
:10329800313b8800a10a2000313b8800cd61a9009c
:1032a800110f8000010f78001e0078004800de0032
:1032b80000407800340207008080fb001e00900068
:1032c800510098001e007800004078002e02070088
:1032d8008080fb001e00900041009800010f8000d4
:1032e800010f78001e0078004800de0000407800da
:1032f800250207008080fb001e0090003100980026
:103308001e007800004078001f0207008080fb0044
:103318001e00900061009800f10e8000010f7800f7
:103328001e0078004800de00004078001602070002
:103338008080fb001e009000210098001e0078008d
:1033480000407800100207008080fb001e009000fb
:1033580011009800e10e8000010f78001e0078002f
:103368004800de0000407800070207008080fb006c
:103378001e00900001087800b2ff070010c0b300db
:103388000080fa00000006000800fa00889fbe00ce
:103398003007980010c0b30020e8b7000040eb00e9
:1033a800004f78000040eb00104798000000eb0049
:1033b800100798009a013700a2010700580520005d
:1033c800383b8800a80a2000383b8800cd61a90056
:1033d800cde1a9001e0090000000e00005003a00c1
:1033e800900507000041eb0001402000e0ea2800ba
:1033f800ad0407001e0090000000e80010079800c8
:103408009e00900000712200808f50000500360059
:103418000000eb00100798008205070010c0b300f9
:103428001047980031c0b30030c0b300f103070063
:10343800e02f29002a04070031c0b30000c1b300ff
:10344800ec030700c03029002504070041c0b30081
:1034580030c0b300e70307006031290020040700eb
:1034680041c0b30010c1b300e20307004032290095
:103478001b0407001e4078000004e00005003a0025
:1034880021c0b30030c0b300da03070010332900ad
:10349800130407001e407800e14f500005003a0071
:1034a80021c0b30030c0b300d20307004033290065
:1034b8000b0407001e407800e24f500005003a0058
:1034c80021c0b30060c0b300ca030700b0332900ad
:1034d800030407001e407800e34f500005003a003f
:1034e80021c0b300a0c0b300c203070040332900c5
:1034f800fb0307001e407800e44f50000a003a0022
:1035080021c0b300d0c0b300ba030700203429009b
:10351800f303070021c0b30010c1b300b5030700cf
:1035280010332900ee0307001e407800e54f5000d5
:1035380005003a0021c0b30010c1b300ad03070075
:1035480060342900e60307001e407800e64f50006b
:1035580005003a0021c0b30040c1b300a50307002d
:1035680060342900de030700600607004047980022
:103578004e4090000000fb00e20f500005003200b2
:10358800e30f5000e8003200e10f500075003200f0
:10359800f30037001e4078000004e0000e003a00f7
:1035a8003e009000d000900030062000808f500030
:1035b80004003a003e0090008000eb0051009800a3
:1035c800050037003e009000500090008000e800a1
:1035d8003e009000510098001e407800e14f5000d6
:1035e8000d003a003e00900040009000ec0f5000a3
:1035f80004003a003e0090001100200041009800ad
:10360800050037003e009000400090008000e80070
:103618003e009000410098001e407800e24f5000a4
:103628000d003a003e00900030009000ff0f50005f
:1036380004003a003e00900011002000310098007c
:10364800050037003e009000300090008000e80040
:103658003e009000310098001e407800e34f500073
:103668000d003a003e00900060009000e60f500008
:1036780004003a003e0090008000eb0061009800d2
:10368800050037003e009000600090008000e800d0
:103698003e009000610098001e407800e44f500002
:1036a8000d003a003e00900020009000f70f5000f7
:1036b80004003a003e0090008000eb0021009800d2
:1036c800050037003e009000200090008000e800d0
:1036d8003e009000210098001e407800e54f500001
:1036e8000e003a003e00900090009000b0032000c9
:1036f800808f500004003a003e0090008000eb00ec
:1037080011009800050037003e009000100090005e
:103718008000e8003e009000110098001e407800ec
:10372800e64f50008b003a003e0090009000780071
:10373800b0032000808f500004003a003e00900043
:103748008000eb0001087800850037003e009000fb
:10375800100078008000e8003e0090000108780022
:103768007f0037001e4078000004e0000d003a009a
:103778003e009000500090000000e00004003a0075
:103788003e009000310620005100980005003700e7
:103798003e009000500090008000e9003e0090003c
:1037a800510098001e407800e14f50000d003a008b
:1037b8003e00900040009000e10f500004003a00e5
:1037c8003e009000c100200041009800050037002d
:1037d8003e009000400090008000e9003e0090000c
:1037e800410098001e407800e24f50000d003a005a
:1037f8003e00900030009000e10f500004003a00b5
:103808003e009000f10120003100980005003700cb
:103818003e009000300090008000e9003e009000db
:10382800310098001e407800e34f50000d003a0028
:103838003e009000600090000000e00004003a00a4
:103848003e009000610020006100980005003700ec
:103858003e009000600090008000e9003e0090006b
:10386800610098001e407800e44f50000d003a00b7
:103878003e009000200090000000e00004003a00a4
:103888003e009000710120002100980005003700db
:103898003e009000200090008000e9003e0090006b
:1038a800210098001e407800e54f50000d003a00b6
:1038b8003e009000100090000000e00004003a0074
:1038c8003e009000b1032000110098000500370069
:1038d8003e009000100090008000e9003e0090003b
:1038e800110098001e407800e64f50001b003a0077
:1038f8003e009000100078000000e00004003a004c
:103908003e009000b1032000010878001400370041
:103918003e009000100078008000e9003e00900012
:10392800010878000e0037001e407800e64f50006e
:1039380006003a000040eb00004f78003904070009
:1039480010c0b30010479800050037001e4fe8006c
:1039580003003700000000000100370000000000ed
:103968003e00900050009000004078006e00070074
:103978000080fb00c804dd003e009000400090007d
:1039880000407800680007000080fb000900700014
:10399800100f88003e009000300090000040780032
:1039a800610007000080fb00c804dd003e009000b5
:1039b80060009000004078005b0007000080fb007a
:1039c80009007000000f88003e0090002000900061
:1039d80000407800540007000080fb00c804dd00a8
:1039e8003e00900010009000004078004e00070054
:1039f8000080fb0009007000f00e88003e00900077
:103a08001000780000407800470007000080fb00a5
:103a18004800dd00e00e8800cde1a80009fe07009f
:103a28001e4090000004e00063fe3200fd03070022
:103a38002068ef002228ef004f04be000080fa0043
:103a4800000006000200fa000040eb00004f78007a
:103a580020c3200005fe0700004f780011c0b30006
:103a680030c0b30063020700e06180000041eb0052
:103a780021c0b300ad020700f0c2b3007e02070008
:103a8800d061800080004000c0bd20000080400060
:103a98001000780092020700f0c2b3007602070017
:103aa800c06180000041eb0021c0b3009f02070005
:103ab80011c0b300d0c0b3004e020700f06180000f
:103ac80080004000e0bc200000804000100078002a
:103ad8008302070011c0b30010c1b30045020700fc
:103ae800b06180000041eb0021c0b3008f020700e5
:103af800a0c3b30060020700a06180000041eb0092
:103b080021c0b30089020700a0c3b3005a0207000e
:103b1800906180000041eb0021c0b30083020700e0
:103b28000080fa00000006000400fa002047980010
:103b38002e4090008080fb00d0cc2c000008b800fc
:103b48004308de0080407800400020000008dd00c7
:103b5800004f78002e4090000081fb00d0cc2c0054
:103b68000010b8004308de006a00b90000007800c1
:103b780000005100004078001e4f70001e40780081
:103b88000080fa00000006000400fa0020479800b0
:103b98002e4090000080fb004400de0000407800ca
:103ba8006a00b90000007800804078002e4090003c
:103bb8006f40600000cf40001e4078000080fa008f
:103bc800000006000200fa00004f78001e4178004d
:103bd800c1822000824878000080fa0000000600b8
:103be8000000fa002cc8bf000080fa0000000600a0
:103bf8000600fa00000f78001107980022079800c5
:103c08001e0078008000400060b92000008040005d
:103c1800900078001e009000808f50000a003a0043
:103c28001e0078008000400040ba2000008040005c
:103c3800900078002e009000808f500002003a001b
:103c480010c0b30028e8b7001e00780080004000cc
:103c580020bb200000804000900078001e009000eb
:103c6800808f500009003a001e0078008000400054
:103c780000bc200000804000900078002e009000da
:103c8800808f500001003a002868ef0028c8bf0064
:103c98000080fa00000006000200fa00881f780081
:103ca8000000eb00000f78002768ef004f00370096
:103cb8008e04070027e8b700c0da20009e007800cd
:103cc800808f50008e003e0027c8bf000080fb0098
:103cd800e10f500003003200e20f500009003200eb
:103ce8001400370026c8bf000040e90026e8b700e6
:103cf80026c8bf000004e0000b003d002668ef0066
:103d08000c00370026c8bf000040e80026e8b700ce
:103d180026c8bf00e64f50000500340060c0b3005d
:103d280026e8b70003003700000000000100370054
:103d3800000000001e007800e20f500005003e0061
:103d4800380307000041eb0001402000c03429007f
:103d58005502070011c0b30030c0b300a501070029
:103d6800c0742900de01070011c0b30000c1b30010
:103d7800a0010700a0752900d901070026c8bf00c7
:103d88000000fb0080004000e0bc200000804000f4
:103d980010007800d201070021c0b30030c0b30082
:103da80094010700d0752900cd01070021c0b30098
:103db80010c1b3008f010700b0762900c8010700c1
:103dc80031c0b30030c0b3008a0107003077290042
:103dd800c301070031c0b30010c1b300850107005b
:103de80010782900be0107001e0fe80027c8bf0091
:103df800e34f5000aeff3a000a0307000041eb0012
:103e080001402000c03429002702070026c8bf004f
:103e18000004fb0026c8bf000000fb008000400033
:103e280060b9200000804000100078000040780051
:103e38003a0007008000fb000801440060b9200038
:103e4800000041000108780026c8bf000004fb00fc
:103e580026c8bf000000fb008000400040ba2000d8
:103e680000804000100078000040780078000700cb
:103e78008000fb000801440040ba20000000410017
:103e88000108780026c8bf000004fb0026c8bf0050
:103e98000000fb008000400020bb200000804000a4
:103ea8001000780000407800b70007008000fb0091
:103eb8000801440020bb20000000410001087800f0
:103ec80026c8bf000004fb0026c8bf000000fb0096
:103ed8008000400000bc20000080400010007800f6
:103ee80000407800f50007008000fb00080144004e
:103ef80000bc2000000041000108780001003700e4
:103f080000000000c70207000000eb00000f780067
:103f18004f0478000080fa00000006000600fa004e
:103f28004047980010c0b30020e8b7000000eb003d
:103f3800000f7800ce409000214798000040eb0029
:103f480030479800e90307003047980037003700ea
:103f5800e6030700304798001e0fe800003e2900de
:103f68004100200086060700c05d20009e00780002
:103f7800808f5000040036000000eb00000f78002e
:103f880030c0b3003047980011c0b30010c0b30070
:103f980018010700507829005101070011c0b3002b
:103fa80000c1b300130107002e4090000000fb0081
:103fb8000041eb0021c0b3005c0107003e409000c7
:103fc8000000fb00e10f500003003200e20f500038
:103fd8000a003200150037002e4090000040e9002a
:103fe800204798002e4090000004e0000c003d009f
:103ff80070c1b300204798000c0037002e40900095
:104008000040e800204798002e409000f74f5000ed
:10401800050034000040eb002047980003003700fb
:104028000000000001003700000000003e40900042
:10403800e34f5000c6ff3a000000eb00000f780085
:104048002068ef002e4090000080fa000000060073
:104058000600fa004047980010c0b30020e8b700f7
:104068000000eb00000f7800ce4090002147980038
:104078000040eb00304798009c0307003047980049
:104088003800370099030700304798001e0fe800f2
:10409800003e29004100200039060700c05d2000cd
:1040a8009e007800808f5000040036000000eb006e
:1040b800000f780030c0b3003047980021c0b3002b
:1040c80020c0b300cb0007002079290004010700b5
:1040d80021c0b30000c1b300c60007002e40900005
:1040e8000000fb000041eb0021c0b3000f010700f6
:1040f8003e4090000000fb00e10f5000030032003a
:10410800e20f50000a003200160037002e409000df
:1041180065405000204798002e4090000004e000c1
:104128000d003d0070c3b300204798000d00370014
:104138002e4090006540400020479800ae40900017
:1041480070c3b30080cf5000050034000040eb007e
:1041580020479800030037000000000001003700e6
:10416800000000003e409000e34f5000c5ff3a00b9
:104178000000eb00000f78002068ef002e40900050
:104188000080fa00000006000600fa004047980088
:1041980010c0b30020e8b7000000eb00000f780063
:1041a800ce409000214798000040eb00304798002f
:1041b8004e03070030479800370037004b030700cd
:1041c800304798001e0fe800003e290041002000fb
:1041d800eb050700c05d20009e007800808f50002e
:1041e800040036000000eb00000f780030c0b30078
:1041f8003047980031c0b30020c0b3007d000700ed
:10420800107a2900b600070031c0b30000c1b3001e
:10421800780007002e4090000000fb000041eb00f2
:1042280021c0b300c10007003e4090000000fb0021
:10423800e10f500003003200e20f50000a00320084
:10424800150037002e4090000040e90020479800f4
:104258002e4090000004e0000c003d0070c1b30047
:10426800204798000c0037002e4090000040e800de
:10427800204798002e409000f74f5000050034006a
:104288000040eb00204798000300370000000000c2
:1042980001003700000000003e409000e34f50004e
:1042a800c6ff3a000000eb00000f78002068ef001e
:1042b8002e4090000080fa00000006000600fa0078
:1042c8004047980010c0b30020e8b7000000eb009a
:1042d800000f7800ce409000214798000040eb0086
:1042e800304798000103070030479800380037002e
:1042f800fe020700304798001e0fe800003e290024
:10430800410020009e050700c05d20009e00780047
:10431800808f5000040036000000eb00000f78008a
:1043280030c0b3003047980041c0b30020c0b3008c
:1043380030000700d07a29006900070041c0b300a7
:1043480000c1b3002b0007002e4090000000fb00c6
:104358000041eb0021c0b300740007003e4090000c
:104368000000fb00e10f500003003200e20f500094
:104378000a003200160037002e40900065405000b9
:10438800204798002e4090000004e0000d003d00fa
:1043980070c3b300204798000d0037002e409000ee
:1043a8006540400020479800ae40900070c3b300bd
:1043b80080cf5000050034000040eb0020479800f3
:1043c8000300370000000000010037000000000073
:1043d8003e409000e34f5000c5ff3a000000eb005c
:1043e800000f78002068ef002e4090000080fa004f
:1043f800000006000400fa002047980031479800a2
:104408002e4090000080fb00c200dd00f003200079
:10441800808f500006003400dec6a900dee6a80042
:104428002e4090007040500020479800020037004e
:10443800dec6a800dee6a900be40900080cbb3002f
:1044480000cf40001e407800350107002e40900044
:104458000080fb00700040008040780020002000b1
:104468000008dd00104798001e4090002c0107004e
:104478000080fa00000006000400fa0020479800b7
:104488002e4090000080fb000002b100000f780071
:104498001e0078006300b90000007800000f780063
:1044a800c07b29001e004000104078002f01070043
:1044b8001e00e800c17b2900614078002b0107003d
:1044c8001e80e800c17b29006140780027010700b1
:1044d8000040eb00250107000080fa0000000600fc
:1044e8000400fa00100798000000eb00000f7800a5
:1044f800060037001e0078009e00900000804000f3
:1045080010407800dcff07001e0fe8001e0078004e
:104518009e00900000804000104078000004e000f9
:10452800f4ff3a000080fa00000006000e00fa00ce
:1045380050079800414f9800524f9800e4004700f8
:10454800010009008018eb008058eb0040002000b3
:10455800000f78000000eb00100798005e00900044
:104568000000e00018003d00d0c2b300c2ff070001
:104578005e0090000000ea00500798001200370023
:10458800de009000a0002000000178001100090062
:104598008200d8008000fd00804078006400470059
:1045a8001e004000014878005e01900070662600f9
:1045b8000090b900c288de004f90de0000805000f5
:1045c800500798001e0fe9005e0090000000e00010
:1045d800ebff3a004e489000e14f40000b003a00d4
:1045e800030037001e0090000000e8001007980044
:1045f800e40047001e009000008040001040780052
:104608000004e000f7ff3200040037004e48900035
:104618000000fb0065001000100798009e00900045
:10462800010f780006003700640047001e004000b4
:10463800104078000043b0008fff07001e0fe8000d
:104648005e4890000000fb00650010009e0f5000bf
:10465800f5ff3c005e489000e14f500005003a002d
:10466800e0c2b30084ff07000e4890000043b0008a
:1046780081ff07005e489000e24f500008003a00b2
:10468800e0c2b3007cff07007e4090000043b0000a
:1046980079ff07000e4890000043b00076ff07003e
:1046a8000080fa00000006000c00fa0030079800ad
:1046b80041079800224f98000000eb00100798006f
:1046c80057003700ae489000014f78004b00370084
:1046d800dec6a800dee6a9009e40780080cbb300c5
:1046e80000c04000404798004e4090008c000700f2
:1046f80000c4b3008a0007000040eb001047980090
:10470800100037009e0090004e009000808f5000ef
:10471800110032003e00900010407800930007001e
:104728003e0090000000e800300798001e0090004e
:104738000000e800100798001e4090000040e800c4
:10474800104798009e409000f0c3b30080cf5000ff
:10475800ecff34000100370000000000dec6a900ad
:10476800dee6a8009e40780080cbb30000c0400081
:10477800404798004e4090006900070000c4b3000d
:10478800670007000040eb00104798001000370052
:104798009e0090004e009000808f50001100320063
:1047a8003e00900010407800700007003e00900026
:1047b8000000e800300798001e0090000000e800a4
:1047c800100798001e4090000040e800104798002d
:1047d8009e409000f0c3b30080cf5000ecff34003f
:1047e80001003700000000009e0090004e0090007d
:1047f800808f5000050032001e4fe8001e407800f0
:10480800e74f5000b2ff34000100370000000000fd
:104818009e0090004e009000808f500005003200ee
:104828009e0090004e009000808f5000a5ff3a0037
:1048380001003700000000000080fa0000000600b8
:104848000200fa00f00f200090358800a306a900a6
:10485800a326a800f1368000000420000080600034
:104868000000e00020003200f1368000000820003f
:10487800008060000000e0001b003200dec6a900d6
:10488800a346a80040002000010020003c040700c7
:10489800a0358000004f7800a346a90000c8b300e7
:1048a8009e40780080cf5000f5ff3200dec6a80099
:1048b800dee6a900a346a800400020000100200071
:1048c8002f040700a0358000004f7800a346a900f8
:1048d80000c8b3009e40780080cf5000f5ff32003a
:1048e800dee6a8000b003700a346a8004000200021
:1048f8000100200022040700a0358000004f780046
:10490800a346a90000c8b3009e40780080cf50009d
:10491800f5ff3200b226ef000080fa000000060022
:104928000200fa00004f7800c5ff0700a326a9007f
:10493800103580004900de00614060000080fb0007
:10494800610060004800dd00113580000180a10091
:1049580001007000103588001e80fb00b03588000b
:10496800280007000080fa00000006000200fa0094
:10497800004f7800b2ff0700a306a800a326a900ed
:104988001e80fb00b03588001e0007000080fa007a
:10499800000006000000fa00df06a800a346a900f0
:1049a800dee6a800f03680004700de0061406000c7
:1049b8000080fb00610060004600dd00f1368000e9
:1049c8000160a10001007000f0368800e0c3b30068
:1049d800d3ff070000a8210061002000e8030700ba
:1049e800f0c3b300ceff070000c4b300ccff07003c
:1049f80080cbb300caff07000a0007000080fa0056
:104a0800000006000000fa00a346a80040002000ad
:104a180001002000da030700a346a9000080fa007d
:104a2800000006000200fa00dee6a800f03680006a
:104a38004700de00614060000080fb00610060000c
:104a48004600dd00f13680000160a1000100700021
:104a5800f03688000040eb0010479800110037003e
:104a68009e40900080cbb30000c04000acff070020
:104a78000040eb00004f7800030037000040eb00d7
:104a8800baff07001e4fe800f0c3b3009e4078004d
:104a980080cf5000f9ff34001e4090000040e8002d
:104aa800104798001e409000e74f5000ecff34007c
:104ab80000c4b3009aff070080cbb30098ff07003b
:104ac8000080fa00000006000400fa0010079800b1
:104ad8009e009000010f7800df06a800a346a900f9
:104ae800dee6a800f03680004700de006140600086
:104af8000080fb00610060004600dd00f1368000a8
:104b08000160a10001007000f03688001e007800e6
:104b18000000e00003003a00e0c3b30080ff070094
:104b280006003700f0c3b3007dff070000c4b300e0
:104b38007bff070080cbb30079ff07000080fa00f5
:104b4800000006001a00fa00690307000000eb00e5
:104b5800000f78000000eb0040079800ee004700c7
:104b6800050009008018eb000040eb00204f98007a
:104b78000000eb00200798000040eb00304f980041
:104b88000040eb00604798000041eb000140200026
:104b9800c0a32800c4fe070020c32000b3f9070003
:104ba800916180002e009000808f50006d003200cf
:104bb800a2618000b1618000f06180000cfc0700f8
:104bc800304f9800e136800000202000008060000f
:104bd8000000e000030032003e489000e14f500022
:104be80003003a0010c0b300604798000200370085
:104bf8000040eb00604798002e489000e94f5000b5
:104c0800020036000040eb00604798009161800088
:104c180021079800a00120006b0107006007980099
:104c280010418000e10f50000b003a0031c0b30082
:104c380060c0b300effd070040e7280028fe07002a
:104c480031c0b30010c1b300eafd0700f0e7280047
:104c580023fe0700430037007afb070021c0b3009a
:104c680010c0b300e3fd07007e00900080007800cc
:104c7800b06080008002070008ee0700000078009e
:104c8800a01288002061800015fe07007e009000b9
:104c980012c0b30041c0b30024fe070010c8b3001f
:104ca800f5fd070060c4b300f3fd070021c0b300a1
:104cb80010c1b300cffd070090e8280008fe0700e8
:104cc800b060800012c0b30041c0b30017fe0700f7
:104cd80010c8b300e8fd070060c4b300e6fd070094
:104ce80031c0b30010c0b300c2fd0700a01280009d
:104cf8000041eb0051c0b3000cfe070000c2b30036
:104d0800ddfd070051c0b30010c0b300b9fd0700b6
:104d1800704080000041eb0051c0b30003fe070063
:104d280000c2b300d4fd0700804080000041eb00c2
:104d380051c0b300fdfd070000c2b300cefd07005f
:104d480041c0b30010c0b300aafd0700f0128000f4
:104d58000041eb0051c0b300f4fd070000c2b300ee
:104d6800c5fd07000000eb00000f780009003700c0
:104d78001e00780030010700800078001e007800cf
:104d880000004000000047006e0040000108780065
:104d98001e0fe8001e007800e60f5000f4ff3400f4
:104da80052000700204798002e409000e14f500025
:104db80039003a00204180000000e00006003c0075
:104dc8000040eb0060479800204180000000e800a8
:104dd800204188003000370012ff07000041eb0037
:104de80001402000c06328002ffe070031c0b30037
:104df80020c0b3007ffd0700f0e82800b8fd0700d9
:104e080031c0b30000c1b3007afd0700e0e9280013
:104e1800b3fd07001300370034000700204798004f
:104e2800204180000000e8002041880000c42900db
:104e380001002000d202070021418000401f20000d
:104e4800808f5000070034002428ef00f5fe07008b
:104e58000041eb0001402000c0a3280012fe07001b
:104e68000d0037002e409000e34f5000eaff3a0053
:104e780020c3200044f907002428ef000041eb007c
:104e880001402000c0a3280007fe070000482800b2
:104e9800e1012000ba0207002e409000e24f5000c6
:104ea80006003a00f0128000f40f500003003600ac
:104eb800f012800074005000f01288002e4090001c
:104ec800e34f500007003a00f1128000a07e200056
:104ed800808f500003003e00f012800074004000f4
:104ee800f01288000060fe002bff37000200fa0075
:104ef8000040eb00004f780077c6a800c6a6a800bf
:104f0800d8a6a80077e6a900c686a9007be6a8006f
:104f1800ca86a900e0002000ab00070070408800a6
:104f28007be6a900d8a6a90077e6a800c686a8004f
:104f3800d886a80077c6a900c6a6a9007bc6a9007e
:104f4800caa6a800f00020009f0007008040880043
:104f58007bc6a900d886a90071408000b012200045
:104f6800808f500002003e001268ef001368ef00c7
:104f780071408000b0122000808f50000b00360076
:104f88007140800030512000808f500007003e00a3
:104f98008140800070572000808f500003003e0041
:104fa80010c0b300004f78001c003700714080002b
:104fb80070572000808f50000b0036007140800031
:104fc80010992000808f500007003e00814080002b
:104fd80070572000808f500003003e0020c0b300af
:104fe800004f78000d00370071408000509f20006e
:104ff800808f5000070036008140800070572000e5
:10500800808f500003003e0030c0b300004f78008e
:10501800020037000040eb00004f78001e40780087
:10502800e14f500003003a0010c0b30012e8b70087
:10503800150037001e407800e24f500003003a0088
:1050480020c0b30012e8b7000f0037001e407800f8
:10505800e34f500003003a0030c0b30012e8b70035
:10506800090037008140800000642000808f5000d4
:105078000300360040c0b30012e8b7000200370052
:105088001268ef001368ef0012c8bf000004e000c8
:105098003d00320020c8bf000004e00005003200d7
:1050a80090c1b30014e8b700a0cfb30015e8b7006b
:1050b80002003700a0cfb30014e8b70060c9b300fe
:1050c80015e8b700618120009140780012c8bf0040
:1050d80080cf50000300320012c8bf0016e8b700a6
:1050e8002900370013c8bf000040e80013e8b700e4
:1050f80013c8bf00e24f500002003a0016c8bf00b4
:105108002300370013c8bf00e24f500007003600e5
:10511800318120009140780014c8bf0080cf500032
:1051280002003e000040eb001900370031812000ea
:105138009140780014c8bf0080cf5000100036009e
:1051480015c8bf000080fb008000eb006011b800ac
:1051580004902000d50320006033b80014ee070047
:10516800843e2000050020006033b800a7ed07004a
:105178000000be000202070016c8bf000400370086
:105188000040eb00020037001368ef000040eb001e
:105198000080fa00000006000000fa000040280025
:1051a800303a88004827ef0050002000503a880025
:1051b8004c27ef005027ef0000042000703a8800c9
:1051c8000080fa00000006000400fa0010079800aa
:1051d8009e009000613a8800603a8000fa0f500003
:1051e80004003a005587a8000005200001002000af
:1051f800e30107004627a800400620000100200020
:10520800df0107004627a9000100370089a0a9008f
:10521800303a8000610060000000e000fbff3200cf
:105228005587a90091388000010f78001e0078008a
:105238000080fa00000006000600fa002007980027
:105248002e0090008000400040c4200000804000f4
:10525800100f78001e007800dbff07001007980089
:105268002e009000c200dd00a0b7200000804000a2
:105278001001be0054418000ae009000c003200021
:105288000088b90000007800040040008000400059
:105298002083200000804000100078008000eb0090
:1052a80000005100818059002e019000c211dd00dc
:1052b800a2b72000028141000089be00534180004e
:1052c8001e019000ae009000c00320000088b900c5
:1052d8000000780003004000800040002083200088
:1052e80000804000020878002e009000c200dd0017
:1052f800a0b72000008040001001be00544180008b
:10530800ae009000c00320000088b90000007800bb
:1053180004004000800040002083200000804000fe
:10532800100078008000eb000200400083804800f5
:105338002e019000c211dd00a2b7200002814100b9
:105348000089be002e009000e50f500008003400d0
:10535800504180000000e800504188005141800021
:10536800b0032000808f5000010036002a28ef008b
:105378002e009000c200dd00a0b720000080400091
:105388001000be00c20320000300200034ec070018
:10539800100798001e0090000080fa000000060028
:020000040000fa
:1053a800440c00000e000000820000000c000b00fe
:1053b800000a0000090008000007000006000000bd
:1053c8003208000064030000800000002a08000082
:1053d8000200000080000000000800000e0000002d
:1053e800800000001808000008000000820000008b
:1053f8000400010000080000ff0f0000ce0b0000b1
:105408002800000082000000ae92b20092b692001e
:10541800ba92be0092c29200c692ca0092ce920080
:10542800d292d60092da9200de92e20092e69200e0
:10543800ea92ee0092f29200f692fa0092000000d0
:10544800320c000012000000800000002c08000050
:105458000200000080000000960b000038000000e9
:105468008200000008000600000600000600060092
:105478000006000008002d00002d00002d002d0062
:10548800002d00002d002d00000b00000700070074
:105498000007000007000700000b000000001900cb
:1054a8000019000019001900001900000000000090
:1054b800260800000400000080000000f60b000031
:1054c80020000000800000002e08000002000000fc
:1054d80082000000ffff000030080000020000000a
:1054e800800000000e0800000a0000008000000094
:1054f800160c00001c00000082000000ca08020010
:1055080008020800020802000802080002083c001d
:105518008e448e004c8e54008e5c8e00648e6c001f
:105528008e00000020080000060000008000000037
:04553800000000006f
:020000040000fa
:10553c000200fa00000f7800203320009e00780053
:10554c00808f500002003c001e00780001003700e4
:10555c001e0078000080fa00000006000c00fa0023
:10556c00404798005147980032079800430798002d
:10557c005407980010c0b30020e8b700de0090007c
:10558c00010f780058fe07002047980031003700c3
:10559c0055fe070020479800804180000000e8007d
:1055ac0080418800004c2d0011002000f300070002
:1055bc0081418000803e2000808f50000400340028
:1055cc0017fd07003028ef0030c0b30020479800cb
:1055dc00de4090004e40900085fb070012c0b300e7
:1055ec0041c0b3001e007800cffb07002e40900096
:1055fc000000fb00e10f500003003200e20f5000ee
:10560c0009003200130037001e0fe9003e00900025
:10561c009e007800808f50000b003c00be00900074
:10562c00010f78000b0037001e0fe8004e009000b1
