:08000000803102288731FB2F3B
:100EDA0025008E1708008731AF278731732F6230BC
:100EEA0031008D008F0191019301920108008F302A
:100EFA00260096009501940124001E08CF39103867
:100F0A009E0008008F3026008E0001308D00FF30D1
:100F1A008C0024001E08FC3901389E0008008F301E
:100F2A002600920001309100FF30900024001E0834
:100F3A00F33904389E00080025008E010130900024
:100F4A008F019101FF308D008C012E0090108731A6
:100F5A006D2708008731C127873187317427873188
:100F6A0087318727873187317C2787318731A127C6
:100F7A00873187319427080020009601970198014C
:100F8A00FF309100FF3092008F309300F7303E001F
:100F9A00CE00FF30C300FF30B800E501C401B9013B
:100FAA00CF01BA01C501D00100308B1B0130F2001C
:100FBA008B1355303D008F00AA308F000F101C088C
:100FCA00E03913389C000A303E00A5000B30A60019
:100FDA000930A40055303D008F00AA308F000F144D
:100FEA00721CF92F8B1708008B130800F001F1010E
:060FFA0020008731702F7A
:020000040001F9
:0A000E00EF3FFF3F9F3FFF3FFF3F22
:00000001FF
