:02000000BB2F14
:100530001030831603139F00080064008001840AB2
:1005400004060319003404069E2A0C3412341234B3
:100550000C3400340034003400340A3400340134E4
:10056000003401340034643400349C34FF340C34DF
:1005700000340A34003401340134013402340334C9
:10058000FD0010307D0203180800C82A7D17D02A0C
:100590007C08003A0319D02A013A0319C62AD02A46
:1005A000FD17F5017D0849230800F10083120313AC
:1005B0009F017108F00001300310F00DFF3E031D94
:1005C000DC2A0310700D9F001F142130F000F00B87
:1005D000E72A831203139F149F18EC2A1F101E088A
:1005E0000800F401F501701CFB2A7208F4070318D7
:1005F000F50A7308F50701300310F20DF30DFF3E05
:10060000031DFC2A01300310F10CF00CFF3E031D0A
:10061000032B71087004031DF32A7508F101F1071B
:100620007408F001F00708001F30831603138500DB
:100630001430831603178500FF30831203138500DF
:10064000303083160313860030308316031786007C
:10065000FF3083120313860083160313870183166A
:1006600003178701FF3083120313870083160313D8
:100670009012101291018312031381018316031348
:10068000811201128111011481140115F3309D00B2
:100690000800FA007A08F60004300310F60CFF3E5A
:1006A000031D4D2B7608F7007708F8007A080F39FC
:1006B000F6007608F900F508031D622B8312031378
:1006C0000712652B831203130716831203130717F0
:1006D0000708F0397804F6007608FB007B088700ED
:1006E0008312031307138312031307170708F03944
:1006F0007904F6007608FB007B0887008312031359
:100700000713CB23080083120313C3001430FD002A
:100710007930FC00FC0B8A2BFD0B8A2B8F2BF030E1
:10072000FC007C0883160313870507130712871242
:10073000F030FC007C08831203138705071387122F
:100740000712831203130717871483120313071367
:10075000CB23F50128304923F50183120313430805
:100760000C384923F5014030492383120313C40197
:100770000830440203180800F501F50A4408A03EB9
:1007800084008313000849230130FC007C08831295
:100790000313C407B82BF4010F30F0007008831660
:1007A000031387048312031387160712831203139C
:1007B0000717831203130708F0007008F400740889
:1007C000F00003300310F00DFF3E031DE22B031079
:1007D000700DF1007108F4008312031307138312E4
:1007E00003130717831203130708F0007008F300C0
:1007F0000F30F0007008F30574087304F0007008FF
:10080000F40074088039F0007008F20083120313BA
:100810000713F208031DD62B831203138712F0303F
:10082000F00070088316031387050800F601F31F14
:10083000202CF209F309F20A0319F30AF601F60A69
:10084000F11F272CF009F109F00A0319F10A7108C8
:1008500070040319542CF501F50AF11B3B2C0130EF
:100860000310F00DF10DFF3E031D302C0130F4009C
:100870007408F5072D2C71087302031D412C7008B4
:100880007202031C492C7008F2027108031CF30366
:10089000F30201300310F10CF00CFF3E031D4A2C53
:1008A0000130F502031D3B2C760803195C2CF2097C
:1008B000F309F20A0319F30A7308F101F107720848
:1008C000F001F007080083120313C401F71F6F2C17
:1008D000F609F709F60A0319F70AC401C40AF91F51
:1008E0007A2CF809F909F80A0319F90A0130FA0013
:1008F0007A08C406C501C601770876040319B12C2D
:10090000C301C30AF71B902C01300310F60DF70D3D
:10091000FF3E031D852C0130FA007A08C307822CA4
:1009200001300310C50DC60DFF3E031D912C770845
:100930007902031D9D2C76087802031CA62C7608EC
:10094000F8027708031CF903F9024514013003107B
:10095000F70CF60CFF3E031DA72C0130C302031D4C
:10096000902C44080319B92CC509C609C50A0319F6
:10097000C60A4608F701F7074508F601F60708001A
:100980004A30840083160313280883138000840AE6
:1009900029088000840A2A088000840A2B08800025
:1009A000840A2C088000043083120313D100003025
:1009B000D200CF01D001C81FE82CF501F50A2D3077
:1009C000492383120313C709C809C70A0319C80AB0
:1009D0004808470403191B2D0A30F0000030F100CD
:1009E0004808F301F3074708F201F20716247008DC
:1009F000FC008312031351084A3E84007C088313D1
:100A000080000A30F6000030F7004808F901F907C5
:100A10004708F801F8076324770883120313C80115
:100A2000C8077608C701C707FF30D1070318D20AE5
:100A3000FF30D207E82C4908FF3A0319262D2E2D46
:100A40000130CF070318D00A0030D0074F084A3EC4
:100A5000840083138008031D402D202D4908FC00CD
:100A6000FD01FC1BFD03FC09FD09FC0A0319FD0A3D
:100A70007C08053ECF007D080318013E003ED000F3
:100A80005008D201D2074F08D101D1075208803A4D
:100A9000FF0080307F02031D4F2D053051020318E7
:100AA0000800F501F50A8312031351084A3E840039
:100AB00083130008303E4923013083120313D1070A
:100AC0000318D20A0030D207462D7809FA007909B6
:100AD000FB00FA0A0319FB0A76087A07831203134C
:100AE000C70077080318770A7B07C8004808F10198
:100AF000F1074708F001F0073108F301F307300868
:100B0000F201F207F122710883120313C401C40732
:100B10007008C301C3074808F101F1074708F00155
:100B2000F0072F08F301F3072E08F201F207F12274
:100B3000831203132A087007AA002B0803182B0A34
:100B40007107AB002B08803AFA003508803A7A0228
:100B5000031DAC2D34082A020318B62D831203138B
:100B60003508AB01AB073408AA01AA0783120313A7
:100B70003308803AFA002B08803A7A02031DC22D0E
:100B80002A0832020318CC2D831203133308AB0159
:100B9000AB073208AA01AA07831203133E08031900
:100BA000D82DBE017908B701B7077808B601B60796
:100BB0003609FA003709FB00FA0A0319FB0A78081C
:100BC0007A07F00079080318790A7B07F1002D08ED
:100BD000F301F3072C08F201F207F12271088312E6
:100BE0000313C601C6077008C501C5077908B70118
:100BF000B7077808B601B6074509FA004609FB00B1
:100C0000FA0A0319FB0A43087A07FC004408031890
:100C1000440A7B07FD002A087C07C9002B0803183B
:100C20002B0A7D07CA004A08803AFA003508803A44
:100C30007A02031D1D2E340849020318272E831241
:100C400003133508CA01CA073408C901C90783124A
:100C500003133308803AFA004A08803A7A02031DE7
:100C6000332E4908320203183D2E83120313330832
:100C7000CA01CA073208C901C907831203134A0807
:100C8000F701F7074908F601F60708009822142330
:100C9000023083120313D5004530D400A930D300AD
:100CA000D30B502ED40B502ED50B502E572E003078
:100CB0008323F50101304923831203133908BD0151
:100CC000BD073808BC01BC076508F701F7076408D1
:100CD000F601F6075B08F901F9075A08F801F80769
:100CE0006525770883120313BB01BB077608BA0199
:100CF000BA073908D901D9073808D801D8073C09FB
:100D0000D3003D09D400D30A0319D40A5808530765
:100D1000D50059080318590A5407D6006708803AC5
:100D2000D7005608803A5702031D982E55086602D0
:100D30000318A22E831203136608BC070318BD0A0A
:100D40006708BD07831203133C09D3003D09D40093
:100D5000D30A0319D40A58085307D50059080318B1
:100D6000590A5407D6005608803AD7003B08803A03
:100D70005702031DBD2E3A0855020318C32E8312D5
:100D800003138713C62E83120313871768080319EA
:100D90003F2FD430F6000030F7002308F101F107AF
:100DA0002208F001F0077D30F2000030F300F1225C
:100DB0007108F901F9077008F801F807632476084B
:100DC000D83E83120313A00077080318013EFF3EAC
:100DD000A100FC010030C022831203133B08C801AC
:100DE000C8073A08C701C7070530D3005308C90030
:100DF000C024FC010A30C022831203136508C80115
:100E0000C8076408C701C7070330D3005308C900E7
:100E1000C024FC01FC0A0030C022831203135B08CB
:100E2000C801C8075A08C701C7070430D3005308D0
:100E3000C900C024FC01FC0A0630C022831203133F
:100E40003908C801C8073808C701C7070430D300EC
:100E50005308C900C024FC01FC0A0B30C0228312D5
:100E600003132508C801C8072408C701C7070230B3
:100E7000D3005308C900C02483120313E8010B1DDB
:100E8000482F0030B8070318B90A0130B9070B1111
:100E900007303902A13003193802031C772FA13023
:100EA000B8020730031CB903B9020130D30053085C
:100EB000C2070130D3005308E8076903FF3A013E37
:100EC000D3005308E9000E30D52283120313D30058
:100ED000D4015308A2005408A3000F30D522831276
:100EE0000313D300D4015308A6005408A7000A3006
:100EF0004202031C952FC2010130D3005308C107E1
:100F00000130DA070318DB0A0030DB070630410244
:100F1000031C952FC1010130D3005308EC07FA30B0
:100F2000DA070318DB0AFF30DB070A306C02031C08
:100F30009E2FEC010130D3005308C0070630400259
:100F4000031CA72FC0010130D3005308EB070A3060
:100F50006B02031CB02FEB010130D3005308EA07EA
:100F600002306A02031C642E04306B02031C642EE0
:100F7000EA01EB01642E83132030840043309D226C
:100F8000A8308400AD309D2283160313A522A00053
:100F9000A622A100A722A200A822A300A922A400A1
:100FA000AA22A500AB22A600AC22A700831203133D
:100FB000AD22DA00AE22DB00AF22DC00B022DD0081
:100FC000B122DE00B222DF00B322E000B422E10051
:100FD000B522E200B622E300B722E400B822E50021
:100FE000B922E600BA22E700BB22E800BC22E900F1
:100FF000BD22EA00BE22EB00BF22EC008301462E98
:02400E00E4FFCD
:00000001FF
