:020000040000fa
:080000000002040000000000f2
:020000040000fa
:100008009a0200009a0200009a0200009a02000078
:100018009a0200009a0200009a0200009a02000068
:100028009a0200009a0200009a0200009a02000058
:100038009a0200009a0200009a0200009a02000048
:020000040000fa
:020000040000fa
:100400002f8020000eff20000e0188000000000059
:10041000000020000000e000020032000001200087
:10042000200288000c0007008061200001002000ed
:1004300011000700000020000000e0000200320070
:1004400000000200000000000206020000000000a0
:100450000040da000000fe004440a900c01f200058
:100460000000e0000300320000002000a00188002e
:100470004440a80000000600910188008000780038
:100480000000eb0015003700e280400032a0b4000d
:100490009101ba00e280400032a0b4009102ba009b
:1004a000e280400032a0b4000002eb00472bde00e7
:1004b000f507b200602ce10004003a000059eb009f
:1004c0008301e900fdff3e00040037006128e100e0
:1004d000010032000082eb00040007001101ba00a5
:1004e0000200e000e8ff3a00000006003159ba00bf
:1004f0008301e9000c0032002159ba008301e900b0
:10050000080032000400e00003003a00e2804000ee
:1005100032a0b400f5ff370011d9ba008301e90019
:10052000faff3a008100e800e180400032a0b40008
:0c053000000006000040da000000fe00a1
:020000040000fa
:10053c00000000000000000000000000005f000050
:10054c00000000000007000000070000001400007d
:10055c007f1400007f140000242a00007f2a000072
:10056c0012230000130800006462000036490000ea
:10057c0055220000500000000503000000000000a0
:10058c00001c00002241000000000000412200007d
:10059c001c000000140800003e08000014080000b5
:1005ac00083e000008080000005000003000000069
:1005bc0000080000080800000808000000600000a7
:1005cc006000000000200000100800000402000081
:1005dc003e510000494500003e000000427f0000f3
:1005ec00400000004261000051490000462100001b
:1005fc00414500004b31000018140000127f000030
:10060c001027000045450000453900003c4a000019
:10061c004949000030010000710900000503000089
:10062c0036490000494900003606000049490000df
:10063c00291e0000003600003600000000000000fb
:10064c005636000000000000081400002241000093
:10065c0000140000141400001414000000410000e9
:10066c0022140000080200000151000009060000dd
:10067c0032490000794100003e7e0000111100005b
:10068c00117e00007f49000049490000363e000001
:10069c0041410000412200007f4100004122000046
:1006ac001c7f000049490000494100007f090000ff
:1006bc0009090000013e000041490000497a000090
:1006cc007f080000080800007f000000417f000048
:1006dc004100000020400000413f0000017f00006d
:1006ec0008140000224100007f4000004040000040
:1006fc00407f0000020c0000027f00007f0400001d
:10070c00081000007f3e000041410000413e000007
:10071c007f09000009090000063e0000415100005d
:10072c00215e00007f0900001929000046460000e8
:10073c004949000049310000010100007f0100001f
:10074c00013f000040400000403f00001f2000001f
:10075c00402000001f3f000040380000403f0000d8
:10076c006314000008140000630700000870000008
:10077c0008070000615100004945000043000000db
:10078c007f4100004100000002040000081000003e
:10079c0020000000414100007f0000000402000026
:1007ac0001020000044000004040000040400000f6
:1007bc00000100000204000000200000545400005e
:1007cc00547800007f480000444400003838000092
:1007dc004444000044200000384400004448000019
:1007ec007f3800005454000054180000087e0000ac
:1007fc0009010000020c000052520000523e0000a1
:10080c007f0800000404000078000000447d000014
:10081c004000000020400000443d0000007f00002c
:10082c001028000044000000004100007f40000040
:10083c00007c000004180000047800007c08000014
:10084c0004040000783800004444000044380000e0
:10085c007c1400001414000008080000141400009c
:10086c00187c00007c08000004040000084800000c
:10087c005454000054200000043f00004440000089
:10088c00203c000040400000207c00001c200000a8
:10089c00402000001c3c000040300000403c0000a8
:1008ac004428000010280000440c000050500000a8
:1008bc00503c000044640000544c00004400000014
:1008cc000836000041000000000000007f0000001e
:1008dc000000000041360000080000001008000075
:1008ec00081000000878000046410000467800001f
:1008fc00486500006c6c00006f200000576f000012
:10090c00726c0000642100000000000050490000df
:10091c0043200000313600004c4600003137000007
:08092c0030390000000000005a
:020000040000fa
:100934000000fa006a0007000080fa0000000600c8
:100944000000fa0054000700e047280045000700b3
:100954000080fa00000006000400fa00000f78008e
:10096400110798001e0078008040780000c8b3008a
:1009740000c07000804078000040eb007700070062
:100984001e0090008040780000c4b30000c07000d6
:10099400804078000040eb00700007000080fa00ff
:1009a400000006000200fa00000f78000028ef00a3
:1009b40009003700004080001e004000104078000d
:1009c4008040780010c0b30064000700004080003d
:1009d4000000e8000040880001408000701f2000f3
:1009e400808f5000f3ff34000080fa0000000600fe
:1009f4000200fa00004f78008040eb0010c0b30002
:100a0400560007000028ef000e0037001e00fb0010
:100a14000002b100024080006500b90000007800c7
:100a240002004000e12928006140780080407800fd
:100a340010c0b30049000700004080000000e80037
:100a44000040880000408000e40f5000efff3400b5
:100a54008040eb0010c0b300400007000080fa00a3
:100a6400000006000200fa00000f780004003700be
:100a74001e007800104078001e0fe800dcff07001d
:100a84001e007800104078000004e000f8ff3a00ef
:100a94000080fa00000006000000fa000028ef00c1
:100aa400060037008040eb0010c0b3002b000700a5
:100ab400004080000000e800004088000140800001
:100ac400701f2000808f5000f6ff34008000eb0080
:100ad4000000eb00a0ff07000080fa000000060001
:100ae4000000fa00d062a900d082a900d0a2a90017
:100af400d0c2a900d0e2a900d082a900d0a2a90046
:100b0400d062a900d0e2a900d0e2a80011c2b300cb
:100b14000040eb0011000700b1cbb3000040eb0034
:100b24000e00070041c0b3000040eb000b000700bb
:100b340041c1b3000040eb000800070001c2b3004c
:100b44000040eb0005000700c1c0b3000040eb000b
:100b5400020007000080fa00000006000400fa000a
:100b64002047980031479800be40900011479800f4
:100b74002e4090000004e00002003a00d062a90078
:100b840001003700d062a800d0c2a9000040eb00e9
:100b9400004f78000b003700d082a9001e4090005f
:100ba4000004e00001003d00d082a800d0a2a8000b
:100bb4001e4090000040400010479800d0a2a900b9
:100bc4001e4fe8001e407800e74f5000f2ff360049
:100bd400d0c2a8000080fa00000006000000fa005d
:100be400e024ef00e224ef00e424ef00c022ef0051
:100bf400c822ef00d022ef000080fa0000000600b7
:100c04000000fa000d000700f4ff0700b4ff07001e
:100c1400a1ff070011002000100020004eff070074
:0c0c2400c04828008fff0700ffff3700ca
:020000040000fa
:100c300000080000020000000000000000000000aa
:020000040000fa
:0c0c40000000fa000080fa00000006002e
:020000040000fa
:0200000401f009
:04000000ffff0000fe
:020000040000fa
:0200000401f009
:04000800ffff0000f6
:020000040000fa
:0200000401f009
:04000c00ffff0000f2
:020000040000fa
:0200000401f009
:04001000bfff00002e
:020000040000fa
:0200000401f009
:04001400ffff0000ea
:020000040000fa
:0200000401f009
:040018007fff000066
:020000040000fa
:0200000401f009
:04001c00ffff0000e2
:00000001FF
