:02000000FC2FD3
:100EF8000130F4000030F5008312031387148617BD
:100F08000800013074067504031D902F8312031323
:100F18008710F401F5010800831203138718972F2F
:100F280087140710080007189C2F07148613080059
:100F3800861B080086170130F4000030F500080011
:100F48001430831603138500831603178501FF30B9
:100F58008312031385008316031386018316031770
:100F68008601FF308312031386008316031387015B
:100F7800831603178701FF308312031387000800C5
:100F8800A427F001F101F201F301FF3083120313EA
:100F98008700051AD92F0130700671040319D92F5B
:100FA8000130F0000030F100852783120313051E7D
:100FB800DF2FF001F1010519EB2F013072067304E0
:100FC8000319EB2F0130F2000030F3007C27831265
:100FD8000313051DF12FF201F301013074067504A6
:100FE8000319851675087404031DCD2F8512CD2F9E
:080FF800F401F5018301C42F8F
:02400E00F4EFCD
:00000001FF
