:020000040000fa
:080000000002040000000000f2
:020000040000fa
:04000800a80200004a
:020000040000fa
:04000c00a802000046
:020000040000fa
:04001000a802000042
:020000040000fa
:04001400a80200003e
:020000040000fa
:04001800a80200003a
:020000040000fa
:04001c00a802000036
:020000040000fa
:04002000a802000032
:020000040000fa
:04002400a80200002e
:020000040000fa
:04002800a80200002a
:020000040000fa
:04002c00a802000026
:020000040000fa
:04003000a802000022
:020000040000fa
:04003400a80200001e
:020000040000fa
:04003800a80200001a
:020000040000fa
:04003c00a802000016
:020000040000fa
:04004000a802000012
:020000040000fa
:04004400a80200000e
:020000040000fa
:04004800a80200000a
:020000040000fa
:04004c00a802000006
:020000040000fa
:04005000a802000002
:020000040000fa
:04005400a8020000fe
:020000040000fa
:04005800a8020000fa
:020000040000fa
:04005c00a8020000f6
:020000040000fa
:04006000a8020000f2
:020000040000fa
:04006400a8020000ee
:020000040000fa
:04006800a8020000ea
:020000040000fa
:04006c00a8020000e6
:020000040000fa
:04007000a8020000e2
:020000040000fa
:04007400a8020000de
:020000040000fa
:04007800a8020000da
:020000040000fa
:04007c00a8020000d6
:020000040000fa
:04008000a8020000d2
:020000040000fa
:04008400a8020000ce
:020000040000fa
:04008800a8020000ca
:020000040000fa
:04008c00a8020000c6
:020000040000fa
:04009000a8020000c2
:020000040000fa
:04009400a8020000be
:020000040000fa
:04009800a8020000ba
:020000040000fa
:04009c00a8020000b6
:020000040000fa
:0400a000a8020000b2
:020000040000fa
:0400a400a8020000ae
:020000040000fa
:0400a800a8020000aa
:020000040000fa
:0400ac00a8020000a6
:020000040000fa
:0400b000a8020000a2
:020000040000fa
:0400b400a80200009e
:020000040000fa
:0400b800a80200009a
:020000040000fa
:0400bc00a802000096
:020000040000fa
:0400c000a802000092
:020000040000fa
:0400c400a80200008e
:020000040000fa
:0400c800a80200008a
:020000040000fa
:0400cc00a802000086
:020000040000fa
:0400d000a802000082
:020000040000fa
:0400d400a80200007e
:020000040000fa
:0400d800a80200007a
:020000040000fa
:0400dc00a802000076
:020000040000fa
:0400e000a802000072
:020000040000fa
:0400e400a80200006e
:020000040000fa
:0400e800a80200006a
:020000040000fa
:0400ec00a802000066
:020000040000fa
:0400f000a802000062
:020000040000fa
:0400f400a80200005e
:020000040000fa
:0400f800a80200005a
:020000040000fa
:0400fc00a802000056
:020000040000fa
:04010000a802000051
:020000040000fa
:04010400a80200004d
:020000040000fa
:04010800a802000049
:020000040000fa
:04010c00a802000045
:020000040000fa
:04011000a802000041
:020000040000fa
:04011400a80200003d
:020000040000fa
:04011800a802000039
:020000040000fa
:04011c00a802000035
:020000040000fa
:04012000a802000031
:020000040000fa
:04012400a80200002d
:020000040000fa
:04012800a802000029
:020000040000fa
:04012c00a802000025
:020000040000fa
:04013000a802000021
:020000040000fa
:04013400a80200001d
:020000040000fa
:04013800a802000019
:020000040000fa
:04013c00a802000015
:020000040000fa
:04014000a802000011
:020000040000fa
:04014400a80200000d
:020000040000fa
:04014800a802000009
:020000040000fa
:04014c00a802000005
:020000040000fa
:04015000a802000001
:020000040000fa
:04015400a8020000fd
:020000040000fa
:04015800a8020000f9
:020000040000fa
:04015c00a8020000f5
:020000040000fa
:04016000a8020000f1
:020000040000fa
:04016400a8020000ed
:020000040000fa
:04016800a8020000e9
:020000040000fa
:04016c00a8020000e5
:020000040000fa
:04017000a8020000e1
:020000040000fa
:04017400a8020000dd
:020000040000fa
:04017800a8020000d9
:020000040000fa
:04017c00a8020000d5
:020000040000fa
:04018000a8020000d1
:020000040000fa
:04018400a8020000cd
:020000040000fa
:04018800a8020000c9
:020000040000fa
:04018c00a8020000c5
:020000040000fa
:04019000a8020000c1
:020000040000fa
:04019400a8020000bd
:020000040000fa
:04019800a8020000b9
:020000040000fa
:04019c00a8020000b5
:020000040000fa
:0401a000a8020000b1
:020000040000fa
:0401a400a8020000ad
:020000040000fa
:0401a800a8020000a9
:020000040000fa
:0401ac00a8020000a5
:020000040000fa
:04020800a802000048
:020000040000fa
:04020c00a802000044
:020000040000fa
:04021000a802000040
:020000040000fa
:04021400a80200003c
:020000040000fa
:04021800a802000038
:020000040000fa
:04021c00a802000034
:020000040000fa
:04022000a802000030
:020000040000fa
:04022400a80200002c
:020000040000fa
:04022800a802000028
:020000040000fa
:04022c00a802000024
:020000040000fa
:04023000a802000020
:020000040000fa
:04023400a80200001c
:020000040000fa
:04023800a802000018
:020000040000fa
:04023c00a802000014
:020000040000fa
:04024000a802000010
:020000040000fa
:04024400a80200000c
:020000040000fa
:04024800a802000008
:020000040000fa
:04024c00a802000004
:020000040000fa
:04025000a802000000
:020000040000fa
:04025400a8020000fc
:020000040000fa
:04025800a8020000f8
:020000040000fa
:04025c00a8020000f4
:020000040000fa
:04026000a8020000f0
:020000040000fa
:04026400a8020000ec
:020000040000fa
:04026800a8020000e8
:020000040000fa
:04026c00a8020000e4
:020000040000fa
:04027000a8020000e0
:020000040000fa
:04027400a8020000dc
:020000040000fa
:04027800a8020000d8
:020000040000fa
:04027c00a8020000d4
:020000040000fa
:04028000a8020000d0
:020000040000fa
:04028400a8020000cc
:020000040000fa
:04028800a8020000c8
:020000040000fa
:04028c00a8020000c4
:020000040000fa
:04029000a8020000c0
:020000040000fa
:04029400a8020000bc
:020000040000fa
:04029800a8020000b8
:020000040000fa
:04029c00a8020000b4
:020000040000fa
:0402a000a8020000b0
:020000040000fa
:0402a400a8020000ac
:020000040000fa
:0402a800a8020000a8
:020000040000fa
:0402ac00a8020000a4
:020000040000fa
:0402b000a8020000a0
:020000040000fa
:0402b400a80200009c
:020000040000fa
:0402b800a802000098
:020000040000fa
:0402bc00a802000094
:020000040000fa
:0402c000a802000090
:020000040000fa
:0402c400a80200008c
:020000040000fa
:0402c800a802000088
:020000040000fa
:0402cc00a802000084
:020000040000fa
:0402d000a802000080
:020000040000fa
:0402d400a80200007c
:020000040000fa
:0402d800a802000078
:020000040000fa
:0402dc00a802000074
:020000040000fa
:0402e000a802000070
:020000040000fa
:0402e400a80200006c
:020000040000fa
:0402e800a802000068
:020000040000fa
:0402ec00a802000064
:020000040000fa
:0402f000a802000060
:020000040000fa
:0402f400a80200005c
:020000040000fa
:0402f800a802000058
:020000040000fa
:0402fc00a802000054
:020000040000fa
:04030000a80200004f
:020000040000fa
:04030400a80200004b
:020000040000fa
:04030800a802000047
:020000040000fa
:04030c00a802000043
:020000040000fa
:04031000a80200003f
:020000040000fa
:04031400a80200003b
:020000040000fa
:04031800a802000037
:020000040000fa
:04031c00a802000033
:020000040000fa
:04032000a80200002f
:020000040000fa
:04032400a80200002b
:020000040000fa
:04032800a802000027
:020000040000fa
:04032c00a802000023
:020000040000fa
:04033000a80200001f
:020000040000fa
:04033400a80200001b
:020000040000fa
:04033800a802000017
:020000040000fa
:04033c00a802000013
:020000040000fa
:04034000a80200000f
:020000040000fa
:04034400a80200000b
:020000040000fa
:04034800a802000007
:020000040000fa
:04034c00a802000003
:020000040000fa
:04035000a8020000ff
:020000040000fa
:04035400a8020000fb
:020000040000fa
:04035800a8020000f7
:020000040000fa
:04035c00a8020000f3
:020000040000fa
:04036000a8020000ef
:020000040000fa
:04036400a8020000eb
:020000040000fa
:04036800a8020000e7
:020000040000fa
:04036c00a8020000e3
:020000040000fa
:04037000a8020000df
:020000040000fa
:04037400a8020000db
:020000040000fa
:04037800a8020000d7
:020000040000fa
:04037c00a8020000d3
:020000040000fa
:04038000a8020000cf
:020000040000fa
:04038400a8020000cb
:020000040000fa
:04038800a8020000c7
:020000040000fa
:04038c00a8020000c3
:020000040000fa
:04039000a8020000bf
:020000040000fa
:04039400a8020000bb
:020000040000fa
:04039800a8020000b7
:020000040000fa
:04039c00a8020000b3
:020000040000fa
:0403a000a8020000af
:020000040000fa
:0403a400a8020000ab
:020000040000fa
:0403a800a8020000a7
:020000040000fa
:0403ac00a8020000a3
:020000040000fa
:100400000f8020000eff20000e0188000000000079
:10041000000020000000e000020032000001200087
:10042000200288000c000700804920000100200005
:1004300011000700000020000000e0000200320070
:100440000000020000000000200402000000000084
:100450000040da000000fe004440a900a004200093
:100460000000e0000300320000002000a00188002e
:100470004440a80000000600910188008000780038
:100480000000eb0015003700e280400032a0b4000d
:100490009101ba00e280400032a0b4009102ba009b
:1004a000e280400032a0b4000002eb00472bde00e7
:1004b000f507b200602ce10004003a000059eb009f
:1004c0008301e900fdff3e00040037006128e100e0
:1004d000010032000082eb000b00070011c3ba00dc
:1004e0001101ba000604e00003003a000200e00037
:1004f000e5ff3a0000000600f607b200960188000a
:1005000082007800f5ff37003159ba008301e90015
:100510000c0032002159ba008301e90008003200c2
:100520000400e00003003a00e280400032a0b40082
:10053000f5ff370011d9ba008301e900faff3a004c
:100540008100e800e180400032a0b4000000060015
:080550000040da000000fe008b
:020000040000fa
:10055800486500006c6c00006f200000576f0000b9
:10056800726c0000642c00002074000068690000b0
:1005780073200000697300002061000020720000f1
:10058800656100006c6c0000792000006c6f000051
:100598006e67000020000000486500006c6c0000d9
:1005a8006f200000576f0000726c0000642100008b
:1005b8002c200000546800006973000020730000bc
:1005c800686f0000756c0000642000006265000020
:1005d800204c0000696e00006520000032210000f8
:0405e800000000000f
:020000040000fa
:1005ec000000fa00d222ef00d022ef0000532700c7
:1005fc0001002000bd0007000040eb004a0007008e
:10060c0000fa200001002000b800070020c0b30051
:10061c004500070000fa200001002000b30007008d
:10062c0080c2b3004000070000fa20000100200047
:10063c00ae000700c0c0b3003b00070000fa20006a
:10064c0001002000a900070060c0b30036000700bd
:10065c0010c0b3003400070060c0b30032000700c4
:10066c000080fa00000006000200fa00004f78003b
:10067c00114798001e80fb004400de00004f7800fc
:10068c009e4078006fcf600091168000000f200014
:10069c0000806000901688009e80fb009016800001
:1006ac0001007000901688001e40900061406000b0
:1006bc000080fb00610060004400dd0092168000a9
:1006cc00f1fe2f008100610001007000901688007f
:1006dc00d2a2a900d2c2a800d2c2a9000080fa00fe
:1006ec00000006000200fa00004f780000712200a2
:1006fc00010020007d00070011c0b3001e407800ef
:10070c00d9ff07009e407800400020000008dd0063
:10071c00004f780011c0b3001e407800d2ff0700d4
:10072c000080fa00000006000200fa00004f78007a
:10073c0000712200010020006c0007008040eb00db
:10074c001e407800c8ff07009e4078004000200043
:10075c000008dd00004f7800007d20000100200023
:10076c00620007008040eb001e407800beff0700cf
:10077c000080fa00000006000400fa001007980040
:10078c000040eb00004f7800060037001e80fb0095
:10079c009e00900000804000104078001e4fe80042
:1007ac00d0ff07001e80fb009e00900000804000e0
:1007bc00104078000004e000f4ff3a000080fa00da
:1007cc00000006000200fa00004f78001147980064
:1007dc001e409000e14f500011003e0070c2b3006b
:1007ec009e40780080cf50000f003e001e409000cd
:1007fc00e14f500003003a0000ccb3001e407000e3
:10080c000200370000c8b3001e407000c6ff07008e
:10081c0000712200010020003400070003003700a3
:10082c000000000001003700000000000080fa000a
:10083c00000006000000fa001f00070000682900f5
:10084c00810920002900070065ff0700d302a900d9
:10085c0000902000d1032000240007008040eb0012
:10086c000040eb00d7ff0700c02a2800c2ff07009a
:10087c0011c0b3000040eb00d2ff0700002d280090
:10088c00bdff0700d302a80000902000d103200078
:10089c001600070010c0b300a3ff07000060fe00a5
:1008ac00eaff37000000fa002966a9002946a900d2
:1008bc000080fa00000006000000fa00c022ef00e1
:1008cc00c822ef00d022ef00e024ef00e224ef007a
:1008dc00e424ef00c222ef00ca22ef000010200037
:0c08ec00901688000080fa000000060052
:020000040000fa
:1008f800f03fb1000180b10006003500ee030900a9
:1009080000000000403fb1000180b100fbff3d0046
:100918001000b000203fb000020035000080090040
:080928000000000000000600c1
:020000040000fa
:040930009a048000a5
:020000040000fa
:0409340000000000bf
:020000040000fa
:0200000401f009
:04000000ffff0000fe
:020000040000fa
:0200000401f009
:04000800ffff0000f6
:020000040000fa
:0200000401f009
:04000c00ffff0000f2
:020000040000fa
:0200000401f009
:04001000bfff00002e
:020000040000fa
:0200000401f009
:040014005fff00008a
:020000040000fa
:0200000401f009
:04001800ffff0000e6
:020000040000fa
:0200000401f009
:04001c00ffff0000e2
:00000001FF
