:020000040000fa
:080000000002040000000000f2
:020000040000fa
:100008009a0200009a0200009a0200009a02000078
:100018009a0200009a0200009a0200009a02000068
:100028009a0200009a0200009a0200009a02000058
:100038009a0200009a0200009a0200009a02000048
:020000040000fa
:020000040000fa
:10040000af9a20000eff20000e01880000000000bf
:10041000000020000000e000020032000001200087
:10042000200288000c000700e07d2200010020006f
:1004300011000700000020000000e0000200320070
:100440000000020000000000120b0200000000008b
:100450000040da000000fe004440a900402e2000c9
:100460000000e0000300320000002000a00188002e
:100470004440a80000000600910188008000780038
:100480000000eb0015003700e280400032a0b4000d
:100490009101ba00e280400032a0b4009102ba009b
:1004a000e280400032a0b4000002eb00472bde00e7
:1004b000f507b200602ce10004003a000059eb009f
:1004c0008301e900fdff3e00040037006128e100e0
:1004d000010032000082eb00040007001101ba00a5
:1004e0000200e000e8ff3a00000006003159ba00bf
:1004f0008301e9000c0032002159ba008301e900b0
:10050000080032000400e00003003a00e2804000ee
:1005100032a0b400f5ff370011d9ba008301e90019
:10052000faff3a008100e800e180400032a0b40008
:10053000000006000040da000000fe0003f0a20008
:10054000889fbe008a9fbe008c1f780009010700ab
:10055000100133006450e1004f0032006420e100dc
:100560005200320003826c0007003b000905d000f6
:100570000306d000820f54000c065d000200390013
:100580000200320089017800030678008582550058
:1005900004003d000003fd008103fd008502ea0028
:1005a0008b854200840f720002003b006000100047
:1005b000e08018006011b8000005eb007a28e10027
:1005c0000a00390006007800c75ddd00f707b200b9
:1005d000878075002d003700828171000a01780044
:1005e000610560008180d1000080d3008502e900b0
:1005f000f9ff3b00060440008784480002003b00ee
:1006000060041400e0841c000988a3000700320085
:100610008a81710082817100610164008904d100c6
:100620000884d3008b05e800170037000978a30081
:1006300013003a000b00e000130034008b05e900c2
:100640000804440089844c000a4474000978a3001b
:100650000d003a000b00e000070034008b05e900b4
:100660000804440089844c0001003a000b0020007b
:100670000978a300f7ff32000001eb000200370009
:10068000828171000a0178007f0007000cf0a7004a
:1006900001f0a000c80037006420e10002003a0029
:1006a000838f6c00c80033000801be000200be004a
:1006b000c1003700889fbe008a9fbe008c1f780053
:1006c000ac000700b300330003866c006450e10007
:1006d0002e0032006420e100330032006150e1005e
:1006e0002f0032006120e100310032008585550085
:1006f000eb07b000090020000804200005003700c7
:100700000804440089844c000a00310006034300b9
:1007100087834b000001530081815b00f8ff3300a9
:100720000203be000800a0000804440089844c00b5
:10073000f6ff3900c639dd00830173000100320085
:10074000130020008904d1000884d3000998a30075
:10075000050032000800a7000300a0008904d100b2
:100760000884d3008b05e8008904d1000884d300f5
:100770000001eb000281d2004300070001f0a1005c
:100780000cf0a70001f0a0008b0037006420e1000e
:100790008d0032000801be000200be00f7ff3700e6
:1007a0006120e100880032006000b800f3ff3700ec
:1007b0000000200001f82700f0ff3700839f680049
:1007c0000100e00002003d0060001000e080180021
:1007d0000300e00002003d0060011100e08119000b
:1007e0007c0007004f00e00002003b0060001000aa
:1007f000e0801800000006000001be00480007006d
:100800000470a70003f0a1006509b10016003200d2
:100810000d0035006828e10006003500f0ff2f00cc
:10082000f1ff27000300e00013003b000100280057
:100830000000050000004000818048008502e900ba
:10084000fcff3a0008003700f88f420002003c002d
:100850008000eb00000005008100d1000080d30083
:100860008502e800fcff3a000300e00002003b00c4
:1008700060001000e0801800000006004f89de00d4
:10088000820178008e0137008100200061805500d0
:100890000b003d000b00200061fe2f000100e10075
:1008a0001d00340082817100610164008904d1005f
:1008b0000884d3000000e800faff3a00710020002d
:1008c0006100640003007000020060000900320053
:1008d00061044400e0844c000988a5000500320052
:1008e0008b05e8006808e10002003a008904d100a5
:1008f0000884d300f20f20000258e10005003d00fb
:10090000c75ddd00f907b200898075000800780036
:10091000000006000bf827008b007800000005009f
:10092000c70ade00f107b200f50fb200080032007e
:10093000e1cf4200020032000170a0002400050057
:10094000810f70000100320004080500440005001a
:10095000810f700002003a00140005008502e900d2
:100960000000400081c04800fcff3b000170a00077
:10097000240005000004be00e9ff07000003be00dc
:100980000405be000200be00e5ff0700844f7500ad
:10099000000006000200be006450e10005003600c1
:1009a0006420e100020036000968a30001003a005b
:1009b0000800be000160a0004f0678004f05be0091
:1009c0004f04be0000000600f0ff2f00f1ff2700db
:1009d000f9ff37006022b800060220000000d000b6
:1009e0008180d2000482d2008582d2000000a00063
:1009f0000202520083825a000300310002024200c8
:100a000083824a000000a1000603e900f3ff3a00d8
:100a100000000600889fbe008a9fbe00300442008e
:100a2000b0844a0030054b0090854b006000b10057
:100a30000898be000a90be000440e10005c8e1002d
:100a400006d0e10007d8e100020031006800400054
:100a50001008e8004f05be004f04be00000006006d
:100a6000889fbe008a9fbe003004be002005be00e5
:100a70000418540005985c0006185d0007985d0096
:100a8000110020000440e10005c8e10006d0e100ab
:100a900007d8e100010039008000eb001088100049
:100aa0004f05be004f04be00000006001200fa0011
:100ab000889fbe008a9fbe008c9fbe00e0b79f004b
:100ac000f1b79f0082bf9f0093bf9f000605be0045
:100ad0000404be000000eb00d0b79f00c0b79f0029
:100ae000b0b79f00a0b79f0090b79f000006eb0033
:100af0005fb19700cfb09700820141003fb09700ef
:100b00000200e00004003d00370007007e8057002f
:100b1000c0ff070003003700330007007e80570046
:100b2000cfff0700dfb697000d00e0000c00350096
:100b30006fb29700ffb297000fbb97009fbb970063
:100b400010002000010020006011b80000027200b7
:100b50008182720002037300838373001b0007000d
:100b60000c06e80001042000810f5600e0ff3a0067
:100b70000d00e00004003d000802be000a03be00b4
:100b80007e805700a3ff07005fa897000000e000e9
:100b900005003a001fb29700afb297003fb397002d
:100ba000cfb39700090007006fb09700ffb0970020
:100bb0000fb997009fb997004f06be004f05be00c2
:100bc0004f04be000080fa0000000600010007008c
:100bd00000000600a4b79f00b5b79f00c6b79f00ee
:100be000d7b79f00000006004f09de008281710028
:100bf000b3b79f004f01de0081804000828070000b
:100c0000a1b79f008fb097004f09de0000004000a1
:100c10000200700090b79f007fa897004f01de0090
:100c2000818040008280700081b79f000d00070026
:100c30004f3ade000000400004007000f0af9f005b
:100c4000080007000402420085824a0006034b00a8
:100c500087834b00dfff07000802be000a03be00c7
:100c6000000006002fb29700bfb297004fb3970065
:100c7000dfb3970000000600881f780018002000ee
:100c8000881f780089ff07008f87e9004f047800ec
:100c900000000600801feb0084ff07008f87e9003b
:100ca00000000600889fbe008a9fbe00e00f500033
:100cb000e08f5800e00f5900e08f59000c003d0014
:100cc0006044b8006055b8000000540081805c00aa
:100cd00002015d0083815d001800200015000700ff
:100ce00008003d00180007000004eb000500370075
:100cf0000004eb000f00070002003d001200070097
:100d000018002000dcff07000800e00006003200a9
:100d10006022b8006033b8000000520081805a00a1
:100d200002015b0083815b004f05be004f04be00e3
:100d300000000600e00f5200e08f5a00e00f5b0059
:100d4000e08f5b00000006006044b8006055b8000a
:100d50000402540085825c0006035d0087835d0009
:100d600000000600889fbe008a9fbe008c1f78008e
:100d7000e00f5000e08f5800e00f5900e08f59005d
:100d80000d003d006044b8006055b80000005400fc
:100d900081805c0002015d0083815d001c002000f9
:100da0000820e10009a8e1000ab0e1000bb8e10069
:100db0000d003d00080037000006eb00e00f520078
:100dc000e08f5a00e00f5b00e08f5b0006003d0003
:100dd0006044b8006055b8000402540085825c008d
:100de00006035d0087835d00aaff07000c00e0009a
:100df000060032006022b8006033b80000005200e4
:100e000081805a0002015b0083815b004f067800fd
:100e10004f05be004f04be0000000600889fbe00c4
:100e20008a9fbe008c1f78000006eb00e00f500088
:100e3000e08f5800e00f5900e08f590007003d0097
:100e40006044b8006055b8000000540081805c0028
:100e500002015d0083815d001c002000e00f520054
:100e6000e08f5a00e00f5b00e08f5b0007003d0061
:100e70006044b8006055b8000402540085825c00ec
:100e800006035d0087835d000c00a2004b00070095
:100e90000c00e000060032006022b8006033b800a9
:100ea0000000520081805a0002015b0083815b00d8
:100eb0004f0678004f05be004f04be00000006003c
:100ec000881f7800030478000300e00007003d005d
:100ed00060001000e080180060011900e081190036
:100ee00002003b0001f02d00030037000400070062
:100ef00008f0a70001f0a0004f04780000000600f1
:100f0000889fbe008a9fbe000082700004027100ac
:100f100004827100260032000004be000200be0000
:100f20006011b8006b092000950220000182cf00fb
:100f30000a0039000541b1000082cf0007003900e6
:100f40000541b1000982cf00040039000541b1001c
:100f50000882cf00010039000541b100054252006e
:100f6000120032000a003b008281710061016400be
:100f70008100d1000080d3008984d3000884d3008d
:100f80008b05e8000442e800f7ff3a00070037004d
:100f90000804440089844c00000048008180480017
:100fa0008b05e9000442e900f9ff3a0036fe07002c
:100fb0004f05be004f04be0000000600889fbe0023
:100fc0008a9fbe008c9fbe000404b8000506b800ce
:100fd0008904460060854e000606b8000a054600f2
:100fe000e0854e000706b8008b054600040eb800e9
:100ff000890446000a854e00e0854d00050eb800c4
:101000000a0546008b854e00060eb8008b0546008b
:101010000416b8000a0546008b854e000516b80078
:101020008b054600041eb8008b0546000800be0074
:101030000a01be004f06be004f05be004f04be00b1
:101040000000060080007800010178003104e00013
:0c105000fdff3a00000051000000060007
:020000040000fa
:10105c000000000002000000040000000600000078
:10106c00080000000a0000000c0000001000000046
:10107c0014000000180000001c00000020000000fc
:10108c002200000024000000260000005761000030
:10109c007465000072200000546500006d70000043
:1010ac003a2000000053000074650000616d0000e0
:1010bc0020540000656d0000703a00002000000014
:1010cc00477200006f75000070200000486500003a
:1010dc00616400003a2000000053000065740000b9
:1010ec00506f0000696e0000743a0000004e000062
:1010fc00756d000020450000727200006f720000d8
:10110c00733a0000005300005953000020560000b1
:10111c006f6c000074610000676500003a0000000d
:10112c00506c0000656100007365000020530000e6
:10113c0065740000207400006865000020540000f5
:10114c00696d0000650000003a0000005461000069
:10115c006e6b0000204c000065760000656c000092
:10116c003a0000004c4f000057000000536800008c
:10117c006f74000020540000696d0000657200005f
:10118c003a000000507200006573000073200000ec
:10119c00274500004e540000455200002720000057
:1011ac00746f0000205300006574000000540000b0
:1011bc00696d00006500000020200000596f0000e0
:1011cc007520000061720000652000006162000063
:1011dc006f75000074200000746f00002020000068
:1011ec00005200006553000065740000207400007c
:1011fc006865000020500000726f000063650000fd
:10120c00737300006f7200000048000069740000e6
:10121c0020270000456e0000746500007227000056
:10122c00207400006f200000526500005365000020
:10123c00740000005374000061720000742f0000f1
:10124c00537400006f70000020540000696d0000a2
:10125c00657300000053000065740000205400000a
:10126c00656d00007065000072610000747500000f
:10127c0072650000206600006f72000000550000cf
:10128c00702f0000446e0000204b000065790000b8
:10129c0073200000746f0000206300006861000080
:1012ac006e67000065000000456e0000746500006c
:1012bc00722000004b65000079200000666f000072
:1012cc0072200000596500007320000020200000ef
:1012dc00005300006574000020540000656d000090
:1012ec0070000000536500007420000044420000b0
:1012fc0000470000616900006e000000496e0000ac
:10130c007465000067720000616c00000052000000
:10131c006174000065000000280000002a00000035
:10132c002c0000002e0000003000000032000000f5
:10133c003400000036000000380000003a000000c5
:10134c003c0000003e000000400000004200000095
:10135c004400000046000000480000004a00000065
:10136c004c0000004e000000500000005200000035
:10137c005400000056000000580000005a00000005
:10138c005c0000005e000000537500006e00000061
:10139c004d6f00006e0000005475000065000000e9
:1013ac0057650000640000005468000075000000e0
:1013bc0046720000690000005361000074000000d8
:1013cc005374000061720000742f0000537400000d
:1013dc006f700000206600006f720000200000009b
:1013ec00557000002f4400006e2000004b6500007b
:1013fc0079730000207400006f2000006368000007
:10140c00616e000067650000004500006e7400000e
:10141c0065720000204b000065790000206600001a
:10142c006f7200002059000065730000202000003e
:10143c002000000053740000617200007420000052
:10144c00486f000075720000203d00002000000075
:10145c005374000061720000742000004d6900009c
:10146c006e75000074650000203d00002000000037
:10147c00537400006f700000204800006f7500006e
:10148c00722000003d20000000530000746f00002b
:10149c00702000004d6900006e750000746500003e
:1014ac00203d00002000000053750000004d00009e
:1014bc006f0000005475000000570000650000002c
:1014cc0054680000004600007200000053610000e8
:1014dc00004e0000554c0000004a0000414e000038
:1014ec000046000045420000004d00004152000043
:1014fc000041000050520000004d00004159000016
:10150c00004a0000554e0000004a0000554c0000f7
:10151c0000410000554700000053000045500000fa
:10152c00004f000043540000004e00004f560000d6
:10153c000044000045430000003a00000020000079
:10154c00456e000074650000722000003d20000014
:10155c004e650000787400002046000069650000ac
:10156c006c64000020000000557000002f44000047
:10157c006e2000006b650000797300002074000081
:10158c006f20000063680000616e0000676500005a
:10159c00005e00005e00000020200000205e0000c5
:1015ac005e00000053650000747000006f6900005d
:1015bc006e740000203d0000200000004465000017
:1015cc0061640000426100006e640000203d000078
:1015dc002000000047610000696e0000203d000003
:1015ec0020000000496e0000746500006772000066
:1015fc00616c0000203d00002000000044650000ec
:10160c007269000076610000746900007665000064
:08161c00203d00002000000049
:020000040000fa
:101624005400fa00889fbe00520f07000a0f0700fb
:101634000040eb00c909070000a821006100200058
:10164400640f070072090700650507002c090700ed
:101654000040eb00004f78000040eb00004f7800a2
:101664001c0037001e80fb008000400060842800be
:101674000080400010007800eb0e070080447800e2
:101684001e80fb0080004000008428000080400091
:1016940010007800e40e0700000478001e80fb00b0
:1016a40080004000a08328000080400010007800e3
:1016b400dd0e0700459c20000002eb008941780004
:1016c40008017800800078001e4078004b0c070069
:1016d4001e4fe8001e407800e24f5000e1ff360044
:1016e40030002000100798003000200020079800e8
:1016f4000040eb00604798006000b8003017980085
:10170400411798006000b8005017980061179800be
:101714000000eb00400798000000eb005007980021
:101724000000eb00701798000000eb00001f980009
:101734000000eb00101f98000000eb0070079800f9
:101744008e0078004103b000050009008018eb000a
:101754000000eb00002798000000eb001027980021
:101764000000eb00202798000000eb00000f980019
:101774000000eb00200f98000040eb006057980039
:101784000040eb0020579800600420000e00400049
:101794006c050700028020006104200081004700de
:1017a40006000900311978000000eb00b60e0700ae
:1017b400101798003e149000ce1490006e409000d4
:1017c4000080fb0080004000208120000080400059
:1017d40010007800cf80de0027fc07000001be0067
:1017e4000800be0054fb070030179800411798000a
:1017f4006e4090000080fb009e10900000014000ad
:101804002081200000004100010878003e1490006f
:10181400ce1490006e4090000080fb0080004000d9
:10182400208120000080400010007800cf80de007e
:1018340011fc07000001be000800be003ffb0700ca
:1018440030179800411798003e109000ce10900079
:10185400020020000327240095fb0700e5fb070096
:1018640000007800600f98006e089000700f9800d8
:1018740050002000840e0700201798005e1490008a
:10188400ee1490006e4090000080fb00c003b00096
:10189400800040002081200000804000100078007b
:1018a400cf80de00f4fb07000001be000800be008c
:1018b40021fb070050179800611798006e409000b4
:1018c4000080fb00ae109000c003b0000001400097
:1018d4002081200000004100010878005e1490007f
:1018e400ee1490006e4090000080fb00c003b00036
:1018f400800040002081200000804000100078001b
:10190400cf80de00dcfb07000001be000800be0043
:101914000afb070050179800611798006e4090006a
:101924000040e80060479800ee409000b0c3b30068
:1019340080cf5000020036000040eb006047980062
:101944005e109000ee109000020020000327240097
:1019540057fb0700a7fb070000007800001798005a
:10196400ae0090001e009000808f500003003200f3
:10197400a70807001e01900022079800fe009000af
:1019840060408000808f500022013200504080006f
:1019940000017800404080008000780030408000e2
:1019a4006106070060579800511680000000280067
:1019b400008060000000e00003003a006e509000d8
:1019c400e14f500003003a0010c0b30020579800c4
:1019d400020037000040eb002057980010c8bf00f9
:1019e400e94f5000020034000040eb0020579800fb
:1019f400410e07000000fb00200f98002e08900005
:101a0400e90f500002003e000040eb002057980010
:101a14002e089000e90f500010003e0010c8bf00cf
:101a24000040e80010e8b70010c8bf00f44f5000b1
:101a34000200340040c1b30010e8b70010c8bf0072
:101a4400f34f500003003c00cd42a8006016800014
:101a540002003700cd42a90060168000604080007b
:101a640070079800a0012000070e0700400f98009f
:101a74000000eb00400798000e0037004e00900075
:101a8400000040000000470060089000f5090700ce
:101a9400800078004e0090000000400000004700e5
:101aa4007c004000010878004e0090000000e8002f
:101ab400400798004e009000e10f5000efff340003
:101ac4001e009000e20f500049003c0011c0b3001a
:101ad4000040eb00550807001e0090008000400005
:101ae400c09820000080400010007800db08070048
:101af400d1c0b3000040eb004c0807001e0090006a
:101b040000004000000047006008900041c0b3009e
:101b14002d0907000040eb00b408070060c4b300bf
:101b2400b208070011c0b30010c0b3003f0807009b
:101b340030872800c9080700d1c0b30010c0b30023
:101b44003a0807001e00900080004000e082280050
:101b54000080400010007800b30d070041c0b300be
:101b6400190907000040eb00a008070060c4b30097
:101b74009e08070011c0b30020c0b3002b08070063
:101b8400d0872800b5080700d1c0b30020c0b30037
:101b94002608070010c8bf000000fb0021c0b300e6
:101ba400c108070011c0b30030c0b3001f0807000c
:101bb40090882800a9080700d1c0b30030c0b30042
:101bc4001a0807004e089000cf80de000001be0016
:101bd4002010280061002000f7fa070000007800b8
:101be40031c0b3003d09070060c5b3007f0807009a
:101bf4001e009000e30f500086003a00904c8000d5
:101c0400e10f500006003a0011c0b30010c0b30049
:101c14000608070060892800900807007d00370047
:101c240011c0b3000040eb00000807000040800032
:101c340021c0b3009c0807001040800080004000d1
:101c4400e093200000804000100078008308070023
:101c54002040800021c0b3009308070091c0b30066
:101c64000040eb00f1070700304080008000400096
:101c740000932000008040001000780077080700df
:101c8400c1c0b3000040eb00e807070040408000fb
:101c940021c0b30084080700a08a28006f08070049
:101ca4005040800021c0b3007f080700a08a2800ac
:101cb4006a0807006040800021c0b3007a0807006a
:101cc40011c0b30010c0b300d80707000e20900065
:101cd4000000e00003003200704c80005f08070041
:101ce40002003700604c80005c080700d1c0b300dc
:101cf40010c0b300cd0707006e08900041c0b300c8
:101d0400b10807000040eb003808070060c4b300c6
:101d14003608070011c0b30020c0b300c307070092
:101d2400804c80004d080700d1c0b30020c0b30030
:101d3400be0707000e10900041c0b300a2080700c0
:101d44000040eb002908070060c4b300270807001f
:101d54006e1890000000e00023003a0011c0b300a8
:101d640030c0b300b1070700c08a28003b08070051
:101d7400d1c0b30030c0b300ac0707002e089000f8
:101d840031c0b3004808070000c2b30017080700b9
:101d940050c2b300150807002e089000f80f500039
:101da4001c003e0094c9bf0011c0b30000c0500025
:101db40094e9b70094c9bf000004e00015003200a4
:101dc400d1c0b30030c0b30098070700808b28004f
:101dd4002208070000c2b3000408070050c2b30081
:101de400020807000b00370011c0b30030c0b30075
:101df4008e070700c08b280018080700d1c0b30065
:101e040030c0b300890707006e18900041c0b300ca
:101e14006d0807002e509000e14f500009013a0070
:101e2400504080000000e00005003a00604080005f
:101e3400e40f500002003e00cd42a800010037002c
:101e4400cd42a9000e209000e10f500007003a0097
:101e54007c00470000017800e182280010c0b30034
:101e64009d0a0700001f9800060037007c00470009
:101e740000017800e18228000040eb00960a070088
:101e8400701798007c00470000017800e182280068
:101e940020c0b300900a0700101f98000e20900085
:101ea400e10f50001b003a0080418400de0c070063
:101eb400ee08900001045000b0418400da0c0700e1
:101ec400800f540002003400d502a8002b00370014
:101ed4003e1890000000e800301f9800be189000e3
:101ee400309c2000808f5000020034000000eb0082
:101ef400301f98008e1890003e189000808f50007c
:101f040002003400d502a8001c003700d502a90045
:101f14001a00370070418400c30c0700ee089000db
:101f240001045000a0418400bf0c0700800f54003e
:101f340002003400d502a800100037002e189000cb
:101f44000000e800201f9800ae189000309c20008c
:101f5400808f5000020034000000eb00201f980026
:101f6400fe1090002e189000808f50000200340064
:101f7400d502a80001003700d502a90090418400d1
:101f8400a90c07008e10900001045000c041840089
:101f9400a50c0700800f540002003400c4e2a8001e
:101fa400100037004e1890000000e800401f980011
:101fb400ce189000309c2000808f50000200340026
:101fc4000000eb00401f98009e1890004e189000ef
:101fd400808f500002003400c4e2a80001003700e2
:101fe400c4e2a9001e209000e10f500080003a00d6
:101ff40005e1a8000000eb0050079800de189000ef
:1020040040062000808f500002003c00c442a8001b
:10201400c542a800de18900040062000808f5000c2
:1020240018003400de189000e0062000808f500075
:1020340014003c00c542a900d522a8002004800059
:10204400680060000000e0000e00320020168000ee
:102054004200de006140600011c0b30000c05000c7
:10206400614060000080fb00610060004200dd0010
:1020740022168000b1ff2f00810061000100700072
:1020840020168800de189000e0062000808f5000a3
:1020940005003400de189000c0082000808f500036
:1020a40001003c00c442a900de189000c0082000d2
:1020b400808f500017003400de1890006009200063
:1020c400808f500013003c00d522a800200480001b
:1020d400680060000000e0000e003200201680005e
:1020e4004200de006140600011c0b30000c0500037
:1020f400614060000080fb00610060004200dd0080
:1021040022168000b1ff2f008100610001007000e1
:1021140020168800de18900060092000808f50008f
:1021240007003400de18900010322000808f500029
:1021340003003c00d522a800c542a800c442a9005f
:10214400de18900020352000808f500001003400fc
:10215400c462a800de18900070352000808f500003
:1021640006003400c462a900e0342000501f980027
:102174007e1890000000e800701f98007e18900000
:10218400e90f500005003400c462a800a033200009
:10219400501f9800a0002000701f9800a116800016
:1021a40000202000008060000000e00007003200f2
:1021b40020048000680060000000e000030032009a
:1021c4006e1890000000e800601f98002004800052
:1021d400680060000000e000140032008460a90080
:1021e4005e1890000000e800501f98000f003700b0
:1021f400c462a9000000eb00701f980005e1a9006b
:102204000000eb00501f98005e0090000000e80002
:1022140050079800de009000300d2300808f50009e
:10222400020034000000eb00601f98002e20900094
:102234000000e0000b003200c442a800d522a80030
:1022440008003700d502a900c4e2a9000000eb0091
:10225400601f9800c442a900c542a900d522a90064
:10226400c462a9009c0b0700205f98002e589000c0
:10227400e24f500002003a0010002000102798009e
:102284002e589000e14f500002003a001000200048
:10229400002798002e589000e34f500002003a00a7
:1022a40010002000202798002e5890000004e00021
:1022b40009003a000000eb00102798000000eb0032
:1022c400002798000000eb0020279800c442a900d2
:1022d400d522a900c542a9004b0a0700404f980027
:1022e400c60707004e489000e94f500004003a002a
:1022f4000e0890000000e800000f9800020037006c
:102304000000eb00000f98000e089000e30f40005f
:1023140002003e00c422a80003003700e0ff2f00a3
:10232400000f9800c422a9004e489000e74f5000c7
:1023340029003a00104880000000e00006003c003c
:102344000040eb0020579800104880000000e8008f
:1023540010488800200037002d0607008040eb005d
:102364000040eb0031060700808c2800bb06070004
:102374008040eb0010c0b3002c060700d08d28006d
:10238400b60607000f0037001f0a0700404f9800e9
:10239400104880000000e8001048880000882300ee
:1023a400110020000b0c070011488000401f200082
:1023b400808f5000030034000229ef001406070048
:1023c400050037004e489000e34f5000eeff3a00fe
:1023d400940207000229ef004e4890000004e00038
:1023e4002d003a00104880000000e00006003c0088
:1023f4000040eb0020579800104880000000e800df
:102404001048880024003700010607008040eb00d4
:102414000040eb0005060700208e28008f06070009
:102424008040eb0010c0b30000060700708f280046
:102434008a0607008040eb0020c0b300fb050700bc
:10244400b0902800850607000f003700ee0907004a
:10245400404f9800104880000000e80010488800b1
:102464000088230011002000da0b070011488000c7
:10247400401f2000808f5000030034000229ef0029
:10248400e3050700040037004e489000e34f500076
:10249400eeff3a000000fe004e489000e84f500066
:1024a40029003a00104880000000e00006003c00cb
:1024b4000040eb0020579800104880000000e8001e
:1024c4001048880020003700d10507008040eb0049
:1024d4000040eb00d5050700808c28005f0607004c
:1024e4008040eb0010c0b300d00507000092280024
:1024f4005a0607000f003700c3090700404f980031
:10250400104880000000e8001048880000c429003a
:1025140001002000af0b070011488000401f20007d
:10252400808f5000030034000229ef00b805070033
:10253400050037004e489000e34f5000eeff3a008c
:102544000229ef00a60307004e489000e24f500016
:102554000b003a001e0090000000e90010079800ec
:102564001e0090000000e00002003d00300020004a
:102574001007980000242400f1002000950b0700a8
:102584004e489000e14f50000b003a001e009000ae
:102594000000e800100798001e009000e30f5000b0
:1025a400020034000000eb0010079800002424000f
:1025b400f1002000870b07004e489000e64f5000c2
:1025c4005f013a00104880000000e00006003c0073
:1025d4000040eb0020579800104880000000e800fd
:1025e40010488800560137000040eb00305798002f
:1025f4006600370084090700404f980011488000a6
:10260400803e2000808f5000020034000229ef0039
:102614004b0137004e4890000000fb00e20f5000d1
:1026240014003200e20f500005003c000000e000fe
:102634002b003200e10f500020003200320037003e
:10264400e40f500014003200e50f50002e003a0051
:102654003e5090000040e900305798003e509000f2
:102664000004e00021003d000040eb0030579800da
:10267400250037003e5090000040e9003057980094
:102684003e5090000004e0001a003d000040eb00c2
:10269400305798001c0037003e5090000040e8007e
:1026a400305798003e509000e24f50001300340021
:1026b40020c0b30030579800130037003e509000fc
:1026c4000040e800305798003e509000e24f500020
:1026d4000c00340020c0b300305798000a003700c3
:1026e4000229ef004a050700150137000000000029
:1026f4000500370000000000030037000000000060
:10270400010037000000000010488000e10f500075
:1027140001003c003e0507008040eb000040eb0058
:102724004205070010932800cc0507008040eb0009
:1027340010c0b3003d0507003e5090000000fb00b0
:1027440080004000c0982000008040001000780005
:10275400c20507008040eb0020c0b300330507002a
:1027640050942800bd0507008040eb0030c0b30042
:102774002e050700a0952800b80507009f0607004e
:10278400104880000000e800104888004e4890007f
:10279400e34f500097ff3a0090c0b300404f9800b9
:1027a4001b0507008040eb000040eb001f050700fd
:1027b4003e5090000000fb0080004000c0982000c4
:1027c4000080400010007800a40507003e509000ef
:1027d4000000fb0080004000c09820000080400002
:1027e4001000780016fa0700004078008040780056
:1027f4000040eb000d050700f09628009705070040
:102804003e5090000000fb0080004000e082280061
:102814000080400010007800830a07009c0607002f
:10282400800078003e5090000000fb000001400052
:10283400e082280000004100100078005c0a0700d4
:102844008040eb0020c0b300f80407003e50900025
:102854000000fb0080004000c09820000080400081
:10286400100078007d0507003e5090000000fb003a
:1028740080004000c09820000080400010007800d4
:10288400eff90700004078008040780020c0b300d2
:10289400e604070080972800700507003e5090006a
:1028a4000000fb00800040004083280000804000be
:1028b400100078005c0a070000407800b9060700a1
:1028c4008080fb003e5090000000fb0000014000af
:1028d400408328000000410010007800340a0700fb
:1028e400cb0407008040eb000040eb00cf0407005e
:1028f4003e5090000000fb0080004000c098200083
:102904000080400010007800540507003e509000fd
:102914000000fb0080004000c098200000804000c0
:1029240010007800c6f90700004078008040780065
:102934000040eb00bd040700f0972800470507009e
:102944003e5090000000fb0080004000a08328005f
:102954000080400010007800330a0700d706070003
:10296400800078003e5090000000fb000001400011
:10297400a083280000004100100078000c0a070022
:102984008040eb0020c0b300a80407003e50900034
:102994000000fb0080004000c09820000080400040
:1029a400100078002d0507003e5090000000fb0049
:1029b40080004000c0982000008040001000780093
:1029c4009ff90700004078008040780020c0b300e1
:1029d4009604070040982800200507003e50900008
:1029e4000000fb00800040000084280000804000bc
:1029f400100078000c0a0700f40607008000780035
:102a04003e5090000000fb000001400000842800bc
:102a14000000410010007800e50907007c0407006d
:102a24008040eb000040eb00800407003e50900023
:102a34000000fb0080004000c0982000008040009f
:102a440010007800050507003e5090000000fb00d0
:102a540080004000c09820000080400010007800f2
:102a640077f9070000407800804078000040eb00d0
:102a74006e040700d0982800f80407003e50900028
:102a84000000fb00800040006084280000804000bb
:102a940010007800e4090700004078000f070700e1
:102aa4008000fb003e5090000000fb00000140004d
:102ab400608428000000410010007800bc09070071
:102ac4003e5090000000fb0080004000608428001d
:102ad4000080400010007800d3090700804478008b
:102ae4003e5090000000fb0080004000008428005d
:102af4000080400010007800cb0907000004780033
:102b04003e5090000000fb0080004000a08328009d
:102b14000080400010007800c3090700800078009e
:102b24003e509000f5ff20000002eb008941780040
:102b340008017800310707000229ef003404070078
:102b44000060fe0010fb37000600fa002007980022
:102b5400ae009000010f78000000eb001007980011
:102b64001e007800e90f5000060036009e00780031
:102b74006a8f50001e0090007000400010079800fb
:102b8400f7ff37001e0090001e0040001007980059
:102b94001e0090000080fa00000006000400fa0005
:102ba400100798009e009000010f78001e00780026
:102bb4000000d100000f7800800720001e0f600085
:102bc4001e0078004200de009e0040001e009000bf
:102bd4006f006000008040000080fa0000000600e2
:102be4000000fa0023002000610420007205200088
:102bf40024742000014a7800024a7800034a7800cd
:102c040050052000303b8800a00a2000303b88009b
:102c140027a6a80027e6a900303180000080a00084
:102c24000090a0003031880060012000203188002d
:102c34004002210020318800101220002031880039
:102c44000093220020318800004020004031880099
:102c540026e6a80026c6a90026a6a9002686a9005d
:102c64002666a9002646a9002626a9002606a9004c
:102c740027e6a80027a6a9009bc0a8000080fa00a8
:102c8400000006000e00fa00881f7800000f78008c
:102c9400110798002207980033079800440798000a
:102ca400550798006607980057052000373b8800b1
:102cb400a70a2000373b880027a6a80027e6a9001a
:102cc400303180000080a0000090a00030318800e6
:102cd4001e0078009cff0700203188001e00900031
:102ce40099ff07004804dd002e00900096ff0700be
:102cf40000004400203188003e00900092ff07004d
:102d04004804dd004e0090008fff070000004400df
:102d1400203188005e0090008bff07004804dd002e
:102d24006e00900088ff07000000440020318800f6
:102d340027e6a80027a6a9004f0478000080fa001f
:102d4400000006001400fa00881f780000047800d0
:102d5400000000003131800000002100008060008c
:102d64000000e000fbff3a00303180000080a0004a
:102d74000090a000303188002031800087ff0700d8
:102d84003007980021318000010f78001e00780080
:102d94004800de0081ff070040079800f00f200084
:102da4001e0060007dff070050079800213180005d
:102db400110798001e0090004800de0077ff07000e
:102dc400600798009e009000f00f200000806000d3
:102dd40072ff0700700798002131800021079800d6
:102de4002e0090004800de006cff0700000f9800e2
:102df400ae009000f00f20000080600067ff070025
:102e0400100f9800e600470006000900311c780006
:102e1400e800b100080078004f0478000080fa0050
:102e2400000006001400fa0010c0b3000ee8b7005a
:102e340066004700c3ff07000040eb00004f780026
:102e44000040eb00104798000000eb0010079800ca
:102e54002d0137001e0090000000e00001003a0040
:102e64006b0307001e0090000000e80010079800a4
:102e74009e009000803e2000808f500005003600a8
:102e84000000eb00100798006103070010c0b300b6
:102e94001047980011c0b3000040eb006303070023
:102ea4003e00900021c0b300ff0307004e009000d5
:102eb40080004000e0932000008040001000780073
:102ec400e60307005e00900021c0b300f60307008c
:102ed40091c0b3000040eb00540307006e00900063
:102ee4008000400000932000008040001000780023
:102ef400da030700c1c0b3000040eb004b03070036
:102f04007e00900021c0b300e703070030aa280028
:102f1400d20307000e08900021c0b300e2030700ab
:102f240030aa2800cd0307001e08900021c0b3007a
:102f3400dd0307008040eb0020c0b3003b03070023
:102f440050aa2800c50307008040eb0030c0b3003e
:102f540036030700a0ab2800c00307001e00fb00d7
:102f64006300b900000078000000e0000b003a00a4
:102f74001e4078006300b90000007800004078002b
:102f84000040e8008040780010c0b3002703070029
:102f9400f0ac2800b10307000b0037001e00fb0053
:102fa4000000e900004078006300b90000007800e8
:102fb400004078008040780010c0b3001b03070075
:102fc40020ad2800a50307000f070700404798001d
:102fd4004e4090000000fb00e40f5000050032005a
:102fe400e50f50005b003200e30f5000ae003200ea
:102ff400bd0037001e4078000004e0000a003a00db
:10300400be00900030062000808f500003003a007c
:103014000000eb0030079800030037003e009000ea
:103024000000e800300798001e407800e14f50008f
:1030340009003a004e009000ec0f500003003a00e3
:103044001000200040079800030037004e00900055
:103054000000e800400798001e407800e24f50004e
:1030640009003a005e009000ff0f500003003a0090
:103074001000200050079800030037005e00900005
:103084000000e800500798001e407800e34f50000d
:1030940009003a006e009000e60f500003003a0069
:1030a4000000eb0060079800030037006e009000fa
:1030b4000000e800600798001e407800e44f5000cc
:1030c40009003a007e009000f70f500003003a0018
:1030d4000000eb0070079800030037007e009000aa
:1030e4000000e800700798001e407800e54f50008b
:1030f4000a003a008e089000b0032000808f500030
:1031040003003a000000eb00000f980003003700b2
:103114000e0890000000e800000f98001e407800a0
:10312400e64f50006d003a009e089000b003200066
:10313400808f500003003a000000eb00100f98004d
:10314400690037001e0890000000e800100f980086
:10315400650037001e4078000004e00009003a00d2
:103164003e0090000000e00003003a00300620001a
:1031740030079800030037003e0090000000e9008b
:10318400300798001e407800e14f500009003a00d3
:103194004e009000e10f500003003a00c0002000f0
:1031a40040079800030037004e0090000000e9003b
:1031b400400798001e407800e24f500009003a0092
:1031c4005e009000e10f500003003a00f00120007f
:1031d40050079800030037005e0090000000e900eb
:1031e400500798001e407800e34f500009003a0051
:1031f4006e0090000000e00003003a006000200030
:1032040060079800030037006e0090000000e9009a
:10321400600798001e407800e44f500009003a000f
:103224007e0090000000e00003003a0070012000de
:1032340070079800030037007e0090000000e9004a
:10324400700798001e407800e54f500009003a00ce
:103254000e0890000000e00003003a00b0032000d4
:10326400000f9800030037000e0890000000e900ea
:10327400000f98001e407800e64f500019003a00f5
:103284001e0890000000e00003003a00b003200094
:10329400100f9800140037001e0890000000e90089
:1032a400100f9800100037001e407800e64f5000c1
:1032b40006003a000040eb00004f7800540207007b
:1032c40010c0b30010479800070037001e40780074
:1032d4000040e800004f78000300370000000000c1
:1032e40001003700000000001e0b90008e0a9000c1
:1032f4007e029000ee0190005e019000ce009000ee
:103304003e0090005ffe07001e4090000004e000b5
:10331400d0fe32003e0207000e68ef009269ef0013
:103324000080fa00000006000600fa00000f780092
:1033340011079800220798001e00780080004000c2
:10334400209928000080400010007800b60707008c
:103354009e009000810f50000b003a001e00780080
:1033640080004000009a280000804000100078008f
:10337400ad070700ae009000810f500002003a0034
:1033840010c0b3009fe9b7001e0078008000400021
:10339400e09a28000080400010007800a20707008f
:1033a4009e009000810f50000a003a001e00780031
:1033b40080004000c09b280000804000100078007e
:1033c40099070700ae009000810f500001003a00f9
:1033d4009f69ef009fc9bf000080fa00000006004b
:1033e4000200fa000000eb00000f780090c0b30068
:1033f4007ee9b70041003700030607007ee9b70005
:10340400401f20009e007800808f500084003e0002
:103414007ec9bf000080fb00e40f500005003200ad
:10342400e50f50000b0032000000e00012003200f3
:10343400160037009cc9bf000040e9009ce9b700b2
:103444009cc9bf000004e0000d003d009c69ef0032
:103454000e0037009cc9bf000040e8009ce9b7009b
:103464009cc9bf00e64f50000700340060c0b300a1
:103474009ce9b70005003700e50107006900370043
:103484000000000001003700000000001e0078006a
:10349400e20f500001003e00dd01070011c0b3003f
:1034a4000040eb00e1010700609e28006b0207006a
:1034b4009cc9bf000000fb00800040000097200072
:1034c4000080400010007800640207008040eb0098
:1034d40020c0b300d5010700609f28005f020700e9
:1034e4008040eb0030c0b300d0010700b0a028003a
:1034f4005a020700410307001e0fe8007ec9bf00ff
:10350400e34f5000bcff3a00c10107009cc9bf0053
:103514000000fb008000400020992800008040004b
:1035240010007800400707000040780042000700c0
:103534008000fb009cc9bf000000fb0000014000ac
:1035440020992800000041001000780018070700a7
:103554009cc9bf000000fb0080004000009a2800c6
:1035640000804000100078002f070700004078001a
:103574007d0007008000fb009cc9bf000000fb0029
:1035840000014000009a280000004100100078006b
:10359400070707009cc9bf000000fb008000400033
:1035a400e09a280000804000100078001e07070001
:1035b40000407800b90007008000fb009cc9bf00f0
:1035c4000000fb0000014000e09a280000004100d8
:1035d40010007800f60607009cc9bf000000fb003d
:1035e40080004000c09b280000804000100078004c
:1035f4000d07070000407800f40007008000fb007e
:103604009cc9bf000000fb0000014000c09b2800d3
:103614000000410010007800e506070001003700b3
:10362400000000007a0107000000eb00000f7800a2
:103634000080fa00000006000600fa0040479800e7
:1036440010c0b3000ee8b7000000eb00000f7800d4
:10365400ce4090002147980090c0b30030479800b6
:1036640069050700304798003600370066050700f3
:10367400304798001e0fe800003e2900410020005a
:1036840054070700401f20009e007800808f5000e0
:10369400040036000000eb00000f780030c0b300d7
:1036a4003047980011c0b3000040eb005f010700f1
:1036b40000a22800e901070001c1b3000040eb00ab
:1036c4005a0107002e4090000000fb0021c0b30007
:1036d400f5010700c90207003e4090000000fb000e
:1036e400e40f50000b003200e50f500015003a00c3
:1036f4002e4090000040e900204798002e409000a2
:103704000004e0000c003d0070c1b30020479800a5
:103714000c0037002e4090000040e800204798003d
:103724002e409000f74f5000050034000040eb009d
:103734002047980003003700000000000100370014
:10374400000000003e409000e34f5000c7ff3a00e5
:103754000000eb00000f78000e68ef002e40900090
:103764000080fa00000006000600fa0040479800b6
:1037740010c0b3000ee8b7000000eb00000f7800a3
:10378400ce4090002147980090c0b3003047980085
:103794001d05070030479800370037001a05070059
:1037a400304798001e0fe800003e29004100200029
:1037b40008070700401f20009e007800808f5000fb
:1037c400040036000000eb00000f780030c0b300a6
:1037d4003047980011c0b30010c0b30013010700b4
:1037e400e0a228009d01070001c1b30010c0b3008e
:1037f4000e0107002e4090000000fb0021c0b30022
:10380400a90107007d0207003e4090000000fb0074
:10381400e40f50000b003200e50f500016003a0090
:103824002e40900065405000204798002e409000a4
:103834000004e0000d003d0070c3b3002047980071
:103844000d0037002e40900065404000204798004e
:10385400ae40900070c3b30080cf50000500340028
:103864000040eb00204798000300370000000000f0
:1038740001003700000000003e409000e34f50007c
:10388400c6ff3a000000eb00000f78000e68ef005e
:103894002e4090000080fa00000006000600fa00a6
:1038a4004047980010c0b3000ee8b7000000eb00da
:1038b400000f7800ce4090002147980090c0b300dc
:1038c40030479800d004070030479800360037008e
:1038d400cd040700304798001e0fe800003e290081
:1038e40041002000bb060700401f20009e00780016
:1038f400808f5000040036000000eb00000f7800b9
:1039040030c0b3003047980011c0b30020c0b300ea
:10391400c6000700e0a328005001070001c1b3005e
:1039240020c0b300c10007002e4090000000fb003f
:1039340021c0b3005c010700300207003e40900044
:103944000000fb00e40f50000b003200e50f5000b4
:1039540015003a002e4090000040e90020479800ee
:103964002e4090000004e0000c003d0070c1b30044
:10397400204798000c0037002e4090000040e800db
:10398400204798002e409000f74f50000500340067
:103994000040eb00204798000300370000000000bf
:1039a40001003700000000003e409000e34f50004b
:1039b400c7ff3a000000eb00000f78000e68ef002c
:1039c4002e4090000080fa00000006000600fa0075
:1039d4004047980010c0b3000ee8b7000000eb00a9
:1039e400000f7800ce4090002147980090c0b300ab
:1039f40030479800840407003047980037003700a8
:103a040081040700304798001e0fe800003e29009b
:103a1400410020006f060700401f20009e00780030
:103a2400808f5000040036000000eb00000f780087
:103a340030c0b3003047980011c0b30030c0b300a9
:103a44007a000700b0a428000401070001c1b300f4
:103a540030c0b300750007002e4090000000fb004a
:103a640021c0b30010010700e40107003e409000ac
:103a74000000fb00e40f50000b003200e50f500083
:103a840016003a002e4090006540500020479800f0
:103a94002e4090000004e0000d003d0070c3b30010
:103aa400204798000d0037002e40900065404000ec
:103ab40020479800ae40900070c3b30080cf500000
:103ac400050034000040eb00204798000300370055
:103ad4000000000001003700000000003e4090009c
:103ae400e34f5000c6ff3a000000eb00000f7800df
:103af4000e68ef002e4090000080fa0000000600df
:103b04000200fa0040c0b300350007000040eb009b
:103b1400330007000040eb00004f78000600370038
:103b24009e80fb00809520000080400010407800bb
:103b3400ae0007001e4fe8001e407800f74f50000b
:103b4400f7ff36000040eb002500070020c0b3005b
:103b5400230007000080fa00000006000200fa00bb
:103b6400004f78001e00fb006100600000407800f8
:103b74000004e00002003200c322a8000100370064
:103b8400c322a9001e00fb00620060000000e000e8
:103b940002003200d262a80001003700d262a900fc
:103ba4001e00fb00640060000000e0000200320020
:103bb400d282a80001003700d282a9001e00fb00b7
:103bc400680060000000e00002003200d2a2a800f9
:103bd40001003700d2a2a9000080fa00000006000c
:103be4000200fa00004f7800d2c2a9001e407800fb
:103bf400daff0700d2e2a80000e823000100200059
:103c0400f4050700d2e2a9000080fa0000000600d3
:103c14000000fa000040eb00f1ff070010c0b30001
:103c2400efff07000080fa00000006000600fa001b
:103c340040479800514798004e4090000004e0002f
:103c44000f003a00de40900000c8b30000c04000fe
:103c5400004f78001e00fb004480de0010479800ef
:103c64009e4078006fc06000204798001e4090007e
:103c7400dbff07002e409000d9ff07003500370016
:103c84004e409000e14f50000f003a00de4090009b
:103c940000ccb30000c04000004f78001e00fb00c1
:103ca4004480de00104798009e4078006fc060009a
:103cb400204798001e409000c9ff07002e40900046
:103cc400c7ff0700230037004e409000e24f50002a
:103cd4000f003a00de40900040c9b30000c040002d
:103ce400004f78001e00fb004480de00104798005f
:103cf4009e4078006fc06000204798001e409000ee
:103d0400b7ff07002e409000b5ff070011003700f1
:103d14004e409000e34f50000e003a00de40900009
:103d240040cdb30000c04000004f78001e00fb00ef
:103d34004480de00104798009e4078006fc0600009
:103d4400204798001e409000a5ff07002e409000d9
:103d5400a3ff07000080fa00000006000200fa003a
:103d6400004f78000040eb007cff07000088230030
:103d7400110020009705070030c0b30098ff07002a
:103d840000e22400010020009205070030c0b300c7
:103d940093ff070000be2a00010020008d050700e4
:103da40030c0b3008eff070020c0b3008cff0700b3
:103db40020c0b3008aff070080c0b30088ff07005b
:103dc4000040eb0086ff07009e4078006cc0700046
:103dd40083ff07000040eb0081ff070060c0b300d1
:103de4007fff07000080fa00000006000400fa00cc
:103df400204798002e4090006f4f6000ae40900026
:103e040000cfb30000c0600010479800d2c2a800e1
:103e14001e4090000000fb004480de00004078005b
:103e24004eff0700d2e2a800000a20000100200093
:103e340068050700d2e2a9001e40780047ff07008a
:103e4400d2e2a800000a200001002000610507005a
:103e5400d2e2a9000080fa00000006000400fa0083
:103e6400100798000000eb00000f780006003700f0
:103e74001e0078009e0090000080400010407800f2
:103e8400daff07001e0fe8001e0078009e00900075
:103e940000804000104078000004e000f4ff3a0085
:103ea4000080fa00000006000e00fa005007980097
:103eb400414f9800e4004700010009008018eb001e
:103ec4008058eb0040002000000f78000000eb0059
:103ed400100798005e0090000000e00017003d000d
:103ee400d0c2b300c1ff07005e0090000000ea00ea
:103ef4005007980011003700de009000a000200059
:103f040000017800110009008200d8008000fd0043
:103f140080407800640047001e004000014878009b
:103f2400de009000a00020000001780011000900cc
:103f34008200d800500798001e0fe9005e00900030
:103f44000000e000ecff3a004e489000e14f4000d2
:103f54000b003a00030037001e0090000000e80048
:103f640010079800e40047001e0090000080400005
:103f7400104078000004e000f7ff3200040037002e
:103f84004e4890000000fb006500100010079800e8
:103f94009e009000010f780006003700640047007f
:103fa4001e004000104078000043b0008fff07005f
:103fb4001e0fe8001e007800e40f5000f7ff3400e5
:103fc4000080fa00000006000e00fa005007980076
:103fd400414f9800e4004700010009008018eb00fd
:103fe4008058eb0040002000000f78000000eb0038
:103ff4001007980011003700de009000a000200098
:1040040000017800110009008200d8008000fd0042
:1040140080407800640047001e004000014878009a
:10402400de009000a00020000001780011000900cb
:104034008200d800500798001e0fe9005e0090002f
:104044000000e000ecff3a004e489000e14f4000d1
:104054000b003a00030037001e0090000000e80047
:1040640010079800e40047001e0090000080400004
:10407400104078000004e000f7ff3200040037002d
:104084004e4890000000fb006500100010079800e7
:104094009e009000010f780006003700640047007e
:1040a4001e004000104078000043b0004fff07009e
:1040b4001e0fe8001e007800e30f5000f7ff3400e5
:1040c400e0c2b30049ff07000e4890000043b0006f
:1040d40046ff07000080fa00000006000e00fa0008
:1040e40050079800414f9800e40047000100090080
:1040f4008018eb008058eb0040002000000f78008f
:104104000000eb001007980011003700de0090005b
:10411400a000200000017800110009008200d800ee
:104124008000fd0080407800640047001e004000cd
:1041340001487800de009000a00020000001780013
:10414400110009008200d800500798001e0fe900f2
:104154005e0090000000e000ecff3a004e48900042
:10416400e14f40000b003a00030037001e009000ae
:104174000000e80010079800e40047001e009000cb
:1041840000804000104078000004e000f7ff320097
:10419400040037004e4890000000fb00650010004a
:1041a400100798009e009000010f78000600370069
:1041b400640047001e004000104078000043b00037
:1041c4000aff07001e0fe8001e007800e20f5000ef
:1041d400f7ff3400e0c2b30004ff07007e40900004
:1041e4000043b00001ff07000e4890000043b000f8
:1041f400fefe07000080fa00000006000000fa003e
:10420400303180004b00de0061406000a4e9b7005b
:10421400a4c9bf000004e0000e003a00419a200047
:1042240091407800a5c9bf0080cf5000090032003a
:10423400a8c9bf0031c0b30000c05000a8e9b7004e
:1042440031c1b30030c0b30078fe0700a8c9bf0075
:10425400e6fe0700a4c9bf00a5e9b7000080fa0084
:10426400000006000200fa00000f7800203320004e
:104274009e007800808f500002003c001e007800f1
:10428400010037001e0078000080fa0000000600dc
:104294000600fa002007980010c0b3000ee8b7002b
:1042a400ae009000010f78005702070020479800e5
:1042b400340037005402070020479800304d800036
:1042c4000000e800304d8800008823001100200021
:1042d40040040700314d8000c05d2000808f5000f5
:1042e40003003400a629ef0030c0b3002047980033
:1042f4008040eb0010c0b3004cfe070080ad2800e6
:10430400d6fe0700b1c0b30010c0b30047fe0700db
:1043140041c0b3001e0078002bff0700b7ff070061
:104324002e4090000000fb00e40f50000a00320011
:10433400e50f500013003a001e0fe900606d2000e5
:104344009e007800808f50000b003c00606d2000c0
:10435400000f78000b0037001e0fe80030b5200076
:104364009e007800808f50000500340040b5200086
:10437400000f780003003700000000000100370040
:10438400000000002e409000e34f5000c9ff3a00a7
:10439400a629ef000e68ef001e0078000080fa00e6
:1043a400000006000400fa002047980010c0b30083
:1043b4000ee8b700ae409000014f780090c0b30003
:1043c4001047980010020700104798003300370088
:1043d4000d02070010479800304d80000000e800ef
:1043e400304d8800003e290041002000f9030700f9
:1043f400314d8000401f2000808f500003003400a6
:10440400a629ef0030c0b300104798008040eb00ad
:1044140030c0b30005fe070040ae28008ffe070041
:10442400b1c0b30030c0b30000fe07001e80fb0023
:1044340031c0b300e4fe070070ff07001e40900087
:104444000000fb00e40f500009003200e50f5000ab
:1044540012003a001e4fe9001e407800e54f50005c
:104464000b003e0050c0b300004f78000b00370033
:104474001e4fe80030c6b3009e40780080cf500045
:104484000500360040c6b300004f78000300370033
:104494000000000001003700000000001e409000f2
:1044a400e34f5000caff3a00a629ef000e68ef0060
:1044b4001e4078000080fa00000006000600fa00a2
:1044c4002007980010c0b3000ee8b700ae009000bb
:1044d400010f7800cc010700204798003300370013
:1044e400c901070020479800304d80000000e80013
:1044f400304d8800003e290041002000b50307002c
:10450400314d8000401f2000808f50000300340094
:10451400a629ef0030c0b300204798008040eb008c
:1045240010c0b300c1fd070000af28004bfe070018
:1045340071c0b30010c0b300bcfd070031c0b300ac
:104544001e007800a0fe07002cff07002e409000fc
:104554000000fb00e40f500009003200e50f50009a
:1045640012003a001e0fe9001e0078000000e0006f
:104574000b003c000000eb00000f78000b0037003c
:104584001e0fe800700c20009e007800808f500001
:1045940005003400800c2000000f78000300370071
:1045a4000000000001003700000000002e409000d1
:1045b400e34f5000caff3a00a629ef000e68ef004f
:1045c4001e0078000080fa00000006000600fa00d1
:1045d4002007980010c0b3000ee8b700ae009000aa
:1045e400010f780088010700204798003300370046
:1045f4008501070020479800304d80000000e80046
:10460400304d8800003e290041002000710307005e
:10461400314d8000401f2000808f50000300340083
:10462400a629ef0030c0b300204798008040eb007b
:1046340030c0b3007dfd070080af280007fe0700ef
:10464400b1c0b30030c0b30078fd070031c0b3007f
:104654001e0078005cfe0700e8fe07002e40900074
:104664000000fb00e40f500009003200e50f500089
:1046740012003a001e0fe9001e0078000000e0005e
:104684000b003c000000eb00000f78000b0037002b
:104694001e0fe800301f20009e007800808f50001d
:1046a40005003400401f2000000f7800030037008d
:1046b4000000000001003700000000002e409000c0
:1046c400e34f5000caff3a00a629ef000e68ef003e
:1046d4001e0078000080fa00000006000400fa00c2
:1046e4002047980010c0b3000ee8b700ae40900019
:1046f400014f780044010700104798003700370045
:104704004101070010479800304d80000000e80088
:10471400304d8800003e2900410020002d03070091
:10472400314d8000401f2000808f50000300340072
:10473400a629ef0030c0b300104798008040eb007a
:1047440030c0b30039fd070040b02800c3fd0700a6
:10475400d1c0b30030c0b30034fd07001e00fb001d
:1047640031c0b30018fe0700a4fe07001e409000ed
:104774000000fb00e40f50000b003200e50f500076
:1047840016003a001e4078000040e900004f78000f
:104794001e4078000004e0000d003c000040eb00e7
:1047a400004f78000d0037001e4078000040e800fc
:1047b400004f780030c6b3009e40780080cf500090
:1047c4000500340040c6b300004f780003003700f2
:1047d4000000000001003700000000001e409000af
:1047e400e34f5000c6ff3a00a629ef000e68ef0021
:1047f4001e4078000080fa00000006000c00fa0059
:10480400004f78001107980022079800634798002a
:1048140044079800550798001e80fb008000400064
:1048240040902000008040009e0090000108780025
:104834001e80fb0080004000a0902000008040000b
:10484400ae009000010878001e81fb00ee4090004d
:104854000091200000004100014878001e80fb0008
:10486400800040000092200000804000ce009000b4
:10487400010878001e80fb00800040006092200048
:1048840000804000de009000010878001e80fb00dc
:104894008000400040912000008040008000eb0038
:1048a400010878001e80fb0080004000a0912000d9
:1048b400008040008000eb00010878009e80fb002f
:1048c400c09220000080400011c0b300014878006d
:1048d4000080fa00000006000e00fa00004f980065
:1048e40051079800620798000e4890000080fb0072
:1048f40000004000de0090000080400010007800be
:1049040049020700800078000e4890000080fb00f8
:10491400000040006e01900000004100100078008b
:1049240000805000100798000e4890000080fb00a3
:1049340080004000409020000080400090007800fb
:104944001e0090000088b90000007800200798003d
:104954000e4890000081fb000e4890000080fb0090
:1049640080004000409120000080400090017800c9
:104974000e4890000080fb0080004000a0902000c2
:1049840000804000900078001e0090000088b9006c
:104994000000780080804100020141004091200025
:1049a40000004100010878000e4890000080fb00e0
:1049b400800040004091200000804000900078007a
:1049c4000e4890000080fb0000014000009220008f
:1049d4000000410010007800808f50000c003d0062
:1049e4000e4890000080fb008e4890008180fb0000
:1049f4000181400001922000810041009100780073
:104a040000014000409120000000410001087800ae
:104a14000e4890000080fb00800040004091200080
:104a240000804000900078000e4890000080fb0059
:104a34000001400060922000000041001000780056
:104a4400808f50000c0034000e4890000080fb0062
:104a54008e4890008180fb0001814000619220001b
:104a64008100410091007800000140004091200045
:104a740000004100010878000e4890008080fb008f
:104a8400c092200000804000104078000004e00044
:104a9400120032000e4890008080fb00c09220007b
:104aa400008040008040eb00014878000e489000f0
:104ab4000080fb008e4890008180fb0081804000d4
:104ac4006e019000810041009100780000014000d7
:104ad400a091200000004100010878000e489000d9
:104ae4000080fb0000004000ee00900000804000c9
:104af400900078000e4890000080fb000001400008
:104b0400a091200000004100100078008080500037
:104b14000e4890000081fb0000912000000041003d
:104b2400104078000080fb000088b9000000780085
:104b3400300798000e4890000080fb008e489000db
:104b44008180fb00818040006e0190008100410063
:104b54009100780000014000a09120000000410075
:104b6400010878000e4890000080fb00800040009f
:104b74004091200000804000900078002e009000ba
:104b8400808040003e009000008f50000e4890004e
:104b94000080fb0080004000009220000080400064
:104ba400100078009e0f5000060034000e4890005c
:104bb4000080fb0080004000009220000080400044
:104bc400100f78000e4890000080fb008000400029
:104bd4006092200000804000100078009e0f50007a
:104be40006003d000e4890000080fb00800040005d
:104bf4006092200000804000100f78001e007800b2
:104c04000080fa00000006000000fa0059e0a80045
:104c1400d022a800d042a800c922a900c102a9003c
:104c2400cd22a800c502a90070002000960107004b
:104c3400104c8800cd22a90059e0a90058a0a80072
:104c4400c922a800c102a800d022a900d042a9000c
:104c5400d422a800d442a900500120008a010700f0
:104c6400204c8800d422a90058a0a900114c80002f
:104c7400b00d2000808f500004003400214c8000cf
:104c8400b00d2000808f500003003c0090002000f5
:104c9400104d88008629ef00114c8000b00d2000d3
:104ca400808f500007003400114c80002043200006
:104cb400808f500003003c0010c0b30080e9b700af
:104cc40013003700114c800020432000808f5000d7
:104cd40007003400114c8000507c2000808f50006d
:104ce40003003c0020c0b30080e9b700080037008f
:104cf400114c8000507c2000808f50000300340051
:104d040030c0b30080e9b700010037008069ef00cc
:104d1400214c8000b00d2000808f5000070034002b
:104d2400214c8000703e2000808f500003003c0026
:104d340010c0b30081e9b70013003700214c800094
:104d4400703e2000808f500007003400214c80000a
:104d5400f07c2000808f500003003c0020c0b30092
:104d640081e9b70008003700214c8000f07c200066
:104d7400808f50000300340030c0b30081e9b700d5
:104d8400010037008169ef0080c9bf00e14f500086
:104d940015003a0081c9bf00e14f500003003a00fa
:104da40080002000104d88004100370081c9bf00f9
:104db400e24f500003003a0020002000104d88000c
:104dc4003b00370081c9bf00e34f500002003a00a6
:104dd400a229ef003600370090002000104d880013
:104de4008629ef003200370080c9bf00e24f50002f
:104df40015003a0081c9bf00e14f500003003a009a
:104e040050002000104d88002900370081c9bf00e0
:104e1400e24f500003003a0030002000104d88009b
:104e24002300370081c9bf00e34f500003003a005c
:104e340040002000104d88001d0037009000200025
:104e4400104d88001a00370080c9bf00e34f50009e
:104e540015003a0081c9bf00e14f500003003a0039
:104e640060002000104d88001100370081c9bf0088
:104e7400e24f500003003a0010002000104d88005b
:104e84000b00370081c9bf00e34f500003003a0014
:104e940070002000104d88000500370090002000ad
:104ea400104d88000200370090002000104d88004b
:104eb400104d8000e90f50003b0032000ec8bf00c7
:104ec4000004e00005003200f0002000404c88009f
:104ed40090012000504c880004003700a00f2000ef
:104ee400404c8800a00f2000504c8800014d8000e9
:104ef400104d8000808f500003003200104d800060
:104f0400004d880028003700304c80000000e80085
:104f1400304c8800304c8000e10f500003003a0010
:104f2400004d80000040780021003700304c8000a4
:104f3400e10f500006003400314c8000404c8000ea
:104f4400808f500002003c0090c0b300180037006e
:104f5400314c8000404c8000808f500010003400a1
:104f6400504c8000cf80de006109b900049020001d
:104f7400d50320006033b800a7ef0700843e20006b
:104f8400050020006033b8003aef07000000be00bf
:104f940010010700004d8000004078000400370035
:104fa40090c0b300020037008629ef0090c0b30020
:084fb4000080fa000000060075
:020000040000fa
:104fbc009609000006000000000000000409000033
:104fcc002c00000000000000300900002800000048
:104fdc00020000005a8a5d008a608a00638a6600bb
:104fec008a698a006c8a6f008a738a00778a7b00d0
:104ffc008a7f8a00838a87008a8b8a008f8a930033
:10500c008a978a009b8a9f008a0000009c090000f6
:10501c0004000000000000007009000010000000f7
:10502c0002000000ca89ce0089d28900d689da0034
:10503c0089de8900e2890900000000008009000077
:10504c000c00000000000000a0090000040000009b
:10505c00020000000900090000000000a409000083
:10506c000400000000000000a8090000020000007d
:10507c0002000000020000005809000018000000a7
:10508c00020000000c1212000c00000000000a00cc
:10509c0015110a0004000000000a1f001f0e040076
:1050ac0000000000000800000401000000000000e7
:1050bc008c0900000a000000020000004c88590016
:1050cc00886688000100010000000000000000005c
:020000040000fa
:1050dc000000fa009a69ef002d0037004000200014
:1050ec0067000700b04c8800b14c8000703e200077
:1050fc00808f500002003c009969ef0014003700cb
:10510c00b14c8000b05d2000808f500003003c004b
:10511c0010c0b30099e9b7000d003700b14c800006
:10512c0090732000808f500003003c0020c0b3001f
:10513c0099e9b70006003700b14c80007089200057
:10514c00808f500002003c0030c0b30099e9b700da
:10515c0099c9bf000004e0000a00320091992000b8
:10516c009140780098c9bf0080cf500003003200f6
:10517c0099c9bf0098e9b7000200370098c9bf0071
:10518c00070037009ac9bf000040e8009ae9b70051
:10519c009ac9bf00e14f5000d0ff34000040eb0033
:1051ac000080fa00000006000400fa00000f7800ee
:1051bc001107980040002400003b8800f0072000f5
:1051cc009001880001e02f001e0078000080400054
:1051dc00000f78009e0090001e0078000108bb00b4
:1051ec000500fc0050052000303b8800a00a200080
:1051fc00303b880061e7a8000000000000000000c0
:10520c0000000000013b80000000280000806000ce
:10521c000000e000fbff3a000080fa0000000600ee
:10522c000200fa00000f7800f007200090018800bf
:10523c0001e02f001e00780000804000000f780075
:10524c001e0078001000ba000080fa000000060072
:10525c000000fa0000402800001a88004223ef00ea
:10526c0050002000201a88004823ef005023ef0044
:10527c0000042000701a88000080fa00000006006c
:10528c000400fa00100798009e009000411a880054
:10529c00401a8000fa0f500004003a005583a80011
:1052ac000005200001002000480007004023a80052
:1052bc004006200001002000440007004023a90004
:1052cc000100370085a0a900001a80006100600071
:1052dc000000e000fbff32005583a900011880009c
:1052ec00010f78001e0078000080fa000000060014
:1052fc000200fa00a0002000e1ff0700000f780078
:10530c00b03120009e007800808f500003003c00dc
:10531c000000eb00000f78001000370020f8200090
:10532c009e007800808f500003003400400620005f
:10533c00000f78000900370041ce2f001e8040007e
:10534c00cf80de004aed070052b82e00d31f240098
:10535c00d5ec070025ed0700000f78001e00780043
:10536c00004078000080fa00000006000000fa00ff
:10537c001000200000168800c03e2f004016880048
:10538c007000200080168800100020000027880084
:10539c00c03e2700102788007000200020278800be
:1053ac00c222ef00ca22ef00d222ef000021ef0050
:1053bc00c09e2000100888002020280020088800ab
:0c53cc008460a9000080fa0000000600c8
:020000040000fa
:1053d800f03fb1000180b10006003500ee0309007e
:1053e80000000000403fb1000180b100fbff3d001c
:1053f8001000b000203fb000020035000080090016
:08540800000000000000060096
:020000040000fa
:0200000400fffb
:10fc000000000000000000000000000000000000f4
:10fc100000000000000000000000000000000000e4
:10fc200000000000000000000000000000000000d4
:10fc300000000000000000000000000000000000c4
:10fc400000000000000000000000000000000000b4
:10fc500000000000000000000000000000000000a4
:10fc60000000000000000000000000000000000094
:10fc70000000000000000000000000000000000084
:10fc80000000000000000000000000000000000074
:10fc90000000000000000000000000000000000064
:0cfca00000000000000000000000000058
:020000040000fa
:0200000401f009
:04000000ffff0000fe
:020000040000fa
:0200000401f009
:04000800ffff0000f6
:020000040000fa
:0200000401f009
:04000c00f8ff0000f9
:020000040000fa
:0200000401f009
:040010003bff0000b2
:020000040000fa
:0200000401f009
:04001400ffff0000ea
:020000040000fa
:0200000401f009
:04001800ffff0000e6
:020000040000fa
:0200000401f009
:04001c00ffff0000e2
:00000001FF
