:08000000803102288731BD2F79
:10000E002C34013421002608DF3E2000BE00FD30D6
:10001E002100273D2000BF003F08803AC0008030FD
:10002E004002031D1C2801303E0203182228210025
:10003E00B601B701080021002608DF3EF800FD30AA
:10004E00273DF90092317522803178082000A300F7
:10005E007908A4007A08A5009A30A0001930A100F2
:10006E004030A2008931B821803120002008B00034
:10007E002108B1002208B2009631F2262000310884
:10008E002100B700200030082100B6000800200033
:10009E003008B6003108B7003208B8000310370D2B
:1000AE00380DB9003908BC003308B6003408B70063
:1000BE003508B8000310370D380DB9003908BB00EC
:1000CE003C08031976283B083C0203187D283C03A4
:1000DE00FF3A3B07B60019303602031C7D28330861
:1000EE00B0003408B1003508B20008003B0803190F
:1000FE0008003C083B0203188C283B03FF3A3C07E0
:10010E00B60019303602031808000630B60036085D
:10011E00BA00B21BBA17B51B3A17B117FF30B005AC
:10012E00FF30B1050030B205B417FF30B305FF3014
:10013E00B4050030B5053B083C020318C828013051
:10014E00B335B40DB50D890BA7280130BB023B08A2
:10015E003C060319C3280130BA023A0807390319BD
:10016E00C328A6280130B236B10CB00C890BBA28C0
:10017E000130B6003608BC073C083B060319ED28D3
:10018E00B9283C083B020318ED280130B035B10DFB
:10019E00B20D890BCD280130BC023B083C06031979
:1001AE00E9280130BA023A0807390319E928CC28A0
:1001BE000130B536B40CB30C890BE0280130B60013
:1001CE003608BB073C083B06031DDF28BA1FFF2875
:1001DE00FF30B006FF30B106FF30B2060130B00777
:1001EE00003003180130B107003003180130B20798
:1001FE003A1F1129FF30B306FF30B406FF30B506A3
:10020E000130B307003003180130B4070030031873
:10021E000130B507BA013008B3073108B43D3208D2
:10022E00B53DB51F2C29FF30B306FF30B406FF30A5
:10023E00B5060130B307003003180130B4070030A3
:10024E0003180130B507BA01BA0A3308F0003408B2
:10025E00F1003508F2003C08B6003608F3003A0803
:10026E00B7003708F4009531A52570082000B000BE
:10027E007108B1007208B20008002000C3004308E4
:10028E00DF3E8600870103300106031D9B2943359F
:10029E00B83E86008701403FBE00413FBF003F0889
:1002AE00803AC00084304002031D5F2933303E0285
:1002BE000318892920004335D53E86008701403F2B
:1002CE00BE00413FBF003F08803AC0008030400270
:1002DE00031D732901303E02031C81292000433582
:1002EE00D53E86008701FF3081074131FF30813DC9
:1002FE007F31080020004308DF3E86008701810120
:10030E00810A080004302000BE004308DF3E86004C
:10031E0087013E0881004335CD3E8600870123309C
:10032E00C03F0030C13F08004308DF3E8600870112
:10033E0004300106031D612A21006C092000BE0055
:10034E0021006D092000BF00BE0A0319BF0A3E0836
:10035E00FA3EF80000303F3DF900923175228131AE
:10036E0078082000A3007908A4007A08A500C330FD
:10037E00A0007530A1003E30A2008B3111238131D7
:10038E0020002008B0002108B1002208B2009631EA
:10039E00F226813120003008913EC0000530313DFB
:1003AE00C1004335D13E860087014008C03F410859
:1003BE00C13F4308D93E860087010108031D482A24
:1003CE004335C53E86008701403FBE00413FBF001A
:1003DE004335B03E86008701403FC000413FC1001B
:1003EE004108803AC2003F08803A4202031D012AAA
:1003FE003E08400203182E2A20004335C93E8600CF
:10040E0087010230810241310030813B7F3143351B
:10041E00C93E86008701403FBE00413FBF0000300D
:10042E003F020A3003193E02031808000530BE00D1
:10043E004308DF3E860087013E0881004335C93EF2
:10044E00860087010A30C03F0030C13F08002000FF
:10045E004335C93E86008701403FBE00413FBF0085
:10046E0002303F02583003193E020318080043358C
:10047E00C93E860087010130810741310318810A88
:10048E0008004335C93E86008701403FBE00413F0C
:10049E00BF0002303F02583003193E020318080015
:1004AE004335C93E8600870101308107413103186B
:1004BE00810A08004308DF3E8600870105300106E9
:1004CE00031DB32A21006C092000BE0021006D0916
:1004DE002000BF00BE0A0319BF0A3E08FA3EF8000C
:1004EE0000303F3DF90092317522813178082000AD
:1004FE00A3007908A4007A08A500C330A0007530C7
:10050E00A1003E30A2008B31112381312000200842
:10051E00B0002108B1002208B2009631F226200068
:10052E003008463EC0000530313DC1004335D13E56
:10053E00860087014008C03F4108C13F4335CD3E8C
:10054E00860087010F30C03F0030C13F4308D93EBF
:10055E0086008701810108004308DF3E860087017F
:10056E000103031D08000330BE004308DF3E860072
:10057E0087013E0881000800F5302000E5000530B7
:10058E00E600F530E7000530E800FF30EB00033001
:10059E00EC00FF30ED000330EE00DD01DE01EA017C
:1005AE00C830D8005808E300E4010030DA0000300B
:1005BE00DB000030DC00E901DF01E001E101E201D6
:1005CE009331F42382319231BA22823120000D19F7
:1005DE00002B96120530D9002630D800D80BF52AFC
:1005EE00D90BF52A000001302000DF070030E03D76
:1005FE009616EA0104306A020318202B6A08D80006
:10060E00D9015808A6005908A7008D3165258231F9
:10061E0020006A35A03E860087012608C03F2708C5
:10062E00C13F0130D8005808EA0704306A02031CA3
:10063E00052B15309131DC21823171082100A90082
:10064E007008A80011309131DC218231710821002F
:10065E00AB007008AA0017309131DC21823171088D
:10066E002100AD007008AC0013309131DC218231D5
:10067E0071082100AF007008AE0020000D194B2B41
:10068E000130E1070030E23D21002908F900280879
:10069E00F80092317522823178082000A300790883
:1006AE00A4007A08A5007830A0000B30A1003F30DE
:1006BE00A2008931B821823120002008B000210823
:1006CE00B1002208B2009631F226823120003108A4
:1006DE002100B900200030082100B8002B08F900D5
:1006EE002A08F80092317522823178082000A30082
:1006FE007908A4007A08A5007830A0000B30A1007C
:10070E003F30A2008931B821823120002008B0008C
:10071E002108B1002208B2009631F2268231200063
:10072E0031082100BB00200030082100BA002D083E
:10073E00F9002C08F80092317522823178082000D9
:10074E00A3007908A4007A08A500C230A000CF301B
:10075E00A1003E30A2008931B8218231200020084C
:10076E00B0002108B1002208B2009631F226823183
:10077E00200031082100BD00200030082100BC00FF
:10078E002F08F9002E08F800923175228231780870
:10079E002000A3007908A4007A08A5004730A00025
:1007AE00D030A1003E30A2008931B8218231200024
:1007BE002008B0002108B1002208B2009631F226BE
:1007CE008231200031082100BF00200030082100B6
:1007DE00BE009431312482319431762482319431A9
:1007EE00BB2482318031092082312100590803193E
:1007FE001E2C3D08803A2000D8006608803A580228
:10080E00031D0C2C650821003C02031C2F2C20001C
:10081E006608803AD80021003D08803A2000580230
:10082E00031D4B2C21003C08200065024B2C21009F
:10083E005208803A2000D80021003908803A200062
:10084E005802031D2D2C21003808510203183C2C90
:10085E00033020006C02FF3003196B020318562C74
:10086E000130EB070030EC3D562C21003908803A60
:10087E002000D80021005208803A20005802031DA3
:10088E004B2C2100510838020318562C20006B08FF
:10089E006C040319562C0130EB020030EC3B2100A6
:1008AE005A080319692C3F08803A2000D8006808BE
:1008BE00803A5802031D662C670821003E02031C75
:1008CE007A2C982C21005408803A2000D800210060
:1008DE003B08803A20005802031D782C21003A086C
:1008EE0053020318872C033020006E02FF300319C9
:1008FE006D020318A12C0130ED070030EE3DA12C46
:10090E0021003B08803A2000D80021005408803A8C
:10091E0020005802031D962C210053083A0203189A
:10092E00A12C20006D086E040319A12C0130ED02DC
:10093E000030EE3B01302000D8005808E3076C0869
:10094E00F1006B08F0009131F121823120006E0828
:10095E00F1006D08F000923107228231973179272C
:10096E0082312000D8005808E90002306906031DC4
:10097E00D02C6808803AD80085305802031DC92C47
:10098E0060306702031CD02CFF302000E707FF30D9
:10099E00E83D033020006906031DE52C6808803A07
:1009AE00D80088305802031DDE2C983067020318D9
:1009BE00E52C01302000E7070030E83D20006903F8
:1009CE00031DEC2C933143238231FB302000630254
:1009DE00031CED2A2100300832072000DD00210023
:1009EE003108333D2000DE0021009A01093091319B
:1009FE00DC21823171082000CE007008CD008C31D0
:100A0E007E24823120004E082100ED0020004D088A
:100A1E002100EC0003309A0001302000D800580865
:100A2E00E40751306402031C212D9231BA22823127
:100A3E002000E401003081314421823101308131C6
:100A4E0044218231F50100309131A02182315430A0
:100A5E00FC008930FD009131B3218231F5011A304D
:100A6E009131A02182314F30FC008930FD0091314F
:100A7E00B3218231F50134309131A02182314A30D7
:100A8E00FC008930FD009131B3218231F501F50A68
:100A9E0000309131A021823121003D082000A100BB
:100AAE0021003C082000A0000430D8005808A20005
:100ABE000230D9005908A300A4018B31C52382311D
:100ACE005630953151258231F501F50A1A309131A2
:100ADE00A0218231210039082000A1002100380810
:100AEE002000A0000430D8005808A2000230D9001F
:100AFE005908A300A4018B31C5238231563095319C
:100B0E0051258231F501F50A34309131A02182311F
:100B1E00210052082000A100210051082000A00051
:100B2E000430D8005808A2000230D9005908A3009A
:100B3E00A4018B31C5238231563095315125823136
:100B4E00F501F50A50309131A0218231210059086A
:100B5E002000A000A101A01BA103A201A20AA301D3
:100B6E00A4018B31C523823102302000D8005808F1
:100B7E00F50000309131A02182312100350820008E
:100B8E00A100210034082000A0000330D80058082E
:100B9E00A200A301A30AA4018B31C52382314130E7
:100BAE0095315125823102302000D8005808F500C9
:100BBE001A309131A0218231210031082000A1008C
:100BCE00210030082000A0000330D8005808A200F1
:100BDE00A301A30AA4018B31C52382314130953183
:100BEE005125823102302000D8005808F5003430EB
:100BFE009131A021823121004E082000A100210058
:100C0E004D082000A0000330D8005808A200A30110
:100C1E00A30AA4018B31C523823141309531512570
:100C2E00823102302000D8005808F5005030913142
:100C3E00A021823121005F082000D800D901580878
:100C4E00A0005908A100A201A20AA301A4018B31A0
:100C5E00C523823103302000D8005808F50000303B
:100C6E009131A021823121003F082000A1002100F6
:100C7E003E082000A0000430D8005808A200023020
:100C8E00D9005908A300A4018B31C52382315630F7
:100C9E0095315125823103302000D8005808F500D7
:100CAE001A309131A021823121003B082000A10091
:100CBE0021003A082000A0000430D8005808A200F5
:100CCE000230D9005908A300A4018B31C52382310B
:100CDE00563095315125823103302000D800580806
:100CEE00F50034309131A0218231210054082000CA
:100CFE00A100210053082000A0000430D80058089D
:100D0E00A2000230D9005908A300A4018B31C523DB
:100D1E008231563095315125823103302000D80072
:100D2E005808F50050309131A021823121005A0827
:100D3E002000A000A101A01BA103A201A20AA301F1
:100D4E00A4018B31C523823104302000D80058080D
:100D5E00F50000309131A0218231210037082000AA
:100D6E00A100210036082000A0000330D80058084A
:100D7E00A200A301A30AA4018B31C5238231413005
:100D8E0095315125823104302000D8005808F500E5
:100D9E001A309131A0218231210033082000A100A8
:100DAE00210032082000A0000330D8005808A2000D
:100DBE00A301A30AA4018B31C523823141309531A1
:100DCE005125823104302000D8005808F500343007
:100DDE009131A0218231210050082000A100210074
:100DEE004F082000A0000330D8005808A200A3012D
:100DFE00A30AA4018B31C52382314130953151258F
:100E0E00823104302000D8005808F500503091315E
:100E1E00A0218231210060082000D800D901580895
:100E2E00A0005908A100A201A20AA301A4018B31BE
:100E3E00C523823105302000D8005808F500003057
:100E4E009131A021823120006C08A1006B08A00016
:100E5E000430D8005808A200A301A4018B31C52389
:100E6E00823105302000D8005808F500123091313B
:100E7E00A021823121005D082000A000A101A01B4D
:100E8E00A103A201A20AA301A4018B31C5238231C1
:100E9E00203095315125823105302000D800580878
:100EAE00F5001C309131A021823120006E08A10086
:100EBE006D08A0000430D8005808A200A301A401B8
:100ECE008B31C523823105302000D8005808F5003B
:100EDE002E309131A021823121005E082000A00029
:100EEE00A101A01BA103A201A20AA301A4018B319F
:100EFE00C5238231203095315125823105302000B5
:100F0E00D8005808F50038309131A02182312100E7
:100F1E006D082000A10021006C082000A000033005
:100F2E00D8005808A200A301A30AA4018B31C5233F
:100F3E0082317B30953151258231433095315125A7
:100F4E008231033021005F02031CB12F00308E313D
:100F5E00B1268231033021006002031CBA2F01300A
:100F6E008E31B12682312000E301ED2A210080313D
:100F7E0007208731EC00803108208731ED00673083
:100F8E0084009130850022001200B0001200B100E2
:100F9E001200B2001200B3001200B4001200B5002D
:100FAE001200B6001200B7006030840022308500B7
:100FBE009030FE000130FF00913178218731200002
:100FCE00EF01A0308400003085004C30FE00003070
:100FDE00FF00913178218731203084000130850067
:100FEE001030FE000030FF00913178212000823158
:100FFE00C32A00340034003400344E340034063436
:10100E0000340634FF34FF34FF344834D6342434ED
:10101E00123408342434FF34FF34FF3400340634E1
:10102E000034383444348234823444343834143402
:10103E0008343E34103438341034A0346034003464
:10104E00103410341034603460340034603418348A
:10105E0006347C3442347C3444347E34403464343C
:10106E0052344C344A344A343434383424347E3492
:10107E004E344A3432343C344A34323462341A34C4
:10108E00063476344A3476344C3452343C346C3430
:10109E006C340034AC346C340034103428344434A2
:1010AE002834283428344434283410340234593443
:1010BE000634FF34FF34FF347C3412347C347E34F7
:1010CE005A3434343C34423442347E3442343C3428
:1010DE007E344A3442347E340A340A343C34523438
:1010EE0034347E3408347E3442347E3442343034E8
:1010FE0040343E347E34183466347E3440344034CA
:10110E007E341C347E347E3402347E343C3442349D
:10111E003C347E3412340C347E346234FE347E34ED
:10112E0032344E3444344A34323402347E3402344F
:10113E007E3440347E343E3440343E347E34383453
:10114E007E346634183466340E3470340E346234A1
:10115E005A34463400347E34423406341834603403
:10116E0042347E3400340434023404344034403487
:10117E0040340034023404347434543478347E34BD
:10118E0048343034303448344834303448347E3483
:10119E003834543458347C340A3402349834A434F9
:1011AE007C347E340834703448347A344034883495
:1011BE00FA3400347E341834643442347E3440348D
:1011CE007C3438347C347C340434783438344434CD
:1011DE003834FC342434183418342434FC34783441
:1011EE000434043448345434243404343E34443403
:1011FE007C3440347C343C3440343C347C343034A5
:10120E007C346C3410346C349C34A0347C346434B0
:10121E0054344C340C3412340C34FF34FF34FF3459
:10122E00FF34FF34FF34FF34FF34FF34FF34FF3418
:10123E00FF34FF34FF34FF34FF34FF34FF34FC340B
:10124E0040347C34FF34FF34FF34FF34FF34FF343A
:10125E00003400340034003480343F34F034FF3432
:10126E00BE34E234A9343E3483347634BE34AE34E4
:10127E002B343E343C34C334BD34D23413343D3479
:10128E007834D334BB345234653466343A34003453
:10129E004F34753474343A34003449346E343A343D
:1012AE00003420004308F1004208F0000330F20041
:1012BE000030F30092311D22893120004008700762
:1012CE0084004108713D8500003FC400013FC50008
:1012DE00023FC600420843040319B129FF30C2077A
:1012EE00FF30C33D4308F1004208F0000330F20026
:1012FE000030F30092311D22893120004008700722
:10130E0084004108713D8500003FB000013FB100EF
:10131E00023FB2004408A0004508A1004608A20002
:10132E003D08A3003E08A4003F08A5008B31112301
:10133E00893120002008B3002108B4002208B5002E
:10134E0080314E20893120003008C4003108C5009C
:10135E00320870294408BD004508BE004608BF008B
:10136E00080020002308A6002408A7002508A800CE
:10137E000310270D280DA9002908AE002E08031D05
:10138E00CF290030A0000030A1000030A2000800DC
:10139E002008A6002108A7002208A8000310270D88
:1013AE00280DA9002908AF002F08031DE5290030DC
:1013BE00A0000030A1000030A20008000030AB00F9
:1013CE000030AC000030AD0089302F07A600260893
:1013DE00AE022308A6002408A7002508A800103096
:1013EE00A836A70CA60C890BF7292608A9002908F0
:1013FE00AF002008A6002108A7002208A800103080
:10140E00A836A70CA60C890B072A2608A9002908BE
:10141E00AF068030A6002608AF05A417FF30A3053F
:10142E00FF30A4050030A505A117FF30A005FF3041
:10143E00A1050030A2051830A6002608AA0001302A
:10144E00AB35AC0DAD0D890B272A22082502031DE5
:10145E00362A21082402031D362A20082302031CE3
:10146E003F2A2008A3022108A43B2208A53B2B14E7
:10147E000130A335A40DA50D890B402A0130AA0217
:10148E00031D262A2B08F0002C08F1002D08F2006F
:10149E002E08A6002608F3002F08A7002708F40040
:1014AE009531A52570082000A0007108A1007208D2
:1014BE00A200080020004708F0004808F100490883
:1014CE00F2000030F3000030F4000030F5009331EC
:1014DE007E238A310318802A21302100E300003058
:1014EE00E40000302000C7000030C8000030C90002
:1014FE0008002000490848044704031D932A22309F
:10150E002100E3000030E40000302000C70000306E
:10151E00C8000030C90008000030B0008030B100B3
:10152E00BF30B2000030A0000030A1004030A20059
:10153E004B30CA004A08F3004708F0004808F10093
:10154E004908F2009331B9238A3170082000A300B4
:10155E007108A4007208A5008B3111238A31200076
:10156E002008B3002108B4002208B50080314E20B7
:10157E008A3120003008C7003108C8003208C9007F
:10158E00FF30CB07FF30CC3D4708BD004808BE00FA
:10159E004908BF002F30C0008930C1000830C2009A
:1015AE000030C300893158218A3120003D08C70020
:1015BE003E08C8003F08C9004708B0004808B100FF
:1015CE004908B2007230A0003130A1003F30A200B5
:1015DE004C08F9004B08F800923175228A317808D0
:1015EE002000A3007908A4007A08A5008B311123EE
:1015FE008A3120002008B3002108B4002208B5006B
:10160E0080314E2020003008C7003108C800320853
:10161E00C900080020002008A6002108A700220803
:10162E00A8000310270D280DA9002908AA002A08D2
:10163E00031D282B0030A0000030A1000030A200B6
:10164E0008002308A6002408A7002508A8000310F8
:10165E00270D280DA9002908AF002F08031D3E2BCA
:10166E000030A0000030A1000030A20008002F08BA
:10167E007B3EA6002608AA072008A6002108A70080
:10168E002208A8001030A836A70CA60C890B4A2BEE
:10169E002608A9002908AF002308A6002408A700E1
:1016AE002508A8001030A836A70CA60C890B5A2BBB
:1016BE002608A9002908AF068030A6002608AF0527
:1016CE00A117A417FF30A305FF30A4050030A50510
:1016DE000030AB000030AC000030AD000730A6008B
:1016EE002608AE00201C812B2308AB072408AC3D36
:1016FE002508AD3D0130A236A10CA00C890B822B22
:10170E000130A335A40DA50D890B882B0130AE0237
:10171E00031D792B0930A6002608AE00201C9D2B38
:10172E002308AB072408AC3D2508AD3D0130A23699
:10173E00A10CA00C890B9E2B0130AD36AC0CAB0C62
:10174E00890BA42B0130AE02031D952B2B08F00044
:10175E002C08F1002D08F2002A08A6002608F30036
:10176E002F08A7002708F4009531A5257008200042
:10177E00A0007108A1007208A2000800C030860007
:10178E0000308700293084000030850005302000AD
:10179E00A50016001A00A50BD02B0430A5002508B5
:1017AE00AF00AE01A11FE62B2D30953151258B31A7
:1017BE002000A009A109A00A0319A10AED2B2403F8
:1017CE00031DED2B2B30953151258B312000200838
:1017DE00210403191A2C0A30F0000030F100200009
:1017EE002108F3002008F2009231E0228B317008BC
:1017FE002000A5002F08293E8600870125088100BC
:10180E000A30F0000030F1002108F3002008F20049
:10181E00953100258B3171082000A1007008A000C1
:10182E000130AF02ED2B220A0319222C2A2C013093
:10183E00A5002508AE072E08293E8600870101085F
:10184E00031D302C1E2C2203FF3A053EA500250851
:10185E00AE002E08A5002508AF002308A500A6019E
:10186E00A509A609A50A0319A60A2508053EA7007B
:10187E000030263DA8002808803A803C031D492CE4
:10188E0027082F0203185B2C20002F08293E860004
:10189E0087010108303E953151258B3101302000F2
:1018AE00A5002508AF07342C20002303031D692C47
:1018BE002E30953151258B3120002D08303E95313B
:1018CE0051258B31023020002306031D08002E30D7
:1018DE00953151258B3120002C08303E9531512504
:1018EE008B3120002D08303E9531512508000030F7
:1018FE002000B0008030B100BF30B2004E08F900B9
:10190E004D08F800923175228C3178082000A00025
:10191E007908A1007A08A200C030A3007F30A4008D
:10192E004430A5008931B8218C3120002008B30045
:10193E002108B4002208B50080314E208C312000E1
:10194E003008D2003108D3003208D4005208A0006B
:10195E005308A1005408A200B830A3001C30A40004
:10196E004630A5008931B8218C3120002008CF00E7
:10197E002108D0002208D1006830A0001C30A10040
:10198E004630A2004F08A3005008A4005108A5003D
:10199E008931B8218C3120002008D5002108D600CD
:1019AE002208D7005508C7005608C8005708C900B6
:1019BE008A3161228C3120004708D5004808D600B4
:1019CE004908D7003530A0006D30A1004530A20087
:1019DE005508A3005608A4005708A5008931B82160
:1019EE008C3120002008D5002108D6002208D7000F
:1019FE00CF30B0005B30B1003B30B2005508B300C1
:101A0E005608B4005708B50080314E208C312000A6
:101A1E003008D5003108D6003208D7005508A0008E
:101A2E005608A1005708A2000030A3008030A40081
:101A3E003F30A5008931B8218C3120002008D50017
:101A4E002108D6002208D7009330BD008830BE0092
:101A5E004330BF005508C0005608C1005708C200E9
:101A6E00923138228C3120003D08D5003E08D60038
:101A7E003F08D7000030A0002030A1004130A20066
:101A8E005508A3005608A4005708A5008B31112352
:101A9E008C3120002008D5002108D6002208D7005E
:101AAE005508B0005608B1005708B2009631F2261C
:101ABE0020003108CE003008CD0008002000263569
:101ACE00303E860001308700403FF900413FFA006A
:101ADE0079089131DC218D317108FC007008FB0012
:101AEE0020002608A8000130A835FF3E031D7B2DDF
:101AFE002835203E860001308700403FA900413F37
:101B0E00AA00423FAB00433FAC0021006808200012
:101B1E00AE00210067082000AD00AD35AE0D2708E0
:101B2E00F1002608F0006430F2000030F30092312C
:101B3E001D228D3160302000AF002230B0007008C1
:101B4E002F07B1007108303DB2002D083107860015
:101B5E002E08323D8700403FB300413FB4003308AA
:101B6E00B5003408B6000030B61BFF30B700B80021
:101B7E00B509B609B709B809B50A0319B60A0319A2
:101B8E00B70A0319B80A3508A9073608AA3D370857
:101B9E00AB3D3808AC3D2608B9000130B935FF3EE3
:101BAE00031DD52D3935203E8600013087002908CA
:101BBE00C03F2A08C13F2B08C23F2C08C33F21005B
:101BCE0068082000A900210067082000A800A83599
:101BDE00A90D2708F1002608F0006430F20000304D
:101BEE00F30092311D228D3160302000AA00223088
:101BFE00AB0070082A07AC0071082B3DAD00280819
:101C0E002C07860029082D3D87007B08C03F7C08E5
:101C1E00C13F2608A8000130A835FF3E031D132E34
:101C2E002835203E860001308700403FA900413F05
:101C3E00AA00423FAB00433FAC00210068082000E1
:101C4E00AE00210067082000AD00AD35AE0D2708AF
:101C5E00F1002608F0006430F2000030F3009231FB
:101C6E001D228D3160302000AF002230B000700890
:101C7E002F07B1007108303DB2002D0831078600E4
:101C8E002E08323D8700403FB300413FB400330879
:101C9E00B5003408B6000030B61BFF30B700B800F0
:101CAE003508A9073608AA3D3708AB3D3808AC3DC4
:101CBE002608B9000130B935FF3E031D622E3935B5
:101CCE00203E8600013087002908C03F2A08C13F08
:101CDE002B08C23F2C08C33F0030270203300319E4
:101CEE002602031C882E01302100E7070030E83D54
:101CFE0000306802323003196702031C882EE70198
:101D0E00E8010030F3000030F2000030F100323014
:101D1E00F00020002608A8000130A835FF3E031D64
:101D2E00942E2835203E860001308700403FF40077
:101D3E00413FF500423FF600433FF70096317026D3
:101D4E007108FC007008FB007C082000A7007B08CF
:101D5E00A60008002000C5004535D13E860087014B
:101D6E00403FBE00413FBF004535B83E860087016B
:101D7E00403FC000413FC1004108803AC2003F08C9
:101D8E00803A4202031DCD2E3E084002031C0D2F49
:101D9E0020004508DD3E860087010108803A773E27
:101DAE000318E12E0130BE004508DD3E8600870196
:101DBE003E0881074508DD3E860087010108803A0E
:101DCE00773E0318F22E0130BE004508DD3E860038
:101DDE0087013E0881074508E13E8600870101081C
:101DEE000319002F4508E13E86008701013081026C
:101DFE003D2F4508D93E86008701010803193D2F66
:101E0E004508D93E8600870181013D2FFF30200015
:101E1E00BE004508DD3E860087013E088107450865
:101E2E00DD3E860087010108803A893E03183D2F6A
:101E3E000430BE004508DF3E860087013E08810063
:101E4E004508D93E860087018101810A1230BE0005
:101E5E004508E13E860087013E088100F730BE004E
:101E6E004508DD3E860087013E0881004535B03EBF
:101E7E0086008701403FBE00413FBF004535CD3E45
:101E8E0086008701403FC000413FC1004108803AB3
:101E9E00C2003F08803A4202031D572F3E084002FF
:101EAE000318080020004508D93E86008701010866
:101EBE00031D08004508DF3E860087010530010638
:101ECE00031D080021006C092000BE0021006D09D1
:101EDE002000BF00BE0A0319BF0A3E08FA3EF800F2
:101EEE0000303F3DF900923175228E317808200086
:101EFE00A3007908A4007A08A500C330A0007530AD
:101F0E00A1003E30A2008B3111238E31200020081B
:101F1E00B0002108B1002208B2009631F2268E31AF
:101F2E0020003008003EC0000530313DC10045356F
:101F3E00B83E86008701403FC200413FC3004308C0
:101F4E00803AC4004108803A4402031DB02F400875
:101F5E0042020318080004302000BE004508DF3E90
:101F6E00860087013E08810021006C092000BE001A
:101F7E0021006D092000BF00BE0A0319BF0A3E08EA
:101F8E00FA3EF80000303F3DF900923175228E3155
:101F9E0078082000A3007908A4007A08A500C330B1
:101FAE00A0007530A1003E30A2008B3111238E317E
:101FBE0020002008B0002108B1002208B20096319E
:101FCE00F22620003008913EC0000530313DC100A0
:101FDE004535D13E860087014008C03F4108C13FCC
:101FEE004535CD3E860087012330C03F0030C13FCE
:021FFE000800D9
:1022CE001434003410340034163400341234003414
:1022DE00603031008D008F01910106309300920124
:1022EE0008006400800101310130FE020030FF3B26
:1022FE007F087E0403190034792925008E010130F0
:10230E0090008F019101FE308D008C012E009010F7
:10231E0025008E17080025009401013096009501C6
:10232E009701FE30930092012E0090112500941714
:10233E000800F70077088038F6007608F0000030C5
:10234E0092319522913175084038F6007608F000EA
:10235E0000309231952208007C0884007D088500AB
:10236E001200031908007C0884007D08850000080F
:10237E009531512591310130FC070030FD3DB329D7
:10238E00803027008E008D018C0124001F08F33948
:10239E0004389F00803027009200910190012400A4
:1023AE001F08CF3920389F000800F3003C30210071
:1023BE009E009317131313141318E32973089E002A
:1023CE009317131313141318EA290D08F1000C08B0
:1023DE00F00008007108F3007008F200F336F20CFA
:1023EE00F336F20C720827008D0070080339F200E4
:1023FE000530F235FF3E031D002A72358C000800B1
:10240E007108F3007008F200F336F20CF336F20C9A
:10241E0072082700910070080339F2000530F2357A
:10242E00FF3E031D162A723590000800F401F501D7
:10243E00701C252A7208F4077308F53D0130F23539
:10244E00F30D890B262A0130F136F00C890B2B2A5D
:10245E0070087104031D1F2A7508F1007408F0003E
:10246E00080020003F083E043D040319402A803036
:10247E00BF064008B0004108B1004208B2003D0856
:10248E00B3003E08B4003F08B50080314E20200056
:10249E003008BD003108BE003208BF000800210020
:1024AE0094019501960199019701C33032008C0079
:1024BE003F302100980003309A009B0107309C00AA
:1024CE009D019E0122008D018E018F0190019101CF
:1024DE00920193018430210093000800FD01F91F41
:1024EE007F2AF809F909F80A0319F90AFD01FD0A0C
:1024FE007808F0007908F100F2018E30FB007B08BD
:10250E00F3007D08FC007C08F4009531A5257008C9
:10251E00F8007108F9007208FA000800F20070085D
:10252E00F1007108F3007208031DA02A2000161195
:10253E00A22A200016159610F40108307402031812
:10254E00B82A9611F31FAC2A961516160310F30D22
:10255E0016120130F1007108F40708307402031CE2
:10256E00A82A96140800F901FA017A08803AF800B0
:10257E0081307802031DC52AF83079020318DB2A50
:10258E00F00101309231952292310130F90700307D
:10259E00FA3D7A08803AF80081307802031DD92A74
:1025AE00F8307902031CC72AF50100309131A021C1
:1025BE000800700871040319072BF501F50AF11BC9
:1025CE00F22A0130F035F10D890BE92A0130F400C1
:1025DE007408F507E62A71087302031DF82A7008BD
:1025EE007202031CFE2A7008F2027108F33B0130DE
:1025FE00F136F00C890BFF2A0130F502031DF22A89
:10260E007308F1007208F0000800203020009600D8
:10261E00970198013E00B901C401CF010830E500D1
:10262E00200091010E309200FF3093003E00B80161
:10263E000A30C300FF30CE002E00161200308B1B66
:10264E000130F0008B1355303D008F00AA308F0003
:10265E000F100E303E0096000F3097000930980094
:10266E0055303D008F00AA308F000F14701C412B87
:10267E008B1708008B1308002000111091101111F8
:10268E0091111112961116121611161016142130E0
:10269E00F5007508F0000030923195229331B93073
:1026AE00F5007508F0000030923195229331043018
:1026BE00F5007508F00000309231952293311430F8
:1026CE00F5007508F00000309231952293312030DC
:1026DE00F5007508F00000309231952293310C30E0
:1026EE00F5007508F0000030923195220800F21FB7
:1026FE00942B7009F6007109F7007209F800F60ABA
:10270E000319F70A0319F80A00307607F0000030B3
:10271E00773DF1008030783DF200F51FAA2B73094A
:10272E00F6007409F7007509F800F60A0319F70A9E
:10273E000319F80A00307607F3000030773DF400F5
:10274E008030783DF5008030F2068030F506750851
:10275E007202031D080074087102031D080073083D
:10276E0070020800720871047004031DCB2B7308ED
:10277E00860087010030C03FC13F0030F0000030BE
:10278E00F1000030F200080072087F39F400F50104
:10279E00F435F50D7308860087017408C03F75087F
:1027AE00C13F710D710D0139F400F50173088600FA
:1027BE00870174088104413175088104730886000D
:1027CE008701823081074131FF30813D7F317208B0
:1027DE0080393F38F200F113080093310C23933106
:1027EE0091316F2193319231562293319131C7211C
:1027FE009331913184219331913192219331003073
:10280E009631092693310130963109269331933151
:10281E004323933109302000C5001E30C400EB3035
:10282E00C300C30B182CC40B182CC50B182C00009E
:10283E009231BA22933109302000C5001E30C400F7
:10284E00EB30C300C30B292CC40B292CC50B292C30
:10285E000000080021002008DF3E2000BE00FD30F1
:10286E002100213D2000BF003F08803AC00080308B
:10287E004002031D442C01303E0203184A2C210055
:10288E00B001B101080021002008DF3EF800FD3044
:10289E00213DF90092317522943178082000A30071
:1028AE007908A4007A08A500E130A0003A30A10012
:1028BE004030A2008931B821943120002008B000A8
:1028CE002108B1002208B2009631F226200031080C
:1028DE002100B100200030082100B00008002100C6
:1028EE002208DF3E2000BE00FD302100233D2000E7
:1028FE00BF003F08803AC00080304002031D892C83
:10290E0001303E0203188F2C2100B201B3010800E2
:10291E0021002208DF3EF800FD30233DF900923100
:10292E007522943178082000A3007908A4007A0853
:10293E00A5009A30A0009930A1003F30A200893145
:10294E00B821943120002008B0002108B1002208DF
:10295E00B2009631F226200031082100B30020008B
:10296E0030082100B200080021002408E93E2000B2
:10297E00BE00FD302100253D2000BF003F08803AFB
:10298E00C00080304002031DCE2C01303E020318E1
:10299E00D42C2100B401B501080021002408E93E21
:1029AE00F800FD30253DF9009231752294317808FA
:1029BE002000A3007908A4007A08A5007B30A000AF
:1029CE003430A1004030A2008931B821943120006A
:1029DE002008B0002108B1002208B2009631F2267C
:1029EE00200031082100B500200030082100B4007D
:1029FE000800F601F11F0A2DF009F109F00A03197A
:102A0E00F10AF601F60AF31F152DF209F309F20A7F
:102A1E000319F30A0130F4007408F606F701F80101
:102A2E00700871040319442DF501F50AF11B292DC7
:102A3E000130F035F10D890B202D0130F4007408B2
:102A4E00F5071D2D0130F735F80D890B2A2D71086C
:102A5E007302031D342D70087202031C3B2D700887
:102A6E00F2027108F33B77140130F136F00C890B4A
:102A7E003C2D0130F502031D292D760803194C2D2E
:102A8E00F709F809F70A0319F80A7808F100770828
:102A9E00F0000800F9007908E03EFA00FF30031854
:102AAE000030FB000330F0000030F1007B08F30033
:102ABE007A08F20092311D2295317108FB007008E0
:102ACE00FA007B0885007A0884000030840788307D
:102ADE00853D0008F6007608F0000130923195220F
:102AEE0095317A08013EF60000307B3DF70000304C
:102AFE00760784008830773D85000008F800780856
:102B0E00F00001309231952295317A08023EF6009E
:102B1E0000307B3DF7000030760784008830773D2B
:102B2E0085000008F8007808F000013092319522F7
:102B3E009531F00101309231952208007308031986
:102B4E00AD2D720871047004031DBE2D0030F0000F
:102B5E000030F1000030F20008000130F500750879
:102B6E00F3070130F236F10CF00C890BB92DFE3063
:102B7E0072050319D72DB42D0130F5007508F30732
:102B8E000130F007003003180130F1070030031850
:102B9E000130F2070130F236F10CF00C890BD22D18
:102BAE00FF3072050319E42DC32D0130F3020130FD
:102BBE00F035F10DF20D890BDF2DF11BEA2D0230F0
:102BCE0073020318DC2D7318F22DFF30F0057F30E1
:102BDE00F105FF30F2050310F30C7308F500F60152
:102BEE00F7011030F535F60DF70D890BF92D750837
:102BFE00F0047608F1047708F2047408031908004B
:102C0E00F21708002000C2000330BE004208DF3E6B
:102C1E00860087013E0881004235D53E8600870139
:102C2E000530C03F0030C13F4235CD3E86008701A2
:102C3E000A30C03F0030C13F21006C092000BE00A9
:102C4E0021006D092000BF00BE0A0319BF0A3E080D
:102C5E00FA3EF80000303F3DF90092317522963170
:102C6E0078082000A3007908A4007A08A500C330D4
:102C7E00A0007530A1003E30A2008B311123963199
:102C8E0020002008B0002108B1002208B2009631C1
:102C9E00F22620003008913EC0000530313DC100C3
:102CAE004235D13E860087014008C03F4108C13FF2
:102CBE004235C53E860087010F30C03F0030C13F10
:102CCE004235C93E860087015830C03F0230C13FB1
:102CDE0008002000A101F31F812EF009F109F2096D
:102CEE00F309F00A0319F10A0319F20A0319F30A98
:102CFE00A101A10AF71F922EF409F509F609F709A9
:102D0E00F40A0319F50A0319F60A0319F70A013032
:102D1E00F8007808A1060030A5000030A4000030AD
:102D2E00A3000030A200730872047104700403192A
:102D3E00DB2EA001A00AF31BB02E0130F035F10DF1
:102D4E00F20DF30D890BA52E0130F8007808A007BF
:102D5E00A22E0130A235A30DA40DA50D890BB12E07
:102D6E0073087702031DC52E72087602031DC52E49
:102D7E0071087502031DC52E70087402031CD02E37
:102D8E007008F4027108F53B7208F63B7308F73BC6
:102D9E0022140130F336F20CF10CF00C890BD12E0B
:102DAE000130A002031DB02E21080319E92EA2093D
:102DBE00A309A409A509A20A0319A30A0319A40ABF
:102DCE000319A50A2508F3002408F2002308F100D0
:102DDE002208F000080020003008B4003108B500C9
:102DEE003208B6000310350D360DB7003708BD009A
:102DFE003D08031D0B2F0030B3000030B200003031
:102E0E00B1000030B00008003008B4003108B50041
:102E1E003208B6001730B636B50CB40C890B122F2B
:102E2E003408B7003708B800B117FF30B005FF30CF
:102E3E00B1050030B2053008B9003108BA003208C9
:102E4E00BB00BC018E30BD02BD1F492F3D08803A2C
:102E5E008F3E03183B2F0030B3000030B20000301D
:102E6E00B1000030B00008000130BC36BB0CBA0C0B
:102E7E00B90C890B3C2F0130B4003408BD0703197F
:102E8E00622F3B2F18303D02031C5F2F0030B30022
:102E9E000030B2000030B1000030B0000800013048
:102EAE00B935BA0DBB0DBC0D890B572F0130BD02C4
:102EBE003D08031D562F38080319702FB909BA099A
:102ECE00BB09BC09B90A0319BA0A0319BB0A0319CB
:102EDE00BC0A3C08B3003B08B2003A08B1003908FE
:102EEE00B00008000B309131DC21973171082100C0
:102EFE00E6007008E5006608803AF400813074023E
:102F0E00031D8B2FA9306502031C9D2F210066081F
:102F1E00803AF40081307402031D972FE53065026C
:102F2E0003189D2F2000EF01EF0ACB2F210066081A
:102F3E00803AF40082307402031DA72F67306502B9
:102F4E00031CB72F21006608803AF4008230740209
:102F5E00031DB32FB23065020318B72F0230C42FF2
:102F6E0021006608803AF40083307402031DC12FDD
:102F7E0021306502031CC92F0330F40074082000B1
:102F8E00EF00CB2F2000EF016F080319FC2F6F0805
:102F9E0021006A060319DA2F20006F08F400740866
:102FAE002100EA00FD2F0130F4007408E9076903DF
:102FBE00031DE32F6A0808006908803A753E031C5A
:102FCE00FE2F0230F6000430F500BA30F400F40B98
:102FDE00EE2FF50BEE2FF60BEE2F00000A30F4005D
:102FEE0074082100E9006A0808002100E901003098
:022FFE000800C9
:020000040001F9
:0A000E008C3FFF3F9F3FFF2FFF3F95
:00000001FF
