:10000000803102288731E62F803027008E003C3077
:100010008D0040308C0024001F08F33904389F0005
:100020000800F50000308D310F2580312130F400BB
:100030007630F300F30B1A28F40B1A280000033073
:100040008C31D42480310430F4003D30F300F30BC4
:100050002728F40B2728003203308C31D424803138
:100060000930F300F30B3228003203308C31D424F2
:1000700080310930F300F30B3B28003202308C3121
:10008000D42480310930F300F30B442800320230CD
:100090008C31D424803108308C31D4248031093023
:1000A000F300F30B5128003200308C31D42480311E
:1000B00008308C31D42480310930F300F30B5E28F2
:1000C000003200308C31D424803101308C31D42482
:1000D0008031F930F3000032F30B6B28003200322C
:1000E00000308C31D424803106308C31D4248031DE
:1000F0000930F300F30B7A28003200308C31D4241D
:10010000803175080C388C31D42480310930F300EB
:10011000F30B882800320800F6007608031DAC288F
:100120007308803EF4007408F9007908F400043084
:10013000F436890B98287408F5007508F7007908DB
:100140000F39F4007408F80077088C31D42480311A
:1001500078088C31D42408007603031DCB2873085B
:10016000C03EF4007408F9007908F4000430F43655
:10017000890BB7287408F5007508F70079080F395E
:10018000F4007408F80077088C31D42480317808A2
:100190008C31D424080002307606031DEB28730846
:1001A000943EF4007408F9007908F4000430F43641
:1001B000890BD7287408F5007508F70079080F39FE
:1001C000F4007408F80077088C31D4248031780862
:1001D0008C31D424080003307606031D0800730810
:1001E000D43EF4007408F9007908F4000430F436C1
:1001F000890BF7287408F5007508F70079080F399E
:10020000F4007408F80077088C31D4248031780821
:100210008C31D42408002000A101F31F1C29F0090F
:10022000F109F209F309F00A0319F10A0319F20AB4
:100230000319F30AA101A10AF71F2D29F409F509F1
:10024000F609F709F40A0319F50A0319F60A03195E
:10025000F70A0130F8007808A1060030A500003048
:10026000A4000030A3000030A200730872047104DF
:10027000700403197629A001A00AF31B4B29013051
:10028000F035F10DF20DF30D890B40290130F80026
:100290007808A0073D290130A235A30DA40DA50DB6
:1002A000890B4C2973087702031D602972087602B6
:1002B000031D602971087502031D6029700874020E
:1002C000031C6B297008F4027108F53B7208F63BB9
:1002D0007308F73B22140130F336F20CF10CF00CEA
:1002E000890B6C290130A002031D4B292108031939
:1002F0008429A209A309A409A509A20A0319A30A2A
:100300000319A40A0319A50A2508F3002408F2001A
:100310002308F1002208F00008007008F4007108BA
:10032000F5007208F6000310750D760DF7007708DA
:10033000FD007D08031DA5290030F3000030F20008
:100340000030F1000030F00008007008F40071087F
:10035000F5007208F6001730F636F50CF40C890B30
:10036000AC297408F7007708F800F117FF30F005A2
:10037000FF30F1050030F2057008F9007108FA004D
:100380007208FB00FC018E30FD02FD1FE3297D0891
:10039000803A8F3E0318D5290030F3000030F20078
:1003A0000030F1000030F00008000130FC36FB0C9A
:1003B000FA0CF90C890BD6290130F4007408FD07FA
:1003C0000319FC29D52918307D02031CF9290030B6
:1003D000F3000030F2000030F1000030F0000800BF
:1003E0000130F935FA0DFB0DFC0D890BF1290130B7
:1003F000FD027D08031DF029780803190A2AF9096E
:10040000FA09FB09FC09F90A0319FA0A0319FB0A9C
:100410000319FC0A7C08F3007B08F2007A08F1005B
:100420007908F000080020002308A6002408A7008F
:100430002508A8000310270D280DA9002908AE00E3
:100440002E08031D2A2A0030A0000030A100003031
:10045000A20008002008A6002108A7002208A80082
:100460000310270D280DA9002908AF002F08031D30
:10047000402A0030A0000030A1000030A200080097
:100480000030AB000030AC000030AD0089302F07E9
:10049000A6002608AE022308A6002408A700250807
:1004A000A8001030A836A70CA60C890B522A2608E3
:1004B000A9002908AF002008A6002108A7002208EB
:1004C000A8001030A836A70CA60C890B622A2608B3
:1004D000A9002908AF068030A6002608AF05A4179A
:1004E000FF30A305FF30A4050030A505A117FF309C
:1004F000A005FF30A1050030A2051830A60026088F
:10050000AA000130AB35AC0DAD0D890B822A220853
:100510002502031D912A21082402031D912A200887
:100520002302031C9A2A2008A3022108A43B2208C4
:10053000A53B2B140130A335A40DA50D890B9B2AD7
:100540000130AA02031D812A2B08F0002C08F100BB
:100550002D08F2002E08A6002608F3002F08A70099
:100560002708F4008F319C2770082000A000710834
:10057000A1007208A200080020004708F000480807
:10058000F1004908F2000030F3000030F4000030C0
:10059000F5008E31302682310318DA2A213020000E
:1005A000EC000030ED000030C7000030C800003023
:1005B000C90008002000490848044704031DEB2A2D
:1005C0002230EC000030ED000030C7000030C800E1
:1005D0000030C90008000030B0008030B100BF30EA
:1005E000B2000030A0000030A1004030A2004B302B
:1005F000CA004A08F3004708F0004808F10049081B
:10060000F2008E316B26823170082000A300710841
:10061000A4007208A50083316923823120002008DC
:10062000B3002108B4002208B5008431E8248231E7
:1006300020003008C7003108C8003208C900FF3068
:10064000CB07FF30CC3D4708BD004808BE00490835
:10065000BF000030C0009030C1000830C200003040
:10066000C3008F313C27823120003D08C7003E087F
:10067000C8003F08C9004708B0004808B100490851
:10068000B2007230A0003130A1003F30A2004C080F
:10069000F9004B08F8008D31902582317808200050
:1006A000A3007908A4007A08A50083316923823168
:1006B00020002008B3002108B4002208B5008431CE
:1006C000E82420003008C7003108C8003208C900FB
:1006D000080020002008A6002108A7002208A80082
:1006E0000310270D280DA9002908AA002A08031DB8
:1006F000802B0030A0000030A1000030A2000800D4
:100700002308A6002408A7002508A8000310270D29
:10071000280DA9002908AF002F08031D962B0030D3
:10072000A0000030A1000030A20008002F087B3E8E
:10073000A6002608AA072008A6002108A70022086C
:10074000A8001030A836A70CA60C890BA22B2608EF
:10075000A9002908AF002308A6002408A70025083F
:10076000A8001030A836A70CA60C890BB22B2608BF
:10077000A9002908AF068030A6002608AF05A117FA
:10078000A417FF30A305FF30A4050030A5050030F5
:10079000AB000030AC000030AD000730A6002608EA
:1007A000AE00201CD92B2308AB072408AC3D25083C
:1007B000AD3D0130A236A10CA00C890BDA2B013023
:1007C000A335A40DA50D890BE02B0130AE02031D4E
:1007D000D12B0930A6002608AE00201CF52B2308DB
:1007E000AB072408AC3D2508AD3D0130A236A10C75
:1007F000A00C890BF62B0130AD36AC0CAB0C890B81
:10080000FC2B0130AE02031DED2B2B08F0002C0851
:10081000F1002D08F2002A08A6002608F3002F0890
:10082000A7002708F4008F319C2770082000A00043
:100830007108A1007208A2000800B43086000030E0
:1008400087002A3084000030850005302000A50094
:1008500016001A00A50B282C0430B1000030B2009D
:10086000AF01B001A11F3F2C2D308D31D525843132
:100870002000A009A109A00A0319A10A462C2403FB
:10088000031D462C2B308D31D525843120002008C6
:1008900021040319752C0A30F0000030F10020000B
:1008A0002108F3002008F2008E31A626843170085A
:1008B0002000A50031082A3E860087012508810016
:1008C0000A30F0000030F1002108F3002008F200A7
:1008D0008E31EB26843171082000A1007008A00041
:1008E000FF30B107FF30B23D462C220A03197D2CA0
:1008F000852C0130AF070030B03D2F082A3E86001E
:1009000087010108031D952C792C2208A500A6015A
:10091000A51BA603A509A609A50A0319A60A250869
:10092000053EAF000030263DB0003008B2002F0871
:10093000B1002308A500A601A51BA603A509A609C9
:10094000A50A0319A60A2508053EA7000030263D82
:10095000A8003208803AA9002808803A2902031D1D
:10096000B32C270831020318C52C200031082A3E79
:10097000860087010108303E8D31D5258431013054
:100980002000B1070030B23D992C20002303031D45
:10099000D32C2E308D31D525843120002E08303EC9
:1009A0008D31D5258431023020002306031D080037
:1009B0002E308D31D525843120002D08303E8D31EB
:1009C000D525843120002E08303E8D31D5250800F4
:1009D00020003008B6003108B7003208B800031014
:1009E000370D380DB9003908BC003308B60034089B
:1009F000B7003508B8000310370D380DB9003908B5
:100A0000BB003C080319102D3B083C020318172DAE
:100A10003C03FF3A3B07B60019303602031C172D82
:100A20003308B0003408B1003508B20008003B08B4
:100A3000031908003C083B020318262D3B03FF3A2C
:100A40003C07B60019303602031808000630B6001D
:100A50003608BA00B21BBA17B51B3A17B117FF30E8
:100A6000B005FF30B1050030B205B417FF30B30553
:100A7000FF30B4050030B5053B083C020318622D79
:100A80000130B335B40DB50D890B412D0130BB02DA
:100A90003B083C0603195D2D0130BA023A080739BC
:100AA00003195D2D402D0130B236B10CB00C890B0D
:100AB000542D0130B6003608BC073C083B0603192C
:100AC000872D532D3C083B020318872D0130B0358C
:100AD000B10DB20D890B672D0130BC023B083C06FD
:100AE0000319832D0130BA023A0807390319832DFF
:100AF000662D0130B536B40CB30C890B7A2D01305C
:100B0000B6003608BB073C083B06031D792DBA1F0B
:100B1000992DFF30B006FF30B106FF30B20601302C
:100B2000B007003003180130B1070030031801305E
:100B3000B2073A1FAB2DFF30B306FF30B406FF30CB
:100B4000B5060130B307003003180130B407003098
:100B500003180130B507BA013008B3073108B43DB6
:100B60003208B53DB51FC62DFF30B306FF30B406C1
:100B7000FF30B5060130B307003003180130B40769
:100B8000003003180130B507BA01BA0A3308F00083
:100B90003408F1003508F2003C08B6003608F300CE
:100BA0003A08B7003708F4008F319C2770082000FE
:100BB000B0007108B1007208B20008008C31C32483
:100BC0008531003080311120853121302000CE0068
:100BD0007630CD00CD0BEA2DCE0BEA2D00008C3106
:100BE000952485318D31B025853146302000DD00DA
:100BF0000030DE00FF30E5000330E6001430E30093
:100C00000030E4000030E2000030E1000030E0009D
:100C10000030DF0002308C31A624853171082000BD
:100C2000E8007008E7005F08CD006008CE006108AA
:100C3000CF006208D0006E35A03E86008701403F9D
:100C4000D100413FD2005108D3005208D400D50151
:100C5000D601D309D409D509D609D30A0319D40A70
:100C60000319D50A0319D60A5308CD075408CE3DF7
:100C70005508CF3D5608D03D5008E2004F08E1002E
:100C80004E08E0004D08DF006E35A03E860087016B
:100C90006708C03F6808C13F5F08CD006008CE000C
:100CA0006108CF006208D0006E35A03E8600870143
:100CB000403FD100413FD2005108D3005208D40038
:100CC000D501D6015308CD075408CE3D5508CF3D78
:100CD0005608D03D5008E2004F08E1004E08E00001
:100CE0004D08DF000130EE070030EF3D00306F02AD
:100CF0000A3003196E02031C7F2EEE01EF01003053
:100D0000F3000030F2000030F1000A30F000620819
:100D1000F7006108F6006008F5005F08F400813113
:100D20000B21853171082000E8007008E700680891
:100D30006402031D9D2E670863020318A32E013071
:100D4000E3070030E43D64086802031DA92E630830
:100D500067020318AF2E0130E3020030E43B640861
:100D6000E8006308E7005E086802031DB92E5D080D
:100D700067020318CB2E03306602FE3003196502AA
:100D80000318C72E0130E5070030E63DCB2EFF30BB
:100D9000E5000330E60068085E02031DD12E6708F7
:100DA0005D020318E12E003066020230031965026D
:100DB000031CDF2E0130E5020030E63BE12EE501A9
:100DC000E6010030B0008030B100BF30B2006808EA
:100DD000F9006708F8008C31E62485317808200096
:100DE000A0007908A1007A08A200C030A3007F30DB
:100DF000A4004430A5008231132285312000200850
:100E0000B3002108B4002208B5008431E8248531FC
:100E100020003008D7003108D8003208D900570820
:100E2000A0005808A1005908A200C830A3001B3038
:100E3000A4004630A500823113228531200020080D
:100E4000DA002108DB002208DC00C830A0001B30DB
:100E5000A1004630A2005A08A3005B08A4005C0869
:100E6000A50082311322853120002008E9002108E5
:100E7000EA002208EB006908C7006A08C8006B088E
:100E8000C9008231BC22853120004708E9004808AA
:100E9000EA004908EB002030A0005A30A10045309C
:100EA000A2006908A3006A08A4006B08A5008231AB
:100EB0001322853120002008E9002108EA002208D9
:100EC000EB00CF30B0005B30B1003B30B2006908BE
:100ED000B3006A08B4006B08B5008431E82485319A
:100EE00020003008E9003108EA003208EB00690808
:100EF000A0006A08A1006B08A2000030A3008030A7
:100F0000A4003F30A5008231132285312000200843
:100F1000E9002108EA002208EB009330BD00883088
:100F2000BE004330BF006908C0006A08C1006B08FA
:100F3000C2008D317225853120003D08E9003E0850
:100F4000EA003F08EB00F301003080318C2085314E
:100F500020005A08F0005B08F1005C08F2008131C3
:100F60008D21853171082000A1007008A000A20128
:100F7000A203A301A40184311D248531F3010130B2
:100F800080318C20853120006908F0006A08F1006A
:100F90006B08F20081318D21853171082000A1009C
:100FA0007008A000A201A203A301A40184311D24A2
:100FB000853120308D31D525853120006608F1003E
:100FC0006508F0008C31F92485310A2E3F30840009
:100FD0008D308500B93086000030870018308C31A4
:100FE0008F248731EC01ED01EE01EF01A030840088
:100FF0000030850019308C31892420008531DE2DA8
:10191200640080010131890B8A2C0034FE00120020
:101922001E00FE0B902C003400308C31D4248C31FC
:1019320001308C31D4240800623031008D008F01D7
:1019420091010230930092010800F3007308210014
:101952009E009317131313141318AD2C0D08F100E6
:101962000C08F0000800023025008E0001309000C3
:101972008F019101FF308D008C012E009010250007
:101982008E1708008D31FF258C318C319D248C31CE
:1019920032008C018D3127258C31803104208C312D
:1019A2008C31B4240800F20020000D1072088D3131
:1019B2000F258C3120008D148D10F930F1000000BC
:1019C200F10BE02C0032000008007808F0007908E2
:1019D200F100F2018E30FB007B08F300F4018F313D
:1019E2009C277008F8007108F9007208FA000800D4
:1019F2007108F3007008F200F336F20CF336F20CC1
:101A0200720827008D0070080339F2000530F235A4
:101A1200FF3E031D082D72358C000800F000701C7B
:101A2200152D20000D15172D20000D11F01C1B2D5A
:101A32008D151C2D8D11701D202D0D16212D0D12B1
:101A4200F01D252D8D1608008D120800210094012D
:101A5200950196019901970198019A019B019C01B8
:101A62009D019E0122008D018E018F019001910145
:101A72009201930184302100930008000C34123447
:101A820012340C3400340034003400340A34153477
:101A920011340A3404340034003400340A341F345C
:101AA2001F340E340434003400340034F401F501E0
:101AB200701C5F2D7208F4077308F53D0130F23592
:101AC200F30D890B602D0130F136F00C890B652D79
:101AD20070087104031D592D7508F1007408F00097
:101AE200080020003F083E043D0403197A2D80308F
:101AF200BF064008B0004108B1004208B2003D08EC
:101B0200B3003E08B4003F08B5008431E824200049
:101B12003008BD003108BE003208BF000800FD01D8
:101B2200F91F9A2DF809F909F80A0319F90AFD01B2
:101B3200FD0A7808F0007908F100F2018E30FB000E
:101B42007B08F3007D08FC007C08F4008F319C27A1
:101B52007008F8007108F9007208FA0008000430F1
:101B62008C31D4248D3100308C31D4248D31F60166
:101B7200183076020318CD2D7608B93E860087010B
:101B820001088D31D5258D310130F5007508F60734
:101B920018307602031CBD2D00308C31D4248D31D7
:101BA20002308C31D4240800F40074080F39F1009B
:101BB2007108F2007408F039F1007108F300200096
:101BC2000D147308F1000430F136890BE52D71080C
:101BD2008D310F258D3120008D148D100330F100D1
:101BE200F10BF12D72088D310F258D3120008D14EE
:101BF2008D100330F100F10BFC2D0800200096013E
:101C0200970198013E00B901C401CF010830E500F7
:101C120004302000910092011030930004303E0005
:101C2200B800C301CE012E00161200308B1B01300A
:101C3200F0008B1355303D008F00AA308F000F103B
:101C42000E303E00910055303D008F00AA308F00CB
:101C52000F14701C2E2E8B1708008B130800F21F16
:101C6200462E7009F6007109F7007209F800F60AAB
:101C72000319F70A0319F80A00307607F00000305A
:101C8200773DF1008030783DF200F51F5C2E73093C
:101C9200F6007409F7007509F800F60A0319F70A45
:101CA2000319F80A00307607F3000030773DF4009C
:101CB2008030783DF5008030F2068030F5067508F8
:101CC2007202031D080074087102031D08007308E4
:101CD20070020800720871047004031D7D2E7308DF
:101CE200860087010030C03FC13F0030F000003065
:101CF200F1000030F200080072087F39F400F501AB
:101D0200F435F50D7308860087017408C03F750825
:101D1200C13F710D710D0139F400F50173088600A0
:101D220087017408810441317508810473088600B3
:101D32008701823081074131FF30813D7F31720856
:101D420080393F38F200F1130800F601F31FB02E7C
:101D5200F209F309F20A0319F30AF601F60AF11F6E
:101D6200B72EF009F109F00A0319F10A700871049B
:101D72000319DE2EF501F50AF11BC92E0130F035EB
:101D8200F10D890BC02E0130F4007408F507BD2E49
:101D920071087302031DCF2E70087202031CD52E28
:101DA2007008F2027108F33B0130F136F00C890B36
:101DB200D62E0130F502031DC92E76080319E62E30
:101DC200F209F309F20A0319F30A7308F10072081F
:101DD200F0000800F601F11FF52EF009F109F00AF2
:101DE2000319F10AF601F60AF31F002FF209F309AB
:101DF200F20A0319F30A0130F4007408F606F70137
:101E0200F8017008710403192F2FF501F50AF11B6F
:101E1200142F0130F035F10D890B0B2F0130F40036
:101E22007408F507082F0130F735F80D890B152FC7
:101E320071087302031D1F2F70087202031C262FE4
:101E42007008F2027108F33B77140130F136F00C9E
:101E5200890B272F0130F502031D142F7608031971
:101E6200372FF709F809F70A0319F80A7808F10079
:101E72007708F000080020004308F1004208F00053
:101E82000330F2000030F3008D3157258F312000EE
:101E92004008700784004108713D8500003FC4007E
:101EA200013FC500023FC600420843040319952FB3
:101EB200FF30C207FF30C33D4308F1004208F00083
:101EC2000330F2000030F3008D3157258F312000AE
:101ED2004008700784004108713D8500003FB00052
:101EE200013FB100023FB2004408A0004508A10032
:101EF2004608A2003D08A3003E08A4003F08A50032
:101F0200833169238F3120002008B3002108B400F7
:101F12002208B5008431E8248F3120003008C40043
:101F22003108C5003208542F4408BD004508BE00E0
:101F32004608BF00080073080319A42F7208710431
:101F42007004031DB52F0030F0000030F1000030A6
:101F5200F20008000130F5007508F3070130F2368F
:101F6200F10CF00C890BB02FFE3072050319CE2F45
:101F7200AB2F0130F5007508F3070130F007003090
:101F820003180130F107003003180130F207013065
:101F9200F236F10CF00C890BC92FFF3072050319D0
:101FA200DB2FBA2F0130F3020130F035F10DF20DC3
:101FB200890BD62FF11BE12F023073020318D32FA6
:101FC2007318E92FFF30F0057F30F105FF30F2057D
:101FD2000310F30C7308F500F601F7011030F53524
:101FE200F60DF70D890BF02F7508F0047608F10451
:101FF2007708F204740803190800F2170800003485
:1020020000340034003480343F34F034FF34BE34C2
:10201200E234A9343E3483347634BE34AE342B34C5
:102022003E343C34C334BD34D23413343D3478347A
:04203200D334BB34B4
:020000040001F9
:0A000E00EC3F3F3F9F3FFF3FFF3FE5
:00000001FF
