:08000000803102288731C42F72
:10000A00463464282000EE01ED010130AE002E08CE
:10001A002100E40706306402031C64280130200032
:10002A00AE002E08EB0705306B020318EB016B08D4
:10003A00E53E860087010108AE002E08EF00F201B6
:10004A0000308A31EA2280311B30F5009030F60008
:10005A008831EB208031F20101308A31EA22803185
:10006A0020006F08AE00AF012E08F9002F08FA0031
:10007A000330B0003008FB00FC01FD018131422150
:10008A00803100308931AA21803143308931AA2157
:10009A00803120308931AA21803102302000AF001E
:1000AA00E730AE000030890B5828AE0B5828AF0B4A
:1000BA00582800002100E4019731EC278031200004
:1000CA008C1969280C1E07288C1978280130AE0073
:1000DA002E08EE0706306E02031C79280530AE00A2
:1000EA002E08EE007928EE010C1A88280130AE009D
:1000FA002E08ED0706306D02031C08000530AE001D
:10010A002E08ED000800ED0108002000B4016F0878
:10011A00B1003108EC00053020006E02031C2829CA
:10012A000130B1003108B407023034020318A028A4
:10013A009731EC27803101302000EF02F2010030C4
:10014A008A31EA2280311B30F5009030F60088317E
:10015A00EB208031F20101308A31EA22803120001D
:10016A006F08B100B2013108F9003208FA00033011
:10017A00B3003308FB00FC01FD01813142218031CB
:10018A0000308931AA21803143308931AA21803156
:10019A0020308931AA21803172302000B100A1308B
:1001AA00890BD528B10BD528003280310620803141
:1001BA0090280130B1003108B40702303402031824
:1001CA00E9289731EC27803101302000B10031084D
:1001DA00EF07F20100308A31EA2280311B30F50044
:1001EA009030F6008831EB208031F20101308A31FB
:1001FA00EA22803120006F08B100B2013108F9000B
:10020A003208FA000330B3003308FB00FC01FD0199
:10021A0081314221803100308931AA218031433035
:10022A008931AA21803120308931AA218031723066
:10023A002000B100A130890B2029B10B20290032FE
:10024A00803106208031053020006D020318DE2837
:10025A00B4016C086F060319080003302000B200CD
:10026A008A30B1005530890B3829B10B3829B20BC5
:10027A00382900329731EC270800C8308600003050
:10028A008700253084000030850005302000A0005A
:10029A0016001A00A00B4D290430AC000030AD0046
:1002AA00AA01AB01FA1F63292D308931AA218131B4
:1002BA00F909FA09F90A0319FA0A6A297D03031DD9
:1002CA006A292B308931AA21813179087A040319E4
:1002DA0097290A30F0000030F1007A08F300790813
:1002EA00F2008B312923813170082000A0002C08EC
:1002FA00253E86008701200881000A30F000003080
:10030A00F1007A08F3007908F2008B316E2381310B
:10031A007108FA007008F900FF302000AC07FF30BE
:10032A00AD3D6A297B0A0319A029A92901302000B9
:10033A00AA070030AB3D20002A08253E8600870127
:10034A000108031DBA299B297B082000A000A101EE
:10035A00A01BA103A009A109A00A0319A10A200848
:10036A00053EAA000030213DAB002B08AD002A084B
:10037A00AC007C08A000A101A01BA103A009A1094F
:10038A00A00A0319A10A2008053EA2000030213D57
:10039A00A3002D08803AA4002308803A2402031DF2
:1003AA00D82922082C020318EA2920002C08253E05
:1003BA00860087010108303E8931AA218131013046
:1003CA002000AC070030AD3DBE297C03031DF72990
:1003DA002E308931AA21813120002908303E893105
:1003EA00AA21813102307C06031D08002E30893192
:1003FA00AA21813120002808303E8931AA21813181
:10040A0020002908303E8931AA210800200030083E
:10041A00B6003108B7003208B8000310370D380D9E
:10042A00B9003908BC003308B6003408B7003508EB
:10043A00B8000310370D380DB9003908BB003C0865
:10044A000319332A3B083C0203183A2A3C03FF3AB1
:10045A003B07B60019303602031C3A2A3308B000AB
:10046A003408B1003508B20008003B080319080037
:10047A003C083B020318492A3B03FF3A3C07B600F3
:10048A0019303602031808000630B6003608BA00DA
:10049A00B21BBA17B51B3A17B117FF30B005FF30B8
:1004AA00B1050030B205B417FF30B305FF30B4050B
:1004BA000030B5053B083C020318852A0130B335E4
:1004CA00B40DB50D890B642A0130BB023B083C060A
:1004DA000319802A0130BA023A0807390319802A17
:1004EA00632A0130B236B10CB00C890B772A01307D
:1004FA00B6003608BC073C083B060319AA2A762A26
:10050A003C083B020318AA2A0130B035B10DB20DDE
:10051A00890B8A2A0130BC023B083C060319A62A29
:10052A000130BA023A0807390319A62A892A013082
:10053A00B536B40CB30C890B9D2A0130B6003608C7
:10054A00BB073C083B06031D9C2ABA1FBC2AFF3086
:10055A00B006FF30B106FF30B2060130B0070030F6
:10056A0003180130B107003003180130B2073A1FEF
:10057A00CE2AFF30B306FF30B406FF30B50601308D
:10058A00B307003003180130B407003003180130F4
:10059A00B507BA013008B3073108B43D3208B53D92
:1005AA00B51FE92AFF30B306FF30B406FF30B5069F
:1005BA000130B307003003180130B40700300318C4
:1005CA000130B507BA01BA0A3308F0003408F1005D
:1005DA003508F2003C08B6003608F3003A08B700BE
:1005EA003708F4008C311F2470082000B00071080D
:1005FA00B1007208B200080000302000D1000030BB
:10060A00D2000030D3000030D4000030D5000030D2
:10061A00D6004808F0004908F1004A08F20097316C
:10062A00E427833170082000B0007108B100720815
:10063A00B2004708F9004608F80089313E218331A3
:10064A0078082000B3007908B4007A08B50082312E
:10065A000B22833120003008DA003108DB0032082F
:10066A00DC00210059082000A00021005A082000BF
:10067A00A10021005B082000A2005A08A3005B0821
:10068A00A4005C08A5008F314C2783312000200884
:10069A00CB002108CC002208CD0021005008200000
:1006AA00B000210051082000B100210052082000AA
:1006BA00B200210056082000A0002100570820009F
:1006CA00A100210058082000A2005A08A3005B08D4
:1006DA00A4005C08A5008F314C2783312000200834
:1006EA00B3002108B4002208B50082310B228331FD
:1006FA00200030082100D000200031082100D1005C
:10070A00200032082100D20050082000BD0021003C
:10071A0051082000BE00210052082000BF0021001D
:10072A006308F9006208F80089313E2183317808AC
:10073A002000C0007908C1007A08C2008A31AE22BE
:10074A0083310318B72B21006308F9006208F80007
:10075A0089313E21833178082100D0007908D100FF
:10076A007A08D20021006108F9006008F80089318E
:10077A003E21833178082000BD007908BE007A083E
:10078A00BF00210050082000C000210051082000AD
:10079A00C100210052082000C2008A31AE228331F2
:1007AA000318E62B21006108F9006008F800893176
:1007BA003E21833178082100D0007908D1007A08D7
:1007CA00D200210053082000A00021005408200074
:1007DA00A100210055082000A2005A08B0005B08B9
:1007EA00B1005C08B2005408F0005508F100560840
:1007FA00F2009731E427833170082000B3007108B2
:10080A00B4007208B50082310B228331200030080F
:10081A00A3003108A4003208A5008F314C27833188
:10082A0020002008D1002108D2002208D3005A084B
:10083A00D4005B08D5005C08D600210050082000CF
:10084A00B000210051082000B10021005208200008
:10085A00B2004B08B3004C08B4004D08B500823111
:10086A000B22833120003008CE003108CF00320835
:10087A00D0005108B0005208B1005308B2004E0827
:10088A00B3004F08B4005008B50082310B228331FF
:10089A0020003008D7003108D8003208D90057089C
:1008AA00BD005808BE005908BF0021006308F900BE
:1008BA006208F80089313E21833178082000C0009F
:1008CA007908C1007A08C2008A31AE22833103183E
:1008DA007D2C21006308F9006208F80089313E2165
:1008EA00833178082000D7007908D8007A08D9001F
:1008FA0021006108F9006008F80089313E2183313E
:10090A0078082000BD007908BE007A08BF005708A1
:10091A00C0005808C1005908C2008A31AE2283318A
:10092A000318A52C21006108F9006008F800893134
:10093A003E2178082000D7007908D8007A08D90023
:10094A0020005708C6005808C7005908C800080000
:10095A008A313A2284312100B401B501B801B901C2
:10096A00BA01BB01B601B701BE010030C4000030B4
:10097A00C3000030C2000030C10002308831242098
:10098A00843171082100BD007008BC004108A00034
:10099A004208A1004308A2004408A3005F08A5007A
:1009AA005E08A400A435A50D8C30A6002330A7004C
:1009BA002408260786002508273D8700403FA8000F
:1009CA00413FA9002808AA002908AB00AC01AD01E3
:1009DA00AA09AB09AC09AD09AA0A0319AB0A03199A
:1009EA00AC0A0319AD0A2A08A0072B08A13D2C0856
:1009FA00A23D2D08A33D2308C4002208C3002108F4
:100A0A00C2002008C1005F08A1005E08A000A0354E
:100A1A00A10D8C30A2002330A300200822078600F3
:100A2A002108233D87003C08C03F3D08C13F4108DB
:100A3A00A0004208A1004308A2004408A3005F08DE
:100A4A00A5005E08A400A435A50D8C30A6002330AD
:100A5A00A7002408260786002508273D8700403F6F
:100A6A00A800413FA9002808AA002908AB00AC0148
:100A7A00AD012A08A0072B08A13D2C08A23D2D088C
:100A8A00A33D2308C4002208C3002108C20020088D
:100A9A00C1000130DE070030DF3D00305F02323036
:100AAA0003195E02031C5B2DDE01DF010030F30037
:100ABA000030F2000030F1003230F0004408F70054
:100ACA004308F6004208F5004108F4008C31EA2494
:100ADA00843171082100BD007008BC00003020007C
:100AEA00B0008030B100BF30B20021003D08F900EB
:100AFA003C08F80088315F20843178082000A00083
:100B0A007908A1007A08A200C030A3007F30A400AF
:100B1A004430A5008D31F325843120002008B3002C
:100B2A002108B4002208B50082310B22843120004A
:100B3A0030082100B100200031082100B200200055
:100B4A0032082100B30031082000A0002100320839
:100B5A002000A100210033082000A2006030A30079
:100B6A001F30A4004630A5008D31F32584312000C2
:100B7A0020082100AE00200021082100AF0020003B
:100B8A0022082100B00034302000A0001D30A1004E
:100B9A004630A20021002E082000A30021002F08C1
:100BAA002000A400210030082000A5008D31F32583
:100BBA008431200020082100C500200021082100DE
:100BCA00C600200022082100C70045082000C700EF
:100BDA00210046082000C800210047082000C9005B
:100BEA008E319C268431200047082100C500200050
:100BFA0048082100C600200049082100C700B0307B
:100C0A002000A0007930A1004530A200210045084B
:100C1A002000A300210046082000A4002100470864
:100C2A002000A5008D31F325843120002008210001
:100C3A00C500200021082100C6002000220821004A
:100C4A00C700CF302000B0005B30B1003B30B200AB
:100C5A00210045082000B300210046082000B40006
:100C6A00210047082000B50082310B228431200080
:100C7A0030082100C500200031082100C6002000EC
:100C8A0032082100C70045082000A00021004608BC
:100C9A002000A100210047082000A2000030A30084
:100CAA008030A4003F30A5008D31F3258431200027
:100CBA0020082100C500200021082100C6002000CC
:100CCA0022082100C70093302000BD008830BE00F2
:100CDA004330BF00210045082000C000210046081B
:100CEA002000C100210047082000C20089312021CC
:100CFA00843120003D082100C50020003E08210063
:100D0A00C60020003F082100C70045082000A300B4
:100D1A00210046082000A400210047082000A50061
:100D2A000030A0002030A1004130A2008F314C27B2
:100D3A00843120002008DD002108DE002208DF00BF
:100D4A008D316C25843120005E082100C00020000E
:100D5A005D082100BF003E03031DE82E0530F600A2
:100D6A000030F7004008F1003F08F0000930F200B7
:100D7A000030F3008931052184317108F9007008C7
:100D8A00F8008A31062284317608403E2100BF00ED
:100D9A000130773DC000F20100308A31EA22843105
:100DAA0021004008FA003F08F900FB01FB03FC019F
:100DBA00FC0AFD0181314221843100308931AA21A6
:100DCA0084314630FF2EF20100308A31EA22843122
:100DDA0021004008FA003F08F900FB01FB03FC016F
:100DEA00FC0AFD0181314221843100308931AA2176
:100DFA00843143308931AA21843120308931AA21B2
:100E0A008431F20101308A31EA2284312530F50039
:100E1A009030F6008831EB20843105302100A000A3
:100E2A002008F20001308A31EA2284312100370891
:100E3A00FA003608F9000330A0002008FB00FC0184
:100E4A00FD0181314221843101302100BA0700308D
:100E5A00BB3D00303B020D3003193A02031C6F2FD1
:100E6A003E03FF3A013EA0002008BE00BA01BB01C2
:100E7A0045082000C800210046082000C9002100BA
:100E8A0047082000CA006F082100A000A10120081D
:100E9A002000C600210021082000C7008331012359
:100EAA00843120004608DD004708DE004808DF00DC
:100EBA008D316C25843120005E082100B5002000A8
:100ECA005D082100B4003508F1003408F0008831CB
:100EDA00722084312E008C1E7E2F243020009D002B
:100EEA009F309C002E008C1201302100B807003080
:100EFA00B93D21004508F0004608F1004708F20014
:100F0A009731E427843170082000B0007108B100DD
:100F1A007208B2006F088831D12084317808200025
:100F2A00B3007908B4007A08B50082310B22843103
:100F3A0020003008BD003108BE003208BF00003072
:100F4A00C0000030C1004030C2008A31AE22843174
:100F5A000318BD2F0030210039024030031938022E
:100F6A00031CBD2F0130B6070030B73DB801B901E7
:100F7A0080310620843180318A208431C22C80312C
:100F8A0005208731EF00DF30840097308500E53097
:100F9A008600003087000030FF00053088310B20C2
:100FAA008731A030840088308500203086000130E7
:100FBA0087000030FF00183088310B2087318C30D1
:100FCA008400233085006430FE000030FF00973132
:100FDA00F4278731EB01EC01ED01EE01C830840002
:100FEA00003085001D30FE000030FF009731F427E5
:060FFA0020008431AD2C43
:10100600603031008D008F0191019301920108003B
:10101600FE0012001E000130FE020030FF3B7F087A
:101026007E04031900340C28803027008E00FF3020
:101036008D00C0308C0024001F08F33904389F004F
:101046000800F300730821009E009317131313146E
:1010560013182B280D08F1000C08F0000800F10009
:1010660020000D10710888318820883120008D14E9
:101076008D10C8300032890B3D2808001030200042
:101086009E0042309F0024309D009F309C002E0021
:1010960096168C1220009E1708007F3025008E00C1
:1010A600013090008F019101FF308D008C012E00E0
:1010B600901025008E1708007808F0007908F100D6
:1010C600F2018E30FB007B08F300F4018C311F2403
:1010D6007008F8007108F9007208FA000800710833
:1010E600F3007008F200F336F20CF336F20C7208D5
:1010F60027008D0070080339F2000530F235FF3EF7
:10110600031D812872358C000800F000701C8E28A3
:1011160020000D15902820000D11F01C94288D1527
:1011260095288D11701D99280D169A280D12F01DFF
:101136009E288D1608008D1208000C3412341234C5
:101146000C3400340034003400340A3415341134BD
:101156000A3404340034003400340A341F341F3493
:101166000E34043400340034003421009401950117
:101176009601990197010F3098009A019B019C01F5
:101186009D019E0122008D018E018F01900191012A
:10119600920193018430210093000800FB007B0834
:1011A6002000A000A101A2012008F0002108F10002
:1011B6002208F2008E30A3002308F300F4018C31DC
:1011C6001F247008F8007108F9007208FA00080078
:1011D600F801F9017508780784007608793D8500DD
:1011E6001200031908007508780784007608793D0F
:1011F600850000088931AA2188310130F8070030BE
:10120600F93DED28F401F501701C0D297208F4076B
:101216007308F53D0130F235F30D890B0E290130C7
:10122600F136F00C890B132970087104031D072988
:101236007508F1007408F000080020003F083E041D
:101246003D04031928298030BF064008B000410834
:10125600B1004208B2003D08B3003E08B4003F08A2
:10126600B50082310B2220003008BD003108BE00D7
:101276003208BF000800FD01F91F4829F809F909DD
:10128600F80A0319F90AFD01FD0A7808F000790841
:10129600F100F2018E30FB007B08F3007D08FC00B4
:1012A6007C08F4008C311F247008F8007108F900DE
:1012B6007208FA0008000430883132208931003083
:1012C600883132208931F6011830760203187C29DC
:1012D6007608203E86000130870001088931AA2160
:1012E60089310130F5007508F60718307602031CBF
:1012F6006B29003088313220893102308831322022
:10130600080000302100D9004830DA004230DB0006
:101316000030D6008030D7003F30D8000030D300F0
:101326009630D4004330D500E201E301FF30E000FF
:101336000330E1000030D0000030D1000030D20090
:101346000030CD000030CE000030CF000800F400A1
:1013560074080F39F1007108F2007408F039F100D1
:101366007108F30020000D147308F1000430F13603
:10137600890BBA29710888318820893120008D149B
:101386008D100330890BC52900007208883188202A
:10139600893120008D148D100330890BD02900006F
:1013A6000800200096019701980118303E00B90008
:1013B600C401CF010830E5001C30200091009201E5
:1013C6001030930004303E00B800C301CE012E0059
:1013D600161200308B1B0130F0008B1355303D0088
:1013E6008F00AA308F000F100E303E00910055304E
:1013F6003D008F00AA308F000F14701C042A8B1733
:1014060008008B130800FB01FC017608770403191A
:10141600352AFD01FD0AF71B1A2A0130F635F70DAC
:10142600890B112A0130FA007A08FD070E2A0130CD
:10143600FB35FC0D890B1B2A77087902031D252A2B
:1014460076087802031C2C2A7608F8027708F93BFE
:101456007B140130F736F60C890B2D2A0130FD027C
:10146600031D1A2A7C08F7007B08F600080089315C
:10147600D4218A31883103208A3132008C018831A7
:10148600B8208A31883117208A31883141208A3143
:10149600883150208A3100308C3183248A314130A2
:1014A600F700EE30890B552AF70B552A0032973193
:1014B600EC278A312130F7007630890B602AF70B4A
:1014C600602A003289315E218A314130F700EE30E0
:1014D600890B6B2AF70B6B2A0032893184210800AD
:1014E600720871047004031D852A7308860087013B
:1014F6000030C03FC13F0030F0000030F100003046
:10150600F200080072087F39F400F501F435F50D94
:101516007308860087017408C03F7508C13F710DC6
:10152600710D0139F400F50173088600870174080E
:101536008104413175088104730886008701823071
:1015460081074131FF30813D7F31720880393F3854
:10155600F200F11308002000BF1FC52A3D09C30091
:101566003E09C4003F09C500C30A0319C40A03198A
:10157600C50A00304307BD000030443DBE00803040
:10158600453DBF00C21FDB2A4009C3004109C40014
:101596004209C500C30A0319C40A0319C50A003063
:1015A6004307C0000030443DC1008030453DC200C5
:1015B6008030BF068030C20642083F02031D080085
:1015C60041083E02031D080040083D020800F500E0
:1015D6007508031D0A2B7208803EF3007308F80095
:1015E6007808F3000430F336890BF62A7308F40002
:1015F6007408F60078080F39F3007308F7007608C8
:10160600883132208A317708883132200800750304
:10161600031D08007208C03EF3007308F80078083E
:10162600F3000430F336890B152B7308F4007408A5
:10163600F60078080F39F3007308F700760888314A
:1016460032208A317708883132200800F601F31FEC
:10165600332BF209F309F20A0319F30AF601F60A23
:10166600F11F3A2BF009F109F00A0319F10A700883
:1016760071040319612BF501F50AF11B4C2B01309E
:10168600F035F10D890B432B0130F4007408F50792
:10169600402B71087302031D522B70087202031C43
:1016A600582B7008F2027108F33B0130F136F00C4A
:1016B600890B592B0130F502031D4C2B76080319B3
:1016C600692BF209F309F20A0319F30A7308F10008
:1016D6007208F0000800F601F11F782BF009F109F5
:1016E600F00A0319F10AF601F60AF31F832BF20931
:1016F600F309F20A0319F30A0130F4007408F60636
:10170600F701F801700871040319B22BF501F50A07
:10171600F11B972B0130F035F10D890B8E2B013023
:10172600F4007408F5078B2B0130F735F80D890B9B
:10173600982B71087302031DA22B70087202031CFA
:10174600A92B7008F2027108F33B77140130F136C9
:10175600F00C890BAA2B0130F502031D972B760896
:101766000319BA2BF709F809F70A0319F80A7808D2
:10177600F1007708F000080020004308F100420855
:10178600F0000330F2000030F300893105218B317F
:1017960020004008700784004108713D8500003F25
:1017A600C400013FC500023FC600420843040319B6
:1017B600182CFF30C207FF30C33D4308F100420832
:1017C600F0000330F2000030F300893105218B313F
:1017D60020004008700784004108713D8500003FE5
:1017E600B000013FB100023FB2004408A000450826
:1017F600A1004608A2003D08A3003E08A4003F0839
:10180600A5008F314C278B3120002008B30021081A
:10181600B4002208B50082310B228B31200030083B
:10182600C4003108C5003208D72B4408BD0045085E
:10183600BE004608BF00080073080319272C72086B
:1018460071047004031D382C0030F0000030F100E4
:101856000030F20008000130F5007508F30701308A
:10186600F236F10CF00C890B332CFE30720503199D
:10187600512C2E2C0130F5007508F3070130F007C6
:10188600003003180130F107003003180130F20769
:101896000130F236F10CF00C890B4C2CFF3072053E
:1018A60003195E2C3D2C0130F3020130F035F10DA9
:1018B600F20D890B592CF11B642C023073020318AC
:1018C600562C73186C2CFF30F0057F30F105FF3075
:1018D600F2050310F30C7308F500F601F70110305A
:1018E600F535F60DF70D890B732C7508F00476089F
:1018F600F1047708F204740803190800F2170800C7
:10190600F3000030883188208C312130F2007630A7
:10191600890B8B2CF20B8B2C003203308831322052
:101926008C310430F2003E30890B972CF20B972C49
:101936000330883132208C310A30890BA02C0330D9
:10194600883132208C310A30890BA72C023088313D
:1019560032208C310A30890BAE2C0230883132208D
:101966008C310830883132208C310A30890BB92C01
:101976000030883132208C310830883132208C3169
:101986000A30890BC42C0030883132208C3101306A
:10199600883132208C31FA300032890BCF2C00305E
:1019A600883132208C310630883132208C310A3031
:1019B600890BDB2C0030883132208C3173080C38CF
:1019C600883132208C310A30890BE72C0800200040
:1019D600A101F31FFB2CF009F109F209F309F00A42
:1019E6000319F10A0319F20A0319F30AA101A10A5C
:1019F600F71F0C2DF409F509F609F709F40A03197E
:101A0600F50A0319F60A0319F70A0130F8007808EF
:101A1600A1060030A5000030A4000030A30000306D
:101A2600A20073087204710470040319552DA001F5
:101A3600A00AF31B2A2D0130F035F10DF20DF30D3E
:101A4600890B1F2D0130F8007808A0071C2D0130E6
:101A5600A235A30DA40DA50D890B2B2D73087702B6
:101A6600031D3F2D72087602031D3F2D7108750276
:101A7600031D3F2D70087402031C4A2D7008F402E2
:101A86007108F53B7208F63B7308F73B22140130E8
:101A9600F336F20CF10CF00C890B4B2D0130A00241
:101AA600031D2A2D21080319632DA209A309A409E0
:101AB600A509A20A0319A30A0319A40A0319A50A68
:101AC6002508F3002408F2002308F1002208F0009C
:101AD600080020005D08E1005E08E2005F08E30000
:101AE6000310620D630DE4006408EA006A08031D32
:101AF600852D0030E0000030DF000030DE000030D1
:101B0600DD0008005D08E1005E08E2005F08E30012
:101B16001730E336E20CE10C890B8C2D6108E400EA
:101B26006408E500DE17FF30DD05FF30DE05003016
:101B3600DF055D08E6005E08E7005F08E800E901EA
:101B46008E30EA02EA1FC32D6A08803A8F3E0318D8
:101B5600B52D0030E0000030DF000030DE00003040
:101B6600DD0008000130E936E80CE70CE60C890BCD
:101B7600B62D0130E1006108EA070319DC2DB52D09
:101B860018306A02031CD92D0030E0000030DF0057
:101B96000030DE000030DD0008000130E635E70DDC
:101BA600E80DE90D890BD12D0130EA026A08031D03
:101BB600D02D65080319EA2DE609E709E809E909C0
:101BC600E60A0319E70A0319E80A0319E90A690884
:101BD600E0006808DF006708DE006608DD00080030
:101BE60020002308A6002408A7002508A800031043
:101BF600270D280DA9002908AE002E08031D0A2E60
:101C06000030A0000030A1000030A200080020082B
:101C1600A6002108A7002208A8000310270D280DFA
:101C2600A9002908AF002F08031D202E0030A000B0
:101C36000030A1000030A20008000030AB000030E8
:101C4600AC000030AD0089302F07A6002608AE0292
:101C56002308A6002408A7002508A8001030A836E7
:101C6600A70CA60C890B322E2608A9002908AF005E
:101C76002008A6002108A7002208A8001030A836D0
:101C8600A70CA60C890B422E2608A9002908AF0628
:101C96008030A6002608AF05A417FF30A305FF3045
:101CA600A4050030A505A117FF30A005FF30A1054A
:101CB6000030A2051830A6002608AA000130AB3570
:101CC600AC0DAD0D890B622E22082502031D712E67
:101CD60021082402031D712E20082302031C7A2EDC
:101CE6002008A3022108A43B2208A53B2B1401309F
:101CF600A335A40DA50D890B7B2E0130AA02031D69
:101D0600612E2B08F0002C08F1002D08F2002E0899
:101D1600A6002608F3002F08A7002708F4008C3138
:101D26001F2470082000A0007108A1007208A200FC
:101D3600080020004708BD004808BE004908BF004B
:101D46000030C0000030C1000030C2008A31AE222F
:101D56008E310318BB2E21302100DC000030DD005F
:101D660000302000C7000030C8000030C90008005D
:101D76002000490848044704031DCE2E22302100C6
:101D8600DC000030DD0000302000C7000030C80055
:101D96000030C90008000030B0008030B100BF300C
:101DA600B2000030A0000030A1004030A2004B304D
:101DB600CA004A08F3004708F0004808F10049083D
:101DC600F2008A3173228E3170082000A300710858
:101DD600A4007208A5008F314C278E312000200800
:101DE600B3002108B4002208B50082310B228E31DF
:101DF60020003008C7003108C8003208C900FF308B
:101E0600CB07FF30CC3D4708BD004808BE00490857
:101E1600BF000030C0009030C1000830C200003062
:101E2600C3008B31BF238E3120003D08C7003E081A
:101E3600C8003F08C9004708B0004808B100490873
:101E4600B2007230A0003130A1003F30A2004C0831
:101E5600F9004B08F80089313E218E3178082000C0
:101E6600A3007908A4007A08A5008F314C278E318B
:101E760020002008B3002108B4002208B5008231F2
:101E86000B2220003008C7003108C8003208C900FC
:101E9600080020002008A6002108A7002208A800A4
:101EA6000310270D280DA9002908AA002A08031DDA
:101EB600632F0030A0000030A1000030A20008000F
:101EC6002308A6002408A7002508A8000310270D4C
:101ED600280DA9002908AF002F08031D792F00300F
:101EE600A0000030A1000030A20008002F087B3EB1
:101EF600A6002608AA072008A6002108A70022088F
:101F0600A8001030A836A70CA60C890B852F26082A
:101F1600A9002908AF002308A6002408A700250861
:101F2600A8001030A836A70CA60C890B952F2608FA
:101F3600A9002908AF068030A6002608AF05A1171C
:101F4600A417FF30A305FF30A4050030A505003017
:101F5600AB000030AC000030AD000730A60026080C
:101F6600AE00201CBC2F2308AB072408AC3D250877
:101F7600AD3D0130A236A10CA00C890BBD2F01305E
:101F8600A335A40DA50D890BC32F0130AE02031D89
:101F9600B42F0930A6002608AE00201CD82F23082F
:101FA600AB072408AC3D2508AD3D0130A236A10C97
:101FB600A00C890BD92F0130AD36AC0CAB0C890BBC
:101FC600DF2F0130AE02031DD02F2B08F0002C08A6
:101FD600F1002D08F2002A08A6002608F3002F08B3
:101FE600A7002708F4008C311F2470082000A000E9
:101FF6007108A1007208A200080000340034003401
:10200600003480343F34F034FF34BE34E234A93433
:102016003E3483347634BE34AE342B343E343C34D2
:10202600C334BD34D23413343D347834D334BB3462
:1020360053346534743470346F3469346E347434A4
:102046003F340034543469346D3465343A340034E2
:102FBE00003446345F346934783472087104700416
:102FCE00031908008030F2060800003088313220E4
:102FDE0097310130883132200800640080010131C0
:102FEE000130FE020030FF3B7F087E0403190034DF
:022FFE00F52FAD
:020000040001F9
:0A000E00EC3F3F3F9F3FFF3FFF3FE5
:00000001FF
