:020000001028C6
:10000800FE00030EF0000408F1000A08F200831253
:1000180003137F08F3004A2C11289C24CF00830186
:100028001528FA220D3083120313B700AF30B6003B
:10003800B630B500B50B1E28B60B1E28B70B1E2808
:10004800DD23972483120313071483120313CE01AD
:100058004E0A03194B280230F6000030F70003302F
:100068002D2483120313B5004D083507F800F90154
:10007800F90D4B22760883120313B6003608CD001B
:100088000130B5003508CE074E0A031D2F28CE01D2
:100098004E0A03196B280230F6000030F7000230D0
:1000A8002D2483120313B5004C083507F800F90115
:1000B800F90D4B22760883120313B6003608CC00DC
:1000C8000130B5003508CE074E0A031D4F280B3006
:1000D80083120313B7002630B6005D30B500B50BA8
:1000E8007328B60B7328B70B732800008312031309
:1000F8004D08023EB500003003180130B60036083E
:10010800803A803C031D8A2835084C02031C9A2833
:10011800013083120313B5003508CF07FE304F02B4
:10012800031C9A28FE30B5003508CF00831203134C
:100138004D08FE3EB500FF3003180030B600360803
:10014800803AB70080303702031DAC284C083502CE
:10015800031CB828013083120313CF0202304F0268
:100168000318B828CF01CF0A97240B308312031342
:10017800B5003508A8001508B600B7013608A9006B
:100188003708AA0038300A21F8010030C021383079
:100198000E242D3083120313B5003508A8004F082C
:1001A800B600B7013608A9003708AA0038300A2176
:1001B800F8010130C02138300E241C30831203139B
:1001C800B5003508A8004C08B600B7013608A900E4
:1001D8003708AA0038300A21F8010230C021383027
:1001E8000E243E3083120313B5003508A8004D08CD
:1001F800B600B7013608A9003708AA0038300A2126
:10020800F8010330C02138300E2429288312031343
:10021800B3002930AB002B08AE000130A807FF302F
:1002280028078400A622AB002B08B4003408031961
:10023800BB292530340603192D293408AB003308AF
:1002480084002B08831380000130AB002B08B30710
:100258001129AF010130A807FF3028078400A62222
:10026800B400003A0319BB29643A03193F290D3A2F
:1002780003193F2911292E08840083130008B100AF
:10028800840A0008B2000230AB002B08AE07B21F88
:1002980056290330AB002B08AF04B109B209B10AE3
:1002A8000319B20AB401B40A0530340603197529D2
:1002B8003408AB002B07013E8400A622AC00A6221E
:1002C800AD002D083202031D6B292C083102031CD6
:1002D80075290130AB002B08B40705303406031D1F
:1002E8005C292F080339031984292D30AB00330802
:1002F80084002B08831380000130AB002B08B30760
:100308003408AB002B08B000FF30AB002B08B00757
:10031800300A031911290A30A3000030A40030085C
:10032800AB002B07013E8400A622F400A622F500AC
:100338003208F7003108F6003A23750883120313D0
:10034800A6007408A5007823831203132308303EFF
:10035800AC002C08B4003408AB00330884002B0828
:10036800831380000130AB002B08B30788293308BA
:10037800840083138001080083120313A20022085B
:10038800031DE3297808803EA0002008A500250861
:10039800A00004300310A00CFF3E031DCE29200846
:1003A800A1002108A30025080F39A0002008A400F7
:1003B800230881248312031324088124080083124C
:1003C80003132203031D052A7808C03EA000200855
:1003D800A5002508A00004300310A00CFF3E031D53
:1003E800F0292008A1002108A30025080F39A00042
:1003F8002008A400230881248312031324088124DD
:1004080008000230831203132206031D282A7808E5
:10041800943EA0002008A5002508A0000430031081
:10042800A00CFF3E031D132A2008A1002108A300E9
:1004380025080F39A0002008A4002308812483126E
:1004480003132408812408000330831203132206AF
:10045800031D08007808D43EA0002008A500250840
:10046800A00004300310A00CFF3E031D362A20080C
:10047800A1002108A30025080F39A0002008A40026
:10048800230881248312031324088124080083127B
:100498000313A201F71F572AF609F709F60A0319E9
:1004A800F70AA201A20AF91F622AF809F909F80A4B
:1004B8000319F90A0130A0002008A206A301A4012B
:1004C800760877040319992AA101A10AF71B782A4B
:1004D80001300310F60DF70DFF3E031D6D2A0130A4
:1004E800A0002008A1076A2A01300310A30DA40D5B
:1004F800FF3E031D792A77087902031D852A7608AD
:100508007802031C8E2A7608F8027708031CF90380
:10051800F902231401300310F70CF60CFF3E031DFB
:100528008F2A0130A102031D782A22080319A12A63
:10053800A309A409A30A0319A40A2408F700230895
:10054800F600080002308A000408840A8207003492
:10055800013400340A34003464340034E834033499
:1005680010342734433443345034523431344C3407
:100578002034203420342034203420343D342034B6
:1005880025346434003453346534743470346F342F
:1005980069346E34743420342034203420343D34AB
:1005A80020342534643400344F347534743443347F
:1005B80075347234723465346E34743420342034B3
:1005C8003D34203425346434003452346534613485
:1005D8006434433475347234723465346E3474342C
:1005E80020343D34203425346434003414308316E8
:1005F8000313850014308316031785008312031331
:100608008501831603138601831603178601831257
:1006180003138601203083160313870083160317FC
:100628008701831603138716FF3092008312031382
:1006380097010F30970495018C100330920412151E
:100648000C18242B831603138712831203139001AB
:1006580010169016E7308F0095308E0010148B1707
:100668000B170C10831603130C14080083120313C2
:10067800A001A101740875040319732BA201A20A31
:10068800F51B522B01300310F40DF50DFF3E031D31
:10069800472B0130F8007808A207442B01300310DB
:1006A800A00DA10DFF3E031D532B75087702031DF6
:1006B8005F2B74087602031C682B7408F602750811
:1006C800031CF703F702201401300310F50CF40C97
:1006D800FF3E031D692B0130A202031D522B210886
:1006E800F5002008F40008008312031323082404EB
:1006F8000319A72BA701A70AA41B8E2B01300310EF
:10070800A30DA40DFF3E031D832B0130F9007908CA
:10071800A707802B24082602031D942B23082502F3
:10072800031C9C2B2308A5022408031CA603A6026D
:1007380001300310A40CA30CFF3E031D9D2B0130B8
:10074800A702031D8E2B2608A4002508A300080075
:10075800F80078080F39F5007508F6007808F039C0
:10076800F5007508F7008312031307167708F500DC
:1007780004300310F50CFF3E031DBD2B75086724DC
:100788008312031307171A30F500F50BC92B000065
:1007980083120313071376086724831203130717BA
:1007A8001A30F500F50BD62B00008312031307133C
:1007B8000800003067243430F900F130F800F80BF5
:1007C800E32BF90BE32BE82B033081240D30F900E0
:1007D800FB30F800F80BEE2BF90BEE2BF32B033064
:1007E80081241D30F9009130F800F80BF92BF90B32
:1007F800F92B03308124023081240230812408300F
:100808008124003081240C3081240030812406307A
:100818008124080083120313A200A001A10120086B
:100828002207F900790884008313000803190800D7
:1008380020082207F9007908840083130008AC23F4
:10084800013083120313A0070318A10A0030A1077F
:10085800132CF500831203139F017508F40001306F
:100868000310F40DFF3E031D342C0310740D9F007C
:100878001F144230F400F40B3F2C000083120313C2
:100888009F149F18452C1F101E0808008316031379
:100898000C1C5B2C831203130C1C5B2C0C1010100B
:1008A800E7308F0095308E0010144F0895007308BC
:1008B8008312FF0072088A0071088400700E83009A
:1008C800FE0E7E0E0900F400741C6E2C83120313B6
:1008D8000714712C831203130710F41C752C87144A
:1008E800762C8710741D7A2C07157B2C0711F41DA4
:1008F8007F2C8715080087110800F700831203135F
:100908000712770867248312031307170B30F600C2
:100918006230F500F50B8E2CF60B8E2C000083123E
:1009280003130713080000308124013081240800D4
:02093800453444
:02400E00E4FFCD
:00000001FF
