:08000000803102288731F22F44
:1006B0000800F300730821009E009317131313140E
:1006C0001318602B0D08F1000C08F0000800013031
:1006D0002000960097019801910192019301013049
:1006E0003E00B800C301CE018331A423833183319E
:1006F00058230800FD007D088038FC007C08F600C7
:1007000000308331FB2383317B084038FC007C08B8
:10071000F60000308331FB23080020002508840008
:10072000260885001200031908002000250884000F
:10073000260885000008853111258331013020000D
:10074000A5070030A63D8D2B21009401950196014F
:10075000990197010F3098009A019B019C019D011E
:100760009E0122008D018E018F0190019101920165
:1007700093018430210093000800F401F501701CFE
:10078000C52B7208F4077308F53D0130F235F30DFF
:10079000890BC62B0130F136F00C890BCB2B70087E
:1007A0007104031DBF2B7508F1007408F0000800E8
:1007B0002000A001A1012108803AFD0081307D02C6
:1007C000031DE42BF8302002031808007B082000EA
:1007D000200784007C08213D85000008FD007D087D
:1007E000F60001308331FB23833101302000A00764
:1007F0000030A13DDB2BF8007608F7007708F90000
:100800007808031D062C20009811082C200098154C
:100810001813FA0108307A0203181E2C1812F91F57
:10082000122C181698160310F90D98120130F700C3
:100830007708FA0708307A02031C0E2C18170800F4
:100840002000A101A2012208803AA00081302002EC
:10085000031D2C2CF83021020318432CF601013023
:100860008331FB23843101302000A1070030A23DF9
:100870002208803AA00081302002031D412CF8306C
:100880002102031C2E2CFB01003083317A23080047
:10089000200093111312931213139313181298122A
:1008A0009811981398172130FB007B08F600003050
:1008B0008331FB238431BB30FB007B08F600003022
:1008C0008331FB2384310430FB007B08F6000030C9
:1008D0008331FB2384311430FB007B08F6000030A9
:1008E0008331FB2384312030FB007B08F60000308D
:1008F0008331FB2384310C30FB007B08F600003091
:100900008331FB230800F601F31F8D2CF209F30954
:10091000F20A0319F30AF601F60AF11F942CF00902
:10092000F109F00A0319F10A700871040319BB2CCC
:10093000F501F50AF11BA62C0130F035F10D890BFC
:100940009D2C0130F4007408F5079A2C710873028D
:10095000031DAC2C70087202031CB22C7008F2024A
:100960007108F33B0130F136F00C890BB32C0130E8
:10097000F502031DA62C76080319C32CF209F3090E
:10098000F20A0319F30A7308F1007208F000080074
:10099000003083315923843171082000C40070086D
:1009A000C30001304402913003194302031CE22CBE
:1009B00001304402F430031943020318E22CC5014C
:1009C000C50A0F2D01304402F53003194302031C00
:1009D000F22C023044025830031943020318F22C5F
:1009E00002300A2D02304402BD3003194302031CB9
:1009F000022D033044022030031943020318022D54
:100A000003300A2D03304402853003194302031CCE
:100A10000E2D0430F4007408C5000F2DC5014508E3
:100A20000800FB00FC01FD017D08803A2000A000C9
:100A300080302002031D1E2D03307C020318572D29
:100A40007B08E03EF000FF3003180030F100033077
:100A5000F2000030F3008331BD23853100302000E7
:100A6000A0008830A10070082007A2007108213D75
:100A7000A30022087C07840023087D3D8500000830
:100A8000A4002408F60001308331FB2385310130B6
:100A9000FC070030FD3D7D08803A2000A00080303A
:100AA0002002031D552D03307C02031C202DF6016E
:100AB00001308331FB230800F601F11F662DF00998
:100AC000F109F00A0319F10AF601F60AF31F712D74
:100AD000F209F309F20A0319F30A0130F400740869
:100AE000F606F701F801700871040319A02DF5014D
:100AF000F50AF11B852D0130F035F10D890B7C2DA8
:100B00000130F4007408F507792D0130F735F80D40
:100B1000890B862D71087302031D902D70087202D7
:100B2000031C972D7008F2027108F33B7714013013
:100B3000F136F00C890B982D0130F502031D852D3F
:100B400076080319A82DF709F809F70A0319F80A16
:100B50007808F1007708F00008002000A101A20148
:100B60002208803AA00080302002031DB92D5430A5
:100B700021020318D72DFB012000210883317A239D
:100B80008531F601F60A01308331FB2385310130CE
:100B90002000A1070030A23D2208803AA00080304A
:100BA0002002031DD52D54302102031CBB2D200033
:100BB000A101A2012208803AA00080302002031D7A
:100BC000E32D543021020318072E05302000A00029
:100BD0002008FB00210883317A23853180302000F2
:100BE000A0002008F60001308331FB23853101305D
:100BF0002000A1070030A23D2208803AA0008030EA
:100C00002002031D052E54302102031CE52D200077
:100C1000A101A2012208803AA00080302002031D19
:100C2000132E063021020318372E20002108A000C1
:100C30002008FB00533083317A238531FF302000B8
:100C4000A0002008F60001308331FB2385310130FC
:100C50002000A1070030A23D2208803AA000803089
:100C60002002031D352E06302102031C152E200004
:100C7000A101A2012208803AA00080302002031DB9
:100C8000432E063021020318080020002108A0008E
:100C90002008FB00003083317A238531FF302000AB
:100CA000A0002008F60001308331FB23853101309C
:100CB0002000A1070030A23D3A2E83316723863100
:100CC0002000BB01BC01BD01843148248631843140
:100CD000202486312F30FB008930FC008331D8235B
:100CE000863104302000BA00CF30B9000330B8009C
:100CF000B80B782EB90B782EBA0B782E00328431CF
:100D0000202486318531AD258631FB01FB0A1E305A
:100D100083317A23863149302000A5008B30A6002C
:100D200083318D23863102302000BA004530B9006E
:100D3000A930B800B80B9A2EB90B9A2EBA0B9A2E7E
:100D4000003203302000B8003808FB00083083313F
:100D50007A23863127302000A5008B30A60083310E
:100D60008D23863104302000B8003808FB0008309D
:100D700083317A2386313A302000A5008B30A600DB
:100D800083318D23863103302000BA008A30B900C8
:100D90005630B800B80BCA2EB90BCA2EBA0BCA2EE1
:100DA0000032843120248631EC2EFB01FB0A013015
:100DB00083317A23863120003D08B800B901380814
:100DC000A5003908A6000530BA003A08A700A80116
:100DD000A901873127278631FB01003083317A232F
:100DE000863120003C08A6003B08A500A701A70308
:100DF000A801A90187312727863151302000A5009D
:100E00008B30A60083318D23863100308331592306
:100E1000863171082000BC007008BB008431C824F2
:100E200086312000B8003808BD0002303D060319A5
:100E3000D52E02302000B8003808FB000130833185
:100E40007A2386318431C82486312000DD2E3E305D
:100E50008600003087002F30840000308500053088
:100E60002000AA0016001A00AA0B322F0430B60088
:100E70000030B700B401B501A61F492F2D308531D0
:100E8000112587312000A509A609A50A0319A60A7C
:100E9000502F2903031D502F2B3085311125873109
:100EA00020002508260403197F2F0A30F0000030A7
:100EB000F10020002608F3002508F2008431832485
:100EC000873170082000AA0036082F3E860087016F
:100ED0002A0881000A30F0000030F1002608F300F3
:100EE0002508F20085315C25873171082000A600B5
:100EF0007008A500FF30B607FF30B73D502F270A16
:100F00000319872F8F2F0130B4070030B53D340807
:100F10002F3E860087010108031D9F2F832F27087E
:100F2000AA00AB01AA1BAB03AA09AB09AA0A0319C1
:100F3000AB0A2A08053EB40000302B3DB500350849
:100F4000B7003408B6002808AA00AB01AA1BAB03FF
:100F5000AA09AB09AA0A0319AB0A2A08053EAC0084
:100F600000302B3DAD003708803AAE002D08803AA6
:100F70002E02031DBD2F2C0836020318CF2F200090
:100F800036082F3E860087010108303E8531112545
:100F9000873101302000B6070030B73DA32F200075
:100FA0002803031DDD2F2E308531112587312000C8
:100FB0003308303E85311125873102302000280664
:100FC000031D08002E30853111258731200032089D
:100FD000303E85311125873120003308303E853180
:100FE000112508002000BE01BF01C001C101C201DE
:100FF000C301C401C501C601C701200086315D2EB1
:1010000000340034003400344E34003406340034EC
:101010000634FF34FF34FF344834D63424341334D8
:101020006B346434FF34FF34FF340034063400344E
:1010300038344434823482344434383414340834F8
:101040003E34103438341034A0346034003410345A
:101050001034103460346034003460341834063492
:101060007C3442347C3444347E34403464345234EE
:101070004C344A344A343434383424347E344E3494
:101080004A3432343C344A34323462341A3406340A
:1010900076344A3476344C3452343C346C346C34C8
:1010A0000034AC346C3400341034283444342834E4
:1010B0002834283444342834103402345934063463
:1010C000FF34FF34FF347C3412347C347E345A34A1
:1010D00034343C34423442347E3442343C347E3402
:1010E0004A3442347E340A340A343C345234343480
:1010F0007E3408347E3442347E34423430344034DA
:101100003E347E34183466347E34403440347E3489
:101110001C347E347E3402347E343C3442343C34DD
:101120007E3412340C347E346234FE347E343234F5
:101130004E3444344A34323402347E3402347E3401
:1011400040347E343E3440343E347E3438347E3451
:101150006634183466340E3470340E3462345A34C3
:10116000463400347E344234063418346034423419
:101170007E34003404340234043440344034403487
:101180000034023404347434543478347E344834B3
:101190003034303448344834303448347E34383491
:1011A000543458347C340A3402349834A4347C34B3
:1011B0007E340834703448347A3440348834FA3415
:1011C00000347E341834643442347E3440347C3409
:1011D00038347C347C34043478343834443438340F
:1011E000FC342434183418342434FC347834043473
:1011F000043448345434243404343E3444347C3489
:1012000040347C343C3440343C347C3430347C34A2
:101210006C3410346C349C34A0347C3464345434D6
:101220004C34FF34FF34FF34FF34FF34FF34FF34D9
:10123000FF34FF34FF34FF34FF34FF34FF34FF3416
:10124000FF34FF34FF340C3412340C34FC3440349B
:101250007C34FF34FF34FF34FF34FF34FF34FF3479
:1012600001340134013401340134013401340134D6
:1012700001340134013401340134013401340134C6
:1012800001340134013401340134013401340134B6
:10129000013401348134C134C134C1348134013466
:1012A000013401348134C134C134C134C134013416
:1012B000C134E1346134E134C134813401348134E6
:1012C000C134C134813481340134013401340134F6
:1012D0000134013401340134013401340134013466
:1012E0000134013401340134013401340134013456
:1012F0000134013401340134013401340134013446
:1013000001340134FF34FF3400340034003400343D
:10131000003400340034003400340034003400342D
:1013200000340034003400340034C0344034E0343D
:10133000B034103400341C343E347E347F347F3477
:101340007F347F347F347F340034003407340F34EB
:101350000C340C340434003407340F340C340C34A3
:101360000F3407341C341F34073406340634703409
:101370003C341F340B341B34E634F234BC346C344C
:1013800038349834D034E034B034603440344034AD
:1013900000340034003400340034003400340034AD
:1013A000003400340034003400340034FF34FF349F
:1013B000003400340034003400340034003400348D
:1013C000003400340034003400340034003400347D
:1013D00000340034003400340D340F340634073444
:1013E000033400340034003400340034003400345A
:1013F000003400340034003400340034C034F0349D
:1014000077341F34C834C03400340034003400341E
:10141000003400340034003400340034003400342C
:101420000034013401340034073407340C340C34F4
:10143000013401340034003400340034003400340A
:1014400000340034003400340034003400340034FC
:1014500000340034FF34FF340034003400340034EE
:1014600000340034003400340034003400340034DC
:1014700000340034003400340034003400340034CC
:1014800000340034003400340034003400340034BC
:1014900000348034803480348034C034C034C0346C
:1014A000C034DE34FF34F134E034C034E134FF348E
:1014B000DF34C434C034C034C034C034C034C03469
:1014C000C0340034003400340034003400340034BC
:1014D000003400340034003400340034003400346C
:1014E000003400340034003400340034003400345C
:1014F000003400340034003400340034FF34FF344E
:10150000003400340034003400340034003400343B
:10151000003400340034003400340034003400342B
:10152000003400340034003400340034003400341B
:1015300000340034003400340034C734CF349D34D8
:101540009134B734BF34B834E034C034803480349C
:10155000803480348034803480348034C034C0346B
:10156000E034B8349F348734C134C034603400343C
:1015700000340034003400340034003400340034CB
:1015800000340034003400340034003400340034BB
:1015900000340034003400340034003400340034AB
:1015A00000340034FF34FF3480348034803480349D
:1015B000803480348034803480348034803480348B
:1015C000803480348034803480348034803480347B
:1015D000803480348034803480348034803480346B
:1015E000803480348134833483348334833483344B
:1015F0008334833483348334833483348334833433
:101600008334833483348334833483348334833422
:101610008134813480348034803480348034803428
:10162000803480348034803480348034803480341A
:10163000803480348034803480348034803480340A
:10164000803480348034803480348034FF344C34AF
:10165000613479346E3465342034533475346334F2
:101660006B347334203443344F3443344B3421349B
:101670002134003461346E34643420344C346934A1
:101680006B34653473342034693474342134213438
:101690000034413420344E342034443420342C344B
:0E16A000003420342034203420342034003430
:020000040001F9
:0A000E00EC37FF3F9F3FFF3FFF3F2D
:00000001FF
