:020000001028C6
:10000800FE00030E83120313A2000408A3000A08CB
:10001800A4007F08A500052B1128B401B501B6017D
:10002800B701B8018301182831230D308312031357
:10003800B300AF30B200C130B100B10B2128B20B10
:100048002128B30B2128000038229C23103083126A
:100058000313900083120313B80105303802031804
:10006800A0288F018E0186160630B100B10B3A2800
:1000780000008312031386120230B3000430B2006A
:10008800BA30B100B10B4628B20B4628B30B46284C
:100098000000831203133608013EB6003708031820
:1000A800013E003EB7000030370203300319360224
:1000B800031C7E28013037029130031936020318D9
:1000C8007E2834083607B10035080318350A370783
:1000D800B2000310B20CB10C3108B6003208B700F8
:1000E8003708B5003608B400AA01013016210130DE
:1000F800542396289C2383120313AA01AA0A0130C9
:100108001621123054230B3083120313B300263008
:10011800B2006630B100B10B8F28B20B8F28B30B39
:100128008F289628013083120313B1003108B807CD
:1001380005303802031C3528AA01003016211F306B
:1001480054230C3083120313B1003108AA00003085
:1001580016210A3083120313A6000030A7003708BF
:10016800A9003608A8006F22831203132608303E20
:10017800D4220A3083120313A6000030A7003708E0
:10018800A9003608A800FA21831203132708B7002C
:100198002608B6000B30B1003108AA00003016213D
:1001A8000A3083120313A6000030A7003708A900FD
:1001B8003608A8006F22831203132608303ED42283
:1001C8000A3083120313A6000030A7003708A900DD
:1001D8003608A800FA21831203132708B700260857
:1001E800B6000A30B1003108AA00003016210A30E2
:1001F80083120313A6000030A7003708A9003608A9
:10020800A8006F22831203132608303ED4220E3032
:1002180083120313B1003108AA00003016212930D7
:1002280054232E2883120313AD002D08031D3929EA
:100238002A08803EAB002B08B0003008AB00043021
:100248000310AB0CFF3E031D24292B08AC002C081F
:10025800AE0030080F39AB002B08AF002E088623FC
:10026800831203132F0886230800831203132D0318
:10027800031D5B292A08C03EAB002B08B0003008DC
:10028800AB0004300310AB0CFF3E031D46292B08BE
:10029800AC002C08AE0030080F39AB002B08AF00BB
:1002A8002E088623831203132F08862308000230A2
:1002B800831203132D06031D7E292A08943EAB00E2
:1002C8002B08B0003008AB0004300310AB0CFF3E25
:1002D800031D69292B08AC002C08AE0030080F3923
:1002E800AB002B08AF002E088623831203132F08B8
:1002F800862308000330831203132D06031D08000C
:100308002A08D43EAB002B08B0003008AB000430FC
:100318000310AB0CFF3E031D8C292B08AC002C08E6
:10032800AE0030080F39AB002B08AF002E0886232B
:10033800831203132F0886230800F601F11FAB2947
:10034800F009F109F00A0319F10AF601F60AF31F98
:10035800B629F209F309F20A0319F30A0130F40085
:100368007408F606F701F801700871040319ED29FD
:10037800F501F50AF11BCC2901300310F00DF10D40
:10038800FF3E031DC1290130F4007408F507BE299A
:1003980001300310F70DF80DFF3E031DCD2971083C
:1003A8007302031DD92970087202031CE229700820
:1003B800F2027108031CF303F302771401300310EF
:1003C800F10CF00CFF3E031DE3290130F502031D7B
:1003D800CC2976080319F529F709F809F70A03194A
:1003E800F80A7808F1007708F00008008312031370
:1003F800AB01AC01260827040319332AAD01AD0A65
:10040800A71B122A01300310A60DA70DFF3E031DDE
:10041800072A0130AA002A08AD07042A0130031070
:10042800AB0DAC0DFF3E031D132A27082902031D3F
:100438001F2A26082802031C282A2608A80227089B
:10044800031CA903A9022B1401300310A70CA60C46
:10045800FF3E031D292A0130AD02031D122A2C0874
:10046800A7002B08A600080000306E233430831242
:100478000313AB00F130AA00AA0B402AAB0B402AA9
:10048800452A033086230D3083120313AB00FB305B
:10049800AA00AA0B4D2AAB0B4D2A522A03308623F9
:1004A8001D3083120313AB009130AA00AA0B5A2AFD
:1004B800AB0B5A2A03308623023086230230862368
:1004C80008308623003086230C30862300308623AC
:1004D800063086230800831203132608270403190D
:1004E8009E2AAB01AB0AA71B852A01300310A60D73
:1004F800A70DFF3E031D7A2A0130AA002A08AB0780
:10050800772A27082902031D8B2A26082802031C9C
:10051800932A2608A8022708031CA903A902013068
:100528000310A70CA60CFF3E031D942A0130AB0252
:10053800031D852A2908A7002808A60008000230FC
:100548008A000408840A82070034203420342034C6
:1005580020342034203420342034203420342034F3
:100568002034203420342034203400344F3475347F
:10057800743420346F3466342034523461346E3429
:100588006734653400344434693473347434613402
:100598006E34633465343A34003463346D34003473
:1005A80083120313AA002A080F39A7002708A800F6
:1005B8002A08F039A7002708A90007162908A70064
:1005C80004300310A70CFF3E031DE52A27086E23FD
:1005D8008312031307171A30A700A70BF12A00008C
:1005E80083120313071328086E23831203130717B4
:1005F8001A30A700A70BFE2A000083120313071363
:1006080008000B1C252B8B11061E0B2B1014061A29
:10061800242B10103B30F0000030F1000F08A00030
:10062800A1012008A100A00120080E04F200210861
:10063800F300A121710883120313B7007008B600F4
:100648000B108B152508FF0024088A002308840056
:10065800220E8300FE0E7E0E09001430831603134B
:100668008500143083160317850083120313850150
:10067800DF3083160313860083160317860183125F
:100688000313860110308312031796008316031391
:1006980087018316031787018B170B108B1508002A
:1006A80083120313AD00AB01AC012B082D078400A6
:1006B800A322003A031908002B082D078400A3225F
:1006C800D422013083120313AB070318AC0A00309D
:1006D800AC07592B83120313A600261C752B07148D
:1006E800762B0710A61C7A2B87147B2B8710261DC8
:1006F8007F2B0715802B0711A61D842B8715080053
:100708008711080083120313A900071229086E2312
:100718008312031307170B30A8006230A700A70B3A
:10072800932BA80B932B00008312031307130800C5
:0A07380000308623013086230800FC
:02400E00E4FFCD
:00000001FF
