:020000001028C6
:10000800FE00030EF0000408F1000A08F200831253
:1000180003137F08F300492C11289B24CF00830188
:100028001528F9220D3083120313B700AF30B6003C
:10003800C130B500B50B1E28B60B1E28B70B1E28FD
:100048000000DC239624831203130714831203137E
:10005800CE014E0A03194C280230F6000030F70092
:1000680003302C2483120313B5004D083507F8001C
:10007800F901F90D4A22760883120313B6003608EF
:10008800CD000130B5003508CE074E0A031D3028D3
:10009800CE014E0A03196C280230F6000030F70032
:1000A80002302C2483120313B5004C083507F800DE
:1000B800F901F90D4A22760883120313B6003608AF
:1000C800CC000130B5003508CE074E0A031D502874
:1000D8000B30B7002630B6006630B500B50B722875
:1000E800B60B7228B70B72287928831203134D08B0
:1000F800023EB500003003180130B6003608803AD9
:10010800803C031D892835084C02031C99280130BE
:1001180083120313B5003508CF07FE304F02031CC6
:100128009928FE30B5003508CF00831203134D0817
:10013800FE3EB500FF3003180030B6003608803A9E
:10014800B70080303702031DAB284C083502031C6A
:10015800B728013083120313CF0202304F0203186D
:10016800B728CF01CF0A96240B3083120313B500AA
:100178003508A8001508B600B7013608A9003708E1
:10018800AA0038300921F8010030BF2138300D2489
:100198002D3083120313B5003508A8004F08B600A8
:1001A800B7013608A9003708AA0038300921F80134
:1001B8000130BF2138300D241C3083120313B500E1
:1001C8003508A8004C08B600B7013608A90037085A
:1001D800AA0038300921F8010230BF2138300D2437
:1001E8003E3083120313B5003508A8004D08B60049
:1001F800B7013608A9003708AA0038300921F801E4
:100208000330BF2138300D242A2883120313B3008A
:100218002930AB002B08AE000130A807FF302807B3
:100228008400A522AB002B08B40034080319BA29AE
:100238002530340603192C293408AB003308840010
:100248002B08831380000130AB002B08B30710295B
:10025800AF010130A807FF3028078400A522B400A9
:10026800003A0319BA29643A03193E290D3A0319C9
:100278003E2910292E08840083130008B100840A3F
:100288000008B2000230AB002B08AE07B21F552998
:100298000330AB002B08AF04B109B209B10A031946
:1002A800B20AB401B40A05303406031974293408B3
:1002B800AB002B07013E8400A522AC00A522AD00AF
:1002C8002D083202031D6A292C083102031C7429E7
:1002D8000130AB002B08B40705303406031D5B2939
:1002E8002F080339031983292D30AB003308840004
:1002F8002B08831380000130AB002B08B3073408A8
:10030800AB002B08B000FF30AB002B08B007300A59
:10031800031910290A30A3000030A4003008AB00EC
:100328002B07013E8400A522F400A522F50032081F
:10033800F7003108F6003923750883120313A60065
:100348007408A5007723831203132308303EAC00FA
:100358002C08B4003408AB00330884002B0883133E
:1003680080000130AB002B08B307872933088400CD
:1003780083138001080083120313A2002208031DBF
:10038800E2297808803EA0002008A5002508A000E2
:1003980004300310A00CFF3E031DCD292008A10046
:1003A8002108A30025080F39A0002008A40023086D
:1003B8008024831203132408802408008312031363
:1003C8002203031D042A7808C03EA0002008A500C7
:1003D8002508A00004300310A00CFF3E031DEF29E0
:1003E8002008A1002108A30025080F39A000200833
:1003F800A4002308802483120313240880240800FF
:100408000230831203132206031D272A7808943E1C
:10041800A0002008A5002508A00004300310A00CA7
:10042800FF3E031D122A2008A1002108A300250869
:100438000F39A0002008A400230880248312031386
:100448002408802408000330831203132206031DA6
:1004580008007808D43EA0002008A5002508A000C0
:1004680004300310A00CFF3E031D352A2008A1000C
:100478002108A30025080F39A0002008A40023089C
:100488008024831203132408802408008312031392
:10049800A201F71F562AF609F709F60A0319F70AFF
:1004A800A201A20AF91F612AF809F909F80A031931
:1004B800F90A0130A0002008A206A301A4017608C9
:1004C80077040319982AA101A10AF71B772A01309A
:1004D8000310F60DF70DFF3E031D6C2A0130A00036
:1004E8002008A107692A01300310A30DA40DFF3EBF
:1004F800031D782A77087902031D842A7608780272
:10050800031C8D2A7608F8027708031CF903F90200
:10051800231401300310F70CF60CFF3E031D8E2A3E
:100528000130A102031D772A22080319A02AA30972
:10053800A409A30A0319A40A2408F7002308F6004B
:10054800080002308A000408840A82070034013453
:1005580000340A34003464340034E834033410348A
:100568002734433443345034523431344C342034F7
:10057800203420342034203420343D3420342534B1
:100588006434003453346534743470346F346934EB
:100598006E34743420342034203420343D342034F4
:1005A8002534643400344F3475347434433475342A
:1005B8007234723465346E347434203420343D34EB
:1005C800203425346434003452346534613464345E
:1005D800433475347234723465346E347434203470
:1005E8003D34203425346434003414308316031326
:1005F80085001430831603178500831203138501C1
:1006080083160313860183160317860183120313C7
:10061800860120308316031387008316031787018A
:10062800831603138716FF30920083120313970172
:100638000F30970495018C100330920412150C1892
:10064800232B8316031387128312031390011016AA
:100658009016E7308F0095308E0010148B170B170B
:100668000C10831603130C14080083120313A00143
:10067800A101740875040319722BA201A20AF51BC3
:10068800512B01300310F40DF50DFF3E031D462BD1
:100698000130F8007808A207432B01300310A00DA1
:1006A800A10DFF3E031D522B75087702031D5E2B1B
:1006B80074087602031C672B7408F6027508031C7D
:1006C800F703F702201401300310F50CF40CFF3E79
:1006D800031D682B0130A202031D512B2108F500D0
:1006E8002008F400080083120313230824040319C4
:1006F800A62BA701A70AA41B8D2B01300310A30D5D
:10070800A40DFF3E031D822B0130F9007908A707CD
:100718007F2B24082602031D932B23082502031C84
:100728009B2B2308A5022408031CA603A60201305C
:100738000310A40CA30CFF3E031D9C2B0130A70241
:10074800031D8D2B2608A4002508A3000800F80027
:1007580078080F39F5007508F6007808F039F500C3
:100768007508F7008312031307167708F50004309D
:100778000310F50CFF3E031DBC2B7508662483127D
:10078800031307171A30F500F50BC82B0000831266
:1007980003130713760866248312031307171A3006
:1007A800F500F50BD52B000083120313071308007F
:1007B800003066243430F900F130F800F80BE22BF1
:1007C800F90BE22BE72B033080240D30F900FB30C6
:1007D800F800F80BED2BF90BED2BF22B03308024EE
:1007E8001D30F9009130F800F80BF82BF90BF82BB5
:1007F8000330802402308024023080240830802492
:10080800003080240C30802400308024063080247E
:10081800080083120313A200A001A10120082207E7
:10082800F9007908840083130008031908002008D8
:100838002207F9007908840083130008AB230130EC
:1008480083120313A0070318A10A0030A107122C72
:10085800F500831203139F017508F400013003109B
:10086800F40DFF3E031D332C0310740D9F001F145D
:100878004230F400F40B3E2C0000831203139F1443
:100888009F18442C1F101E080800831603130C1C05
:100898005A2C831203130C1C5A2C0C101010E7301E
:1008A8008F0095308E0010144F089500730883123E
:1008B800FF0072088A0071088400700E8300FE0E23
:1008C8007E0E0900F400741C6D2C831203130714A8
:1008D800702C831203130710F41C742C8714752CC6
:1008E8008710741D792C07157A2C0711F41D7E2C9E
:1008F8008715080087110800F700831203130712F1
:10090800770866248312031307170B30F60062304A
:10091800F500F50B8D2CF60B8D2C000083120313BC
:100928000713080000308024013080240800453473
:02400E00E4FFCD
:00000001FF
