:08000000803102288731FB2F3B
:100D9200FD007D088038FC007C08F60000308731B9
:100DA200282786317B084038FC007C08F60000309A
:100DB200873128270800200025088400260885009E
:100DC2001200031908002000250884002608850067
:100DD20000088731B027863101302000A507003096
:100DE200A63DDC2E20009601970198019101920107
:100DF20093013E00B801C301CE01873175278631C8
:100E020087314D2786312F302000A5008930A6007A
:100E12008631DC2686310C2FF401F501701C152F6A
:100E22007208F4077308F53D0130F235F30D890BB2
:100E3200162F0130F136F00C890B1B2F700871044C
:100E4200031D0F2F7508F1007408F0000800F80068
:100E52007608F7007708F9007808031D332F200081
:100E62009811352F200098151813FA0108307A02CC
:100E720003184B2F1812F91F3F2F1816981603103C
:100E8200F90D98120130F7007708FA0708307A0254
:100E9200031C3B2F181708002000A101A201220801
:100EA200803AA00081302002031D592FF830210220
:100EB2000318702FF601013087312827873101305E
:100EC2002000A1070030A23D2208803AA000813014
:100ED2002002031D6E2FF8302102031C5B2FFB0141
:100EE20000308631C9260800200093111312931294
:100EF20013139313181298129811981398172130FC
:100F0200FB007B08F6000030873128278731BB3091
:100F1200FB007B08F6000030873128278731043038
:100F2200FB007B08F6000030873128278731143018
:100F3200FB007B08F60000308731282787312030FC
:100F4200FB007B08F60000308731282787310C3000
:100F5200FB007B08F6000030873128270800FB00E1
:100F6200FC01FD017D08803A2000A00080302002B3
:100F7200031DBD2F03307C020318F62F7B08E03ED1
:100F8200F000FF3003180030F1000330F2000030AF
:100F9200F30087310D27873100302000A000883010
:100FA200A10070082007A2007108213DA3002208B9
:100FB2007C07840023087D3D85000008A4002408E6
:100FC200F60001308731282787310130FC070030D5
:100FD200FD3D7D08803A2000A00080302002031DE4
:100FE200F42F03307C02031CBF2FF601013087313E
:100FF20028270800AC01AD0120008631F32E003411
:101002000034003400344E340034063400340634E4
:10101200FF34FF34FF344834D634243413346B3471
:101022006434FF34FF34FF3400340634003438347F
:1010320044348234823444343834143408343E34F0
:10104200103438341034A034603400341034103486
:1010520010346034603400346034183406347C3424
:1010620042347C3444347E344034643452344C341C
:101072004A344A343434383424347E344E344A3494
:1010820032343C344A34323462341A3406347634DC
:101092004A3476344C3452343C346C346C3400343C
:1010A200AC346C34003410342834443428342834BA
:1010B2002834443428341034023459340634FF348A
:1010C200FF34FF347C3412347C347E345A3434346A
:1010D2003C34423442347E3442343C347E344A34EA
:1010E20042347E340A340A343C34523434347E344A
:1010F20008347E3442347E344234303440343E3418
:101102007E34183466347E34403440347E341C34A9
:101112007E347E3402347E343C3442343C347E3479
:1011220012340C347E346234FE347E3432344E3423
:1011320044344A34323402347E3402347E3440340D
:101142007E343E3440343E347E3438347E34663429
:10115200183466340E3470340E3462345A344634E1
:1011620000347E34423406341834603442347E34DF
:101172000034043402340434403440344034003403
:10118200023404347434543478347E344834303481
:10119200303448344834303448347E34383454346B
:1011A20058347C340A3402349834A4347C347E3487
:1011B2000834703448347A3440348834FA34003491
:1011C2007E341834643442347E3440347C343834CF
:1011D2007C347C3404347834383444343834FC3449
:1011E2002434183418342434FC3478340434043469
:1011F20048345434243404343E3444347C3440344B
:101202007C343C3440343C347C3430347C346C3474
:1012120010346C349C34A0347C34643454344C34F4
:10122200FF34FF34FF34FF34FF34FF34FF34FF3424
:10123200FF34FF34FF34FF34FF34FF34FF34FF3414
:10124200FF34FF340C3412340C34FC3440347C341C
:10125200FF34FF34FF34FF34FF34FF344834653445
:101262006C346C346F34203457346F3472346C34D1
:101272006434213420344E346F3474342034733463
:10128200753472346534203477346834613474349C
:101292002034683461347034703465346E3473349D
:1012A20020346934663420347434683469347334D5
:1012B20020346B34653465347034733420346734CD
:1012C2006F3469346E34673420346F346E342034B2
:1012D20061346E34643420346F346E3420346134BB
:1012E2006E34643420346F346E343F3448346534A1
:1012F2006C346C346F34203457346F3472346C3441
:101302006434213420344E346F34743420347334D2
:10131200753472346534203477346834613474340B
:101322002034683461347034703465346E3473340C
:101332002034693466342034743468346934733444
:1013420020346B346534653470347334203467343C
:101352006F3469346E34673420346F346E34203421
:1013620061346E34643420346F346E34203461342A
:101372006E34643420346F346E34483465346C34E3
:101382006C346F34203457346F3472346C346434B8
:10139200213420344E346F34743420347334753431
:1013A20072346534203477346834613474342034D0
:1013B200683461347034703465346E34733420347C
:1013C20069346634203474346834693473342034B4
:1013D2006B346534653470347334203467346F345D
:1013E20069346E34673420346F346E34203461349F
:1013F2006E34643420346F346E34203461346E348D
:0A140200643420346F346E3400347B
:020000040001F9
:0A000E00EC37FF3F9F3FFF3FFF3F2D
:00000001FF
