:020000001028C6
:10000800FE00030EF0000408F1000A08F200831253
:1000180003137F08F3009C2B1128AF01B001B10135
:0A002800B201B301B40183010A2CF8
:10020000FF1B0A2983137F1883170008840A031928
:10021000FF0A08007F087F398A000408840A03194E
:10022000FF0A82000034003400340034003400340B
:1002300000345F34003400340034073400340734B1
:10024000003414347F3414347F34143424342A3486
:100250007F342A341234233413340834643462343F
:1002600036344934553422345034003405340334A0
:100270000034003400341C3422344134003400345F
:10028000413422341C340034143408343E340834ED
:100290001434083408343E340834083400345034FC
:1002A0003034003400340834083408340834083456
:1002B00000346034603400340034203410340834A6
:1002C000043402343E345134493445343E3400342D
:1002D00042347F3440340034423461345134493440
:1002E00046342134413445344B34313418341434D9
:1002F00012347F341034273445344534453439348E
:100300003C344A344934493430340134713409348A
:1003100005340334363449344934493436340634E8
:100320004934493429341E340034363436340034E8
:100330000034003456343634003400340834143475
:100340002234413400341434143414341434143446
:10035000003441342234143408340234013451342A
:100360000934063432344934793441343E347E34ED
:100370001134113411347E347F34493449344934D2
:1003800036343E3441344134413422347F344134B4
:10039000413422341C347F344934493449344134A3
:1003A0007F3409340934093401343E34413449344A
:1003B00049347A347F340834083408347F340034C4
:1003C00041347F34413400342034403441343F34AC
:1003D00001347F3408341434223441347F344034BF
:1003E0004034403440347F3402340C3402347F349F
:1003F0007F340434083410347F343E344134413483
:1004000041343E347F3409340934093406343E34EF
:100410004134513421345E347F3409341934293461
:100420004634463449344934493431340134013492
:100430007F34013401343F344034403440343F345D
:100440001F342034403420341F343F344034383497
:1004500040343F3463341434083414346334073480
:100460000834703408340734613451344934453425
:10047000433400347F344134413400340234043492
:100480000834103420340434023401340234043487
:100490004034403440344034403400340134023479
:1004A00004340034203454345434543478347F3495
:1004B0004834443444343834383444344434443490
:1004C000203438344434443448347F343834543459
:1004D00054345434183408347E340934013402342A
:1004E0000C345234523452343E347F3408340434A1
:1004F00004347834003444347D34403400342034BF
:10050000403444343D3400347F341034283444348F
:100510000034003441347F34403400347C340434BB
:100520001834043478347C34083404340434783493
:10053000383444344434443438347C34143414343B
:100540001434083408341434143418347C347C34AF
:10055000083404340434083448345434543454349F
:10056000203404343F344434403420343C34403468
:10057000403420347C341C342034403420341C3447
:100580003C344034303440343C3444342834103427
:10059000283444340C345034503450343C344434D3
:1005A000643454344C3444340034083436344134E4
:1005B0000034003400347F340034003400344134DB
:1005C0003634083400341034083408341034083415
:1005D00078344634413446347834483465346C34A5
:1005E0006C346F34203457346F3472346C34643468
:1005F00021340034503449344334203431343634D7
:100600004C34463431343734303439340034831286
:100610000313AA00A0010130332483120313AB019A
:10062000AC012C08803AFF0080307F02031D1A2B9A
:1006300005302B020318592B831203132A08E03EBE
:10064000F400FF3003180030F5000530F6000030EC
:10065000F7005824123083120313A5008130A6003E
:1006600074082507A70075080318750A2607A8004F
:100670002B08270784002C0803182C0A2807FF00E2
:100680000021A9002908A000013033240130831281
:100690000313AB070318AC0A0030AC072C08803AF0
:1006A000FF0080307F02031D572B05302B02031CF7
:1006B0001C2B83120313A00101303324080083167E
:1006C000031387110712871207138713831203136B
:1006D000071287128711871387172130A500250875
:1006E000A00000303324BB3083120313A50025087B
:1006F000A00000303324043083120313A500250822
:10070000A00000303324143083120313A500250801
:10071000A00000303324203083120313A5002508E5
:10072000A000003033240C3083120313A5002508E9
:10073000A0000030332408000B1DCE2B0B11340316
:10074000031DA42BB401A62BB401B40A013030025E
:10075000163003192F02031CB02BB301B30AB12BBF
:10076000B30101303002513003192F02031CC82B92
:100770003203031DBD2BB201BF2BB201B20A3103FC
:10078000031DC42BB101C62BB101B10AAF01B001E9
:100790000130AF070318B00A0030B0077308FF003C
:1007A00072088A0071088400700E8300FE0E7E0EAF
:1007B000090083120313AA01AB012B08803AFF0042
:1007C00081307F02031DE62BF8302A020318002C2B
:1007D00083120313A0010130332401308312031369
:1007E000AA070318AB0A0030AB072B08803AFF00BA
:1007F00081307F02031DFE2BF8302A02031CE82BF8
:10080000003083120313A500A6000030A700A80043
:1008100092240800B424A52483120313AF01B0016D
:10082000B401B1015F23D923013083120313A50062
:100830000030A6000130A7000030A8009224FA3052
:1008400083120313AD008230AE0079242C2C3303C5
:100850000319320303190617831203133403031910
:10086000272C06132C2C83120313A2002008A100AE
:100870002108A3002208031D3F2C8711402C871557
:100880000713A401083024020318562C0712A31FD3
:100890004A2C071687160310A30D87120130A100FA
:1008A0002108A40708302402031C462C071708005F
:1008B000F801F901741C622C7608F8070318F90A8C
:1008C0007708F90701300310F60DF70DFF3E031D01
:1008D000632C01300310F50CF40CFF3E031D6A2C51
:1008E00074087504031D5A2C7908F5007808F40083
:1008F0000800831203132E08FF002D088400002136
:10090000003A03190800831203132E08FF002D0874
:10091000840000210723013083120313AD0703185D
:10092000AE0A792C8312031325088038A900290800
:10093000A000003033248312031327084038A90095
:100940002908A0000030332408008316031785010E
:100950008601870183160313850186018701803094
:0A09600081008B168B1708000800B9
:02400E00C7FCED
:00000001FF
