:08000000803102288731C22F74
:10000A00FA340034720871047004031D1928730845
:10001A00860087010030C03FC13F0030F000003049
:10002A00F1000030F200080072087F39F400F5018F
:10003A00F435F50D7308860087017408C03F75080A
:10004A00C13F710D710D0139F400F5017308860085
:10005A008701740881044131750881047308860098
:10006A008701823081074131FF30813D7F3172083B
:10007A0080393F38F200F1130800033021006C0682
:10008A00031D6C282B08803A2000CE0084304E02D3
:10009A00031D5228333021002A0203186128210047
:1000AA006808690403195E280130E8020030E93B58
:1000BA000800EC01EC0A080004302000CE004E08CB
:1000CA002100EC003730E6000030E7000800043079
:1000DA006C06031DFA2820006E08031D0800210083
:1000EA002308803A2000CE0022006108803A2000CE
:1000FA004E02031D842822006008210022020318F0
:10010A00992802302100EA020030EB3B00306B02F2
:10011A00023003196A020318080005302000CE00D5
:10012A004E082100EC00080001302000CE004E08E5
:10013A002100BF071A303F02031CEE286D09200078
:10014A00CE0021006E092000CF00CE0A0319CF0A83
:10015A004E08FA3EF80000304F3DF9009331F9237A
:10016A00803178082000B3007908B4007A08B50015
:10017A00C330B0007530B1003E30B2008B31D223AB
:10018A00803120003008C0003108C1003208C200A6
:10019A008931F221803120004008463ED0000530E6
:1001AA00413DD1005108803AD20021006508803AC9
:1001BA0020005202031DE528210064082000500295
:1001CA000318EC28FF302100E407FF30E53D210049
:1001DA00BF0100306B020A3003196A0203180800D3
:1001EA000130EA070030EB3D080005306C06031DBC
:1001FA0008006D092000CE0021006E092000CF0002
:10020A00CE0A0319CF0A4E08FA3EF80000304F3DD5
:10021A00F9009331F923803178082000B300790876
:10022A00B4007A08B500C330B0007530B1003E3072
:10023A00B2008B31D223803120003008C00031084F
:10024A00C1003208C2008931F22120004008463E2E
:10025A002100E40005302000413D2100E50019306D
:10026A00E6000030E7002000EE01080020002635F5
:10027A00503E860001308700403FBA00413FBB0034
:10028A003A0893312823813171082000BD00700893
:10029A00BC002608A8000130A835FF3E031D5129DD
:1002AA002835203E860001308700403FA900413FA3
:1002BA00AA00423FAB00433FAC0021003C082000AB
:1002CA00AE0021003B082000AD00AD35AE0D270879
:1002DA00FA002608F9001830FB000030FC009331C0
:1002EA007F23813130302000AF002330B0007908FD
:1002FA002F07B1007A08303DB2002D083107860079
:10030A002E08323D8700403FB300413FB400330816
:10031A00B5003408B6000030B61BFF30B700B8008D
:10032A00B509B609B709B809B50A0319B60A03190E
:10033A00B70A0319B80A3508A9073608AA3D3708C3
:10034A00AB3D3808AC3D2608B9000130B935FF3E4F
:10035A00031DAB293935203E860001308700290864
:10036A00C03F2A08C13F2B08C23F2C08C33F2100C7
:10037A003C082000A90021003B082000A800A8355D
:10038A00A90D2708FA002608F9001830FB000030EA
:10039A00FC0093317F23813130302000AA002330C2
:1003AA00AB0079082A07AC007A082B3DAD00280873
:1003BA002C07860029082D3D87003C08C03F3D08D0
:1003CA00C13F2608A8000130A835FF3E031DE929D0
:1003DA002835203E860001308700403FA900413F72
:1003EA00AA00423FAB00433FAC0021003C0820007A
:1003FA00AE0021003B082000AD00AD35AE0D270848
:10040A00FA002608F9001830FB000030FC0093318E
:10041A007F23813130302000AF002330B0007908CB
:10042A002F07B1007A08303DB2002D083107860047
:10043A002E08323D8700403FB300413FB4003308E5
:10044A00B5003408B6000030B61BFF30B700B8005C
:10045A003508A9073608AA3D3708AB3D3808AC3D30
:10046A002608B9000130B935FF3E031D382A39354F
:10047A00203E8600013087002908C03F2A08C13F74
:10048A002B08C23F2C08C33F00302702073003194C
:10049A002602031C5E2A01302100BB070030BC3D46
:1004AA0000303C020C3003193B02031C5E2ABB01DC
:1004BA00BC010030F3000030F2000030F1000C30D3
:1004CA00F00020002608A8000130A835FF3E031DD1
:1004DA006A2A2835203E860001308700403FF40012
:1004EA00413FF500423FF600433FF70097317E2730
:1004FA0071082000BD007008BC003D08A7003C0838
:10050A00A600080048302100DF000C30E000483027
:10051A00C5000C30C600FF30E2000330E3000030B3
:10052A00DB000130DC003C30DD000030DE00D101B0
:10053A00D201E101CB01C8302000E800680821009F
:10054A00CC00CD010030D7000030D8000030D900EF
:10055A00DA01C701C801C901CA0194319024823164
:10056A0094313E24823120000D19CC2A961205308E
:10057A002000E8002630890BC02AE80BC02A0000B8
:10058A0001302100C7070030C83D2000961621001F
:10059A00E101083061020318F12A61082000E8002D
:1005AA00E9016808A6006908A70081313B21823168
:1005BA0021006135403E8600013087002000260870
:1005CA00C03F2708C13F0130E80068082100E10761
:1005DA0008306102031CD22A20000D19F92A0130C1
:1005EA002100C9070030CA3D22004108F90040082D
:1005FA00F8009331F923823178082000A3007908A2
:10060A00A4007A08A500DD30A0005530A1003E30D4
:10061A00A2008A317922823120002008C0002108F4
:10062A00C1002208C2008931F2218231200041082A
:10063A002100A900200040082100A8002200430848
:10064A00F9004208F8009331F92382317808200032
:10065A00A3007908A4007A08A5008730A0000B300F
:10066A00A1003F30A2008A3179228231200020087D
:10067A00C0002108C1002208C2008931F22182315A
:10068A00200041082100AB00200040082100AA00F8
:10069A0095313825823195317D2582310C30210002
:1006AA004B02031CED2B20006E0803196C2B210052
:1006BA002908803A2000E80021006008803A2000DA
:1006CA006802031D7B2B21005F0828027B2B210077
:1006DA006508803A2000E80021002B08803A2000B3
:1006EA006802031D7B2B21002A08640203188A2B47
:1006FA00033021006302FF30031962020318932BAF
:10070A000130E2070030E33D932B210062086304C5
:10071A000319932B0130E2020030E33BCB01013095
:10072A002000E80068082100CC075E08F1005D0897
:10073A00F00093313D23823121006308F100620801
:10074A00F00093315323823121005C08F1005B08E9
:10075A00F00093316923823189316C218231200082
:10076A00E80068082100DA0002305A06031DCF2B80
:10077A006008803A2000E8008A306802031DC82B0E
:10078A00F13021005F02031CCF2BF6302100DF0776
:10079A00FF30E03D033021005A06031DE62B6008B6
:1007AA00803A2000E8008D306802031DDF2B4830B4
:1007BA0021005F020318E62B0A302100DF07003010
:1007CA00E03D21005A03031DED2B9431FD248231B3
:1007DA0001302000E80068082100CB0715304C02E0
:1007EA00031CB82A0630A03E860087010230A03ECC
:1007FA0084008501403F0007D1000131413F003D9F
:10080A00D2005208803A2000E80080306802031DB6
:10081A00112C153021005102031C382C21005208DA
:10082A002000E900210051082000E800E936E80C20
:10083A0068080A3EEA000030693DEB006B082100B7
:10084A005E02031D2C2C20006A0821005D02031899
:10085A00332C0130DD070030DE3D3B2C0130DD0258
:10086A000030DE3B3B2C2100DD01DE0120000D19AA
:10087A00492C37302100DD000030DE000430200032
:10088A00E80068082100EC0001302000E800680850
:10089A002100CD0751304D02031C6C2C94313E24AB
:1008AA0082312100CD010930933128238231710828
:1008BA002000DE007008DD008E3123268231200000
:1008CA005E082100EE0020005D082100ED00803165
:1008DA004220823121002308F9002208F8009331CE
:1008EA00F923823178082000B0007908B1007A082B
:1008FA00B2000030A000C830A1004230A20021009E
:10090A002B08F9002A08F8009331F9238231780874
:10091A002000A3007908A4007A08A5008A31792268
:10092A00823120002008B3002108B4002208B50053
:10093A008B31D2238231200030082100CE002000E2
:10094A0031082100CF00200032082100D0000030F9
:10095A002000A0002030A1004130A20021004E0852
:10096A002000A30021004F082000A4002100500805
:10097A002000A5008A317922823120002008210036
:10098A00D700200021082100D800200022082100D9
:10099A00D9002908F9002808F8009331F92382318F
:1009AA0078082000A3007908A4007A08A50000307E
:1009BA00A000C830A1004230A2008A3179228231D7
:1009CA0020002008B3002108B4002208B500210045
:1009DA002108F9002008F8009331F92382317808B8
:1009EA002000B0007908B1007A08B2008B31D22316
:1009FA008231200030082100CE0020003108210079
:100A0A00CF00200032082100D0004E082000A300A9
:100A1A0021004F082000A400210050082000A50052
:100A2A000030A0002030A1004130A2008A31792292
:100A3A008231200020082100C20020002108210064
:100A4A00C300200022082100C40042082000A000A0
:100A5A00210043082000A100210044082000A20030
:100A6A00210057082000A300210058082000A400F4
:100A7A00210059082000A5008A31792282312000FC
:100A8A0020082100D700200021082100D8002000DA
:100A9A0022082100D90000302000B000C830B1007F
:100AAA004230B200210057082000B3002100580844
:100ABA002000B400210059082000B5008B31D22350
:100ACA008231200030082100D7002000310821009F
:100ADA00D800200032082100D900F50100309331F6
:100AEA0015238231210048082000A9002100470867
:100AFA002000A8000530E8006808AA00AB01AC0194
:100B0A008C3186248231F5011830933115238231D4
:100B1A0021004A082000A900210049082000A80055
:100B2A000530E8006808AA00AB01AC018C318624C4
:100B3A008231F501303093311523823120006D085E
:100B4A00A800A901A81BA9030330E8006808AA00A5
:100B5A00AB01AC018C318624823120309631622679
:100B6A008231F501F50A00309331152382312100D3
:100B7A0029082000A900210028082000A800043024
:100B8A00E8006808AA000230E9006908AB00AC0175
:100B9A008C31862482315630963162268231F501B3
:100BAA00F50A1C30933115238231210021082000D7
:100BBA00A900210020082000A8000330E8006808E6
:100BCA00AA00AB01AB0AAC018C31862482314130D8
:100BDA0096316226823102302000E8006808F5006A
:100BEA00003093311523823121002B082000A900FF
:100BFA0021002A082000A8000430E8006808AA009A
:100C0A000230E9006908AB00AC018C3186248231DC
:100C1A00563096316226823102302000E800680898
:100C2A00F5001C309331152382312100230820005E
:100C3A00A900210022082000A8000330E800680863
:100C4A00AA00AB01AB0AAC018C3186248231413057
:100C5A0096316226823102302000E8006808F500E9
:100C6A003830933115238231210065082000A9000C
:100C7A00210064082000A8000430E8006808AA00DF
:100C8A000230E9006908AB00AC018C31862482315C
:100C9A00563096316226823103302000E800680817
:100CAA00F50000309331152382316430F0000030B2
:100CBA00F10021002908F3002808F20096311126D4
:100CCA0082317108FA007008F90021002108FC003D
:100CDA002008FB0093317F2382317A082100D40057
:100CEA007908D3000A30F0000030F1005408F3000C
:100CFA005308F20096311126823171082100D6007C
:100D0A007008D50056082000A900210055082000C7
:100D1A00A8000330E8006808AA00AB01AC018C31D6
:100D2A008624823157309631622682310330200080
:100D3A00E8006808F5001C30933115238231210040
:100D4A006C082000E800E9016808A8006908A90001
:100D5A00AA01AA0AAB01AC018C3186248231033084
:100D6A002000E8006808F500243093311523823109
:100D7A0020006E08A800A901A81BA903AA01AA0AB3
:100D8A00AB01AC018C318624823103302000E800AB
:100D9A006808F50030309331152382312100670845
:100DAA002000A900210066082000A8000330E800FE
:100DBA006808AA00AB01AB0AAC018C3186248231E7
:100DCA00413096316226823104302000E8006808FA
:100DDA00F50000309331152382316430F000003081
:100DEA00F10021002B08F3002A08F200963111269F
:100DFA0082317108FA007008F90021002308FC000A
:100E0A002208FB0093317F2382317A082100D40023
:100E1A007908D3000A30F0000030F1005408F300DA
:100E2A005308F20096311126823171082100D6004A
:100E3A007008D50056082000A90021005508200096
:100E4A00A8000330E8006808AA00AB01AC018C31A5
:100E5A00862482315730963162268231043020004E
:100E6A00E8006808F50030309331152382312100FB
:100E7A0060082000A90021005F082000A8000430B3
:100E8A00E8006808AA00AB01AC018C3186248231E3
:100E9A0005302000E8006808F5000030933115237A
:100EAA008231210063082000A90021006208200085
:100EBA00A8000430E8006808AA00AB01AC018C3134
:100ECA008624823105302000E8006808F5001830D1
:100EDA0093311523823121005C082000A9002100EA
:100EEA005B082000A8000430E8006808AA00AB01EB
:100EFA00AC018C318624823105302000E800680874
:100F0A00F500303093311523823121005E0820002C
:100F1A00A90021005D082000A8000430E800680844
:100F2A00AA00AB01AC018C31862482310530200045
:100F3A00E8006808F5004A3093311523823103101E
:100F4A0020000D1D03140030093DE800E90168087E
:100F5A00A8006908A900AA01AA0AAB01AC018C3150
:100F6A0086248231033021006C02031CBF2F8D318D
:100F7A003F2582312100CC01B82A21008031052089
:100F8A008731ED00803106208731EE00053084007C
:100F9A009330850050308600013087000030FF0012
:100FAA0010309231DD2287313030840023308500C1
:100FBA00C030FE000030FF009231D122873120007C
:100FCA00EC01ED01EE01A0308400003085002230F2
:100FDA00FE000030FF009231D12287312030840098
:100FEA00013085003030FE000030FF009231D122FE
:100FFA0020008231872A00340034003400344E3411
:10100A000034063400340634FF34FF34FF344834E5
:10101A00D6342434123408342434FF34FF34FF34F1
:10102A00003406340034383444348234823444344C
:10103A003834143408343E34103438341034A0347C
:10104A0060340034103410341034603460340034A6
:10105A006034183406347C3442347C3444347E346C
:10106A004034643452344C344A344A343434383494
:10107A0024347E344E344A3432343C344A343234A2
:10108A0062341A34063476344A3476344C34523460
:10109A003C346C346C340034AC346C34003410346A
:1010AA002834443428342834283444342834103436
:1010BA00023459340634FF34FF34FF347C3412349A
:1010CA007C347E345A3434343C34423442347E34B0
:1010DA0042343C347E344A3442347E340A340A344C
:1010EA003C34523434347E3408347E3442347E34D0
:1010FA004234303440343E347E34183466347E34DC
:10110A00403440347E341C347E347E3402347E349F
:10111A003C3442343C347E3412340C347E346234EF
:10112A00FE347E3432344E3444344A343234023457
:10113A007E3402347E3440347E343E3440343E348D
:10114A007E3438347E346634183466340E3470345F
:10115A000E3462345A34463400347E34423406340F
:10116A001834603442347E34003404340234043493
:10117A004034403440340034023404347434543437
:10118A0078347E3448343034303448344834303457
:10119A0048347E343834543458347C340A34023473
:1011AA009834A4347C347E340834703448347A3425
:1011BA0040348834FA3400347E3418346434423487
:1011CA007E3440347C3438347C347C34043478348F
:1011DA00383444343834FC3424341834183424343D
:1011EA00FC34783404340434483454342434043415
:1011FA003E3444347C3440347C343C3440343C34D3
:10120A007C3430347C346C3410346C349C34A034E8
:10121A007C34643454344C340C3412340C34FF347B
:10122A00FF34FF34FF34FF34FF34FF34FF34FF341C
:10123A00FF34FF34FF34FF34FF34FF34FF34FF340C
:10124A00FF34FC3440347C34FF34FF34FF34FF3441
:04125A00FF34FF342A
:10126200F21F47297009F6007109F7007209F800A8
:10127200F60A0319F70A0319F80A00307607F00094
:101282000030773DF1008030783DF200F51F5D2996
:101292007309F6007409F7007509F800F60A0319D4
:1012A200F70A0319F80A00307607F3000030773D99
:1012B200F4008030783DF5008030F2068030F5068B
:1012C20075087202031D080074087102031D0800EC
:1012D2007308700208000B3093312823893171089A
:1012E2002100B8007008B7003808803AF400813055
:1012F2007402031D7E296D303702031C90292100E0
:101302003808803AF40081307402031D8A2995302E
:101312003702031890292000EC01EC0ABE292100B3
:101322003808803AF40082307402031D9A2917307B
:101332003702031CAA2921003808803AF4008230BF
:101342007402031DA6294E3037020318AA2902305F
:10135200B72921003808803AF40082307402031D54
:10136200B429EA303702031CBC290330F4007408A4
:101372002000EC00BE292000EC016C080319EE29C4
:101382006C0821003E060319CD2920006C08F400E8
:1013920074082100BE00EF290130F4007408BD0773
:1013A2003D03031DD6293E0808003D08803A753EDC
:1013B200031CF0290230F5000430F400BA30890B26
:1013C200E029F40BE029F50BE02900320A30F400A1
:1013D20074082100BD003E0808002100BD01003054
:1013E200080020004008C4004108C5004208C600A9
:1013F2000310450D460DC7004708CD004D08031DDB
:101402000B2A0030C3000030C2000030C10000309F
:10141200C00008004008C4004108C5004208C600D8
:101422001730C636C50CC40C890B122A4408C700F3
:101432004708C800C117FF30C005FF30C1050030A2
:10144200C2054008C9004108CA004208CB00CC01CD
:101452008E30CD02CD1F492A4D08803A8F3E0318A7
:101462003B2A0030C3000030C2000030C10000300F
:10147200C00008000130CC36CB0CCA0CC90C890B59
:101482003C2A0130C4004408CD070319622A3B2AD2
:1014920018304D02031C5F2A0030C3000030C20026
:1014A2000030C1000030C00008000130C935CA0D4B
:1014B200CB0DCC0D890B572A0130CD024D08031DEF
:1014C200562A48080319702AC909CA09CB09CC0946
:1014D200C90A0319CA0A0319CB0A0319CC0A4C0810
:1014E200C3004B08C2004A08C1004908C0000800F6
:1014F20020002308A6002408A7002508A80003103E
:10150200270D280DA9002908AE002E08031D902AD8
:101512000030A0000030A1000030A2000800200826
:10152200A6002108A7002208A8000310270D280DF5
:10153200A9002908AF002F08031DA62A0030A00029
:101542000030A1000030A20008000030AB000030E3
:10155200AC000030AD0089302F07A6002608AE028D
:101562002308A6002408A7002508A8001030A836E2
:10157200A70CA60C890BB82A2608A9002908AF00D7
:101582002008A6002108A7002208A8001030A836CB
:10159200A70CA60C890BC82A2608A9002908AF06A1
:1015A2008030A6002608AF05A417FF30A305FF3040
:1015B200A4050030A505A117FF30A005FF30A10545
:1015C2000030A2051830A6002608AA000130AB356B
:1015D200AC0DAD0D890BE82A22082502031DF72A5E
:1015E20021082402031DF72A20082302031C002BD2
:1015F2002008A3022108A43B2208A53B2B1401309A
:10160200A335A40DA50D890B012B0130AA02031DE0
:10161200E72A2B08F0002C08F1002D08F2002E0812
:10162200A6002608F3002F08A7002708F400973128
:101632001A2770082000A0007108A1007208A200F9
:10164200080020005708F0005808F1005908F2007D
:101652000030F3000030F4000030F5008931312110
:101662008B310318412B21302100B5000030B60028
:1016720000302000D7000030D8000030D900080028
:101682002000590858045704031D542B223021000E
:10169200B5000030B60000302000D7000030D8007E
:1016A2000030D90008000030C0008030C100BF30D7
:1016B200C2000030B0000030B1004030B2005B30F8
:1016C200DA005A08F3005708F0005808F1005908E8
:1016D200F200803107208B3170082000B3007108BE
:1016E200B4007208B5008B31D2238B312000300850
:1016F200C3003108C4003208C5008F310A278B317C
:1017020020004008D7004108D8004208D900FF3025
:10171200DB07FF30DC3D5708CD005808CE005908E2
:10172200CF000030D0009830D1000830D200003015
:10173200D3009631BA268B3120004D08D7004E08CF
:10174200D8004F08D9005708C0005808C1005908EE
:10175200C2007230B0003130B1003F30B2005C08DC
:10176200F9005B08F8009331F9238B3178082000E7
:10177200B3007908B4007A08B5008B31D2238B31DB
:1017820020003008C3003108C4003208C5008F3180
:101792000A2720004008D7004108D8004208D90093
:1017A200080020003008B6003108B7003208B8003F
:1017B2000310370D380DB9003908BA003A08031D75
:1017C200E92B0030B0000030B1000030B200080058
:1017D2003308B6003408B7003508B8000310370DD7
:1017E200380DB9003908BF003F08031DFF2B003038
:1017F200B0000030B1000030B20008003F087B3E6C
:10180200B6003608BA073008B6003108B700320809
:10181200B8001030B836B70CB60C890B0B2C360852
:10182200B9003908BF003308B6003408B7003508DC
:10183200B8001030B836B70CB60C890B1B2C360822
:10184200B9003908BF068030B6003608BF05B117A7
:10185200B417FF30B305FF30B4050030B5050030D2
:10186200BB000030BC000030BD000730B6003608B7
:10187200BE00301C422C3308BB073408BC3D35087F
:10188200BD3D0130B236B10CB00C890B432C013096
:10189200B335B40DB50D890B492C0130BE02031DC1
:1018A2003A2C0930B6003608BE00301C5E2C3308D4
:1018B200BB073408BC3D3508BD3D0130B236B10C22
:1018C200B00C890B5F2C0130BD36BC0CBB0C890BF4
:1018D200652C0130BE02031D562C3B08F0003C086B
:1018E200F1003D08F2003A08B6003608F3003F085E
:1018F200B7003708F40097311A2770082000B000AB
:101902007108B1007208B2000800B03086000030E1
:101912008700313084000030850005302000AD00A2
:1019220016001A00AD0B912C0430AD002D08B70043
:10193200B601A91FA72C2D30963162268C312000CA
:10194200A809A909A80A0319A90AAE2C2C03031D88
:10195200AE2C2B30963162268C31200028082904C7
:101962000319DB2C0A30F0000030F10020002908B6
:10197200F3002808F200943164248C3170082000AE
:10198200AD003708313E860087012D0881000A30FC
:10199200F0000030F1002908F3002808F200963127
:1019A20011268C3171082000A9007008A8000130AE
:1019B200B702AE2C2A0A0319E32CEB2C0130AD003E
:1019C2002D08B6073608313E860087010108031D3F
:1019D200F12CDF2C2A03FF3A053EAD002D08B6009C
:1019E2003608AD002D08B7002B08AD00AE01AD09D9
:1019F200AE09AD0A0319AE0A2D08053EAF0000304C
:101A02002E3DB0003008803A803C031D0A2D2F087D
:101A1200370203181C2D20003708313E860087014B
:101A22000108303E963162268C3101302000AD0033
:101A32002D08B707F52C20002B03031D2A2D2E306D
:101A4200963162268C3120003508303E963162266E
:101A52008C31023020002B06031D08002E309631F7
:101A620062268C3120003408303E963162268C3159
:101A720020003508303E96316226080021006508B4
:101A8200803A2000CE0021002B08803A20004E022E
:101A9200031D4E2D21002A0864020318672D200021
:101AA2006D08803A763E03185A2D0130CE004E085A
:101AB200ED07210040080319612D0130C0027D2D80
:101AC20020006E0803197D2DEE017D2DFF302000D0
:101AD200CE004E08ED076D08803A8A3E03187D2D30
:101AE200EE01EE0A0A30CE004E082100C000F630A8
:101AF2002000CE004E08ED0021006708803A200049
:101B0200CE0021002308803A20004E02031D8C2DB6
:101B12002100220866020318080020006E08031D37
:101B22000800053021006C06031D08006D09200025
:101B3200CE0021006E092000CF00CE0A0319CF0A81
:101B42004E08FA3EF80000304F3DF9009331F92378
:101B52008D3178082000B3007908B4007A08B50006
:101B6200C330B0007530B1003E30B2008B31D223A9
:101B72008D3120003008C0003108C1003208C20097
:101B82008931F2218D31200040081E3ED0000530FF
:101B9200413DD10021002B08803A2000D20051089B
:101BA200803A5202031DD82D500821002A02031840
:101BB200080004302000CE004E082100EC006D0920
:101BC2002000CE0021006E092000CF00CE0A0319AA
:101BD200CF0A4E08FA3EF80000304F3DF90093312B
:101BE200F9238D3178082000B3007908B4007A080F
:101BF200B500C330B0007530B1003E30B2008B3159
:101C0200D2238D3120003008C0003108C1003208D3
:101C1200C2008931F22120004008913E2100E400F7
:101C220005302000413D2100E5003730E60000305C
:101C3200E7002000EE01EE0A0A30CE004E08210035
:101C4200C000080000302000C0008030C100BF305A
:101C5200C2005E08F9005D08F8009331F9238E3165
:101C620078082000A0007908A1007A08A200C030FC
:101C7200A3007F30A4004430A5008A3179228E313E
:101C820020002008C3002108C4002208C5008F31AB
:101C92000A278E3120004008E2004108E300420892
:101CA200E4006208A0006308A1006408A200883072
:101CB200A3001A30A4004630A5008A3179228E3161
:101CC20020002008DF002108E0002208E10018308F
:101CD200A0001C30A1004630A2005F08A3006008EB
:101CE200A4006108A5008A3179228E3120002008E3
:101CF200E5002108E6002208E7006508D70066082B
:101D0200D8006708D9008B3122238E312000570872
:101D1200E5005808E6005908E700E030A0007B30F3
:101D2200A1004530A2006508A3006608A400670868
:101D3200A5008A3179228E3120002008E500210891
:101D4200E6002208E700CF30C0005B30C1003B3024
:101D5200C2006508C3006608C4006708C5008F3169
:101D62000A278E3120004008E5004108E6004208BB
:101D7200E7006508A0006608A1006708A20000301D
:101D8200A3008030A4003F30A5008A3179228E3131
:101D920020002008E5002108E6002208E700933031
:101DA200CD008830CE004330CF006508D0006608F1
:101DB200D1006708D20093319D238E3120004D0857
:101DC200E5004E08E6004F08E7000030B000203082
:101DD200B1004130B2006508B3006608B40067087C
:101DE200B5008B31D2238E3120003008E500310856
:101DF200E6003208E7006508C0006608C10067080F
:101E0200C2008931F22120004108DE004008DD00D5
:101E1200080020004008C6004108C7004208C80068
:101E22000310470D480DC9004908CC004308C600FD
:101E32004408C7004508C8000310470D480DC900F3
:101E42004908CB004C080319322F4B084C020318E7
:101E5200392F4C03FF3A4B07C60019304602031CC8
:101E6200392F4308C0004408C1004508C2000800D9
:101E72004B08031908004C084B020318482F4B0368
:101E8200FF3A4C07C6001930460203180800063014
:101E9200C6004608CA00C21BCA17C51B4A17C1178B
:101EA200FF30C005FF30C1050030C205C417FF3046
:101EB200C305FF30C4050030C5054B084C020318AA
:101EC200842F0130C335C40DC50D890B632F01303A
:101ED200CB024B084C0603197F2F0130CA024A0875
:101EE200073903197F2F622F0130C236C10CC00C93
:101EF200890B762F0130C6004608CC074C084B06EA
:101F02000319A92F752F4C084B020318A92F013072
:101F1200C035C10DC20D890B892F0130CC024B088F
:101F22004C060319A52F0130CA024A0807390319C2
:101F3200A52F882F0130C536C40CC30C890B9C2FEA
:101F42000130C6004608CB074C084B06031D9B2FE9
:101F5200CA1FBB2FFF30C006FF30C106FF30C206CA
:101F62000130C007003003180130C10700300318E8
:101F72000130C2074A1FCD2FFF30C306FF30C4060F
:101F8200FF30C5060130C307003003180130C40713
:101F9200003003180130C507CA014008C3074108D1
:101FA200C43D4208C53DC51FE82FFF30C306FF30C0
:101FB200C406FF30C5060130C307003003180130E4
:101FC200C407003003180130C507CA01CA0A430812
:101FD200F0004408F1004508F2004C08C60046082B
:101FE200F3004A08C7004708F40097311A2770081F
:0E1FF2002000C0007108C1007208C200080083
:10259000603031008D008F0191010630930092016F
:1025A00008006400800101310130FE020030FF3B71
:1025B0007F087E0403190034D22AFE0012001E0098
:1025C0000130FE020030FF3B7F087E040319003417
:1025D000DE2A25008E01013090008F019101FE302E
:1025E0008D008C012E00901025008E17080025000C
:1025F00094010130960095019701FE3093009201FD
:102600002E0090112500941708001734003415345B
:1026100000341334003411340034163400341434CC
:1026200000341234003410340034F7007708803856
:10263000F6007608F00000309431192493317508C3
:102640004038F6007608F000003094311924080074
:10265000F3003C3021009E0093171313131413183A
:102660002F2B73089E009317131313141318362B74
:102670000D08F1000C08F00008007108F300700864
:10268000F200F336F20CF336F20C720826008D00DD
:1026900070080339F2000530F235FF3E031D4C2B64
:1026A00072358C0008007108F3007008F200F336F0
:1026B000F20CF336F20C720827008D007008033913
:1026C000F2000530F235FF3E031D622B72358C009F
:1026D00008007108F3007008F200F336F20CF336CC
:1026E000F20C72082700910070080339F2000530DF
:1026F000F235FF3E031D782B723590000800200054
:10270000A001A101791C892B7B082000A0077C086F
:10271000A13D0130FB35FC0D890B8A2B0130FA36C7
:10272000F90C890B8F2B79087A04031D822B20006A
:102730002108FA002008F900080020004F084E0484
:102740004D040319A52B8030CF065008C000510856
:10275000C1005208C2004D08C3004E08C4004F0813
:10276000C5008F310A2720004008CD004108CE0067
:102770004208CF00080021009401950196019901BB
:102780009701C33032008C003F30210098000330A5
:102790009A009B0107309C009D019E0122008D0143
:1027A0008E018F01900191019201930184302100EB
:1027B00093000800803027008E008D018C012400DA
:1027C0001F08F33904389F008030270092009101E0
:1027D000900124001F08CF3920389F0026008E1753
:1027E0000E160F308E0424001E08FC3901389E009E
:1027F0000800FD01F91F032CF809F909F80A03196B
:10280000F90AFD01FD0A7808F0007908F100F201EB
:102810008E30FB007B08F3007D08FC007C08F40090
:1028200097311A277008F8007108F9007208FA0049
:102830000800F2007008F1007108F3007208031D2F
:10284000242C20001611262C200016159610F401B9
:102850000830740203183C2C9611F31F302C961587
:1028600016160310F30D16120130F1007108F4076B
:1028700008307402031C2C2C96140800F901FA018C
:102880007A08803AF80081307802031D492CF8302C
:10289000790203185F2CF00101309431192494312E
:1028A0000130F9070030FA3D7A08803AF8008130AB
:1028B0007802031D5D2CF8307902031C4B2CF501C6
:1028C00000309331152308007008710403198B2C14
:1028D000F501F50AF11B762C0130F035F10D890B6D
:1028E0006D2C0130F4007408F5076A2C710873022E
:1028F000031D7C2C70087202031C822C7008F202EB
:102900007108F33B0130F136F00C890B832C013058
:10291000F502031D762C7308F1007208F000080020
:102920009431C62494319231C82294319331BB231F
:1029300094319331DA2394319231E92294319231F6
:10294000F72294319531C22594319431FD2494318C
:1029500009302000D1001E30D000E430890BAE2CAD
:10296000D00BAE2CD10BAE2C000094313E24943110
:1029700009302000D1001E30D000E430890BBE2C7D
:10298000D00BBE2CD10BBE2C000008002030200044
:102990009600970198013E00B901C401CF010830AB
:1029A000E500200091010E309200FF3093003E00C0
:1029B000B8010A30C300FF30CE002E0016120030DE
:1029C0008B1B0130F0008B1355303D008F00AA3077
:1029D0008F000F100E303E0096000F309700093028
:1029E000980055303D008F00AA308F000F14701CE6
:1029F000FB2C8B1708008B1308002000111091107E
:102A00001111911111129611161216111610161499
:102A10002130F5007508F00000309431192494310C
:102A2000B730F5007508F000003094311924943166
:102A30000430F5007508F000003094311924943109
:102A40001430F5007508F0000030943119249431E9
:102A50002030F5007508F0000030943119249431CD
:102A60000C30F5007508F00000309431192408008E
:102A700022004808B33E2000CE00FD302200493D30
:102A80002000CF004F08803AD00080305002031D54
:102A90004B2D01304E020318512D2100A001A10140
:102AA000080022004808B33EF800FD30493DF90017
:102AB0009331F923953178082000A3007908A40008
:102AC0007A08A5008330A000A830A1003F30A20002
:102AD0008A317922953120002008C0002108C100E8
:102AE0002208C2008931F221200041082100A10002
:102AF000200040082100A000080022004A08BE3E35
:102B00002000CE00FD3022004B3D2000CF004F08BA
:102B1000803AD00080305002031D902D01304E02CB
:102B20000318962D2100A201A301080022004A08E3
:102B3000BE3EF800FD304B3DF9009331F92395314D
:102B400078082000A3007908A4007A08A500DE30E8
:102B5000A0004E30A1004030A2008A317922953188
:102B600020002008C0002108C1002208C2008931CD
:102B7000F221200041082100A3002000400821008C
:102B8000A200080003302000CE004E082100EC0017
:102B90005830E8000230E9000A30E6000030E70073
:102BA0006D092000CE0021006E092000CF00CE0A62
:102BB0000319CF0A4E08FA3EF80000304F3DF900E5
:102BC0009331F923953178082000B3007908B400D7
:102BD0007A08B500C330B0007530B1003E30B200A5
:102BE0008B31D223953120003008C0003108C1005C
:102BF0003208C2008931F22120004008913E2100B4
:102C0000E40005302000413D2100E500193022009C
:102C1000E0000030E1000A302100EA000030EB0063
:102C20000800F601F11F1B2EF009F109F00A031943
:102C3000F10AF601F60AF31F262EF209F309F20A49
:102C40000319F30A0130F4007408F606F701F801DD
:102C5000700871040319552EF501F50AF11B3A2E7F
:102C60000130F035F10D890B312E0130F40074087C
:102C7000F5072E2E0130F735F80D890B3B2E710824
:102C80007302031D452E70087202031C4C2E70083F
:102C9000F2027108F33B77140130F136F00C890B26
:102CA0004D2E0130F502031D3A2E760803195D2ED4
:102CB000F709F809F70A0319F80A7808F100770804
:102CC000F00008002000A5002508E03EA600FF3027
:102CD00003180030A7000330F9000030FA0027087D
:102CE000FC002608FB0093317F2396317A082000F0
:102CF000A7007908A6002708850026088400003070
:102D000084078830853D0008A2002208F0000130C9
:102D100094311924963120002608013EA20000308B
:102D2000273DA3000030220784008830233D850022
:102D30000008A4002408F0000130943119249631D1
:102D400020002608023EA2000030273DA3000030EC
:102D5000220784008830233D85000008A400240851
:102D6000F0000130943119249631F0010130943192
:102D70001924080020005308FA005208F900033013
:102D8000FB000030FC0093317F2396312000500877
:102D90007907840051087A3D8500003FD400013F47
:102DA000D500023FD600520853040319132FFF30F9
:102DB000D207FF30D33D5308FA005208F900033020
:102DC000FB000030FC0093317F2396312000500837
:102DD0007907840051087A3D8500003FC000013F1B
:102DE000C100023FC2005408B0005508B1005608A7
:102DF000B2004D08B3004E08B4004F08B5008B3147
:102E0000D223963120003008C3003108C4003208B4
:102E1000C5008F310A27963120004008D4004108B0
:102E2000D5004208D22E5408CD005508CE005608D1
:102E3000CF00080073080319222F72087104700470
:102E4000031D332F0030F0000030F1000030F2009D
:102E500008000130F5007508F3070130F236F10C77
:102E6000F00C890B2E2FFE30720503194C2F292FE1
:102E70000130F5007508F3070130F0070030031842
:102E80000130F107003003180130F2070130F2364B
:102E9000F10CF00C890B472FFF3072050319592FE5
:102EA000382F0130F3020130F035F10DF20D890BAE
:102EB000542FF11B5F2F023073020318512F731828
:102EC000672FFF30F0057F30F105FF30F20503106A
:102ED000F30C7308F500F601F7011030F535F60D27
:102EE000F70D890B6E2F7508F0047608F10477084A
:102EF000F204740803190800F21708002000A10169
:102F0000F31F8F2FF009F109F209F309F00A0319F1
:102F1000F10A0319F20A0319F30AA101A10AF71F22
:102F2000A02FF409F509F609F709F40A0319F50ABF
:102F30000319F60A0319F70A0130F8007808A10608
:102F40000030A5000030A4000030A3000030A20033
:102F500073087204710470040319E92FA001A00A18
:102F6000F31BBE2F0130F035F10DF20DF30D890B7F
:102F7000B32F0130F8007808A007B02F0130A23538
:102F8000A30DA40DA50D890BBF2F73087702031D98
:102F9000D32F72087602031DD32F71087502031D0B
:102FA000D32F70087402031CDE2F7008F40271081E
:102FB000F53B7208F63B7308F73B22140130F336F9
:102FC000F20CF10CF00C890BDF2F0130A002031D75
:102FD000BE2F21080319F72FA209A309A409A509E7
:102FE000A20A0319A30A0319A40A0319A50A2508AA
:102FF000F3002408F2002308F1002208F000080082
:10300000003400340034003480343F34F034FF3472
:10301000BE34E234A9343E3483347634BE34AE3424
:103020002B343E343C34C334BD34D23413343D34B9
:063030007834D334BB34F8
:020000040001F9
:0A000E008C3FFF3F9F3FFF2FFF3F95
:00000001FF
