:10000000E52F00308A000408840A82070034203477
:10001000203453344534543450344F3449344E34FE
:1000200054343A3420342034003457346134743436
:1000300065347234653464342034203400345734E9
:1000400061346934743469346E3467342034203454
:1000500000345734613474346534723469346E3426
:100060006734203400344E346F34203457346134D4
:1000700074346534723420340034543449344D348B
:0E0080004534203400342F3400343A34003438
:100194001030831603139F00080064008001840A52
:1001A4000406031900340406D028FC00F5012830A5
:1001B400CD21F5017C080C38CD2108000C34123413
:1001C40012340C3400340034003400340134033469
:1001D40083160313901210123E30910083120313FE
:1001E40081014730831603138100F3309D0008001A
:1001F400FD0010307D020318080002297D170A292A
:100204007C08003A03190A29013A031900290A292A
:10021400FD17F5017D08CD210800F10083120313B9
:100224009F017108F00001300310F00DFF3E031D23
:1002340016290310700D9F001F142130F000F00BDD
:100244002129831203139F149F1826291F101E08A7
:100254000800F40070087102031832297008332969
:100264007108F2007208F5007108740203183C2941
:1002740071083D297408F2007208F60076087502C8
:1002840003184629750847297608F2007208F30016
:1002940073080800F401F501701C56297208F4076C
:1002A4000318F50A7308F50701300310F20DF30D76
:1002B400FF3E031D572901300310F10CF00CFF3EE3
:1002C400031D5E2970087104031D4E297508F10091
:1002D4007408F000080014308316031385001030EE
:1002E40083160317850083120313850104308316D4
:1002F40003139500303086003030831603178600D0
:100304004030831203138600831203179501803053
:100314008316031387008030831603178700831224
:1003240003138701080083120313B80038088400FC
:100334000120003A03190800380884000120253AF6
:10034400031DBE290130FC007C08B807380884006E
:100354000120D03EFC007C08B700B71BBA2937083F
:10036400803A783E0318BA29F501F50A3708C529F9
:10037400F501F50A2530CD21F501F50A83120313A1
:10038400380884000120CD210130FC007C08831250
:100394000313B8079829FA007A08F600043003100A
:1003A400F60CFF3E031DD1297608F7007708F80004
:1003B4007A080F39F6007608F9007508031DE62956
:1003C400831203130712E9298312031307168312F6
:1003D400031307170708F0397804F6007608FB00C2
:1003E4007B08870083120313071383120313071771
:1003F4000708F0397904F6007608FB007B088700CB
:1004040083120313071307220800F4010F30F000CE
:1004140070088316031387048312031387160712C5
:10042400831203130717831203130708F0007008DD
:10043400F4007408F00003300310F00DFF3E031DB8
:100444001E2A0310700DF1007108F40083120313C7
:100454000713831203130717831203130708F0000B
:100464007008F3000F30F0007008F305740873048B
:10047400F0007008F40074088039F0007008F2008D
:100484008312031307137208031D122A8312031322
:100494008712F030F00070088316031387050800F4
:1004A400F601F31F5C2AF209F309F20A0319F30AAD
:1004B400F601F60AF11F632AF009F109F00A03199B
:1004C400F10A700871040319902AF501F50AF11B69
:1004D400772A01300310F00DF10DFF3E031D6C2A45
:1004E4000130F4007408F507692A71087302031DCA
:1004F4007D2A70087202031C852A7008F2027108B2
:10050400031CF303F30201300310F10CF00CFF3E63
:10051400031D862A0130F502031D772A7608031984
:10052400982AF209F309F20A0319F30A7308F1008D
:100534007208F0000800FC00023083120313B900B3
:10054400E730B8000030B700B70BA62AB80BA62ACC
:10055400B90BA62A0000F03083120313B700370842
:10056400831603138705071307128712F0308312CB
:100574000313B70037088705071387120712C22A27
:10058400C32A8312031307178714C82AC92A83129C
:1005940003130713CD2ACE2A0722F5012830CD21D3
:1005A400F5017C080C38CD21F5014030CD21FD0149
:1005B40008307D0203180800F501F50A7D08463E5F
:1005C400840083130008CD21013083120313B70084
:1005D4003708FD07DA2AF601F11FF72AF009F109B5
:1005E400F00A0319F10AF601F60AF31F022BF209C5
:1005F400F309F20A0319F30A0130F4007408F60649
:10060400F701F801700871040319392BF501F50A93
:10061400F11B182B01300310F00DF10DFF3E031DEB
:100624000D2B0130F4007408F5070A2B0130031078
:10063400F70DF80DFF3E031D192B71087302031DFE
:10064400252B70087202031C2E2B7008F20271080D
:10065400031CF303F302771401300310F10CF00CC4
:10066400FF3E031D2F2B0130F502031D182B7608C6
:100674000319412BF709F809F70A0319F80A78084E
:10068400F1007708F00008003A3084008312031365
:10069400200883138000840A21088000840A220829
:1006A4008000840A23088000840A2408800004301F
:1006B400C1000030C200BF01C001B81F6C2BF5019E
:1006C400F50A2D30CD2183120313B709B809B70AEF
:1006D4000319B80A370838040319992B0A30F000B3
:1006E4000030F1003808F3003708F2005222700895
:1006F400FC008312031341083A3E84007C088313F0
:1007040080000A30F0000030F1003808F3003708A8
:10071400F200ED22710883120313B8007008B700C9
:10072400FF30C1070318C20AFF30C2076C2B390A15
:100734000319A32BAB2B0130BF070318C00A0030E9
:10074400C0073F083A3E840083130008031DBD2BF5
:100754009D2B3908FC00FD01FC1BFD03FC09FD0970
:10076400FC0A0319FD0A7C08053EBF007D08031836
:10077400013E003EC0004008C2003F08C1004208DC
:10078400803AFF0080307F02031DCA2B05304102EE
:1007940003180800F501F50A8312031341083A3ED1
:1007A400840083130008303ECD21013083120313EB
:1007B400C1070318C20A0030C207C12BCA20831222
:1007C40003133308F000F101F01BF1030A30F200C7
:1007D4000030F3004C218312031334087007F70030
:1007E4000030B41BFF300318013E7107F8002830B5
:1007F40077067804031D6C2C3508F000F101F01B1A
:10080400F1030A30F2000030F3004C218312031389
:1008140036087007F7000030B61BFF300318013E9E
:100824007107F8007808803AFF0080307F02031DCA
:100834001D2C0A307702031C6C2C83120313350819
:10084400F000F101F01BF1030A30F2000030F30074
:100854004C218312031336087007F7000030B61BCF
:10086400FF300318013E7107F8007808803AFF0052
:1008740080307F02031D402C1A30770203186C2C41
:10088400831203138516861303304F02031C522C64
:1008940009300F21F700770883120313AD00CF014D
:1008A40002304F06031D5D2C0A300F21F700770834
:1008B40083120313AE004F03031D672C0B300F216B
:1008C400F700770883120313B0000130F7007708AC
:1008D400CF07DA2C831203133308F000F101F01B65
:1008E400F1030A30F2000030F3004C2183120313A9
:1008F40034087007F7000030B41BFF300318013EC2
:100904007107F800283077067804031DD62C3508C3
:10091400F000F101F01BF1030A30F2000030F300A3
:100924004C218312031336087007F7000030B61BFE
:10093400FF300318013E7107F8007808803AFF0081
:1009440080307F02031DA82C1A307702031CD62C9A
:10095400831203133508F000F101F01BF1030A3090
:10096400F2000030F3004C218312031336087007A1
:10097400F7000030B61BFF300318013E7107F80082
:100984007808803AFF0080307F02031DCB2C24308E
:1009940077020318D62C2130F700F70BCF2C8312E3
:1009A400031385128617DA2C831203138512861318
:1009B4003308F000F101F01BF1030A30F2000030BB
:1009C400F3004C218312031334087007F70000303E
:1009D400B41BFF300318013E7107F8007808803A11
:1009E400FF0080307F02031DF92C2D307702031C99
:1009F400362D831203133308F000F101F01BF103C9
:100A04000A30F2000030F3004C218312031334083F
:100A14007007F7000030B41BFF300318013E710764
:100A2400F8007808803AFF0080307F02031D1C2DF7
:100A34002E3077020318362D831203132E08F70085
:100A44007708F0003008F8007808F1002D082B2111
:100A5400F900790883120313B1002B08310203183B
:100A6400362D0613AC01AC0A831203133308F000CD
:100A7400F101F01BF1030A30F2000030F3004C21C5
:100A84008312031334087007F7000030B41BFF30DF
:100A94000318013E7107F8007808803AFF0080309F
:100AA4007F02031D572D2D307702031C7C2D8312EA
:100AB40003133308F000F101F01BF1030A30F200D4
:100AC4000030F3004C218312031334087007F7003D
:100AD4000030B41BFF300318013E7107F80078089A
:100AE400803AFF0080307F02031D7A2D2E3077027A
:100AF400031C08008312031306170800EA206D2163
:100B0400033083120313C5008A30C4005630C30077
:100B1400C30B8A2DC40B8A2DC50B8A2D912D003051
:100B24009D22F5010130CD210B1DA12D0030831232
:100B34000313A5070318A60A0130A6070B110730F3
:100B4400831203132602A13003192502031C962DD8
:100B5400A130A5020730031CA603A6020130C3007E
:100B64004308B6073608803A763E031CCB2DF63090
:100B7400C3004308B6070130C3004308B50735086E
:100B8400803A7A3E031CCB2DB5010130C3004308E3
:100B9400B4073408803A763E031CE22D0130C300CA
:100BA4004308B307B4013308C300C401C31BC4031F
:100BB4004318E02DFE30C3004308B6070030D720A9
:100BC400831203133308803A7A3E031C0B2EB301BD
:100BD4000130C3004308B2070130C3004308B6071D
:100BE4002C08031DFB2D0130A9070318AA0A0030A5
:100BF400AA072C03031D0B2E0130A7070318A80A0C
:100C04000030A8070130A9070318AA0A0030AA0770
:100C1400AC013208803A763E031C152EB201013035
:100C2400C3004308CE074E08803A7E3E031C292E9B
:100C34003208803A7C3E031C292ECE01B2010130D9
:100C4400C3004308AF07FE30C3004308B6070330B0
:100C54000F2183120313C3004308AB00E023831264
:100C6400031305199D2EFC010030FA20831203138F
:100C74002E08C300C4014308B7004408B800033079
:100C8400C5004508B9004623FC010330FA200D30A5
:100C94009521FC010430FA20831203133008C300A9
:100CA400C4014308B7004408B8000330C500450830
:100CB400B9004623FC010730FA200D309521FC01D0
:100CC4000830FA20831203132D08C300C40143081B
:100CD400B7004408B8000330C5004508B9004623EE
:100CE400FC010B30FA200D309521FC010C30FA2068
:100CF400831203132808B8002708B7000430C30080
:100D04004308B9004623FC01FC0A0030FA200130F4
:100D14009521FC01FC0A0D30FA20831203132B08E1
:100D2400C300C4014308B7004408B8000330C50039
:100D34004508B900462383120313051D962D2C0381
:100D4400031DCB2E3308F000F101F01BF1030A3030
:100D5400F2000030F3004C218312031334087007AF
:100D6400C3000030B41BFF300318013E7107C400F8
:100D74004408803AFF0080307F02031DC32E2F30C9
:100D840043020318CB2EFC01FC0A0030FA20233066
:100D94009521831203132C03031DF72E3308F0004F
:100DA400F101F01BF1030A30F2000030F3004C2192
:100DB4008312031334087007C3000030B41BFF30E0
:100DC4000318013E7107C4004408803AFF008030D4
:100DD4007F02031DEF2E2E304302031CF72EFC016D
:100DE400FC0A0030FA200F309521831203132C08DB
:100DF400031D232F3308F000F101F01BF1030A3027
:100E0400F2000030F3004C218312031334087007FE
:100E1400C3000030B41BFF300318013E7107C40047
:100E24004408803AFF0080307F02031D1B2F2E30C0
:100E340043020318232FFC01FC0A0030FA20193066
:100E44009521831203132C08031D4F2F3308F00040
:100E5400F101F01BF1030A30F2000030F3004C21E1
:100E64008312031334087007C3000030B41BFF302F
:100E74000318013E7107C4004408803AFF00803023
:100E84007F02031D472F2D304302031C4F2FFC010B
:100E9400FC0A0030FA202D309521FC01FC0A0930AF
:100EA400FA20831203132808B8002708B700033078
:100EB400C3004308B9004623FC01FC0A0C30FA20A5
:100EC4003D309521FC01FC0A0D30FA2083120313F6
:100ED4002A08B8002908B7000330C3004308B90042
:100EE4004623FC010030FA2037309521FC010530FF
:100EF400FA20831203132F08B700B801B71BB803F5
:100F04000230C3004308B9004623FC010730FA202D
:100F14003F309521FC010830FA20831203134E0858
:100F2400B700B801B71BB803B901B90A4623FC01DD
:100F34000930FA20831203133208B700B801B71B33
:100F4400B803B901B90A4623FC010A30FA203F303C
:100F54009521FC010B30FA20831203133308B700E8
:100F6400B801B71BB803B901B90A4623FC010C3018
:100F7400FA20831203133408B700B801B71BB8036F
:100F8400B901B90A4623FC010D30FA203F309521FE
:100F9400FC010E30FA20831203133508B700B801A0
:100FA400B71BB803B901B90A4623FC010F30FA2074
:100FB400831203133608B700B801B71BB803B9018D
:100FC400B90A4623962D8313203084003730CF206E
:100FD400E020C600E120C700E220C800E320C900E9
:100FE400E420CA00E520CB00E620CC00E720CD00B9
:0C0FF400E820CE00E920CF008301802D12
:02400E00E4FCD0
:00000001FF
